:020000040800F2
:100000000004002031280008B1260008B1260008AD
:10001000B1260008B1260008B1260008B126000864
:10002000B1260008B1260008B1260008D126000834
:10003000B1260008B1260008B1260008A127000853
:10004000B1260008B1260008B1260008B126000834
:10005000B1260008B1260008B1260008B126000824
:10006000B126000811260008B1260008D133000887
:10007000013400083134000871340008B13400083C
:10008000F134000831350008B1260008B126000817
:10009000B1260008B1260008B1260008B1260008E4
:1000A000B1260008B1260008B1260008B1260008D4
:1000B000B1260008B1260008B1260008B1260008C4
:1000C000B1260008B1260008B1260008B1260008B4
:1000D000B1260008B1260008B1260008B1260008A4
:1000E000B1260008B1260008B1260008B126000894
:0400F000B12600082D
:0800F40001010008E10200080F
:10010000024B03F54072C3F8002570473C0C0020F9
:10011000F7B5032003F03CFB5B4803F0A9FA03F0BA
:1001200017F902F07DFF59484FF4E13103F028FC44
:100130005749564803F064FB564C574801F008F9FC
:10014000564D574804F004FE204600F0D1FDAB693F
:100150005448E36501F0D4FE534B544CDA69204611
:1001600042F00102DA61A3F560531A6842F003021B
:100170001A60DA6822F00302DA6004F0D9FBAB6996
:100180002361202383F3118802F0C2FB48486321D6
:10019000484A002303F08CF847484FF4B471474AAB
:1001A000002303F085F846486321464A002303F004
:1001B0007FF802F0C5FB002383F31188354E00253C
:1001C0004FF0FF3002F0ECFC0446600602D52F48E9
:1001D00003F096FB61070BD53148502104F048FE2F
:1001E00028B92DB92B4801F0ABFB012500E0002513
:1001F000E20502D5274801F07BFCA30720D510219A
:10020000F26C314804F05CF9224F0C212E48B26C9C
:1002100004F056F902A9002341F8043D07F12C002F
:1002200004F066FC18B93A6B019B934208D027484A
:10023000011D04F015FC18B11448254903F0E0FA3B
:10024000E70602D5194804F0B3FBA0060BD5174802
:10025000002104F0CDFB40F2CC5398420E4A8CBFF3
:10026000002001201072E10402D51A4800F060FA63
:10027000220544BF012386F890302307A0D5054806
:1002800000F0CEF89CE700BFA0140020AC140020C2
:10029000E05900083C0C002044110020541C0020B0
:1002A000141800207112002000380240DC170020D2
:1002B000DC0C0020F1130008F00C002031140008C1
:1002C000180D0020B1140008380C0020680C002024
:1002D000E75900089C0C002000000000000000000E
:1002E000074B0022C3F80C22C3F8102203F520723A
:1002F000C3F8282303F53572C3F82C23704700BFD9
:10030000AC1400200000000000000000000000000D
:1003100010B506490446002004F0C2FE20600078B3
:10032000D0F1010038BF002010BD00BFF05300081D
:1003300008B504F08DFED0F1010038BF002008BDE3
:1003400013B503780C465BB101A9002205F020F833
:10035000019B20601B78002B14BF0B20002000E0C5
:100360000A2002B010BD00000000000000000000E4
:1003700013B503780C465BB101A9002204F060FFBD
:10038000019B20601B78002B14BF0B20002000E095
:100390000A2002B010BD00000000000000000000B4
:1003A0000A46014903F02CBAF3530008000000008C
:1003B00007B5CB1F0A46016043604B00032193FB46
:1003C000F1F392FBF1F18360C160009103480449AD
:1003D00003F016FA03B05DF804FB00BFAC14002074
:1003E000FD530008000000000000000000000000B5
:1003F00043688268934201DB04230EE0C2689342A3
:1004000001DB032309E00269934201DB022304E0DC
:1004100042699342ACBF012300230376704700007A
:10042000D0F800152DE9F14F0B4653F80CCB0646DA
:100430000A2000FB0C100C3083421ED0B3F90020C0
:1004400012F1640F05DB6FF00E04A242A8BF224632
:1004500001E06FF06302714C643254F822200A33D9
:1004600023F80A2C33F80E2C920023F80E2C33F8C4
:10047000102C920023F8102CDEE796F85870012F0C
:1004800005D100240B4622464FF0010A0DE0BB1FA8
:10049000DBB2012B00F29D80F3E7B3F90C90B3F8C7
:1004A00006B0D94504DA01340A336445F5D11EE0BB
:1004B0005889D0B1D87AB3F80880FF289D7A0CBF4C
:1004C000706B4043C14505FB05F50CDACBEB080B1F
:1004D000451B0BFB00F005FB090905FB189595FB77
:1004E000FBFB2BEAEB700244DDE78246DBE74C4B7B
:1004F0005244C6F80425DC68D1F8F8019C46201A5D
:10050000B0F5806F1ED9D517A2FB002300FB053381
:10051000012B08BF002A0FD3940A44EA83549D0A92
:10052000002D08BFB4F1004F26BF6FF00043C6F89E
:100530000435C6F8044505E04FF47A73B2FBF3F2D4
:10054000C6F80425012F65D1F26C002A1ADDD1F816
:10055000F801D6F80415DCF80C40531A002BF364AC
:1005600003DA5B42C6F804350CE0B26C231A9342FE
:100570004FF0000198BFC3EB0203C6F804158CBF0F
:10058000F164B364D6F8044506F12C00002C326BFC
:100590000BDBB36B9A4203DA991A8C420ADC07E050
:1005A000736B9A4209DA013207E06342934203DC3B
:1005B000224402E01A4600E000223263FFF718FFEF
:1005C00018481949326B234601B0BDE8F04F03F0DB
:1005D00017B90A2F1ED1002304311A461846634565
:1005E00016D0B1F90840844209DDCA884AB1CA79F7
:1005F000FF2A08D00B2A14BF0422032204E0044679
:1006000002E0022200E0052201330A312046E6E73B
:10061000064BDA7001B0BDE8F08F00BF70550008DE
:10062000181D0020AC1400201954000844110020AB
:10063000204B10B51A68043382621B680446C362FB
:100640001D491E4803F0DCF8E36A0BB93C23E36262
:10065000E36AA26A9A4288BFA362A26A9A420CBF66
:100660000023012384F83030154BDA6942F004028C
:10067000DA61A3F540531A6822F040621A60DA6822
:1006800022F04062DA60DA6842F08062DA602023A9
:1006900083F3118802F03CF92046B421094A4FF453
:1006A000805302F005FE02F04BF9002383F311881A
:1006B00010BD00BF1400080828540008AC14002026
:1006C00000380240F11400080000000000000000A3
:1006D000C36810B504460BB102F012FE236A2BB1B9
:1006E00004F11400BDE8104002F00ABE10BD000085
:1006F000074B826A1B683C339B1A782B03D8C36A6A
:100700009A4200D01AB90348142103F0D9BE7047A9
:1007100014000808380C0020000000000000000051
:10072000836AC26A93423CBF01338362FFF7E0BF32
:10073000284B10B51B8A044613F4005F264B35D1B5
:100740001A78AABB01221A7090F83030D3B98362AC
:10075000FFF7CEFF032384F83030204B4FF4804165
:10076000586802F0FDF9202383F3118802F0D0F8D5
:1007700004F1140041F65A31194A4FF4006302F0B3
:1007800097FD0DE0032B13D0164A174B5A61202317
:1007900083F3118802F0BCF81348124904F0D0F931
:1007A00002F0CEF8002383F3118801E000221A70D2
:1007B000202383F3118802F0ABF82046B421084AC5
:1007C0004FF4805302F074FD02F0BAF8002383F373
:1007D000118810BD00080240390C0020441100208F
:1007E000F114000850550008F01700200000000028
:1007F000194B4FF40051DA6942F00402DA61A3F5B3
:1008000040531A6822F040621A601A6842F080620F
:100810001A609A8822F400521204120C9A809A8864
:1008200092B29A80DA6822F04062DA60DA68DA60BE
:100830009A6822F040629A609A6842F040629A6038
:10084000064A1268032A28BF0022D2B202700AB9EF
:100850001983704759837047003802401C0008080C
:10086000B1F5803F70B506460C4613D20A48002108
:10087000224603F025FE054638B974650748084945
:10088000224602F0BDFF284670BD044805492A46AD
:1008900002F0B6FF012070BD380C0020AC1400201F
:1008A000405400084C540008000000000000000004
:1008B0000B2937B5044668D819B9012380F8583098
:1008C00001E080F85810202383F3118802F020F80B
:1008D000D4F8D4301BB104F1C80002F011FD04F1CA
:1008E00060052846FFF7F4FE294B93F85830012B9A
:1008F00007D104F1C80040F2D771264A002302F064
:10090000D7FC02F01DF8002383F3118894F85830C7
:10091000082B26D0092B20D0012B26D11E4B04F109
:10092000340019681D4B04F12C05002908BF194635
:10093000FFF73EFD02A9002341F8043D284604F0DC
:10094000D7F8019B28462363FFF752FD144B1B6821
:10095000E364144B1B68A36407E02846FFF768FEB6
:1009600003E004F19400FFF743FF0F4800F010FD8F
:1009700094F858200D480E4902F042FF042194F8E3
:1009800058200C4803F09CFD00E0012003B030BD6E
:100990003C0C00207114000808000808C04B03003C
:1009A000100008080C00080844110020AC140020B6
:1009B0005A540008380C002000000000000000001D
:1009C000F0B5CE6C87B004460D4630469849FFF727
:1009D000AFFC10B19748002111E030469649FFF76F
:1009E000A7FC78B1286D03A9FFF7AAFC002840F006
:1009F000E28020460399FFF733FF01468D48FFF759
:100A0000CFFC68E130468D49FFF792FC18B1894868
:100A10008B49626DDBE030468A49FFF789FC60B1A3
:100A2000286D03A9FFF78CFC002840F0C480204605
:100A30009DF80C10FFF73CFFDFE730468249FFF7D7
:100A400077FC20B17B48814994F85820BFE03046BC
:100A50007F49FFF76DFCB0B1286D05A9FFF770FC69
:100A6000002840F0A880059B072B00F2A48079485D
:100A7000502104F0FDF910B96E48774901E06D4846
:100A80007649059AA3E030467549FFF751FC0028E6
:100A900039D0286D04A9FFF753FC0446002840F024
:100AA0008A80049B072B00F2868005F15000FFF737
:100AB0002FFC06A941F8044D286DFFF741FC0028E2
:100AC00079D15C48674902F09BFE059BA2009C42DD
:100AD000D2B20FD2042300935E48502103AB04F03E
:100AE000E7F9054638B953485F49039A02F088FE92
:100AF0000134EAE700254F485C4902F081FE002DF1
:100B000000F0E98046E030465949FFF711FC18B380
:100B1000286D05A9FFF714FC00284CD1059B072B75
:100B200049D8002405F15000FFF7F2FB286D03A916
:100B3000FFF706FC70B90423009350214548224674
:100B400003AB04F0DDF9014600287FF457AF04340D
:100B5000E4B2E7E7002151E730464649FFF7E8FBFA
:100B600018B194F858300B2B34D030464249FFF777
:100B7000DFFB18B3286D05A9FFF7FAFB0546D0B9CE
:100B800004F134000599FFF713FC3C480821626B1F
:100B900003F096FC2748294631E730463849FFF7ED
:100BA000C7FB002800F08880286D05A9FFF7E0FB4F
:100BB0000546002876D01F48072120E730463149F6
:100BC000FFF7B6FB0028E8D01A482F49626B02F005
:100BD00017FE80E0286D05A9FFF7B2FB0028EAD1D7
:100BE000059B072BE7D86061A061E061206260622D
:100BF000A06204F1180604F12C0705F15000FFF77C
:100C000087FB40B104F114011C481822202303F093
:100C10008FFC01463AE03146286DFFF7A9FB0146FB
:100C2000A0BB636904360133BE426361E5D1E9E7E5
:100C300064540008AC1400206A5400087154000881
:100C400078540008815400088A540008935400081E
:100C50009E54000814180020A9540008B754000836
:100C6000C7540008D3540008E0540008425A000852
:100C7000E4540008F15400083B550008380C0020EB
:100C80001E55000804550008105500081348FFF7CA
:100C900087FB1348502104F0EBF8E0B9114800F04D
:100CA0004FFE18E0059B626B934214DC236304F152
:100CB0002C00FFF79DFB6DE730460B49FFF738FB33
:100CC00018B106480949226B81E73378232B02D1FA
:100CD0000248092193E607B0F0BD00BFAC14002024
:100CE000141800203C0C002027550008305500083F
:100CF000084B10B51B6804464365074B1978FFF78E
:100D0000D7FD06480649626D02F07AFD0123C4F85A
:100D1000043510BD0000080804000808AC140020C9
:100D2000475500080000000000000000000000001F
:100D300082B0064B0190C0B218649DF80520DA63BA
:100D40009DF806209A6302B0704700BF000400407F
:100D500038B505460C466961202383F3118801F0FC
:100D6000D7FD2846214603F0EBFE01F0E9FD002304
:100D700083F3118838BD000000000000000000006F
:100D80002DE9F3412B4B2C4F197897F844208046DE
:100D9000914204D029482A491A70FFF7D9FF97F8E1
:100DA0004450284E2D0174197059FFF7C1FFE168B6
:100DB00011B12248FFF7CCFFA08802F019FA98F889
:100DC0000830012B12D100238DF804308DF8053046
:100DD0008DF806300198FFF7ABFF362002F008FAD5
:100DE0007059FFF7A5FF242002F002FA97F89C3013
:100DF000B3B1154DEB882E7A43EA06463046FFF72D
:100E000097FFB42002F0F4F92868FFF791FF36202D
:100E100002F0EEF93046FFF78BFFB42002F0E8F95C
:100E2000E388207A43EA0040FFF782FF608902B03E
:100E3000BDE8F081010800203C0C0020F0170020E4
:100E400010580008D0560008205900080000000083
:100E500037B5234C0546D4F80435002B1ADD04F0D1
:100E6000D7F840F2E733D4F8041590FBF3F202FB15
:100E7000130001394FF470725143312291FBF2F1AA
:100E80002831884206DA174BDB691A8892B242F0A1
:100E900001021A80144B1A781C46511C622A1970E0
:100EA0000BD9124B1A889B78ADF800208DF80230D0
:100EB0000098FFF73DFF0023237023785A2B0CD1B5
:100EC0002B7A012B09D1094B1A889B78ADF80420A5
:100ED0008DF806300198FFF72BFF122003B030BDCC
:100EE0003C0C0020F017002050110020B0530008E7
:100EF0001D4BF7B5D3F804450746012C02D0D4BFEB
:100F000000240224194B1A78A24204D01848194927
:100F10001C70FFF71DFF184E240130593519FFF7DB
:100F200007FFA88802F064F93B7A012B12D1002355
:100F30008DF804308DF805308DF806300198FFF7F4
:100F4000F7FE362002F054F93059FFF7F1FE242065
:100F500002F04EF9EB88287A43EA0040FFF7E8FEFA
:100F6000688903B0F0BD00BF3C0C002000080020E1
:100F7000F01700201058000820570008000000005B
:100F8000184BF7B593F89050174E2D01074674197A
:100F90007059FFF7CDFEE16811B11448FFF7D8FE94
:100FA000A08802F025F93B7A012B12D100238DF89D
:100FB00004308DF805308DF806300198FFF7B8FE43
:100FC000362002F015F97059FFF7B2FE242002F026
:100FD0000FF9E388207A43EA0040FFF7A9FE608911
:100FE00003B0F0BD3C0C002060570008F017002053
:100FF000F7B51F491F4A074691F8943010780C4600
:1010000098420AD0022B137002D11B481B4902E000
:101010001BB919481A49FFF79BFE94F89460194DC3
:101020003601A859AC19FFF783FEA08802F0E0F85A
:101030003B7A012B12D100238DF804308DF8053056
:101040008DF806300198FFF773FE362002F0D0F8D5
:10105000A859FFF76DFE242002F0CAF8E388207A31
:1010600043EA0040FFF764FE608903B0F0BD00BFB3
:101070003C0C002070120020F0170020705800086F
:1010800050590008A05700080000000000000000B0
:1010900037B5C278194C02EB4202A3185978A25C0A
:1010A0000546987842EA012242EA0040FFF740FEF6
:1010B0002B7A012B4FF000031BD18DF804308DF8F3
:1010C00005308DF806300198FFF732FE362002F029
:1010D0008FF8EA7802EB4202A3185978A25C98785C
:1010E00042EA012242EA0040FFF722FE242002F0F9
:1010F0007FF840F2BE2003B030BD00BFB0580008FA
:10110000154B37B593F8212093F8224093F82330FC
:1011100042EA042444EA034405462046FFF708FE59
:101120002B7A012B4FF0000311D18DF804308DF88C
:1011300005308DF806300198FFF7FAFD362002F0F1
:1011400057F82046FFF7F4FD242002F051F840F252
:10115000D77003B030BD00BFB058000800000000D9
:1011600010B50C460868FFF7E3FDE16811B10848C7
:10117000FFF7EEFDA08802F03BF8E388207A43EA0F
:101180000040FFF7D5FD6089BDE8104002F030B89F
:10119000F017002000000000000000000000000028
:1011A00073B5584E044696F85830013B0A2B07D8C1
:1011B000DFE803F0091F1F1F1F0C0F1512181B007B
:1011C00040F2E73517E0FFF7DBFD10E0FFF740FEE8
:1011D0000DE0FFF78DFE0AE0FFF7D2FE07E0FFF714
:1011E00007FF04E0FFF754FF01E0FFF789FF054622
:1011F00001E040F6A575A378F3B196F8582042486F
:1012000002EB42010144023A0888D2B289780023F5
:10121000032AA370ADF804008DF8061009D8227ACD
:10122000012A06D1FF228DF804208DF805308DF8B3
:1012300006300198FFF77CFD29464FF0FF3001F0A2
:10124000CFFC0306054628D596F858202E4902EB18
:1012500042028B188A5C5978987842EA012242EA65
:101260000040FFF765FD96F85830062B03D027485D
:101270002749FFF76DFD40F2E73001F0B9FF002389
:101280008DF800308DF801308DF802300098FFF7AE
:101290004FFD40F2E73001F0ABFF680709D56378F6
:1012A0003BB11C49204601EB0311FFF759FF002316
:1012B0006370A90403D520461749FFF751FFAA051B
:1012C00003D520461549FFF74BFF6B0503D5204694
:1012D0001349FFF745FF00238DF804308DF80530E2
:1012E0008DF806300198FFF723FD96F85830062B4D
:1012F00005D02D2002B0BDE8704001F079BF02B0EA
:1013000070BD00BF3C0C0020B0580008F017002052
:1013100010580008E0580008A0580008F0570008CE
:10132000D05700080000000000000000000000008E
:1013300008B5044B044A9B699A610448FFF730FFE3
:10134000FBE700BF541C0020E057000844110020B8
:1013500013B5044603F034FC074803F0D9FB00231F
:1013600000934FF48C710222044B054801F010FFEA
:10137000606002B010BD00BFF017002031130008FC
:1013800058110020000000000000000000000000D4
:10139000144B10B593F858300446062B19D14FF072
:1013A000804308221A801622DA624FF4E0421A8340
:1013B00010221A84DA6A4FF47A714A430A4949685A
:1013C000B1FBF2F202B1013A92B21A8514229A6389
:1013D00002E0064803F09CFB60688021BDE81040F5
:1013E00001F0BEBB3C0C0020A0140020F017002030
:1013F00010B5202383F31188094C01F0B9FAE06D90
:10140000402101F085FB04F1A0006321054A00237F
:1014100001F04EFF01F0C4FA002383F3118810BDE0
:101420003C0C0020F1130008000000000000000048
:1014300010B5202383F311880A4C01F099FAE06D6E
:10144000042101F065FB04F1B4004FF4B471064AC5
:10145000002301F02DFF01F0A3FA002383F311888C
:1014600010BD00BF3C0C002031140008000000003B
:1014700010B5202383F311880A4C01F079FAE06D4E
:10148000022101F045FB04F1C80040F2D771064A81
:10149000002301F00DFF01F083FA002383F311888C
:1014A00010BD00BF3C0C00207114000800000000BB
:1014B00010B5202383F311880A4C01F059FAE06D2E
:1014C000102101F025FB04F1DC0041F28C31064AC9
:1014D000002301F0EDFE01F063FA002383F311888D
:1014E00010BD00BF3C0C0020B1140008000000003B
:1014F00010B52023044683F3118801F039FA054B17
:101500002146D86D01F004FB01F04AFA002383F371
:10151000118810BD3C0C00200000000000000000FD
:1015200002461C21014802F0CBBF00BF380C00204E
:101530000B1E30B5816844680ADBC268944203DA46
:10154000151BAB420CDC06E08C4206DA621C07E09D
:101550005A42A24203DCE21802E0224600E00022E6
:101560008A42426001DB04210EE0C1688A4201DB4D
:10157000032109E001698A4201DB022104E041699B
:101580008A42ACBF012100210176BDE8304002480B
:10159000024902F035B900BFAC140020195400080C
:1015A00010B52023044683F3118801F0B1F904F14A
:1015B000F00040F2E731054A4FF4807301F078FE05
:1015C00001F0BEF9002383F3118810BDF114000867
:1015D00007B5016B42680346914206D0042200928F
:1015E00003485021303303F08BFC03B05DF804FB5B
:1015F000141800200000000000000000000000009F
:1016000037B583680446002B37DD202383F3118828
:1016100001F07EF9D4F8FC5001F092F9002383F335
:1016200011880DB1002535E0A3681D485A1E2346D8
:1016300043F8082F042200925021082203F060FC96
:10164000054638BB94F84430042BEBD004F12C0051
:10165000E168FFF76DFF236B43B9124B84F89C5090
:1016600058684FF4007101F07BFA13E0012384F80D
:101670009C302046FFF794FF0CE090F89C302BB193
:10168000084B4FF48061586801F06AFA002384F82F
:101690009C3001252046FFF79BFF284603B030BD54
:1016A0001418002044110020000000000000000079
:1016B000F7B503780446093B122B00F28480DFE87B
:1016C00003F00A254A5C8282828282608282828260
:1016D0008282828277008368002B78DD5A1E03465F
:1016E00043F8082F042200923C485021082203F0BE
:1016F00007FC054600286BD194F84430042B60D0D9
:1017000004F12C00E168FFF713FF61E08368002B10
:101710005DDD5A1E034643F8082F042200922F482D
:101720005021082203F0ECFB0546002850D194F824
:101730004430042B45D0E7682669202383F31188C1
:1017400001F0E6F84FF47A735E43E764A66401F0B3
:10175000F7F800230EE02C302149FFF7E9FE2023A3
:1017600083F31188002501F0D3F8E564A56401F046
:10177000E7F82B4683F311882AE0FFF741FF05467F
:1017800026E082680321D31F8363530093FBF1F3A8
:1017900092FBF1F14263C363016400911148124965
:1017A00002F02EF80821626B104802F089FE08E072
:1017B0000423009309485021082204F1340303F064
:1017C0009FFB002504E00748094902F019F80125AC
:1017D0002046FFF7FDFE284603B0F0BD1418002098
:1017E00001000080AC140020FD530008380C0020DC
:1017F000005A000800000000000000000000000087
:1018000070B5044611B90378212B14D0D4F88C306C
:10181000D4F888209A420AD3002284F89020C4F891
:10182000883004F16000BDE87040FEF761BF01231D
:1018300084F8903070BD202383F3118801F068F89C
:10184000D4F8FC5001F07CF8002383F3118895B99B
:1018500004F16000FEF764FFD4F88820D4F88C30DF
:101860009A4202D184F8905005E0022384F8903027
:101870002046FFF795FED4F88C20D4F88830034832
:101880000349BDE8704001F0BBBF00BFAC140020AD
:101890000E5A0008000000000000000000000000D8
:1018A00090F8943070B50446002B40D011B90378FD
:1018B000202B0AD01E4B02204FF4005284F89400D3
:1018C0005A83BDE87040FFF72BBE83F3118801F007
:1018D0001FF8D4F8FC5001F033F8002383F311888B
:1018E000E5B9D4F89820A3689A423CBF0132C4F805
:1018F0009820D4F898209A420D4B4FF4005206D30A
:10190000002084F894001A83FFF70AFE06E0012104
:1019100084F8941020465A83FFF742FEA268D4F858
:10192000983004480449BDE8704001F069BF70BDBB
:1019300000080240AC1400201F5A000800000000FC
:1019400037B51423044600935B48502100222346F8
:1019500003F0AEFA0546002840F0A38057485849E6
:1019600001F04EFF5548574901F04AFF625953486C
:101970005549043501F044FF142DF7D14F48534920
:1019800001F03EFF237894F85820632B06D10B2AF0
:1019900004D02046217AFEF78BFF7FE0013A0A2A25
:1019A0007FD8DFE802F0067E7E7E7E7E7E270B7E7D
:1019B0004B002046FFF77CFE05466EE00B2B0DD05A
:1019C000212B36D1A2681821C4F88C20404802F09F
:1019D00077FD20460021FFF713FF5FE0D4F88C303D
:1019E00004F16000C4F88830FEF782FE002384F81A
:1019F000903053E01F2B0BD0202B13D00B2B18D182
:101A0000344B00204FF4005284F894001A8306E00F
:101A1000304B02204FF4005284F894005A83FFF7B1
:101A20007FFD3BE00021C4F898102046FFF738FF07
:101A300034E02248284901F0E3FE32E02023244824
:101A400004F11401182202F05BFD63694BB31B48DB
:101A5000224901F0D5FE002362695D1CDBB293428E
:101A600008D204EB83039A6914481D4901F0C8FEAB
:101A70002B46F1E71148154901F0C2FE14230093EB
:101A8000502100220C4804F1180303F039FA0546EE
:101A900014490A482A4601F0B3FE15B9124B012237
:101AA00001E0114B0222586804215A7003B0BDE8CE
:101AB000304001F055B800BF14180020AC140020CD
:101AC000325A0008D3540008E0540008425A000873
:101AD000380C002000080240005A0008455A00084F
:101AE000545A0008F353000844110020000000007D
:101AF00013B51423044600935021234611480022B5
:101B000003F0D6F994F858300146082B15D0092B6C
:101B10000FD0012B14D110B923780C2B03D0002344
:101B200084F89C300CE0204602B0BDE81040FFF77E
:101B300067BD2046FFF764FE02E02046FFF7B0FED7
:101B400002B010BD141800200000000000000000CA
:101B5000F0B5D0F8F8532E68312E2AD80024B442BC
:101B60000AD00A2707FB045797F804C08C451CD1FC
:101B7000B7F90C609E421CDC0A2666433544297185
:101B8000D0F8F81331448B811378CB8053780B81D4
:101B900093788B72D0F8F833D2781E44F272D0F872
:101BA000F8331A68944202D2F0BD0134D7E701320B
:101BB0001A60F0BD000000000000000000000000FE
:101BC000D0F8F8330022834200F5FE730EBFC0F850
:101BD000F833C0F8F803C0F8FC33D0F8F83308BF86
:101BE000C0F8FC031A60024AD268C3F8F8217047B3
:101BF000181D002000000000000000000000000090
:101C000083B504460A26A74D95F85830023B082BA9
:101C100045D8DFE803F005050505444444302200BB
:101C2000696DA1F16403312B0ED85A399E48C9B2AF
:101C300000F08EFA9B4B9C4893F858109B4B02394E
:101C4000C9B203EB810120E0994B4FF40051586871
:101C500000F086FF40F2E73020E19348092100F0D0
:101C600077FA042790489349013F00F0A1FA17F052
:101C7000FF07F7D113E095F890308B48032B07D17D
:101C8000072100F065FA88488A4900F091FA06E0D9
:101C9000392100F00DFA4FF4E17001F0A9FA95F83E
:101CA00058300A2B29D0092B04D17E4B93F8903061
:101CB000032B22D07C48092100F04AFA7A480421FB
:101CC00022460DF1070300F00BFAB0B99DF9073079
:101CD00013F1640F05DB6FF00E029342A8BF1346A9
:101CE00001E06FF06303744A643352F82330B3F5B4
:101CF0002F7F02DD6E4B01229A7095F858300B2B26
:101D000081D801A252F823F0911E0008391D000865
:101D1000071C0008071C0008071C0008071C000817
:101D2000391D0008391D0008211E0008071C000885
:101D3000CD1D0008911E00084FF004080A275A48DC
:101D4000394600F005FA5848052122460DF10703EF
:101D500000F0C6F930B95948394622469DF9073096
:101D6000FFF7F6FE0137FFB23C2FE8D1B8F10108CA
:101D7000E4D1534BD5F8FC24DF68D2F8F831FF1AD0
:101D8000B7F57A7F10D24848392100F091F94D4BD0
:101D90004FF47A727B4303F5732303F65863B3FB66
:101DA000F2F0013001F024FA202383F3118800F0CF
:101DB000AFFD4248FFF704FFE86D082100F0A8FEE0
:101DC00000F0BEFD002383F311881CE7364831463E
:101DD00000F0BEF90721344822460DEB010300F064
:101DE0007FF930B93548314622469DF90730FFF773
:101DF000AFFE0136F6B23B2E7FF605AF202383F30C
:101E0000118800F085FD2D48FFF7DAFEE86D082106
:101E100000F07EFE00F094FD002383F31188F1E6CC
:101E20002148072100F094F91F48052122460DF1B1
:101E3000070300F055F958BBE378042B28D1A378A9
:101E4000032B25D16378022B22D12378012B1FD1BC
:101E50009DF9073013F1640F05DB6FF00E0293421A
:101E6000A8BF134601E06FF06303134A643352F8CE
:101E700023201548154901F0C3FC154B4FF40051C0
:101E8000022285F89420134859831C2102F018FB84
:101E90000548392100F00CF94FF4E17001F0A8F980
:101EA000B1E600BF3C0C002010140020905A00083E
:101EB00044110020605A0008A05A0008400D00207C
:101EC000181D002018FCFFFFAC140020705A0008F9
:101ED00000080240380C0020000000000000000054
:101EE00008B5034B034A9B6903489A61FFF788FED4
:101EF000541C00207C5A00087112002000000000D1
:101F00001F4B13B5DA691F4C42F00402DA61A3F5E6
:101F100040531A68204622F040421A601A6842F084
:101F200080421A609A88C2F30E029A809A8892B20E
:101F30009A80DA6822F04042DA60DA68DA609A68F9
:101F400022F040429A609A6842F040429A6000F063
:101F50000FFA20463E21502200F092F8204606213A
:101F6000042200F08DF804232373002300934FF420
:101F7000CC717F22044B054801F00AF902B010BD74
:101F80000038024010140020E11E000878120020E2
:101F9000024B1B8A5B06FBD4704700BF0000024067
:101FA000036899811A89D207FCD59889C0B2704715
:101FB0007F29C4BFA1F5807189B208B2022390FBCA
:101FC000F3F04A3840B27047000000000000000003
:101FD000F8B5094C064610250F4608366583FFF70D
:101FE000D7FF47F080013046FFF7DAFF3046002187
:101FF000FFF7D6FF2583F8BD000002400000000077
:102000002DE9F0418846782106461546FFF7E0FFA6
:1020100003062CD5174B10225A8306F10804FFF74C
:10202000B7FF2046FF21FFF7BBFF4746C8EB07037A
:10203000327BDBB29A4220464FF0000104D9FFF711
:10204000AFFF07F8010BF1E7FFF7AAFF00210746F2
:102050002046FFF7A5FF074B10221A8325B1304613
:102060003946FFF7A5FF28700020BDE8F081012068
:10207000BDE8F08100000240000000000000000008
:102080002DE9F041094C064610258846083665833F
:102090001746FFF77DFF41463046FFF781FF304688
:1020A0003946FFF77DFF2583BDE8F081000002403F
:1020B000F8B5094D102604460F466E83FFF768FFFA
:1020C00004F108003946FFF76BFF20702E83237858
:1020D00003F070032370F8BD000002400000000010
:1020E0002DE9F0410E463A211F4604469046FFF77F
:1020F000DFFF202383F3118800F00AFC134B2046F6
:102100009D6934216560FFF7D3FF4FF47A7000FBBF
:1021100006F1A1F57A71B1FBF0F10131022000F076
:102120000FFE054600F00CFC002383F311880135F7
:10213000204605D041463A46BDE8F041FFF760BF72
:102140003621FFF7B5FF0220BDE8F081541C0020C6
:1021500038B504460D46237820461BB13621FFF7DB
:10216000A7FFF8E72A460A21BDE83840FFF788BFF5
:10217000F8B50D4B0546164610225A8308350F4612
:10218000FFF706FF28467F21FFF70AFF0024E3B28E
:10219000B34205D2395D2846FFF702FF0134F6E766
:1021A000014B10221A83F8BD00000240000000001D
:1021B00038B504460D46237820461BB13621FFF77B
:1021C00077FFF8E72946227BFFF7D2FF202383F32E
:1021D000118800F09DFB084B35219B692046636008
:1021E000FFF766FF022000F083FD00F0A9FB00234B
:1021F00083F3118838BD00BF541C0020000000008C
:1022000010B50B2104460C22FFF73AFF20460C21A3
:102210000022FFF735FF20460D212022FFF730FF77
:1022200020460E212522FFF72BFF20460F21ED220D
:10223000FFF726FF204610212D22FFF721FF204621
:1022400011212F22FFF71CFF204612211322FFF736
:1022500017FF204613212322FFF712FF20461421E7
:10226000E522FFF70DFF20460A210022FFF708FFB5
:10227000204615216222FFF703FF20462121B622C6
:10228000FFF7FEFE204622211022FFF7F9FE18215B
:1022900020460A46FFF7F4FE204619211D22FFF7CB
:1022A000EFFE20461A211C22FFF7EAFE20461B21E2
:1022B000C722FFF7E5FE20461C210022FFF7E0FEC3
:1022C00020461D21B022FFF7DBFE20462321EA2213
:1022D000FFF7D6FE204624212A22FFF7D1FE204612
:1022E00025210022FFF7CCFE204626211F22FFF7E2
:1022F000C7FE20462C218822FFF7C2FE20462D2152
:102300003122FFF7BDFE20462E210922FFF7B8FE3D
:10231000204603210722FFF7B3FE204600210722B3
:10232000FFF7AEFE204602210622FFF7A9FE204657
:1023300007210C22FFF7A4FE204608214422FFF7C4
:102340009FFE204606210722FFF79AFE20463E21E7
:102350005022FFF795FE204616210722FFF790FE38
:10236000204617210022BDE81040FFF789BE00007B
:10237000F8B58D4D8D4CEB69002743F00103EB61FF
:102380002368064623F4407323602368302143F416
:1023900080732360A38823F010031B041B0CA3800D
:1023A000A3889BB2A380E36823F44073E360E368EF
:1023B000E360A36823F44073A360A36843F440730D
:1023C000A360EB6943F00103EB61236823F44063EE
:1023D0002360236843F400632360A38823F0200371
:1023E0001B041B0CA380A3889BB2A380E36823F487
:1023F0004063E360E368E360A36823F44063A360A1
:10240000A36843F40063A360236A23F47003236288
:10241000236A43F4A0032362EB6943F00103EB61F9
:10242000236823F440532360236843F4005323605C
:10243000A38823F040031B041B0CA380A3889BB23A
:10244000A380E36823F44053E360E368E360A36898
:1024500023F44053A360A36843F40053A360236AAA
:1024600023F070632362236A43F0A0632362EB6965
:1024700043F00103EB61236823F4404323602368A6
:1024800043F400432360A38823F080031B041B0C48
:10249000A380A3889BB2A380E36823F44043E36056
:1024A000E368E360A36823F44043A360A36843F4B4
:1024B0000043A360236A23F070432362236A43F03E
:1024C000A0432362EB6943F00103EB61236823F02F
:1024D000C0032360E36823F0C003E360E368E360C4
:1024E000EB6943F00103EB61236823F030032360C1
:1024F000E36823F03003E360E368E36010232383A1
:102500002B4B83602A6A42F480522A624FF4417254
:102510001A801A8892B21A809F809A8B22F40062E5
:102520001204120C9A831A8892B242F040021A8066
:10253000FFF7BEFD30463A21FFF7BAFD3046FFF700
:102540005FFE032333762B6A776043F001037461E7
:102550002B62184B01219A68092022F470429A607C
:10256000D3F8002442F00802C3F80024D3F804246E
:1025700022F00802C3F80424327E01FA02F2D3F8F2
:10258000081421EA0201C3F80814D3F80C140A4312
:10259000C3F80C240822C3F8142470213061BDE86C
:1025A000F84000F045B800BF00380240000002408B
:1025B0000030014000000140000000000000000069
:1025C00010B5037E01229A400D4B04465A61202328
:1025D00083F3118800F0CCF9636853B193F820209D
:1025E000022A04D100229A62606800F039FB0023BD
:1025F000636000F0D5F9002383F3118810BD00BF9C
:102600000004014000000000000000000000000085
:1026100008B500F0DDF90448FFF7D2FF00F0F8F943
:10262000BDE8084000F084B810140020000000004D
:1026300000F0030230B5D200FF249440914020F016
:10264000030303F1604303F56143D3F80053012210
:1026500025EA04040C43C3F8004300F01F0302FA08
:1026600003F34009800000F1604000F56140C0F8CC
:102670008031036030BD0000000000000000000059
:1026800020F0030300F00300C000FF2282408140DD
:1026900003F1604310B503F56D439C6924EA02021F
:1026A0000A439A6110BD0000000000000000000015
:1026B000FEE7000000000000000000000000000035
:1026C00000F026F900F004FC00F03AF900DF000009
:1026D000EFF30983203383F30988002383F3118800
:1026E0007047000000000000000000000000000033
:1026F00008B50A4B00229A60094A0720DA601021C7
:10270000FFF7BEFF0A204FF40071FFF7B9FFBDE8E5
:1027100008400B208021FFF7B3BF00BF00ED00E0B1
:102720000003FA05000000000000000000000000A7
:10273000202383F31188154B5B6813F4006321D0C9
:10274000EFF30983A3F1200282F309884FF080722E
:1027500043F8042C0E4A9169126891F8220092689D
:10276000896820B18A4294BF0022012203E08A4294
:1027700034BF002201220AB1064A00E0064A43F8AB
:10278000082C704783F31188704700BF00ED00E00C
:10279000541C0020C1260008CC26000800000000C0
:1027A00008B500F015F9202383F3118800F0E0F854
:1027B00000F06EFC00F0F4F8002383F3118800F0C1
:1027C00027F9BDE80840FFF7B3BF00000000000094
:1027D0002DE9F04FC1F80CD0D0F80CD0BDE8F08F47
:1027E00008B500F0ADF8002383F311882846A04710
:1027F00000F03EFD08BD00000000000000000000E9
:102800007047000000000000000000000000000011
:102810007047000000000000000000000000000001
:10282000FEE70000000000000000000000000000C3
:1028300072B6224B83F30988022383F31488BFF313
:102840006F8F1F4B1D4A1F498B4204D24FF05531E9
:1028500043F8041BF7E71C4B934204D24FF0553169
:1028600043F8041BF8E7FFF7CBFF0023174A18498A
:102870009818884204D21749595899500433F5E7FB
:10288000154B164A934203D2002243F8042BF8E773
:10289000FFF7BEFF124C134B9C4203D254F8043B8B
:1028A0009847F8E7FDF734FC0F4C104B9C4203D2DD
:1028B00054F8043B9847F8E7FFF7B2FF0008002000
:1028C0000000002000040020000400200008002078
:1028D000340C0020D8600008380C0020281D00208F
:1028E000F4000008FC000008FC000008FC000008E0
:1028F000044B1B6813B9044B1B6813B1034801F068
:1029000017BB70474C1C0020501C00200A5C0008BC
:10291000064B10B51B68064C0BB9236813B105486C
:1029200001F006FB0123236010BD00BF4C1C0020FA
:10293000501C00200F5C0008000000000000000098
:10294000064B10B51B68064C13B92368002B02DC3C
:10295000044801F0EDFA0023236010BD4C1C002058
:10296000501C0020145C0008000000000000000063
:10297000064B10B51B68064C002B01DD236813B114
:10298000044801F0D5FA0123236010BD4C1C00203F
:10299000501C0020195C000800000000000000002E
:1029A000074B10B51B68074C002B02DD2368002B7A
:1029B00002DC054801F0BCFA0023236010BD00BF13
:1029C0004C1C0020501C00201E5C00080000000071
:1029D00010B5202383F31188084C2368002B02DBF9
:1029E000074B1B6813B1074801F0A2FA23680133B3
:1029F0002360002383F3118810BD00BF4C1C00200E
:102A0000501C0020235C00080000000000000000B3
:102A100010B5202383F31188084C2368002B02DDB6
:102A2000074B1B6813B1074801F082FA2368013B8A
:102A30002360002383F3118810BD00BF4C1C0020CD
:102A4000501C0020285C000800000000000000006E
:102A5000054B1B68002B03DB044B1B68002B02DCBF
:102A6000034801F065BA70474C1C0020501C002040
:102A70002D5C0008000000000000000000000000C5
:102A8000054B1B681BB9054B1B68002B02DC044877
:102A900001F04EBA704700BF4C1C0020501C0020B3
:102AA000335C00080000000000000000000000008F
:102AB000034A4021134643F8081B5360704700BF88
:102AC000401800200000000000000000000000008E
:102AD0000C4B0D495A68C968103242F8101C0B495A
:102AE000896942F80C1C816A42F8081C90F8201091
:102AF00002F8041C03F581618A4228BF03F1080231
:102B00005A60704740180020181D0020541C0020F7
:102B100038B504460D46FFF79BFF14B90D4801F088
:102B200007FA236B45EA030194F820302163082B50
:102B300003D1A36A194206D138BD092B08D1A36A73
:102B40001940994204D1204600F08AF8002383629C
:102B500038BD00BF6A5C00080000000000000000F3
:102B600038B50D46044610B9094801F0E1F92023B3
:102B700083F31188FFF7CCFE20462946FFF7C8FFF4
:102B800000F08EF9FFF7DCFE002383F3118838BDD7
:102B9000935C00080000000000000000000000003E
:102BA0000E4B70B59C690546202383F31188FFF70F
:102BB000AFFE266B2E4005D1A562082000F098F8E4
:102BC000266B2E40236B23EA06032363FFF7B8FE30
:102BD000002383F31188304670BD00BF541C0020D1
:102BE000F8B5164B06469C690F46202383F31188DF
:102BF000FFF78EFE256B354014D11FB9FFF7A0FEFD
:102C00003B4609E0A6620820394600F099F8002802
:102C100006DAFFF795FE2B4683F311880020F8BDF6
:102C2000256B3540236B23EA05032363FFF788FEFA
:102C3000002383F311882846F8BD00BF541C0020F0
:102C4000034B00225B601B609A605B611B617047F5
:102C5000541C0020000000000000000000000000E4
:102C600010B50446FFF7F4FE94F820300BB10E2B9C
:102C700002D1094801F05CF9002384F82030A168F2
:102C8000064B1B689A688A42FBD25A6823606260CE
:102C900020465C60146010BDF05C0008541C0020ED
:102CA00038B50446202383F31188FFF761FE94F8BA
:102CB00020505DB1032D0DD1A36A9A6801329A604C
:102CC00094E80C001A602268536003E0FFF768FE86
:102CD0002B4608E04FF0FF33A3622046FFF7C0FF0A
:102CE000FFF75EFE002383F3118838BD000000006B
:102CF00070B5114C0646FFF7C3FEA569142385F88D
:102D00002230236885F820601A68284654602260C3
:102D1000012283F82020A361FFF7DAFEEB69ADF111
:102D20002402934202D9054801F002F9A06929461C
:102D3000BDE87040FFF74CBD541C0020025D000848
:102D400070B50E4686B00546FFF79AFE731C0C4C14
:102D50000ED0A36901A831460A4A00F0A9FA284614
:102D6000FFF7C6FF049B33B101A800F0C9FA02E0E7
:102D70002846FFF7BDFFA369986A06B070BD00BF83
:102D8000541C0020A12C00080000000000000000DE
:102D900070B5134E04460D46FFF772FEB069A26887
:102DA0008368A5629A4204D82046BDE87040FFF7C8
:102DB00057BFFFF755FF0123054684F82030B46163
:102DC000FFF786FEEB69ADF12402934202D9054874
:102DD00001F0AEF820462946BDE87040FFF7F8BC88
:102DE000541C0020025D00080000000000000000EC
:102DF00038B5104C2368A5691A68284654602260CB
:102E0000012283F82020A361142385F82230FFF7E4
:102E100027FF2846FFF75CFEEB69ADF124029342E1
:102E200002D9054801F084F8A0692946BDE8384078
:102E3000FFF7CEBC541C0020025D0008000000001B
:102E400038B5144B1A689C6911681D464B601960AF
:102E5000012182F820109A61A168002284F82020C4
:102E60001B689A688A42FBD85A68236062602046D1
:102E70005C601460FFF72CFEE369ADF1240293421D
:102E800002D9054801F054F8A8692146BDE8384048
:102E9000FFF79EBC541C0020025D000800000000EB
:102EA00008B5FFF7EDFD064B1A689B6992689B68B1
:102EB0009A4203D9BDE80840FFF7C2BF08BD00BF72
:102EC000541C002000000000000000000000000072
:102ED000044B9B6993F822300BB9FFF789BFFFF7CA
:102EE000AFBF00BF541C0020000000000000000025
:102EF00038B50D46044608B1002902DA034801F04E
:102F000017F864602460A56038BD00BF205D00082C
:102F100038B50446FFF7B4FD14B9124801F008F8BB
:102F2000A368002B236802DBA34202D104E0A34282
:102F300002D10D4800F0FCFFA368013B002BA36009
:102F40000DDA0A4D0320AB699C6262681C605A600E
:102F500063601360FFF7CCFEAB69986A38BD002050
:102F600038BD00BF505D00085F5D0008541C0020A4
:102F700010B52023044683F31188FFF7C9FC2046CF
:102F8000FFF7C6FF0446FFF7DBFC002383F311883D
:102F9000204610BD000000000000000000000000FE
:102FA00010B5044610B9134800F0C2FFA368002B07
:102FB000236802DBA34202D104E0A34202D10E48FF
:102FC00000F0B6FF202383F31188FFF7A1FCA3686C
:102FD0000133002BA36006DC206800210368236016
:102FE0005C60FFF7D5FEFFF7ABFC002383F311888D
:102FF00010BD00BF9E5D0008AE5D0008000000002F
:10300000024B034A9B699A61FEE700BF541C0020F3
:10301000505E0008000000000000000000000000FA
:1030200007B5FFF765FBFFF70BFE00F031F9FFF77F
:103030003FFD40210F4800F063F80F4B98610123DA
:1030400080F820300D4BC361FFF752FC002383F35F
:10305000118862B6084B0A4A9B69A8219A6100232D
:1030600000930122074B084800F092F803B05DF886
:1030700004FB00BF2C140020541C0020000400207E
:10308000D05C000801300008701C00200000000027
:10309000F8B5FFF7DDFC164B9B6993F8222012B1BF
:1030A000013A83F822205A6A01325A62114BDA68D7
:1030B0001E460132DA601A689A4218D091680139C6
:1030C000916034680B4AA5688DB92168E768E560AE
:1030D0004A601160FFF764FC2B4683F31188206976
:1030E000B847202383F31188FFF742FCE9E7F8BDD6
:1030F000541C0020181D00200000000000000000EB
:10310000022280F82020002280F8212002634262FF
:103110008261084A8160142180F82210516902619D
:103120004161506100F12C020861C26200F1340279
:10313000C2617047541C0020000000000000000025
:103140002DE9F04104460F4615461E46DDF818806D
:10315000FFF77EFC24B1972F02D97F2D00D816B936
:10316000084800F0E5FE243F074BE019E0602946DF
:10317000E651C0F8048003622046BDE8F041FFF745
:10318000BFBF00BF605E0008E1270008000000002C
:103190002DE9F341044600F134050E4690461F46E2
:1031A0000020FF23235401303428FAD1A3199D4273
:1031B00003D2552205F8012BF9E7202383F3118868
:1031C000FFF7A6FB08993B46424600912046314650
:1031D000FFF7B6FF00210446FFF7DAFDFFF7B0FB6B
:1031E000002383F31188204602B0BDE8F08100007F
:1031F00010B5044610B9094800F09AFE202383F365
:103200001188FFF785FB21460620FFF799FDFFF7A0
:1032100097FB002383F3118810BD00BF985E000860
:103220000F4B10B59C69A062234653F82C0F9842AF
:1032300004D00368E362FFF713FDF5E794F821304B
:103240009B0704D1226963691A61226953610E20C8
:10325000FFF74EFDBDE81040024800F069BE00BF18
:10326000541C0020A75E00080000000000000000C1
:1032700010B52023044683F31188FFF749FB20464D
:10328000BDE81040FFF7CCBF0000000000000000C8
:10329000044B4FF0FF329A6000225B601B60DA60E3
:1032A000704700BF181D0020000000000000000053
:1032B000F8B504460D4616461F46FFF7C9FB0CB18C
:1032C00006B115B90C4800F033FE0C4A27611368AB
:1032D000E66011469A68AA4202D2AD1A1B68F9E765
:1032E0005A688B42236062605C601460A56002D003
:1032F0009A68551B9D60F8BDE05E0008181D00200F
:1033000010B50446FFF7A4FB14B90B4800F010FEFB
:10331000E36813B9094800F00BFE2368084A93429A
:1033200003D09968A2680A449A60626813602368AF
:103330005A600023E36010BDED5E0008FC5E0008EB
:10334000181D002000000000000000000000000028
:1033500000F006B8000000000000000000000000BF
:10336000154B1A6962F400421A6100221A619969C8
:1033700061F0805199619A6159694FF0FF3159614B
:103380005A61196A41F001011962D96A41F00101DB
:10339000D9620A4908684FF47A71B0FBF1F0084924
:1033A000013848608A6007220A605A6A42F08052F7
:1033B0005A6200F0DDB800BF00380240A0140020BF
:1033C00010E000E00000000000000000000000002D
:1033D00008B5FFF7FDFA084B0F2219685A60074A33
:1033E00001F00F0113680BB150689847FFF710FB0D
:1033F000BDE80840FFF79CB900600240601400205F
:1034000008B5FFF7E5FA084BF02219685A60074A39
:10341000C1F3031193680BB1D0689847FFF7F8FA2E
:10342000BDE80840FFF784B9006002406014002046
:1034300008B5FFF7CDFA094B4FF4706219685A606E
:10344000074AC1F3032113690BB150699847FFF78D
:10345000DFFABDE80840FFF76BB900BF006002402B
:1034600060140020000000000000000000000000C8
:1034700008B5FFF7ADFA094B4FF4704219685A606E
:10348000074AC1F3033193690BB1D0699847FFF73D
:10349000BFFABDE80840FFF74BB900BF006002402B
:1034A0006014002000000000000000000000000088
:1034B00008B5FFF78DFA094B4FF4702219685A606E
:1034C000074AC1F30341136A0BB1506A9847FFF7EB
:1034D0009FFABDE80840FFF72BB900BF006002402B
:1034E0006014002000000000000000000000000048
:1034F00008B5FFF76DFA094B4FF4700219685A606E
:10350000074AC1F30351936A0BB1D06A9847FFF79A
:103510007FFABDE80840FFF70BB900BF006002402A
:103520006014002000000000000000000000000007
:1035300008B5FFF74DFA094B4FF0706219685A60F1
:10354000074AC1F30361136B0BB1506B9847FFF748
:103550005FFABDE80840FFF7EBB800BF006002402B
:1035600060140020000000000000000000000000C7
:10357000094A002313600C215943084A8958002244
:103580000A60074941F833200133072BF3D1054B7B
:103590004FF0FF325A60704798140020605F0008B7
:1035A00060140020006002400000000000000000E5
:1035B0002DE9F0410F4615469846044610B91A48C1
:1035C00000F0B6FC627A012000FA02FC174E316866
:1035D0001CEA010F26D116484CEA010340F832508C
:1035E000336000EBC2025B06C2F8048004D0114BCA
:1035F000DA6942F08072DA6123680F201A680026C7
:1036000022F00F021A60217A626800FA01F111605B
:103610001E6035B1A07A3901FFF70AF83046BDE8DF
:10362000F0812846BDE8F081105F00089814002062
:10363000601400200038024000000000000000007C
:10364000084B1A6842F001021A604FF4A063054A61
:103650001268920703D4013BF9D101207047002082
:10366000704700BF0038024000000000000000006A
:10367000F0B593B00021202205460AA801F078FC9D
:103680004FF480330A934FF400330B934FF48023AD
:103690000C93344B344A0D93344B51680E93344B96
:1036A00010680F93334B06AE109303AB03C3117A2C
:1036B000197002F10903193217461868596834461F
:1036C00003C4083393422646F7D13868796801ABC2
:1036D00003C3294B9A68C2F38102022A24D0032A29
:1036E0000CD0012A01D1254B1FE05B6812A8C3F35F
:1036F000423300EB830353F8203C16E09A6812A98A
:10370000C2F383420A4412F83C1C9A689B681C4826
:1037100013F4803F194BC2F3815218BF03464B4349
:103720000132B3FBF2F300E0154B134A12A8916883
:10373000C1F30311014411F8301CCB402B60916898
:10374000C1F30221014411F8441C23FA01F169601C
:103750009268C2F3C222024412F8442CD340AB60F8
:1037600013B0F0BD9CFF0700C0530008C0FD0F0060
:1037700068FF1F00D0FE3F00003802400024F40024
:1037800000127A00000000000000000000000000AD
:10379000094B4FF080525A62084B5A68D106FBD44D
:1037A0001A6822F4C05242EAC0221A605A68D2064D
:1037B000FCD4034B18707047003802400070004082
:1037C0009C14002000000000000000000000000029
:1037D000D0F8FC315A1CC0F8FC211970D0F8FC312B
:1037E00000F5FC72934228BFC0F8FC01704700004E
:1037F00001460148FFF7ECBFAC14002000000000B8
:103800000EB417B5D0F8FC31D0F8F81104468B424D
:1038100028BF01F5FC71C91A144806AB059A01933B
:1038200000F0EEFED4F80432184494F80032C4F8E4
:103830000402B3B1002384F800320D4BD4F8F82110
:103840005B6A04F5FC71DA608A1A904228BF104660
:103850009222C4F8080258601A601A6842F0010205
:103860001A6003B0BDE8104003B07047F13700089C
:10387000605F000800000000000000000000000081
:1038800038B5D0F8283304469B6C8BB3202383F3E0
:103890001188FFF73DF8D4F82853AB6C472B03D8B9
:1038A0000022EA540133F9E72846124901F0F8FBF7
:1038B0001049E864002001F0F3FB2865D4F82833B0
:1038C00004F52072934208BF04F535720025C4F850
:1038D0002C33C4F828239564FFF732F82B4683F382
:1038E00011880548D4F82C13BDE83840FDF768B8B6
:1038F00038BD00BFF05300083C0C00200000000061
:103900001E4B70B51B6BD0F80C525B680446C3F1BC
:103910006C03AB4231D05D1B48BF6C35C0F80C3234
:103920000026AE4229DAD4F810325A1C234493F808
:103930001432C4F81022082B06D1D4F828339A6C1C
:1039400092B1013A9A640FE00D2B01D00A2B03D1FA
:103950002046FFF795FF07E0D4F828138A6C462A23
:1039600002D8501C88648B54D4F8103201366B2B6B
:10397000C4BF0023C4F81032D3E770BD605F0008F5
:103980002DE9F84F544F4FF000080646C6F8FC01E9
:10399000C6F8F8010123C0F8048280F80032FB6900
:1039A0004E4C43F00103FB6123684D4D23F440234B
:1039B00023602368DFF834B143F400232360A08838
:1039C000484A20F400700004000CA080A388D94667
:1039D0009BB2A380E368584623F44023E360E36886
:1039E000DFF80CA1E360A36806F5057623F4402315
:1039F000A360A36843F40023A360636A23F0F00389
:103A00006362636A43F0700363623B6A43F480431A
:103A10003B624FF40053AB81334B9B68B3FBF1F136
:103A20008BB22B8107214346A5F81080FFF7C0FD1C
:103A300059F824399222C3F808A01A600C23AB81EC
:103A4000C023AB82FB69424643F00103FB6123685C
:103A50000BF10C0023F440132360236843F400139C
:103A60002360A18821F480610904090CA180A38846
:103A70000F219BB243F48063A380E36823F44013D7
:103A8000E360E36843F48013E360A36823F4401326
:103A9000A360A36843F40013A360636A23F4706314
:103AA0006362636A43F4E06363624346FFF780FD49
:103AB000D9F830306C22C3F808A0DE605A60A0222A
:103AC0001A601A6842F001021A60AB899BB243F493
:103AD0000053AB81BDE8F88F00380240000002407F
:103AE00000380140713B0008A0140020845F0008EA
:103AF0000438014000000000000000000000000049
:103B0000194A10B5536A0F24196821F00F01196082
:103B1000916A92F82C2004FA02F20A60D0F8F84177
:103B2000D0F80812D0F80422521A214400F5FC748F
:103B3000A14228BF0146C0F80422C0F8F8111AB902
:103B4000012380F8003210BDD960611A914238BF5C
:103B50000A46C0F808225A6092221A601A6842F097
:103B600001021A6010BD00BF605F00080000000085
:103B70000148FFF7C5BF00BFAC14002000000000E3
:103B800010B52023044683F31188FEF7F1FE606927
:103B900018B100236361FFF763F8FEF701FF00230C
:103BA00083F3118810BD0000000000000000000039
:103BB000124B984205D103F56053DA6942F00102D5
:103BC00019E00F4B984205D103F55053DA6942F0E2
:103BD000020210E00B4B984205D103F54053DA691D
:103BE00042F0040207E0084B984205D103F5305338
:103BF000DA6942F00802DA61704700BF0000024053
:103C00000004024000080240000C024000000000D6
:103C1000F8B50D46044616461F46FFF7C9FF690072
:103C2000032088402368C0430340236002238B4065
:103C30002268AE40134323600123AB40A288072DC6
:103C400092B222EA03039DF81820A38002FA01F140
:103C5000A38888BF083D46EA0306B6B2A680E3689B
:103C60004FEA850500EA0303E360E368E360A368C5
:103C700000EA0300A060A36841EA030194BF0023A7
:103C80000123A16004EB83040F23AB4007FA05F581
:103C9000226A22EA03032362236A1D432562F8BDD8
:103CA00048F6A143013B0DD0084A9169C907F9D4F0
:103CB0009369DB0508D4936913F4F05F0CBF00200F
:103CC000012070470220704708207047003C0240E6
:103CD00010B50D4C6368DB0715D5202383F31188DD
:103CE000FEF716FE094BE360094BE360FEF728FE82
:103CF000002383F31188044B4FF480729A615A6851
:103D000022F480725A6010BD003C0240EFCDAB89B6
:103D10000504030200000000000000000000000095
:103D2000012A01F1FF3110B514BF0624072403292D
:103D300056D8DFE801F002162A3E436803F1340248
:103D400082601A8B22F070021204120C1A831A8BF2
:103D500092B242EA04141C831A8C92B242F001021D
:103D60003AE0436803F1380282601A8B22F4E042A1
:103D70001204120C1A831A8B92B242EA04341C8386
:103D80001A8C92B242F0100226E0436803F13C0222
:103D900082609A8B22F070021204120C9A839A8B22
:103DA00092B242EA04149C831A8C92B242F480725A
:103DB00012E0436803F1400282609A8B22F4E042F1
:103DC0001204120C9A839A8B92B242EA04349C83B6
:103DD0001A8C92B242F480521A84836800221A60CC
:103DE00010BD000000000000000000000000000006
:103DF000B3F1804FF7B504460D461646436004D133
:103E0000394A516A41F0010107E0384A934207D12B
:103E100002F50D32516A41F002015162344A24E048
:103E2000344A934205D102F50C32516A41F0040143
:103E3000F3E7314A934205D102F59832116A41F015
:103E4000040110E02D4A934205D102F59632116A21
:103E500041F0080107E02A4A934205D102F5943265
:103E6000116A41F010011162264A2260BDF8242037
:103E700000275F6220469F809DF82010DA629DF83F
:103E80002820FFF74DFF6368B3F1804F06D102236E
:103E90000093284631463A46012315E0134A9342DF
:103EA00005D1022300932846314600220CE0114A36
:103EB0009342F6D002F58032934208D10223009358
:103EC0002846314600220323FFF7A2FE06E00B4AF4
:103ED0009342F3D002F580629342EFD063680122EF
:103EE0001A8003B0F0BD00BF00380240000400405B
:103EF000A41400200008004000080140000C01400C
:103F000000100140A8140020000000000000000084
:103F10004368DA6A514307D002681268B2FBF1F1D4
:103F200001B1013989B21985704700000000000015
:103F3000013810F8013F2BB1034A11880906FBD55F
:103F40009380F6E7704700BF003801400000000092
:103F500003681C4A70B593421B4B05469A6908D109
:103F600042F400129A6100229A615A6A22F4001205
:103F700007E042F480029A6100229A615A6A22F4B0
:103F800080026C682E895A622046FFF711FE73008A
:103F9000032606FA03F322681A432260E26822EA43
:103FA0000303E3606C686D8920466D00AE40FFF747
:103FB000FFFD236833432360E36823EA0606E660D7
:103FC00070BD00BF005400400038024000000000F7
:103FD00073B5022600250189057400960446012266
:103FE00040680423FFF714FE618901220423009630
:103FF0006068FFF70DFE294A2368934202F5F2320A
:10400000516A06D141F400115162916941F40011E5
:1040100005E041F480015162916941F480019161B0
:1040200095611F4A998850681E4A21F03F01B0FBF4
:10403000F2F20904012A4FEA114103D9212A28BFCB
:10404000202200E00222114389B29980198821F0D0
:1040500001010904090C19804FF496714A434FF489
:104060007A71B2FBF1F2013292B21A84E26819213C
:104070004A43B0FBF2F292B2002A08BF012242F496
:1040800040429A831A8892B242F001021A809A88BA
:1040900092B242F400629A8002B070BD00540040B7
:1040A000A014002040420F000000000000000000AB
:1040B000F8B50381BDF8183004464381079B80E8BA
:1040C0000600C360089E104F099DFFF741FF204680
:1040D000FFF77EFF09213A462346A6613046FFF7E7
:1040E00067FAA36928461A68236809211033936088
:1040F0003A462346E561FFF75BFAE36922681B68ED
:1041000010329A60F8BD00BF813B0008000000003B
:1041100038B504460525013D15F0FF0509D0236893
:10412000188B00F0020080B230B10120FFF760F878
:10413000F1E701232374022038BD000000000000D5
:1041400040F2C313013B09D00268918A128BC90760
:1041500092B2F7D59207F5D000207047012303747F
:10416000184670470000000000000000000000003A
:1041700001682E238A8A013B92B203D002F4806048
:1041800080B208B1012070479207F3D57047000054
:104190002E23013B05D00268928A1206F9D5002031
:1041A00070470123037402207047000000000000E4
:1041B00040F2C313013B05D00268928A5207F9D539
:1041C000002070470220704700000000000000003F
:1041D0002DE9F84304460F46914698469DF8246021
:1041E000FFF796FF002874D12568A882AB8A5B068A
:1041F00001D52B8AFAE7AB8A2B8B2B8820469BB202
:1042000043F480732B80FFF79BFF002861D1236864
:104210007F00FFB21F822046FFF7AAFF05462068F5
:104220002DB103889BB243F40073038051E0838A6D
:10423000038BB8F1000F2ED02046FFF7A9FF00280E
:1042400047D1A36992221B68C3F80C901A60C3F887
:104250000480202383F31188FEF75AFB414B022090
:104260009B696361A3691B681A6842F001021A60C6
:10427000FEF73EFDFEF764FB002383F31188A3697C
:104280001A68116821F00F0111605A681B7A0F211A
:1042900001FA03F313602046002E58D0FFF778FF91
:1042A000B8B9236820461A8892B242F480721A8004
:1042B000FFF746FF68B9236847F001071F822046D1
:1042C000FFF756FF23681A8828B192B242F40072B1
:1042D0001A80012543E0012E04D122F480621204E9
:1042E000120C02E092B242F480621A809A8A1A8B0F
:1042F000E26908991268D1608221116056609A883B
:1043000092B242F480529A80202383F31188FEF700
:10431000FFFA144B02209B696361E3691B681A680A
:1043200042F001021A60FEF7E3FCFEF709FB0023EE
:1043300083F31188E3691A68116821F00F01116095
:104340005A681B7A0F2101FA03F3136001E0FFF7AB
:104350002FFF23681A8892B242F400721A8028460E
:10436000BDE8F883541C002000000000000000009D
:104370002DE9F8430446894690461F469DF824607F
:10438000FFF7C6FE18BB2568A882AB8A5B0601D57D
:104390002B8AFAE7AB8A2B8B2B8820469BB243F4FF
:1043A00080732B80FFF7CCFE88B923684FEA490958
:1043B00009F0FE09A3F810902046FFF7D9FE216806
:1043C000054630B10B889BB243F400730B80012586
:1043D0006AE08B8A0B8B002F2DD02046FFF7D8FE8A
:1043E0000028F4D1A36919689223C1F80C800B60EE
:1043F0004F60202383F31188FEF78AFA2C4B0220AA
:104400009B696361A3691B681A6842F001021A6024
:10441000FEF76EFCFEF794FA002383F31188A3697C
:104420001A68116821F00F0111605A681B7A0F2178
:1044300001FA03F31360002E2DD02046FFF7A8FEEB
:104440000028C4D1A369089A1B68DA6092221A6016
:104450005E60202383F31188FEF75AFA144B022082
:104460009B696361A3691B681A6842F001021A60C4
:10447000FEF73EFCFEF764FA002383F31188A3697C
:104480001A68116821F00F0111605A681B7A0F2118
:1044900001FA03F313602046FFF78AFE23681A88A7
:1044A00092B242F400721A802846BDE8F88300BF39
:1044B000541C00200000000000000000000000006C
:1044C00038B501F1006404F50024236815469342D1
:1044D0000DD0FFF7FDFBFFF7E3FB10B92560FFF7F9
:1044E000DFFB044B5A6842F001025A6038BD0020DD
:1044F00038BD00BF003C024000000000000000008A
:1045000010B59208084612F1FF3209D3441A1C4430
:1045100004F1006404F50024246840F8044BF2E739
:1045200010BD0000000000000000000000000000BE
:10453000F8B5033203F100640F461E46950804F5F2
:104540000024FFF7C5FBFFF7ABFB68B965B1BA1BE9
:10455000224402F1774202F578021368013D44F8E3
:10456000043BFFF79DFBF0E7024B5A6842F0010263
:104570005A60F8BD003C024000000000000000004E
:10458000F0B5644685B00025B0FBF1F301FB1302E2
:10459000092A05F1010594BF3032373201AED2B29B
:1045A0007719184607F8012C002BEDD12F46236808
:1045B0009D420ED2227CE3680AB1302000E0202028
:1045C0009847A368626801339342A3600FD2013514
:1045D000EDE7A3686568ED1AAF4238BF3D462B444E
:1045E000A36025B1013DE368705D9847F9E705B028
:1045F000F0BD00000000000000000000000000000E
:104600002DE9F0431C4687B00023049002910393E8
:1046100001938DF814301078561C50B125280CD019
:10462000049B9847039B029A013393420393C0F083
:104630009580039807B0BDE8F083002201921146EF
:1046400016F8013BA3F13000C5B2092D07D812B905
:10465000302B08BF01210A2303FB0202F0E701927D
:1046600003F0DF02532A8DF8141010D1251D2468A1
:1046700014F8013B002B6BD0039B5A1C0392029A47
:10468000934265D214F8010C049B9847F0E7632B22
:104690000BD1049B20789847039B029A01339342E5
:1046A00004F10405039353D3C3E7582B05D1251D0B
:1046B0000DF1040C2068102106E0752B07D120684D
:1046C000251D0DF1040C0A21FFF75AFF40E0642B71
:1046D00011D1251D2468002C09DA049B2D20984750
:1046E000039B029A013393420393A2D264420DF1D9
:1046F000040C2046E7E7412B29D101238DF8143023
:104700000223D4F80090D4F8048004F10C05A768C3
:104710000193002444451BDA002C0CDC0DF1040C41
:1047200019F804001021FFF72BFF029B039A9A420D
:104730000ED20134EEE7002FF0D0049BF8B2984778
:10474000039B029A013393420393E7D300E025468B
:10475000029B039A9A42BFF46CAF2C4632465AE74A
:10476000114B10B51A68116821F00F0111605A68D9
:104770001B7A0F2101FA03F313600C4B00229A609D
:104780000B4B1A691C466AB1202383F31188FEF78C
:10479000EFF820692021FEF7BBF9FEF701F90023AD
:1047A00083F3118810BD00BF605F00080024014042
:1047B000DC170020000000000000000000000000E6
:1047C000054B01391A6B22F470021A631A6B42EA24
:1047D00001521A63704700BF00240140000000002E
:1047E000092910B51F4B4FEA41000CD8014407209E
:1047F000884002FA01F15C6924EA000058615C69B2
:104800002143596110BD13290DD801441E390720D9
:10481000884002FA01F11C6924EA000018611C6951
:104820002143196110BD1D290DD801443C390720D1
:10483000884002FA01F1DC6824EA0000D860DC68F4
:104840002143D96010BD01445A390720884002FA3B
:1048500001F1DC6D24EA0000D865DC6D2143D965E7
:1048600010BD00BF00240140000000000000000057
:10487000062910B50FD8013901EB81011F208840AE
:1048800002FA01F1284B1C6C24EA00001864186C31
:104890000143196410BD0C290FD8073901EB8101C0
:1048A0001F20884002FA01F11F4BDC6B24EA000054
:1048B000D863D86B0143D96310BD12290FD80D39C5
:1048C00001EB81011F20884002FA01F1164B9C6B1D
:1048D00024EA00009863986B0143996310BD18297E
:1048E0000FD8133901EB81011F20884002FA01F132
:1048F0000D4B5C6B24EA00005863586B014359630D
:1049000010BD1B290ED8193901EB81011F208840E9
:1049100002FA01F1044B1C6B24EA00001863186BC7
:104920000143196310BD00BF0024014000000000D6
:1049300038B5174B04461A6A164842F400721A62D8
:10494000FEF77EFE144B4FF400325A6020460821D9
:10495000FFF736FF002120460522FFF741FF012126
:104960004D1CEDB220460022FFF782FF092D01D039
:104970002946F5E7094C0A4A002320460F21FEF795
:1049800017FE2368074A9A6040F282521A6038BDC7
:1049900000380240A014002000270140605F00089A
:1049A000614700085824014000000000000000009A
:1049B0000D4B08221B68D8605A6040F282521A6080
:1049C0001A6842F001021A60084B4FF480725A6074
:1049D00040F201129A601968044A4906FBD59368AF
:1049E00043F0804393607047605F000800240140FB
:1049F00000231A46C15A0233102B0A44FAD1D008B8
:104A000070470000000000000000000000000000EF
:104A10000F4A41F27A53508810B5984216D102F1EC
:104A200008035C8841F27A50844201D00A600BE0AE
:104A300033F8084C108901348442F7D1054A934277
:104A400001D01A46EBE70B60002010BD012010BD1D
:104A50008000080848080808000000000000000066
:104A60007FB51E4C0E6841F27A5301A90194ADF84E
:104A70000A30FFF7CDFF18B10023ADF808300AE087
:104A8000019B1A880132ADF80820154A934216BFDF
:104A9000083301940193019DFFF71AF9202383F352
:104AA0001188FDF735FFFFF7FBF8044648B9029B74
:104AB0002B60FFF7F5F8044618B96E60FFF7F0F8C1
:104AC0000446084B5A6842F001025A60FDF738FF6D
:104AD000002383F31188204604B070BD80000808CD
:104AE00048080808003C02400000000000000000E8
:104AF00013B50C4601A9FFF78BFF18B9019B5B6842
:104B0000236000E0012002B010BD000000000000A2
:104B10001FB50221162200238DE80E00183004492B
:104B200003224FF08043FFF763F905B05DF804FB03
:104B3000000402400000000000000000000000002F
:104B4000C36870B505460C460BB1FEF7D9FB14B926
:104B50002B6A1C6070BD05F118006188FFF7D8F959
:104B60002B6A22781A60A3791BB1022B04D16B69DE
:104B700003E004F1080300E000232846A188024A6C
:104B8000BDE87040FEF794BB914B000800000000A8
:104B900010B52023044683F31188FDF7E9FE05488C
:104BA0002146FFF7CDFFFDF7FBFE002383F31188BD
:104BB00010BD00BFF0170020000000000000000042
:104BC0004D4AD36943F00203D3614C4B196821F07D
:104BD00003011960196841F002011960998821F0F8
:104BE00001010904090C9980998889B29980D968D2
:104BF00021F00301D960D968D960996821F00301D7
:104C00009960996841F002019960196A21F00F01D9
:104C10001962196A41F002011962D16941F0020179
:104C2000D161196821F00C011960196841F008017F
:104C30001960998821F002010904090C998099886A
:104C400089B29980D96821F00C01D960D968D960FE
:104C5000996821F00C019960996841F00801996008
:104C6000196A21F0F0011962196A41F020011962F4
:104C7000D16941F00201D161196821F440611960E4
:104C8000196841F400611960998821F02001090434
:104C9000090C9980998889B29980D96821F440617A
:104CA000D960D968D960996821F4406199609968A0
:104CB00041F400619960196A21F470011962196A5E
:104CC00041F400111962536AFF2143F00203536259
:104CD0000B4B01221A8000229A801A85D9624FF468
:104CE000C041198346F26001998341F21011198481
:104CF0001A64DA639A637047003802400004024085
:104D0000000400400000000000000000000000005F
:104D100038B50D4C8023054663830120FEF768FA01
:104D20000A4B05F10C00DA6942F00202DA612368ED
:104D300043F440432360E36823F44043E360BDE869
:104D40003840FFF705B900BF0004024000380240B8
:104D500030B5002185B00546FEF7CAF82846FFF7B2
:104D6000D7FF1F4B1F4CDA69012042F00202DA61C3
:104D7000236823F440432360236843F48043236083
:104D8000A38823F080031B041B0CA380A3889BB281
:104D9000A380E36823F44043E360E368E360A3682F
:104DA00023F44043A360A36843F44043A3608023FB
:104DB0002383FEF71DFA0C4B09228DE80C000B4BE8
:104DC00005F10C0002930C33039309492246082392
:104DD000FFF76EF9284605B0BDE83040FEF7E0B8B1
:104DE0000038024000040240400D03009C5F0008B0
:104DF000005400400000000000000000000000001F
:104E000010B50446FFF784FF184B0120DA6942F021
:104E10000202DA61A3F550531A6822F440421A6084
:104E20001A6842F480421A609A8822F080021204C2
:104E3000120C9A809A8892B29A80DA6822F44042E0
:104E4000DA60DA68DA609A6822F440429A609A6816
:104E500042F440429A6080221A83FEF7C9F904F1B5
:104E60000C00BDE81040FFF7B3B800BF00380240A7
:104E700037B504460D46FEF77BF800222946134657
:104E80000092019204F10C00FFF772FA237F0546AD
:104E900013B12046FFF7B4FF2046FEF781F82846FD
:104EA00003B030BD00000000000000000000000062
:104EB000F0B585B004AD04461F4605F8012D0E4639
:104EC000FEF756F89DF828302A46019300970123F3
:104ED00004F10C003146FFF77BF9237F054613B13F
:104EE0002046FFF78DFF2046FEF75AF8284605B00A
:104EF000F0BD000000000000000000000000000005
:104F00002DE9FF470C9C05468A461E468DF80F206A
:104F1000FEF72EF8E4B1082C34BF274608275FFAC5
:104F200087F98DE8400205F10C0051460DF10F02A2
:104F30000123FFF71DFA804658B90520FEF758F9FE
:104F40009DF80F30E41B99443E448DF80F90E1E743
:104F5000A0462B7F13B12846FFF752FF2846FEF7E5
:104F60001FF8404604B0BDE8F087000000000000D4
:104F7000F0B4840743D0541E002A3ED0CDB203467D
:104F800003E0621E002C38D0144603F8015B9A0738
:104F9000F7D1032C2AD9CDB245EA05250F2C45EAD5
:104FA000054515D9A4F110073F0903F1100606EBDA
:104FB00007161A46156055609560D5601032B242EA
:104FC000F8D104F00F040137032C03EB07130DD9BC
:104FD0001E462246043A032A46F8045BFAD8221FEA
:104FE00022F003020432134404F003042CB1C9B2CA
:104FF0001C4403F8011BA342FBD1F0BC70471446CC
:105000000346C6E7000000000000000000000000AA
:1050100030B40C4B0C4D1C680C49D4F8A820D4F8C3
:10502000AC0005FB02F5A2FB012301FB005101329C
:105030000B4443F10003C4E92A2323F0004030BCB1
:10504000704700BF300C00202DF451582D7F954C37
:105050000F4B30B405461C6802E0D01A16D1ABB134
:1050600015F8013BE21850781A4600F003000128B9
:1050700008BF03F1200211F8013BE018407800F06E
:1050800003000128E9D12033D01AE9D030BC7047A1
:1050900004080020000000000000000000000000E4
:1050A000024A012312685C3200F002B8300C002082
:1050B000F0B420B3074617F8016B0D4601E0A64295
:1050C00016D015F8014B002CF9D1EEB13E4616F87A
:1050D000015B0C4600E073B114F8013BAB42FAD11E
:1050E0005DB100233B70166006463046F0BC704749
:1050F00063B13846DEE73746E8E72E46F3E7106847
:105100000028D7D10646F0E71660EEE7176006469E
:105110000370EAE70000000000000000000000004B
:105120002DE9F00F424C82B0D4F800C001900E4639
:1051300000E02646344614F8015B0CEB050040788D
:1051400000F0080000F0FF0A0028F2D12D2D5BD0FE
:105150002B2D04BF7578B41C33F010003CD0994659
:10516000BAF1000F0CBF6FF0004B4FF0004BBBFBD0
:10517000F9F8002709FB18BB38460CE0303DAB427C
:1051800019DD7E1C05D0404523D820D009FB0050F6
:10519000012714F8015B0CEB0506767816F0040F76
:1051A000ECD116F0030606D0012E14BF5726372681
:1051B000AD1BAB42E5DC7B1C15D0BAF1000F21D151
:1051C0000AB1EFB9116002B0BDE8F00F70475D455C
:1051D000DCDD4FF0FF37DCE7302D1AD0002BBED1DD
:1051E0000A239946BCE70199BAF1000F4FF0220358
:1051F0000CBF6FF000404FF000400B60002AE2D07F
:10520000611EDFE74042DBE7B41C75784FF0010A0E
:10521000A2E7207800F0DF00582803D0002B9ED1B1
:1052200008239CE7102365789946023498E700BF6D
:105230000408002000000000000000000000000042
:1052400030B4044C0D46134601462A46206830BC53
:10525000FFF766BF300C00200000000000000000D7
:105260002DE9F00F484C82B0D4F800C001900E46F2
:1052700000E02646344614F8015B0CEB050040784C
:1052800000F0080000F0FF070028F2D12D2D56D0C5
:105290002B2D08BF7578BA4608BFB41C33F0100038
:1052A00039D04FF0FF38B8FBF3F803FB08FB994601
:1052B0006FEA0B0B002738460CE0303DAB4219DD9E
:1052C000002F25DB404523D820D009FB00500127C3
:1052D00014F8015B0CEB0506767816F0040FECD1A0
:1052E00016F0030606D0012E14BF57263726AD1B35
:1052F000AB42E5DC002F1CDBBAF1000F17D10AB17D
:105300009FB9116002B0BDE8F00F70475D45DCDD6C
:105310004FF0FF37DCE7302D16D05BBB0A239946F0
:105320004FF0050BDFF86480C4E7611EE9E74042F7
:10533000E5E70198222303604FF0FF30DFE7B41C5C
:1053400075784FF0010AA9E7207800F0DF005828AF
:1053500007D07BB9082399464FF0070B6FF06048E0
:10536000A8E71023657899464FF00F0B02346FF0D1
:1053700070489FE74FF0FF38B8FBF3F803FB08FBDA
:1053800099466FEA0B0B95E7040800209999991943
:1053900030B4044C0D46134601462A46206830BC02
:1053A000FFF75EBF300C002000000000000000008E
:1053B00000FFFF00000000000000000000000000EF
:1053C000030406080C101820300000000000000044
:1053D000000102030406070809000000000102039F
:1053E00004000000000000000000000000000000B9
:1053F000202C002341636B2025640D0A00546F703C
:105400003D25753B205265643D25753B2059656CF3
:105410006C6F773D25750D0A00447A3D25643B206D
:10542000446D673D25640D004368617267653D25E5
:10543000753B2043617061636974793D25750D008A
:105440004E65772049443A2025750D004545206575
:1054500072726F723A2025750D00547970653D2582
:10546000750D0A002350696E670023536574494423
:1054700000234765744944002349442025750D0ADB
:10548000002353657454797065002347657454791B
:1054900070650023547970652025750D0A0023502E
:1054A000696C6C5374617465002350696C6C2025C1
:1054B00075204F6B0D0A002350696C6C20257520F8
:1054C0004661696C0D0A002350696C6C5265616419
:1054D0003332002350696C6C4461746133322000B4
:1054E000256420002350696C6C57726974653332EF
:1054F000002350696C6C52657065617457726974F1
:105500006533320023476574446F7365546F7000D0
:1055100023446F7365546F702025750D0A00235363
:105520006574446F73650023476574446F73650049
:1055300023446F73652025750D0A00235365744459
:105540006F7365546F700049443D25750D0A000066
:1055500002007D065A000000020020065A000000EA
:105560000200C8055A00000002007505B4000100E1
:105570000A00000075000000A2000000C400000046
:10558000E1000000FA000000110100002601000007
:105590003A0100004C0100005E0100006E010000B5
:1055A0007E0100008D0100009C010000AA010000A6
:1055B000B8010000C5010000D2010000DE010000BA
:1055C000EA010000F6010000020200000D020000E6
:1055D00018020000230200002E0200003802000022
:1055E000420200004C02000056020000600200006F
:1055F00069020000730200007C02000085020000C6
:105600008E02000097020000A0020000A902000024
:10561000B1020000BA020000C2020000CA0200008B
:10562000D2020000DA020000E2020000EA020000FA
:10563000F2020000FA02000001030000090300006A
:1056400010030000180300001F03000026030000E1
:105650002E030000350300003C030000430300005C
:105660004A03000051030000580300005E030000DD
:10567000650300006C030000720300007903000062
:105680007F030000860300008C03000093030000EA
:10569000990300009F030000A6030000AC03000074
:1056A000B2030000B8030000BE030000C403000002
:1056B000CA030000D0030000D6030000DC03000092
:1056C000E2030000E803000000000000000000000A
:1056D00000FF0000240000000000BE0B00000000DE
:1056E000FFFF0000240000000000BE0B00000000CF
:1056F000FF000000240000000000F0030000000094
:10570000FF000000240000000000360000580008E0
:10571000FF0000002400FF0000000F2710590008C0
:1057200000FF00000E0100000000A00500000000C6
:10573000FFFF00000E0100000000E7030000000072
:10574000FF0000000E0100000000E7030000000061
:1057500002007505B40000000200B80768010100EE
:1057600000FF0000B400000000001404000000006E
:105770000000FF00B40000000000BE0B00000000AD
:1057800000FFFF00B40000000000E703000000007D
:10579000FF000000EF0100FF0000EF01505700087C
:1057A00000FF0000B400000000001404000000002E
:1057B000FFFF0000B400000000001404000000001F
:1057C000FF000000B400000000001404000000000E
:1057D000FFFF0000D70700000000920930580008C2
:1057E000496E6469636174696F6E000000000000B7
:1057F00000FF0000D707000000005C0D60590008A2
:105800000200B807360001000000000000000000A0
:105810000200B8073600000000000000360000005B
:105820000200B80736000100000000000000000080
:1058300002002006B400000000000000120000007A
:1058400002002006B400000000000000120000006A
:1058500002002006B400000000000000120000005A
:105860000200DD04A00501000000000000000000AF
:1058700002007D06D70701000000000000000000C4
:105880000200B807B40000000200B909B40000002B
:105890000200900BB40001000000000000000000B6
:1058A000FF000000C20100000000F80100580008DD
:1058B00000010000FF000000FF00FF00FFFF00FFED
:1058C00000FF00FFFF00FFFF0000FFFF0000FFFFE1
:1058D000FF000001000000000000000000000000C8
:1058E00000000000000000000000000000000000B8
:1058F0000000FF00BE0200000000F8018058000810
:10590000FF000000BE0200000000F801305900084E
:105910000200B807D00700000000000010270100B7
:105920000000FF00360000000000B400000000008E
:105930000200EA0AB400000002002D09B4000000D1
:105940000200B807B40001000000000000000000E1
:105950000200B807D70701000000000000000000A7
:1059600002007505D00200000000000012000000D7
:1059700002002705B4000000000000001200000033
:1059800002007505B40000000000000012000000D5
:10599000020027056801000000000000120000005E
:1059A00002001704B4000000000000001200000014
:1059B000020017046801000000000000120000004F
:1059C00002007003B400000000000000120000009C
:1059D00002009704D0020100000000000000000057
:1059E0000D5273740D0A00446F73652053746F7207
:1059F00065204661696C0D00000000000000000099
:105A0000556E6B6E6F776E2050696C6C0D00436144
:105A1000703D25753B20436872673D25750D005428
:105A2000325265703D25753B20486C74683D257584
:105A30000D002350696C6C52656164333220302054
:105A400031360D0A002350696C6C577269746533E6
:105A5000322030002C25640000000000000000000F
:105A6000010203040000000000000000000000002C
:105A70004772656E6164652025640D00724C766C1A
:105A800031000000000000000000000000000000E5
:105A9000A3FA0000A3FA010BA3FA012AA3FA01FF5B
:105AA0000A00000075000000A2000000C400000011
:105AB000E1000000FA0000001101000026010000D2
:105AC0003A0100004C0100005E0100006E01000080
:105AD0007E0100008D0100009C010000AA01000071
