:020000040800F2
:1000000000040020910B0008110A0008110A0008E2
:10001000110A0008110A0008110A0008110A000854
:10002000110A0008110A0008110A0008310A000824
:10003000110A0008110A0008110A0008010B000843
:10004000110A0008110A0008110A0008110A000824
:10005000110A0008110A0008110A0008110A000814
:10006000110A000871090008110A0008511500085A
:1000700081150008B1150008F115000831160008B7
:1000800071160008B1160008110A0008110A0008CC
:10009000110A0008110A0008110A0008110A0008D4
:1000A000110A0008110A0008110A0008110A0008C4
:1000B000110A0008110A0008110A0008110A0008B4
:1000C000110A0008110A0008110A0008110A0008A4
:1000D000110A0008110A0008110A0008110A000894
:1000E000110A0008110A0008110A0008110A000884
:0400F000110A0008E9
:0C00F40001010008110100084102000891
:10010000024B00221A705A601A737047380C002094
:10011000104B0022184683F8C0210021815401327F
:10012000CF2A0C4BF9D1012283F8D8204FF4E132C9
:10013000C3F8D430C3F8D030C3F8DC10C3F8E010F3
:10014000C3F8E420C3F8E810C3F8EC10C3F8541166
:10015000704700BFF00D002000000000000000000C
:100160001FB5274C022001F0C3FB204601F030FBF5
:1001700001F0AEF901F014F8224B23489A69234BA1
:100180004FF4E1311A6001F083FF23682049214ACE
:1001900000931D48204B01F08BFE204802F0E8F947
:1001A0001F4802F0E5F91F4802F0E2F900238DF83C
:1001B0000C308DF80D308DF80E301B48039902F08D
:1001C000AFF81A4802F0CCFA10B11748184901E00C
:1001D0001548184902F0E4F9202383F3118800F050
:1001E00047FD154840F68C21144A002301F020F900
:1001F00000F056FD002383F31188044802F0E8F96B
:10020000C80C00202C160020F00D00201C1000202F
:100210003E2D00084D2D0008572D0008DC0F002052
:10022000F00F002004100020BC0F00204C10002014
:10023000802D0008F02C000824100020E122000886
:10024000F0B51B4C1B4B2546DFF878E01A4F91B0F8
:1002500045F8203B0123CDF804E00397ADF81030BA
:1002600001AE0FCE0FC54FF0000C04232B60CDF86C
:1002700018E00897ADF824C004F1340506AE0FCE9F
:100280000FC503232B600523C4F818C0C4F81CC095
:100290000D97ADF838300BAD4834CDF82CE00FCDCC
:1002A0000FC402232360054A054B5A6011B0F0BD0C
:1002B000BC0F0020D82C000800040240702D00085C
:1002C0001C1000200004004000000000000000009E
:1002D000054B064A108A00F0400080B210B1013B85
:1002E000F7D10120704700BFB88201000000024032
:1002F000036899811A89D207FCD59889C0B27047E2
:1003000088B27F28C4BFA1F5807188B2022300B2F1
:1003100090FBF3F04A3840B2704700000000000044
:100320002DE9F0410E4D10266E8304468846FFF7F6
:10033000CFFF074638B12E830A480B4901F0B8FDBC
:100340000120BDE8F081083448F080012046FFF725
:10035000CFFF20463946FFF7CBFF2E83BDE8F08163
:1003600000000240F00D0020F0290008000000000D
:100370002DE9F8438846782106461746FFF7D0FF57
:10038000030631D51A4D4FF01009A5F81A90FFF762
:100390009FFF044610B1A5F8189025E006F1080566
:1003A0002846FF21FFF7A4FFC146C8EB0903327BB3
:1003B000DBB29A4228464FF0000104D9FFF798FFBC
:1003C00009F8010BF1E7FFF793FF0021804628466B
:1003D000FFF78EFF064B10221A8337B13046414695
:1003E000FFF78EFF387000E001242046BDE8F88357
:1003F00000000240000000000000000000000000BB
:100400002DE9F8430E4E102777830446894690461F
:10041000FFF75EFF054630B137830A480A4901F00D
:1004200047FD012509E0083449462046FFF760FFF3
:1004300020464146FFF75CFF37832846BDE8F88336
:1004400000000240F00D0020F62900080000000026
:100450002DE9F0410C4E1027778304468846FFF7BC
:1004600037FF054610B1378301250AE004F1080083
:100470004146FFF73DFF20703783237803F0700378
:1004800023702846BDE8F081000002400000000013
:1004900038B504460D46237820461BB13621FFF7B8
:1004A000D7FFF8E72A46BDE838400A21FFF7A8BF82
:1004B000F8B50C463A211E4605461746FFF7C8FF19
:1004C000202383F3118800F0D3FB134B28469B694C
:1004D00034216B60FFF7BCFF4FF47A714C43A4F5F5
:1004E0007A74B4FBF1F10220013100F089FD044679
:1004F00000F0D6FB002383F311880134284605D091
:1005000039463246BDE8F840FFF732BF3621FFF7E3
:100510009FFF0220F8BD00BF2C1600200000000045
:1005200010B504460B210C22FFF76AFF20460C2170
:100530000022FFF765FF20460D212022FFF760FF14
:1005400020460E212522FFF75BFF20460F21ED22DA
:10055000FFF756FF204610212D22FFF751FF2046BE
:1005600011212F22FFF74CFF204612211322FFF703
:1005700047FF204613212322FFF742FF2046142184
:10058000FF22FFF73DFF20460A210022FFF738FF38
:10059000204615216222FFF733FF20462121B62293
:1005A000FFF72EFF204622211022FFF729FF1821F6
:1005B0000A462046FFF724FF204619211D22FFF797
:1005C0001FFF20461A211C22FFF71AFF20461B217D
:1005D000C722FFF715FF20461C210022FFF710FF5E
:1005E00020461D21B022FFF70BFF20462321EA22DF
:1005F000FFF706FF204624212A22FFF701FF2046AD
:1006000025210022FFF7FCFE204626211F22FFF7AE
:10061000F7FE20462C218822FFF7F2FE20462D21EE
:100620003122FFF7EDFE20462E210922FFF7E8FEDA
:10063000204603210722FFF7E3FE20460021072280
:10064000FFF7DEFE204602210622FFF7D9FE2046F4
:1006500007210C22FFF7D4FE204608214422FFF791
:10066000CFFE20463E215022FFF7CAFE204616212B
:100670000722FFF7C5FE2046BDE8104017210022E3
:10068000FFF7BEBE000000000000000000000000F8
:10069000F8B59B4D9B4CEB69302143F00103EB61B6
:1006A0002368064623F440732360236843F4807371
:1006B0002360A38823F010031B041B0CA380A388D2
:1006C0009BB2A380E36823F44073E360E368E360D4
:1006D000A36823F44073A360A36843F44073A3604A
:1006E000EB6943F00103EB61236823F4406323606B
:1006F000236843F400632360A38823F020031B04D2
:100700001B0CA380A3889BB2A380E36823F44063FF
:10071000E360E368E360A36823F44063A360A36835
:1007200043F40063A360236A23F470032362236A03
:1007300043F4A0032362EB6943F00103EB612368F8
:1007400023F440532360236843F400532360A388B9
:1007500023F040031B041B0CA380A3889BB2A3803F
:10076000E36823F44053E360E368E360A36823F4A1
:100770004053A360A36843F40053A360236A23F0AB
:1007800070632362236A43F0A0632362EB6943F042
:100790000103EB61236823F440432360236843F49F
:1007A00000432360A38823F080031B041B0CA38059
:1007B000A3889BB2A380E36823F44043E360E3682B
:1007C000E360A36823F44043A360A36843F40043B9
:1007D000A360236A23F070432362236A43F0A0439B
:1007E0002362EB6943F00103EB61236823F0C0034C
:1007F0002360E36823F0C003E360E368E360EB6930
:1008000043F00103EB61236843F030032360E368A6
:1008100023F03003E360102323833B4B83602A6A79
:1008200042F480522A624FF441721A801A8892B2BE
:100830001A8000229A809A8B22F400621204120C11
:100840009A831A8892B242F040021A80FFF700FEA3
:10085000074658B1B2682D4813882D4923F040034C
:100860001B041B0C138001F023FB16E0072206215A
:100870003046FFF7C5FD30460621FFF751FD07283A
:1008800002460CD0B16821480B8823F040031B04BA
:100890001B0C0B801F4901F00BFB01272DE03A21B7
:1008A0003046FFF7D5FD3046FFF73AFE0323337697
:1008B0002B6A194A43F00103776074612B629368D5
:1008C000092023F470439360144B1A6842F0080225
:1008D0001A605A6822F008025A60317E01228A406A
:1008E000996821EA02019960D9680A43DA6008220E
:1008F0005A617021306100F04BF83846F8BD00BFF6
:10090000003802400000024000300140F00D00209D
:10091000FC290008092A00080000014000040140E9
:1009200010B5027E012393400D4A044653612023F3
:1009300083F3118800F0CCF9636853B193F8202059
:10094000022A04D100229A62606800F0E9FA0023CA
:10095000636000F0D5F9002383F3118810BD00BF58
:100960000004014000000000000000000000000042
:1009700008B500F0DDF90448FFF7D2FF00F0F8F900
:10098000BDE8084000F084B8380C002000000000EA
:1009900020F0030303F1604303F5614300F0030219
:1009A00030B5D200D3F80053FF249440914025EA9B
:1009B000040400F01F02400921438000C3F8001323
:1009C00000F160400123934000F56140C0F88031A0
:1009D000036030BD000000000000000000000000C7
:1009E00020F0030303F1604310B503F56D4300F0FD
:1009F00003009C69C000FF22824024EA0202814079
:100A00001143996110BD00000000000000000000CB
:100A1000FEE70000000000000000000000000000F1
:100A200000F026F900F09CFB00F03AF900DF00002E
:100A3000EFF30983203383F30988002383F31188BC
:100A400070470000000000000000000000000000EF
:100A500008B50A4B00229A60094A0720DA60102183
:100A6000FFF7BEFF0A204FF40071FFF7B9FFBDE8A2
:100A700008400B208021FFF7B3BF00BF00ED00E06E
:100A80000003FA0500000000000000000000000064
:100A9000202383F31188154B5B6813F4006321D086
:100AA000EFF30982A2F1200383F3098810494FF084
:100AB000807342F8043C8B69096893F822008968C6
:100AC0009B6820B1994294BF0023012303E099421F
:100AD00034BF002301230BB1064B00E0064B42F864
:100AE000083C704783F31188704700BF00ED00E0B9
:100AF0002C160020210A00082C0A00080000000023
:100B000008B500F015F9202383F3118800F0E0F810
:100B100000F07EFB00F0F4F8002383F3118800F06E
:100B200027F9BDE80840FFF7B3BF00000000000050
:100B30002DE9F04FC1F80CD0D0F80CD0BDE8F08F03
:100B400008B500F0ADF8002383F311882846A047CC
:100B500000F04EFC08BD0000000000000000000096
:100B600070470000000000000000000000000000CE
:100B700070470000000000000000000000000000BE
:100B8000FEE7000000000000000000000000000080
:100B900072B6214B83F30988022282F31488BFF3D3
:100BA0006F8F1E4A1E498A4204D24FF0553142F8D7
:100BB000041BF7E71B4A9A4204D24FF0553142F822
:100BC000041BF8E7FFF7CCFF174A184B18498B4274
:100BD00004D252F8041F43F8041BF7E7154B164ADA
:100BE000934203D2002243F8042BF8E7FFF7C0FF3B
:100BF000124C134B9C4203D254F8043B9847F8E73D
:100C0000FFF7AEFA0F4C104B9C4203D254F8043B52
:100C10009847F8E7FFF7B4FF000800200000002025
:100C20000004002000040020342F000800080020E9
:100C3000340C0020380C002000170020F4000008BD
:100C40000001000800010008000100080000000089
:100C5000044B1B6813B9044B1B6813B1034800F025
:100C6000B7BF704724160020281600202A2A000843
:100C7000064B10B51B68064C0BB9236813B1054829
:100C800000F0A6FF0123236010BD00BF2416002042
:100C9000281600202F2A0008000000000000000095
:100CA000064B10B51B68064C13B92368002B02DCF9
:100CB000044800F08DFF0023236010BD241600209F
:100CC00028160020342A0008000000000000000060
:100CD000064B10B51B68064C002B01DD236813B1D1
:100CE000044800F075FF0123236010BD2416002086
:100CF00028160020392A000800000000000000002B
:100D0000074B10B51B68074C002B02DD2368002B36
:100D100002DC054800F05CFF0023236010BD00BF2B
:100D200024160020281600203E2A0008000000009B
:100D300010B5202383F31188084C2368002B02DBB5
:100D4000074B1B6813B1074800F042FF23680133CB
:100D50002360002383F3118810BD00BF24160020F8
:100D600028160020432A00080000000000000000B0
:100D700010B5202383F31188084C2368002B02DD73
:100D8000074B1B6813B1074800F022FF2368013BA3
:100D90002360002383F3118810BD00BF24160020B8
:100DA00028160020482A000800000000000000006B
:100DB000054B1B68002B03DB044B1B68002B02DC7C
:100DC000034800F005BF70472416002028160020B5
:100DD0004D2A000800000000000000000000000094
:100DE000054B1B681BB9054B1B68002B02DC044834
:100DF00000F0EEBE704700BF241600202816002029
:100E0000532A00080000000000000000000000005D
:100E1000034A4021134643F8081B5360704700BF44
:100E20001812002000000000000000000000000078
:100E30000C4A0D495368C968103343F8101C0B491C
:100E4000896943F80C1C816A43F8081C90F820104B
:100E500003F8041C02F581618B4228BF02F10803EC
:100E60005360704718120020F01600202C16002046
:100E700038B504460D46FFF79BFF14B90C4800F047
:100E8000A7FE216B94F820302943082B216303D15E
:100E9000A36A194206D138BD092B08D1A36A1940AB
:100EA000994204D1204600F03BF80023836238BD0C
:100EB0008A2A000800000000000000000000000076
:100EC0000E4B70B59D690646202383F31188FFF70A
:100ED000CFFE2C6B344005D1AE62082000F068F8DC
:100EE0002C6B34402B6B23EA04032B63FFF7D8FEF3
:100EF000002383F31188204670BD00BF2C1600200C
:100F0000034B00225B601B609A605B611B61704752
:100F10002C1600200000000000000000000000006F
:100F200010B50446FFF744FF94F820300BB10E2BA8
:100F300002D1094800F04CFE002384F82030A2685A
:100F4000064B1B6899689142FBD25A682360626025
:100F500020465C60146010BD102B00082C16002089
:100F600038B50446202383F31188FFF7B1FE94F8C7
:100F700020505DB1032D0DD1A26A936801339360B7
:100F800094E80C001A602268536003E0FFF7B8FE93
:100F90002B4608E04FF0FF33A3622046FFF7C0FF67
:100FA000FFF7AEFE002383F3118838BD0000000078
:100FB00070B50646104CFFF713FFA569142385F89A
:100FC0002230236885F820601A6828465460226021
:100FD000012283F82020A361FFF72AFFEA69ADF11F
:100FE00024039A4202D9054800F0F2FDA06929467F
:100FF000BDE87040FFF79CBD2C160020222B000896
:1010000070B50E4686B00546FFF7EAFE731C0C4C21
:101010000ED0A36901A831460A4A00F009FA284611
:10102000FFF7C6FF049B33B101A800F029FA02E0E4
:101030002846FFF7BDFFA369986A06B070BD00BFE0
:101040002C160020610F00080000000000000000C6
:1010500070B504460D46124EFFF7C2FEB069A26895
:101060008368A5629A4204D82046BDE87040FFF725
:1010700057BFFFF755FF0546012384F82030B461C0
:10108000FFF7D6FEEA69ADF124039A4202D905487A
:1010900000F09EFD20462946BDE87040FFF748BDA0
:1010A0002C160020222B0008000000000000000089
:1010B00038B5104C2368A5691A6828465460226028
:1010C000012283F82020A361142385F82230FFF742
:1010D00027FF2846FFF7ACFEEA69ADF124039A42E8
:1010E00002D9054800F074FDA0692946BDE83840E2
:1010F000FFF71EBD2C160020222B00080000000068
:1011000038B5144B1D461A689C6911684B6019600C
:10111000012182F820109A61002284F82020A26820
:101120001B6899689142FBD85A6823606260204628
:101130005C601460FFF77CFEE269ADF124039A4223
:1011400002D9054800F044FDA8692146BDE83840B1
:10115000FFF7EEBC2C160020222B00080000000038
:10116000044B9B6993F822300BB9FFF7A1BFFFF73F
:10117000C7BF00BF2C1600200000000000000000C8
:10118000024B034A9B699A61FEE700BF2C160020C0
:10119000402B0008000000000000000000000000DC
:1011A00037B5FFF755FCFFF7ABFE00F031F9FFF75D
:1011B0002FFE40210D4800F063F80D4B0D4D01242A
:1011C000C36180F82040A861FFF742FD002383F34C
:1011D000118862B60849AA69084891610093A8215C
:1011E0002246074B00F094F803B030BD540C0020A9
:1011F000000400202C160020F02A000848160020C9
:101200008111000800000000000000000000000044
:10121000F8B5FFF7CDFD164B9B6993F8222012B16C
:10122000013A83F822205A6A01325A62114BDA6875
:101230001C460132DA601A689A4218D09368013B62
:10124000936025680B4BAE688EB92A68EF68EE6034
:1012500053601A60FFF754FD334683F31188286901
:10126000B847202383F31188FFF732FDE9E7F8BD83
:101270002C160020F01600200000000000000000E6
:10128000022280F82020002280F82120026342629E
:101290008261084A8160142180F82210516902613C
:1012A0004161506100F12C020861C26200F1340218
:1012B000C26170472C1600200000000000000000F2
:1012C0002DE9F04104460D4616461F46DDF818800C
:1012D000FFF76EFD24B1972D02D97F2E00D817B9E4
:1012E000084800F075FC243D074A6319E360204676
:1012F00067513146C3F804801A62BDE8F041FFF738
:10130000BFBF00BF502B0008410B000800000000C9
:10131000F7B504460D4617461E4600F134039842C1
:1013200003D0FF2200F8012BF9E76219934203D2A0
:10133000552103F8011BF9E7202383F31188FFF7F8
:1013400097FC089B3A460093294633462046FFF710
:10135000B7FF00210446FFF77BFEFFF7A1FC002347
:1013600083F31188204603B0F0BD000000000000A8
:1013700010B5044610B9094800F02AFC202383F375
:101380001188FFF775FC21460620FFF739FEFFF7AD
:1013900087FC002383F3118810BD00BF882B000851
:1013A0000F4B10B59C69A062234653F82C0F98424E
:1013B00004D00368E362FFF7B3FDF5E794F821304A
:1013C0000E209B0701BF226963691A61226908BF69
:1013D0005361FFF7EDFDBDE81040024800F0F8BB97
:1013E0002C160020972B00080000000000000000D1
:1013F00010B52023044683F31188FFF739FC2046FB
:10140000BDE81040FFF7CCBF000000000000000066
:10141000044B4FF0FF329A6000225B601B60DA6081
:10142000704700BFF0160020000000000000000020
:10143000F8B504460D4616461F46FFF7B9FC0CB139
:1014400006B115B90C4800F0C3FB0C4A27611368BC
:10145000E6609968A94202D26D1A1B68F9E75968DB
:101460002360616093425C600C60A5601EBF996858
:10147000491B9960F8BD00BFD02B0008F016002072
:1014800010B50446FFF794FC14B90B4800F0A0FB1C
:10149000E36813B9094800F09BFB2368084A9342AC
:1014A0001FBF9968A26852189A6062681360236827
:1014B0005A600023E36010BDDD2B0008EC2B000810
:1014C000F0160020000000000000000000000000F6
:1014D00000F006B80000000000000000000000005E
:1014E000154B00211A694FF47A7062F400421A61B8
:1014F00019619A6962F080529A6199615A694FF054
:10150000FF325A6159611A6A42F001021A62DA6ABC
:1015100042F00102DA62094A1268B2FBF0F20848AE
:10152000013A42600722816002605A6A42F08052AA
:101530005A6200F0DDB800BF00380240C80C00203D
:1015400010E000E0000000000000000000000000CB
:1015500008B5FFF7EDFB084B0F2219685A60074AE0
:1015600001F00F0113680BB150689847FFF700FCBA
:10157000BDE80840FFF78CBA00600240880C0020EC
:1015800008B5FFF7D5FB084BF02219685A60074AE7
:10159000C1F3031193680BB1D0689847FFF7E8FBDC
:1015A000BDE80840FFF774BA00600240880C0020D4
:1015B00008B5FFF7BDFB094B4FF4706219685A601C
:1015C000074AC1F3032113690BB150699847FFF72C
:1015D000CFFBBDE80840FFF75BBA00BF00600240E8
:1015E000880C002000000000000000000000000047
:1015F00008B5FFF79DFB094B4FF4704219685A601C
:10160000074AC1F3033193690BB1D0699847FFF7DB
:10161000AFFBBDE80840FFF73BBA00BF00600240E7
:10162000880C002000000000000000000000000006
:1016300008B5FFF77DFB094B4FF4702219685A601B
:10164000074AC1F30341136A0BB1506A9847FFF789
:101650008FFBBDE80840FFF71BBA00BF00600240E7
:10166000880C0020000000000000000000000000C6
:1016700008B5FFF75DFB094B4FF4700219685A601B
:10168000074AC1F30351936A0BB1D06A9847FFF739
:101690006FFBBDE80840FFF7FBB900BF00600240E8
:1016A000880C002000000000000000000000000086
:1016B00008B5FFF73DFB094B4FF0706219685A609F
:1016C000074AC1F30361136B0BB1506B9847FFF7E7
:1016D0004FFBBDE80840FFF7DBB900BF00600240E8
:1016E000880C002000000000000000000000000046
:1016F000094A002313600C225A430849515800221A
:101700000A60074941F833200133072BF3D1054B19
:101710004FF0FF325A607047C00C0020502C000878
:10172000880C002000600240000000000000000063
:101730002DE9F0410F4614469846054610B91D485C
:1017400000F046FADFF878E0697ADEF80060012000
:1017500000FA01FC1CEA060F29D1174A4CEA0603DD
:1017600042F83140CEF8003002EBC1025B06C2F80D
:10177000048018BF114A696818BFD3694FF000068A
:101780001CBF43F08073D3612B681A6822F00F02EC
:101790001A60287A0F2282400A601E6034B1A87A4B
:1017A0003901FFF7F5F83046BDE8F0812046BDE885
:1017B000F08100BF002C0008880C00200038024097
:1017C000C00C00200000000000000000000000002D
:1017D000F0B593B00021202204460AA801F040F899
:1017E0004FF480330A934FF400330B934FF480236C
:1017F0000C93344B03AA0D93334B06AE0E93334B2D
:101800000F93334B1093334B5968186803C2197AFE
:10181000117003F1090219331F46354610685168EB
:10182000083203C59A422E46F7D13868796801AB71
:1018300003C329488368C3F38103022B0CD0032B15
:101840000CD0012B20D0436812AAC3F3423302EB21
:10185000830353F8203C18E0204B16E0836812AA5B
:10186000C3F38343134413F83C2C8368C3F38153BD
:10187000591C8368194813F4803F194B18BF03465D
:101880005343B3FBF1F300E0154B134912A88A68E8
:10189000C2F30312024412F8302CD34023608A684A
:1018A000C2F30222024412F8442C23FA02F26260CC
:1018B0008A68C2F3C222024412F8442CD340A360C7
:1018C00013B0F0BD9CFF0700C0FD0F0068FF1F00B4
:1018D000D0FE3F00C02900080038024000127A0004
:1018E0000024F400000000000000000000000000E0
:1018F000094B4FF080525A62084B5A68D106FBD40C
:101900001A6822F4C05242EAC0221A605A68D2060B
:10191000FCD4034B18707047003802400070004040
:10192000C40C0020000000000000000000000000C7
:10193000104B984204D1104AD36943F0010316E0DA
:101940000E4B984204D10C4AD36943F002030EE0D7
:101950000B4B984204D1084AD36943F0040306E0D4
:10196000084B984204D1044AD36943F00803D36179
:10197000704700BF000002400038024000040240EF
:1019800000080240000C02400000000000000000BF
:101990002DE9F0410D46044690461F46FFF7C8FF6B
:1019A000680003218140C943236808FA05F80B4009
:1019B00023602268022383401A432260A088072DF7
:1019C00086B24FF0010000FA05F026EA0000A08080
:1019D000A08888BF083D48EA000292B2A280E2686F
:1019E0004FEA850502EA0102E260E26807FA05F7BC
:1019F000E260A26801EA0201A160A26843EA020370
:101A0000A3608CBF0123002304EB8304226A0F230D
:101A1000AB4022EA03032362226A17432762BDE830
:101A2000F081000000000000000000000000000045
:101A30000368284A934206D027498B4203D001F518
:101A400080618B4201D1254900E02549B3F1804FE7
:101A5000416004D1234A536A43F0010306E022495E
:101A60008B4205D11F4A536A43F002035362704709
:101A70001E498B4204D11B4A536A43F00403F5E725
:101A80001B498B4204D1174A536A43F01003EDE718
:101A900018498B4204D1134A536A43F02003E5E707
:101AA000934204D10F4A136A43F0040310E00A4A38
:101AB000934205D102F59632136A43F0080307E01A
:101AC0000D4A934205D102F59432136A43F0100394
:101AD0001362704700080140000C0140D00C002048
:101AE000CC0C0020003802400004004000080040F8
:101AF00000100040001400400010014000000000F1
:101B000070B505461C462B680846B3F1804F114658
:101B10009DF8182001D1012314E0284EB34203D0D0
:101B200006F58066B34201D102230BE0244EB34296
:101B300007D006F58066B34203D006F58066B3424F
:101B400002D10323FFF724FF049B2A68D3629DF888
:101B50001430012B04F1FF330CBF07200620032BA8
:101B60002BD8DFE803F0020C1620118B89B241EA72
:101B700000131383138C9BB243F001031CE0118B01
:101B800089B241EA00331383138C9BB243F01003F4
:101B900012E0918B89B241EA00139383138C9BB2BC
:101BA00043F4807308E0938B9BB243EA0033938342
:101BB000138C9BB243F48053138470BD0004004027
:101BC00000080140000000000000000000000000CC
:101BD000034B02469B69034803499B6900F088B99F
:101BE0002C160020F00D0020B02C00080000000092
:101BF000F0B5644685B00026B0FBF1F201FB12039C
:101C0000092B06F1010694BF3033373301AFDBB245
:101C1000BD19104605F8013C002AEDD13546236870
:101C20009E420ED2227CE3680AB1302000E02020E0
:101C30009847A368626801339342A3600FD20136CC
:101C4000EDE7A26863689B1A9D4228BF1D462A449F
:101C5000A26025B1013DE368785D9847F9E705B0DA
:101C6000F0BD0000000000000000000000000000C7
:101C70002DE9F0431C4687B00023049002910393A2
:101C800001938DF814301078561C002800F09F80C6
:101C9000252809D0049B9847039B029A013393425D
:101CA0000393C0F0928092E000221146019216F850
:101CB000013BA3F13000C5B2092D07D812B9302B72
:101CC00008BF01210A2303FB0202F0E7019203F09F
:101CD000DF02532A8DF814100FD1251D24682378B4
:101CE000002B6DD0039B5A1C0392029A934267D239
:101CF00014F8010B049B9847F1E7632B0BD1049B6D
:101D000020789847039B029A0133934204F104051B
:101D1000039355D35BE0582B05D1251D0DF1040C21
:101D20002068102106E0752B07D12068251D0DF1D4
:101D3000040C0A21FFF75CFF42E0642B11D1251D42
:101D40002468002C09DA049B2D209847039B029AF3
:101D50000133934203933AD264420DF1040C2046BE
:101D6000E7E7412B2BD101238DF814300223D4F85F
:101D70000080676804F10C05D4F8089001930024F2
:101D8000BC421DDA002C0CDC0DF1040C18F8040028
:101D90001021FFF72DFF029B039A9A4210D20134C3
:101DA000EEE7B9F1000FEFD0049B5FFA89F0984796
:101DB000039B029A013393420393E5D300E0254647
:101DC000029B039A9A4202D22C4632465BE7039862
:101DD00007B0BDE8F0830000000000000000000034
:101DE000044B1A881106FBD580B298801A88120617
:101DF000FCD57047003801400000000000000000E2
:101E0000D0F8D4305A1CC0F8D4201970D0F8D4209F
:101E100000F1CF039A4228BFC0F8D40070470000F9
:101E200001460148FFF7ECBFF00D00200000000064
:101E3000D0F8D010D0F8DC3000F1CF02521A9A421C
:101E400028BF1A46C0F8E02062B1002380F8D830DD
:101E5000054B5B6AD9605A6092221A601A6842F098
:101E600001021A60704700BF502C000800000000FB
:101E700038B50D46D0F8DC10044613460948C1F1C8
:101E8000CF012A46FFF7F4FED4F8DC30184494F86A
:101E9000D830C4F8DC0023B12046BDE83840FFF755
:101EA000C7BF38BD211E0008000000000000000070
:101EB0000EB477B507AC064654F8045B202383F3D1
:101EC0001188FEF7D5FE3046294622460194FFF7D9
:101ED000CFFFFEF7E5FE002383F3118803B0BDE8D2
:101EE000704003B0704700000000000000000000D8
:101EF0000EB403B503AB53F8042B05490548019311
:101F0000FFF7B6FE02B05DF804EB03B0704700BF08
:101F10009F860100E11D0008000000000000000095
:101F20000446394B80B59B69C0F854316320FFF7F4
:101F30001FFA364BD4F8E8501B6B5B68C3F16303A0
:101F4000AB42F3D05D1B48BF6335C4F8E8300026D0
:101F5000AE42EBDAD4F8EC305A1C622AC4F8EC201A
:101F60002344C8BF002293F8F030C8BFC4F8EC2067
:101F700094F8C0213AB10022082B84F8C021C4F89B
:101F8000BC213DD13AE0082B06D1D4F8BC31ABB32B
:101F9000013BC4F8BC3131E00D2B01D00A2B23D119
:101FA000D4F8BC3153B32344002783F8587104F5A7
:101FB000AC70174900F0C4FC012384F8C031C4F8A8
:101FC000C401202383F31188FEF752FE114B022136
:101FD0001868FEF74DFF0220FEF7EAFFFEF760FEED
:101FE0003B4683F3118809E0D4F8BC21612A9FBFE6
:101FF000511C1219C4F8BC1182F858310136A7E7F8
:102000000D2BCBD1FAE700BF2C160020502C000876
:10201000C02C00081C100020000000000000000080
:1020200008B5034B034A9B6903489A61FFF778FFA1
:102030002C160020C32C0008F00D0020000000002A
:1020400010B52023044683F31188FEF711FED4F85F
:10205000540190F82030022B01D1FEF761FFFEF70A
:102060001FFE002383F3118810BD00000000000054
:10207000044BD0F8E4209B68B3FBF2F3024A9BB216
:1020800013817047C80C0020003801400000000098
:102090002DE9F74FDFF864B1534CDBF81C30DFF863
:1020A000609143F00103CBF81C302368C84623F449
:1020B0004023236023684D4D43F400232360A3880D
:1020C000002623F400731B041B0CA380A38807467F
:1020D0009BB2A380E368DFF82CA123F44023E360E4
:1020E000E368F037E360A36823F44023A360A368A8
:1020F00043F40023A360636A23F0F0036362636A1E
:1021000043F070036362C0F8E410DBF8203043F45E
:102110008043CBF82030FFF7ABFF33462E82484692
:102120000721334AFFF704FB58F824399222C3F8F9
:1021300008A01A600C23AB81C023AB82DBF81C30F3
:10214000324643F00103CBF81C30236809F10C0040
:1021500023F44013236023680F2143F4001323600A
:10216000A38823F480631B041B0CA380A3889BB269
:1021700043F48063A380E36823F44013E360E368DF
:1021800043F48013E360A36823F44013A360A368BF
:1021900043F40013A360636A23F470636362636AA9
:1021A00043F4E06363623346FFF7C2FAD8F8303095
:1021B0006322C3F808A0DF605A604FF485521A60AA
:1021C0001A684FF48C7142F001021A6009480096B7
:1021D0000222094BFFF79CF8AB899BB243F40053F2
:1021E000AB8103B0BDE8F08F000002400038014031
:1021F00071220008D80C002021200008003802407D
:10220000742C0008043801400000000000000000A9
:10221000134A10B5546A216821F00F01216092F829
:102220002C40916A0F22A2400A60D0F8D040D0F82A
:10223000E020D0F8DC10891A224400F1CF04A24239
:1022400028BF0246C0F8DC10C0F8D02019B901221E
:1022500080F8D82010BDBDE81040FFF7E9BD00BFF1
:10226000502C0008000000000000000000000000EA
:102270000148FFF7CDBF00BFF00D002000000000B7
:1022800010B52023044683F31188FEF721FD23684F
:1022900020469B689847FEF733FD002383F311889F
:1022A00010BD000000000000000000000000000061
:1022B00010B52023044683F31188FEF709FD054B72
:1022C00021461868FEF7D4FDFEF71AFD002383F3BC
:1022D000118810BD1C10002000000000000000004C
:1022E00010B5202383F311880A4CFEF7F1FC54F853
:1022F000080B1021FEF7BCFD204640F68C21064A53
:102300000023FFF795F8FEF7FBFC002383F3118809
:1023100010BD00BF1C100020E122000800000000DA
:1023200013B5036B6FF04042D418036A019103EBBD
:102330008403C9B25963436CD118436B03EB810327
:102340009DF805105963836D1A44836C03EB820377
:102350009DF806205A6302B010BD00000000000086
:1023600007B500238DF804308DF805308DF8063060
:102370000199FFF7D5FF03B05DF804FB00000000F2
:1023800010B50C460948D4F8C4210949FFF790FD5F
:102390000849D4F8C40100F0B3FA024606492046C1
:1023A00002B10922BDE81040FFF782BDF00D002008
:1023B000102D0008152D00081A2D0008000000003F
:1023C0004FF47A725143A1F57A71B1FBF2F10346F1
:1023D00001310430014AFFF72BB800BF8122000809
:1023E000036910B5044613B10430FFF749F8E369F7
:1023F0001A78032AFDD8DFE802F00209111B2368CE
:1024000020461B6898470128F1D110BDD3F8011070
:102410000833E3610029EAD0204607E02046D3F8DC
:102420000120A369012103EBC203E361FFF7C8FFA9
:1024300010BD0000000000000000000000000000CF
:1024400038B5C36990F85C20597904468A4209D1AD
:1024500090F85D509879854204D194F85E50D8790F
:1024600085427AD0D3F80150BDB999795A79DB7990
:1024700042EA012242EA034305F07F411943204624
:10248000FFF74EFFE3695A7984F85C209A7984F863
:102490005D20DA7984F85E205FE08A4201D2013261
:1024A00001E002D9013A84F85C2094F85D20997922
:1024B0008A4201D2013201E002D9013A84F85D205A
:1024C00094F85E20DB799A4201D2013201E002D910
:1024D000013A84F85E202046E16DFFF721FFE369B1
:1024E00094F85C005A7982420AD194F85D109A7986
:1024F00091420CD194F85E10DA79914207D12CE028
:10250000D3F801200430B2FBF0F0421C00E00022BE
:1025100094F85D10987994F85E5088421EBFD3F805
:1025200001000431B0FBF1F1D87914BF0131002171
:10253000A8421DBFD3F801002B1DB0FBF3F300230D
:1025400018BF0133914238BF11469942204638BF27
:102550001946FFF735FF012038BD0833E36100203D
:1025600038BD000000000000000000000000000076
:102570001FB50446FFF75CFAFF2100910021A289F4
:10258000237C019102912046A168FFF7B9FA2268E5
:1025900013889BB243F00103138004B010BD000008
:1025A00038B504460D46202383F31188FEF760FBFF
:1025B0002368A561E5619B6820469847FEF770FB9C
:1025C000002383F3118838BD0000000000000000E4
:1025D000044680B54FF0FF30FEF772FC81070546D8
:1025E00006D520462D49FFF7CBFE2C48FFF728FDE6
:1025F000EA0645D5202383F31188FEF739FB284BE3
:1026000000271E6B1F63FEF74BFB3B4683F31188CD
:10261000002E35D004F11C07202383F31188FEF728
:1026200027FBA36A13B13846FEF72AFF384642F269
:1026300028311C4A2023FEF7FBFEFEF731FB002366
:1026400083F31188012E184A636809D1934217D188
:10265000164B1749DA681148FFF72AFC15490BE0B9
:10266000934202D0134A93420AD1104B1249DA68BE
:102670000A48FFF71DFC114961601148FFF790FF00
:10268000AB06A7D5094B0548DA680E49FFF710FCE1
:1026900005490B486160FFF783FF9BE7F00D0020C1
:1026A0004C100020B1220008702D0008F016002008
:1026B000252D0008E02D00082D2D0008F02D000824
:1026C000BC0F0020362D00080000000000000000B4
:1026D000036B73B5022B044620D8062514482946FF
:1026E000FDF7D6FE0721124822460DEB0103FDF748
:1026F000DFFE78B922462368216B884205D052F864
:10270000046F9E4206D00130F7E704EB80020130EF
:10271000536020630135EDB2102DDFD1392104481B
:10272000FDF796FE4FF4E170FEF722FE02B070BD99
:10273000380C002000000000000000000000000035
:1027400008B5044B044A9B699A610448FFF7C0FF2F
:10275000FBE700BF2C160020002E00084C100020C4
:1027600037B53749374CCB69204643F00403CB617A
:10277000354B1A6822F040521A601A6842F08052B3
:102780001A609A8822F480421204120C9A809A8865
:1027900092B29A80DA6822F04052DA60DA68DA603F
:1027A0009A6822F040529A609A6842F040529A60C9
:1027B000CA6942F00402CA611A6822F040621A60D3
:1027C0001A6842F080621A609A8822F40052120459
:1027D000120C9A809A8892B29A80DA6822F040624B
:1027E000DA60DA68DA609A6822F040629A609A6881
:1027F00042F040629A60FDF74BFF0546C0B92046A3
:102800003E212622FDF7FCFD042220460621FDF78D
:10281000F7FD0423204609212373FDF739FE0095B7
:102820004FF4CC717F22094B0948FEF771FD04E09B
:1028300008480949FFF73CFB0125284603B030BD95
:1028400000380240380C00200008024041270008F0
:1028500080100020F00D0020062E0008000000006F
:1028600070B4840746D0541E002A41D0CDB203462E
:1028700002E0621EE4B3144603F8015B9A07F8D144
:10288000032C2ED9CDB245EA05250F2C45EA054586
:1028900019D9264603F11002103E0F2E42F8105CA3
:1028A00042F80C5C42F8085C42F8045C02F1100249
:1028B000F2D8A4F1100222F00F0204F00F0410323B
:1028C000032C13440DD91E462246043A032A46F827
:1028D000045BFAD8221F22F003020432134404F0EE
:1028E00003042CB1C9B21C4403F8011BA342FBD161
:1028F00070BC704714460346C2E700BF00000000EA
:102900000E4B30B41D6802E09B1A14D19AB110F836
:10291000013BEA18527802F00302012A11F8012B58
:1029200008BF2033AC18647804F00304012CEBD109
:1029300020329B1AEBD0184630BC704700080020AC
:10294000024A012312685C3200F002B8300C002009
:10295000F0B420B307460D4617F8016B01E0A6421C
:1029600016D015F8014B002CF9D1EEB13E460C46BD
:1029700016F8015B00E073B114F8013BAB42FAD1E9
:102980005DB100233B70166006463046F0BC7047D0
:1029900063B13846DEE73746E8E72E46F3E71068CE
:1029A0000028D7D10646F0E71660EEE71760064626
:1029B0000370EAE7000000000000000000000000D3
:1029C000030406080C10182030000000000000006E
:1029D00000010203040607080900000000010203C9
:1029E00004000000000000000000000000000000E3
:1029F0000D43432032000D43432031000D4343205B
:102A0000527374204661696C000D434320522F5766
:102A1000204661696C3B2072706C3D25750000009A
:102A20005356233100535623320053562333005359
:102A3000562334005356233500535623360053563D
:102A40002337005356233800535623390053562357
:102A500031300053562331310000000000000000E7
:102A600022636845767452656769737465724D6157
:102A7000736B22282900226368457674556E72654F
:102A80006769737465722228290022636845767429
:102A90005369676E616C4922282900226368457674
:102AA0007442726F6164636173744D61736B492228
:102AB0002829002263684576745369676E616C2229
:102AC00028290022636845767444697370617463D1
:102AD00068222829006368457674446973706174BC
:102AE000636828292C20233100000000000000002A
:102AF0006D61696E00168011040434080C101418FE
:102B00001C20210022240000000000000000000022
:102B1000636853636852656164794928292C2023CE
:102B20003100737461636B206F766572666C6F77CA
:102B30000000000000000000000000000000000095
:102B400069646C65000000000000000000000000E7
:102B50002263685468644372656174654922282958
:102B6000002263685468645365745072696F7269B7
:102B70007479222829006368546864526573756DFE
:102B80006528292C20233100226368546864536C23
:102B90006565702228290063685468644578697403
:102BA0005328292C2023310022636854686457611C
:102BB000697422282900636854686457616974281D
:102BC000292C20233100000000000000000000003C
:102BD0002263685654536574492228290022636889
:102BE0005654526573657449222829006368565407
:102BF00052657365744928292C2023310000000098
:102C000022646D6153747265616D416C6C6F6361B8
:102C100074652228290022646D6153747265616DA8
:102C200052656C6561736522282900646D61537477
:102C30007265616D52656C6561736528292C20236E
:102C40003100000000000000000000000000000053
:102C5000086002400460024000000B001C6002405B
:102C60000460024004010C00306002400460024035
:102C700008020D0044600240046002400C030E0094
:102C8000586002400460024010040F006C60024073
:102C9000046002401405100080600240046002409D
:102CA00018061100000000000000000000000000F5
:102CB0000D255320402025530D000000000000008A
:102CC000202C005561727452780000000000000052
:102CD00000000000000000004124000861230008FB
:102CE000E1230008000000000000000000000000D8
:102CF000006801000000FF00006801000000000003
:102D000003000000000000000000000000000000C0
:102D10000D25530D0050696E67000D0A41636B204D
:102D200025640D0A000D4F6E65202575000D4D615F
:102D30006E79202575000D4F6666202575000D25DE
:102D4000535F25533B204148423D2575004669723B
:102D500065666C7952580032303135313032395F26
:102D6000313734390000000000000000000000008E
:102D700000D002000000000003000000000000007E
:102D80000000000000FF00000163000000000000E0
:102D900000000000000000000163000000000000CF
:102DA0000000000000FF00000163000000000000C0
:102DB00000000000000000000163000000000000AF
:102DC0000000000000FF00000163000000000000A0
:102DD00000000000000000000300000000000000F0
:102DE00000D00200000000FF03000000000000000F
:102DF00000D002000000FFFF030000000000000000
:102E0000724C766C31000D434320696E6974206505
:102E100072726F72000000000000000000000000ED
:102E2000002020202020202020202828282828209A
:102E30002020202020202020202020202020202092
:102E400020881010101010101010101010101010FA
:102E500010040404040404040404041010101010EA
:102E600010104141414141410101010101010101B4
:102E70000101010101010101010101011010101006
:102E80001010424242424242020202020202020286
:102E900002020202020202020202020210101010DA
:102EA0002000000000000000000000000000000002
:102EB0000000000000000000000000000000000012
:102EC0000000000000000000000000000000000002
:102ED00000000000000000000000000000000000F2
:102EE00000000000000000000000000000000000E2
:102EF00000000000000000000000000000000000D2
:102F000000000000000000000000000000000000C1
:102F100000000000000000000000000000000000B1
:102F200000000000000000000000000000000000A1
:042F3000430000005A
:102F3800202E00080000000000000000F40A002015
:102F48005C0B0020C40B0020000000000000000003
:102F58000000000000000000000000000000000069
:102F6800000000000000000000000000302F0008F2
:102F78000000000000000000000000000000000049
:102F88000000000000000000000000000000000039
:102F98000000000000000000000000000000000029
:102FA8000000000000000000000000000000000019
:102FB8000000000000000000000000000000000009
:102FC80000000000000000000000000000000000F9
:102FD80000000000000000000000000000000000E9
:102FE80001000000000000000E33CDAB34126DE686
:102FF800ECDE05000B0000000000000000000000EF
:1030080000000000000000000000000000000000B8
:1030180000000000000000000000000000000000A8
:103028000000000000000000000000000000000098
:103038000000000000000000000000000000000088
:043368000808002031
:0400000508000B9153
:00000001FF
