:020000040800F2
:1000000000040020810B0008010A0008010A000812
:10001000010A0008010A0008010A0008010A000894
:10002000010A0008010A0008010A0008210A000864
:10003000010A0008010A0008010A0008F10A000884
:10004000010A0008010A0008010A0008010A000864
:10005000010A0008010A0008010A0008010A000854
:10006000010A000861090008010A0008411500089A
:1000700071150008A1150008E115000821160008F7
:1000800061160008A1160008010A0008010A00080C
:10009000010A0008010A0008010A0008010A000814
:1000A000010A0008010A0008010A0008010A000804
:1000B000010A0008010A0008010A0008010A0008F4
:1000C000010A0008010A0008010A0008010A0008E4
:1000D000010A0008010A0008010A0008010A0008D4
:1000E000010A0008010A0008010A0008010A0008C4
:0400F000010A0008F9
:0C00F400010100081101000821020008B1
:10010000024B00221A705A601A737047A80D002023
:10011000114B002210B51846144683F8C0218454B0
:100120000132CF2A0C4B4FF00001F8D1012283F8A5
:10013000D8204FF4E132C3F8D430C3F8D030C3F83C
:10014000DC10C3F8E010C3F8E420C3F8E810C3F8EB
:10015000EC10C3F8541110BD600F00200000000027
:100160001FB51E4C022001F0BBFB204601F028FB0E
:1001700001F0A6F901F00CF8194B4FF4E1319A693E
:10018000184B19481A6001F083FF2368174A184971
:1001900000931548174B01F08BFE174802F0C0F989
:1001A000164802F0BDF9164802F0BAF900238DF89E
:1001B0000C308DF80D308DF80E301248039902F096
:1001C0008FF8114802F094FA08B1104900E0104984
:1001D0000C4802F0BDF9034802F0D2F9380E0020B5
:1001E0008C170020A0110020600F00206B2D00084C
:1001F000752D00085D2D000860110020741100208D
:100200008811002040110020AC110020902D000822
:10021000202D000800000000000000000000000089
:10022000F0B51C4C1C4B2546DFF874C0DFF874E0B9
:1002300091B045F8203B0123CDF804C0CDF80CE087
:10024000ADF8103001AF0FCF0FC5002604232B608F
:10025000CDF818C0CDF820E0ADF8246004F13405E5
:1002600006AF0FCF0FC503232B600523A661E66100
:10027000CDF834E0ADF838300BAD4834CDF82CC0B3
:100280000FCD0FC402232360044BDE711E725E7219
:1002900011B0F0BD40110020082D0008A011002071
:1002A00000040040000402400000000000000000C4
:1002B000054B064A108A00F0400080B210B1013BA5
:1002C000F8D10120704700BFB88201000000024051
:1002D0007047000000000000000000000000000067
:1002E000036899811A89D207FCD59889C0B27047F2
:1002F0000BB27F2BC4BFA1F580710BB2022093FB20
:10030000F0F04A3840B270470000000000000000E2
:10031000F8B50D4D10266E830446FFF7C9FF07465A
:1003200030B12E8309490A4801F0C2FD0120F8BD11
:10033000083441F080012046FFF7D2FF39462046BD
:10034000FFF7CEFF2E83F8BD00000240202A0008F0
:10035000600F00200000000000000000000000000E
:100360002DE9F8438846782106461746FFF7D0FF67
:1003700003062ED5194910254D83FFF799FF044632
:1003800008B10D8325E006F10805FF212846FFF797
:10039000A7FFC146C8EB0903327BDBB29A424FF09C
:1003A0000001284604D9FFF79BFF09F8010BF1E78C
:1003B000FFF796FF002180462846FFF791FF074B85
:1003C00010221A8337B141463046FFF791FF38704B
:1003D00000E001242046BDE8F88300BF0000024091
:1003E0002DE9F0410D4E1027778304469046FFF724
:1003F0005FFF054630B1378309490A4801F058FDCF
:10040000012508E008342046FFF76AFF41462046F0
:10041000FFF766FF37832846BDE8F0810000024001
:10042000262A0008600F00200000000000000000E5
:10043000F8B50B4E102777830446FFF739FF0546C2
:1004400010B13783012509E004F10800FFF748FFE8
:1004500020703783237803F0700323702846F8BD9B
:10046000000002400000000000000000000000004A
:1004700038B504460D46237823B136212046FFF7D0
:10048000D7FFF8E72A462046BDE838400A21FFF7A3
:10049000A7BF0000000000000000000000000000F6
:1004A000F8B50C463A211F4605461646FFF7C0FF31
:1004B000202383F3118800F0D3FB134B34219B6975
:1004C00028466B60FFF7B4FF4FF47A714C43A4F5F4
:1004D0007A74B4FBF1F10220013100F089FD044689
:1004E00000F0D6FB002383F31188013406D03A468E
:1004F00031462846BDE8F840FFF732BF362128468E
:10050000FFF796FF0220F8BD8C17002000000000C6
:1005100010B504460C220B21FFF762FF00220C21CC
:100520002046FFF75DFF20220D212046FFF758FFF0
:1005300025220E212046FFF753FFED220F212046F2
:10054000FFF74EFF2D2210212046FFF749FF2F22F3
:1005500011212046FFF744FF132212212046FFF706
:100560003FFFA32213212046FFF73AFFFF22142169
:100570002046FFF735FF00220A212046FFF730FF13
:10058000622215212046FFF72BFFB62221212046AB
:10059000FFF726FF102222212046FFF721FF182215
:1005A00011462046FFF71CFF1D2219212046FFF7A8
:1005B00017FF1C221A212046FFF712FFC7221B211A
:1005C0002046FFF70DFF00221C212046FFF708FF01
:1005D000B0221D212046FFF703FFEA2223212046F7
:1005E000FFF7FEFE2A2224212046FFF7F9FE002213
:1005F00025212046FFF7F4FE1F2226212046FFF783
:10060000EFFE88222C212046FFF7EAFE31222D2121
:100610002046FFF7E5FE09222E212046FFF7E0FEE7
:10062000072203212046FFF7DBFE07220021204698
:10063000FFF7D6FE062202212046FFF7D1FE0C224C
:1006400007212046FFF7CCFE442208212046FFF771
:10065000C7FE50223E212046FFF7C2FE0722162188
:100660002046FFF7BDFE2046BDE8104000221721BE
:10067000FFF7B6BE00000000000000000000000010
:10068000F8B59B4D9B4CEB69302143F00103EB61C6
:100690002368064623F440732360236843F4807381
:1006A0002360A38823F010031B041B0CA380A388E2
:1006B0009BB2A380E36823F44073E360E368E360E4
:1006C000A36823F44073A360A36843F44073A3605A
:1006D000EB6943F00103EB61236823F4406323607B
:1006E000236843F400632360A38823F020031B04E2
:1006F0001B0CA380A3889BB2A380E36823F4406310
:10070000E360E368E360A36823F44063A360A36845
:1007100043F40063A360236A23F470032362236A13
:1007200043F4A0032362EB6943F00103EB61236808
:1007300023F440532360236843F400532360A388C9
:1007400023F040031B041B0CA380A3889BB2A3804F
:10075000E36823F44053E360E368E360A36823F4B1
:100760004053A360A36843F40053A360236A23F0BB
:1007700070632362236A43F0A0632362EB6943F052
:100780000103EB61236823F440432360236843F4AF
:1007900000432360A38823F080031B041B0CA38069
:1007A000A3889BB2A380E36823F44043E360E3683B
:1007B000E360A36823F44043A360A36843F40043C9
:1007C000A360236A23F070432362236A43F0A043AB
:1007D0002362EB6943F00103EB61236823F0C0035C
:1007E0002360E36823F0C003E360E368E360EB6940
:1007F00043F00103EB61236843F030032360E368B7
:1008000023F03003E360102323832A6A3A4B42F437
:10081000805283602A624FF441721A801A8892B221
:100820001A8000229A809A8B22F400621204120C21
:100830009A831A8892B242F040021A80FFF7F8FDBC
:10084000074658B1B2682D4913882D4823F040035C
:100850001B041B0C138001F02BFB16E00722062162
:100860003046FFF7BDFD06213046FFF751FD072852
:1008700002460CD0B16822480B8823F040031B04C9
:100880001B0C0B801F4901F013FB01272DE03A21BF
:100890003046FFF7CDFD3046FFF73AFE03233376AF
:1008A0002B6A194A43F00103776074612B629368E5
:1008B000092023F470439360144B1A6842F0080235
:1008C0001A605A6822F008025A60317E01228A407A
:1008D000996821EA02019960D9680A43DA6008221E
:1008E0005A617021306100F04BF83846F8BD00BF06
:1008F0000038024000000240003001402C2A00086D
:10090000600F0020392A0008000001400004014067
:1009100010B5027E012393400D4A04465361202303
:1009200083F3118800F0CCF9636853B193F8202069
:10093000022A04D100229A62606800F0E9FA0023DA
:10094000636000F0D5F9002383F3118810BD00BF68
:100950000004014000000000000000000000000052
:1009600008B500F0DDF90448FFF7D2FF00F0F8F910
:10097000BDE8084000F084B8A80D00200000000089
:1009800020F0030202F1604202F56142C30030B57B
:1009900003F01803D2F80053FF249C40994025EA45
:1009A00004042143C2F8001300F01F024009800034
:1009B000012300F16040934000F56140C0F88031B0
:1009C000036030BD000000000000000000000000D7
:1009D00000F0030320F0030000F1604010B500F5C3
:1009E0006D40DB008469FF229A4024EA02029940AC
:1009F0001143816110BD00000000000000000000F4
:100A0000FEE7000000000000000000000000000001
:100A100000F026F900F09CFB00F03AF900DF00003E
:100A2000EFF30983203383F30988002383F31188CC
:100A300070470000000000000000000000000000FF
:100A400008B50A4B00229A60094A1021DA60072093
:100A5000FFF7BEFF4FF400710A20FFF7B9FFBDE8B2
:100A6000084080210B20FFF7B3BF00BF00ED00E07E
:100A70000003FA0500000000000000000000000074
:100A8000202383F31188154B5B6813F4006321D096
:100A9000EFF30982A2F1200383F3098810494FF094
:100AA000807342F8043C8B69096893F822008968D6
:100AB0009B6820B1994294BF0023012303E099422F
:100AC00034BF002301230BB1064B00E0064B42F874
:100AD000083C704783F31188704700BF00ED00E0C9
:100AE0008C170020110A00081C0A000800000000F2
:100AF00008B500F015F9202383F3118800F0E0F821
:100B000000F07EFB00F0F4F8002383F3118800F07E
:100B100027F9BDE80840FFF7B3BF00000000000060
:100B20002DE9F04FC1F80CD0D0F80CD0BDE8F08F13
:100B300008B500F0ADF8002383F311882846A047DC
:100B400000F04EFC08BD00000000000000000000A6
:100B500070470000000000000000000000000000DE
:100B600070470000000000000000000000000000CE
:100B7000FEE7000000000000000000000000000090
:100B800072B6214B83F30988022282F31488BFF3E3
:100B90006F8F1E4A1E494FF055308A4202D242F8EA
:100BA000040BFAE71B4A4FF055319A4202D242F841
:100BB000041BFAE7FFF7CCFF174A184B18498B4282
:100BC00004D252F8040F43F8040BF8E7154B164A09
:100BD0000021934202D243F8041BFAE7FFF7C0FF5B
:100BE000124C134DAC4203D254F8043B9847F9E73A
:100BF000FFF7B6FA0F4C104DAC4203D254F8043B49
:100C00009847F9E7FFF7B4FF000800200000002034
:100C10000004002000040020542F000800080020D9
:100C2000A80D0020A80D002060180020F400000886
:100C30000001000800010008000100080000000099
:100C4000044B1B6813B9044B1B6813B1034800F035
:100C5000AFBF704784170020881700205A2A000869
:100C6000064B10B51B68064C0BB9236813B1054839
:100C700000F09EFF0123236010BD00BF84170020F9
:100C8000881700205F2A0008000000000000000014
:100C9000064B10B51B68064C13B92368002B02DC09
:100CA000044800F085FF0023236010BD8417002056
:100CB00088170020642A00080000000000000000DF
:100CC000064B10B51B68064C002B01DD236813B1E1
:100CD000044800F06DFF0123236010BD841700203D
:100CE00088170020692A00080000000000000000AA
:100CF000074B10B51B68074C002B02DD2368002B47
:100D000002DC054800F054FF0023236010BD00BF43
:100D100084170020881700206E2A000800000000B9
:100D200010B5202383F31188084C2368002B02DBC5
:100D3000074B1B6813B1074800F03AFF23680133E3
:100D40002360002383F3118810BD00BF84170020A7
:100D500088170020732A000800000000000000002F
:100D600010B5202383F31188084C2368002B02DD83
:100D7000074B1B6813B1074800F01AFF2368013BBB
:100D80002360002383F3118810BD00BF8417002067
:100D900088170020782A00080000000000000000EA
:100DA000054B1B68002B03DB044B1B68002B02DC8C
:100DB000034800F0FDBE704784170020881700200C
:100DC0007D2A000800000000000000000000000074
:100DD000054B1B681BB9054B1B68002B02DC044844
:100DE00000F0E6BE704700BF84170020881700207F
:100DF000832A00080000000000000000000000003E
:100E0000034A4021134643F8081B5360704700BF54
:100E10007813002000000000000000000000000027
:100E20000C4A0D495368C968103343F8101C0B492C
:100E3000896943F80C1C816A43F8081C90F820105B
:100E400003F8041C02F581618B4228BF02F10803FC
:100E50005360704778130020501800208C17002032
:100E600038B504460D46FFF79BFF14B90C4800F057
:100E70009FFE216B94F820302943082B216303D176
:100E8000A36A194205D138BD092B07D1A36A8B4348
:100E900004D1204600F03CF80023836238BD00BF37
:100EA000BA2A000800000000000000000000000056
:100EB0000E4B70B59D690646202383F31188FFF71A
:100EC000CFFE2C6B344005D1AE62082000F068F8EC
:100ED0002C6B34402B6B23EA04032B63FFF7D8FE03
:100EE000002383F31188204670BD00BF8C170020BB
:100EF000034B00225B601B609A605B611B61704763
:100F00008C1700200000000000000000000000001E
:100F100010B50446FFF744FF94F820300BB10E2BB8
:100F200002D1094800F044FE002384F82030A26872
:100F3000064B1B6899689142FBD25A682360626035
:100F400020465C60146010BD402B00088C17002008
:100F500038B50446202383F31188FFF7B1FE94F8D7
:100F600020505DB1032D0DD1A26A936801339360C7
:100F700094E80C001A602268536003E0FFF7B8FEA3
:100F80002B4608E04FF0FF33A3622046FFF7C0FF77
:100F9000FFF7AEFE002383F3118838BD0000000088
:100FA00070B50646104CFFF713FFA569142385F8AA
:100FB0002230236885F820601A6828465460226031
:100FC000012283F82020A361FFF72AFFEA69ADF12F
:100FD00024039A4202D9054800F0EAFD2946A06997
:100FE000BDE87040FFF79CBD8C170020522B000815
:100FF00070B50E4686B00546FFF7EAFE731C0C4C32
:101000000ED0A3690B4A314601A800F009FA284620
:10101000FFF7C6FF049B33B101A800F029FA02E0F4
:101020002846FFF7BDFFA369986A06B070BD00BFF0
:101030008C170020510F0008000000000000000085
:1010400070B504460D46124EFFF7C2FEB069A562A8
:10105000A26883689A4204D82046BDE87040FFF732
:1010600057BFFFF755FF0546012384F82030B461D0
:10107000FFF7D6FEEA69ADF124039A4202D905488A
:1010800000F096FD29462046BDE87040FFF748BDB8
:101090008C170020522B0008000000000000000008
:1010A00038B5104C2368A5691A6828465460226038
:1010B000012283F82020A361142385F82230FFF752
:1010C00027FF2846FFF7ACFEEA69ADF124039A42F8
:1010D00002D9054800F06CFD2946A069BDE83840FA
:1010E000FFF71EBD8C170020522B000800000000E7
:1010F00038B5144B1D461A689C6911684B6019601D
:10110000012182F820109A61002284F82020A26830
:101110001B6899689142FBD85A6823606260204638
:101120005C601460FFF77CFEE269ADF124039A4233
:1011300002D9054800F03CFD2146A869BDE83840C9
:10114000FFF7EEBC8C170020522B000800000000B7
:10115000044B9B6993F822300BB9FFF7A1BFFFF74F
:10116000C7BF00BF8C170020000000000000000077
:10117000024B034A9B699A61FEE700BF8C1700206F
:10118000702B0008000000000000000000000000BC
:1011900037B5FFF755FCFFF7ABFE00F031F9FFF76D
:1011A0002FFE40210D4800F063F80D4B0D4D01243A
:1011B000C36180F82040A861FFF742FD002383F35C
:1011C000118862B60849AA690848916100932246CD
:1011D000074BA82100F094F803B030BDC40D0020E7
:1011E000000400208C170020202B0008A8170020E6
:1011F0007111000800000000000000000000000065
:101200002DE9F041FFF7CCFD174B9B6993F82220A5
:1012100012B1013A83F822205A6A01325A62134B02
:10122000DA681C460132DA601A689A4219D02746F9
:101230009368013B93602568AE6896B92B68D5F832
:101240000C80EE605F603B60FFF752FD334683F336
:1012500011882869C047202383F31188FFF730FDE8
:10126000E9E7BDE8F08100BF8C170020501800208E
:10127000022280F82020002280F8212002634262AE
:101280008261084A8160142180F82210516902614C
:101290004161506100F12C020861C26200F1340228
:1012A000C26170478C1700200000000000000000A1
:1012B0002DE9F04104460D4616461F46DDF818801C
:1012C000FFF76EFD24B1972D02D97F2E00D817B9F4
:1012D000084800F06DFC243D074A6319E36031467D
:1012E00067512046C3F804801A62BDE8F041FFF759
:1012F000BFBF00BF802B0008310B000800000000BA
:10130000F7B504460D4616461F46FF2200F134038A
:10131000834202D000F8012BFAE7621955219A4264
:1013200002D903F8011BFAE7202383F31188FFF7A2
:1013300097FC089B3246009329463B462046FFF720
:10134000B7FF00210446FFF77BFEFFF7A1FC002357
:1013500083F31188204603B0F0BD000000000000B8
:1013600010B5044610B9094800F022FC202383F38D
:101370001188FFF775FC21460620FFF739FEFFF7BD
:1013800087FC002383F3118810BD00BFB82B000831
:1013900038B50F4B9C69A06204F12C05E06AA842A5
:1013A00004D00368E362FFF7B3FDF7E794F8213058
:1013B0009B0704D1226963691A61226953610E2077
:1013C000FFF7EEFDBDE83840024800F0F1BB00BF7A
:1013D0008C170020C72B0008000000000000000050
:1013E00010B52023044683F31188FFF739FC20460B
:1013F000BDE81040FFF7CCBF000000000000000077
:10140000044B4FF0FF329A6000225B601B60DA6091
:10141000704700BF501800200000000000000000CE
:10142000F8B504460D4616461F46FFF7B9FC0CB149
:1014300006B115B90C4800F0BBFB0C4A27611368D4
:10144000E66099688D4202D96D1A1B68F9E7596800
:101450002360616093425C600C60A5601EBF996868
:10146000491B9960F8BD00BF002C000850180020EF
:1014700010B50446FFF794FC14B90B4800F098FB34
:10148000E36813B9094800F093FB2368084A9342C4
:101490001FBF9968A26852189A6062681360236837
:1014A0005A600023E36010BD0D2C00081C2C0008BE
:1014B00050180020000000000000000000000000A4
:1014C00000F006B80000000000000000000000006E
:1014D000154B00211A694FF47A7062F400421A61C8
:1014E00019619A6962F080529A6199615A694FF064
:1014F000FF325A6159611A6A42F001021A62DA6ACD
:1015000042F00102DA62094A1268B2FBF0F20848BE
:10151000013A42600722816002605A6A42F08052BA
:101520005A6200F0DDB800BF00380240380E0020DB
:1015300010E000E0000000000000000000000000DB
:1015400008B5FFF7EDFB084B0F2219685A60074AF0
:1015500001F00F0113680BB150689847FFF700FCCA
:10156000BDE80840FFF78CBA00600240F80D00208B
:1015700008B5FFF7D5FB084BF02219685A60074AF7
:10158000C1F3031193680BB1D0689847FFF7E8FBEC
:10159000BDE80840FFF774BA00600240F80D002073
:1015A00008B5FFF7BDFB094B4FF4706219685A602C
:1015B000074AC1F3032113690BB150699847FFF73C
:1015C000CFFBBDE80840FFF75BBA00BF00600240F8
:1015D000F80D0020000000000000000000000000E6
:1015E00008B5FFF79DFB094B4FF4704219685A602C
:1015F000074AC1F3033193690BB1D0699847FFF7EC
:10160000AFFBBDE80840FFF73BBA00BF00600240F7
:10161000F80D0020000000000000000000000000A5
:1016200008B5FFF77DFB094B4FF4702219685A602B
:10163000074AC1F30341136A0BB1506A9847FFF799
:101640008FFBBDE80840FFF71BBA00BF00600240F7
:10165000F80D002000000000000000000000000065
:1016600008B5FFF75DFB094B4FF4700219685A602B
:10167000074AC1F30351936A0BB1D06A9847FFF749
:101680006FFBBDE80840FFF7FBB900BF00600240F8
:10169000F80D002000000000000000000000000025
:1016A00008B5FFF73DFB094B4FF0706219685A60AF
:1016B000074AC1F30361136B0BB1506B9847FFF7F7
:1016C0004FFBBDE80840FFF7DBB900BF00600240F8
:1016D000F80D0020000000000000000000000000E5
:1016E0000A4A002330B513601A46094C09490C25F3
:1016F00005FB03F00059026041F833200133072B4A
:10170000F6D1054B4FF0FF325A6030BD300E00204D
:10171000802C0008F80D002000600240000000004E
:101720002DE9F0410F4614469846054610B91D486C
:1017300000F03EFADFF878E0697A0120DEF8006018
:1017400000FA01FC1CEA060F29D1174A4CEA0603ED
:1017500042F83140CEF8003002EBC1025B06C2F81D
:10176000048018BF114A696818BFD3694FF000069A
:101770001CBF43F08073D3612B681A6822F00F02FC
:101780001A60287A0F2282400A601E6034B1A87A5B
:101790003901FFF7F5F83046BDE8F0812046BDE895
:1017A000F08100BF302C0008F80D00200038024006
:1017B000300E0020000000000000000000000000CB
:1017C000F0B593B02022002104460AA801F010F8D9
:1017D0004FF480330A934FF400330B934FF480237C
:1017E0000C93344B03AA0D93334B06AE0E93334B3D
:1017F0000F93334B1093334B5968186803C2197A0F
:10180000117003F1090219331F46354610685168FB
:10181000083203C59A422E46F7D13868796801AB81
:1018200003C329488368C3F38103022B0CD0032B25
:101830000CD0012B20D0436812AAC3F3423302EB31
:10184000830353F8203C18E0204B16E0836812AA6B
:10185000C3F38343134413F83C2C8368C3F38153CD
:10186000591C8368194813F4803F194B18BF03466D
:101870005343B3FBF1F300E0154B134912A88A68F8
:10188000C2F30312024412F8302CD34023608A685A
:10189000C2F30222024412F8442C23FA02F26260DC
:1018A0008A68C2F3C222024412F8442CD340A360D7
:1018B00013B0F0BD9CFF0700C0FD0F0068FF1F00C4
:1018C000D0FE3F00F02900080038024000127A00E4
:1018D0000024F400000000000000000000000000F0
:1018E0000A4B4FF080520A495A624B68084A13F07B
:1018F000100FFAD1136823F4C05343EAC0231360D6
:101900005368DB06FCD4034B187070470038024064
:1019100000700040340E00200000000000000000B5
:10192000104B984204D1104AD36943F0010316E0EA
:101930000E4B984204D10C4AD36943F002030EE0E7
:101940000B4B984204D1084AD36943F0040306E0E4
:10195000084B984204D1044AD36943F00803D36189
:10196000704700BF000002400038024000040240FF
:1019700000080240000C02400000000000000000CF
:101980002DE9F041044690461E46FFF7C9FF036863
:101990004A0003209040C04303402360236802278D
:1019A00097403B432360A58808FA01F2ABB20125BA
:1019B0008D4023EA0505A580A588072942EA05028E
:1019C00092B2A280E36888BF083903EA0003E360AB
:1019D000E3684FEA8101E360A36800EA0300A060C6
:1019E000A36847EA03078CBF01230023A76004EB29
:1019F0008304226A0F238B4022EA03032362226AB4
:101A000006FA01F111432162BDE8F08100000000F7
:101A10000368284A934206D027498B4203D001F538
:101A200080618B4201D1254900E02549B3F1804F07
:101A3000416004D1234A536A43F0010306E022497E
:101A40008B4205D11F4A536A43F002035362704729
:101A50001E498B4204D11B4A536A43F00403F5E745
:101A60001B498B4204D1174A536A43F01003EDE738
:101A700018498B4204D1134A536A43F02003E5E727
:101A8000934204D10F4A136A43F0040310E00A4A58
:101A9000934205D102F59632136A43F0080307E03A
:101AA0000D4A934205D102F59432136A43F01003B4
:101AB0001362704700080140000C0140400E0020F6
:101AC0003C0E0020003802400004004000080040A6
:101AD0000010004000140040001001400000000011
:101AE00070B505461C462B680846B3F1804F114679
:101AF0009DF8182001D1012314E0284EB34203D0F1
:101B000006F58066B34201D102230BE0244EB342B6
:101B100007D006F58066B34203D006F58066B3426F
:101B200002D10323FFF72CFF049B2A68D3629DF8A0
:101B30001430012B04F1FF330CBF07200620032BC8
:101B40002BD8DFE803F0020C1620118B89B241EA92
:101B500000131383138C9BB243F001031CE0118B21
:101B600089B241EA00331383138C9BB243F0100314
:101B700012E0918B89B241EA00139383138C9BB2DC
:101B800043F4807308E0938B9BB243EA0033938362
:101B9000138C9BB243F48053138470BD0004004047
:101BA00000080140000000000000000000000000EC
:101BB000034B02469B6903499B69034800F098B9AF
:101BC0008C170020E02C0008600F002000000000AF
:101BD000F0B5664685B0002501AFB0FBF1F201FB20
:101BE0001203092B05F1010594BF30333733DBB203
:101BF0007C19104604F8013C002AEED12C463368CB
:101C00009C420ED2327CF3680AB1302000E02020E2
:101C10009847B368726801339342B3600FD20134BE
:101C2000EDE7B3687468E41AAC4228BF2C4623443D
:101C3000B36024B1013CF368385D9847F9E705B01B
:101C4000F0BD0000000000000000000000000000E7
:101C50002DE9F04F1C4689B00023069004910593AE
:101C600003938DF81C3001271078561C002800F0D3
:101C7000AE80252809D0069B9847059B049A01331E
:101C800093420593C0F0A180A1E0002318461D46B1
:101C9000194603938DF81C304FF00A0C16F8012BEF
:101CA000A2F1300E5FFA8EF8B8F1090F08D819B911
:101CB000302A04BF012318460CFB01E10125EDE7A2
:101CC00005B103910BB18DF81C0002F0DF03532B1B
:101CD0000FD1251D24682378002B71D0059B5A1C39
:101CE0000592049A93426BD214F8010B069B984715
:101CF000F1E7632A0BD1069B20789847059B049A4D
:101D00000133934204F10405059359D35FE0582A47
:101D100004D1251D0DF10C0C102105E0752A07D109
:101D2000251D0DF10C0C0A212068FFF751FF47E03B
:101D3000642A12D1251D2468002C09DA069B2D2067
:101D40009847059B049A0133934205933FD264421E
:101D50000DF10C0C0A212046E7E7412A2FD16368D8
:101D6000D4F8088001930DF120090223D4F800A0D3
:101D700004F10C058DF81C7049F8143D00245FFA3D
:101D800088FB019B9C421BDA002C0BDC1021CC460B
:101D90001AF80400FFF71CFF049B059999420FD223
:101DA0000134EEE7B8F1000FF0D0069B5846984793
:101DB000059B049901338B420593E7D300E0254648
:101DC000049B059A9A4202D22C4632464CE705986B
:101DD00009B0BDE8F08F0000000000000000000026
:101DE000054A138813F0800F034BFAD080B2988015
:101DF0001A881206FCD57047003801400000000028
:101E0000D0F8D4305A1CC0F8D4201970D0F8D4209F
:101E100000F1CF039A4228BFC0F8D40070470000F9
:101E200001460148FFF7ECBF600F002000000000F2
:101E3000D0F8D010D0F8DC3000F1CF02521A9A421C
:101E400028BF1A46C0F8E02062B1002380F8D830DD
:101E5000054B5B6AD9605A6092221A601A6842F098
:101E600001021A60704700BF802C000800000000CB
:101E700010B50446D0F8DC0013460A46C0F1CF0185
:101E80000848FFF7E5FED4F8DC30184494F8D83061
:101E9000C4F8DC0023B12046BDE81040FFF7C8BFFE
:101EA00010BD00BF211E000800000000000000005F
:101EB0000EB477B507AC054654F8046B202383F3C2
:101EC0001188FEF7CDFE2246314628460194FFF7E1
:101ED000CFFFFEF7DDFE002383F3118803B0BDE8DA
:101EE000704003B0704700000000000000000000D8
:101EF0000EB403B503AB53F8042B05490548019311
:101F0000FFF7A6FE02B05DF804EB03B0704700BF18
:101F10009F860100E11D0008000000000000000095
:101F20000446384B384E9B6980B5C0F85431632065
:101F3000FFF716FA336BD4F8E8505B68C3F163031C
:101F4000AB42F4D00027B9465D1BDFF8C48048BF20
:101F50006335C4F8E830BD42E9DDD4F8EC305A1CF2
:101F6000C4F8EC20622A94F8C021234493F8F0309E
:101F7000C8BFC4F8EC9032B1082B84F8C091C4F803
:101F8000BC913CD139E0082B06D1D4F8BC31A3B3C5
:101F9000013BC4F8BC3130E00D2B01D00A2B22D11B
:101FA000D4F8BC314BB3234483F85891174904F556
:101FB000AC7000F095FC012384F8C031C4F8C40172
:101FC000202383F31188FEF74BFE0221D8F800008E
:101FD000FEF746FF0220FEF7E3FFFEF759FE00235F
:101FE00083F3118809E0D4F8BC21612A9FBF511CFA
:101FF0001219C4F8BC1182F858310137ABE70D2B28
:10200000CCD1FAE78C170020802C0008F02C0008B7
:10201000A0110020000000000000000000000000EF
:1020200008B5034B034A9B6903489A61FFF778FFA1
:102030008C170020F32C0008600F00200000000027
:1020400010B52023044683F31188FEF709FED4F867
:10205000540190F82030022B01D1FEF759FFFEF712
:1020600017FE002383F3118810BD0000000000005C
:10207000044BD0F8E4209B68B3FBF2F3024A9BB216
:1020800013817047380E0020003801400000000026
:102090002DE9F74FDFF864B1534CDBF81C30DFF863
:1020A000609143F00103CBF81C302368C84623F449
:1020B0004023236023684D4D43F400232360A3880D
:1020C000002623F400731B041B0CA380A38807467F
:1020D0009BB2A380E368DFF82CA123F44023E360E4
:1020E000E368F037E360A36823F44023A360A368A8
:1020F00043F40023A360636A23F0F0036362636A1E
:1021000043F070036362C0F8E410DBF8203043F45E
:102110008043CBF82030FFF7ABFF33462E82344AA2
:1021200007214846FFF7FCFA58F824399222C3F8F1
:1021300008A01A600C23AB81C023AB82DBF81C30F3
:10214000324643F00103CBF81C3023680F2123F4FF
:1021500040132360236809F10C0043F4001323604B
:10216000A38823F480631B041B0CA380A3889BB269
:1021700043F48063A380E36823F44013E360E368DF
:1021800043F48013E360A36823F44013A360A368BF
:1021900043F40013A360636A23F470636362636AA9
:1021A00043F4E06363623346FFF7BAFAD8F830309D
:1021B0006322C3F808A0DF605A604FF485521A60AA
:1021C0001A684FF48C7142F001021A6009480096B7
:1021D000094B0222FFF794F8AB899BB243F40053FA
:1021E000AB8103B0BDE8F08F000002400038014031
:1021F00071220008480E002021200008003802400B
:10220000A42C000804380140000000000000000079
:10221000134A10B4546A216821F00F01216092F82A
:102220002C40916A0F22A2400A60D0F8D040D0F82A
:10223000E020D0F8DC10891A224400F1CF04A24239
:1022400028BF0246C0F8DC10C0F8D02021B9012216
:1022500080F8D82010BC704710BCFFF7E9BD00BF64
:10226000802C0008000000000000000000000000BA
:102270000148FFF7CDBF00BF600F00200000000045
:1022800010B52023044683F31188FEF719FD236857
:1022900020469B689847FEF72BFD002383F31188A7
:1022A00010BD000000000000000000000000000061
:1022B00010B52023044683F31188FEF701FD054B7A
:1022C00021461868FEF7CCFDFEF712FD002383F3CC
:1022D000118810BDA01100200000000000000000C7
:1022E00013B5036B6FF04042D418036A019103EBFE
:1022F0008403C9B25963436CD118436B03EB810368
:102300009DF805105963836D1A44836C03EB8203B7
:102310009DF806205A6302B010BD000000000000C6
:1023200007B500238DF804308DF805308DF80630A0
:102330000199FFF7D5FF03B05DF804FB0000000032
:1023400010B50C46D1F8C42108480949FFF7B0FD83
:102350000849D4F8C40100F09BFA024600B10922F2
:102360002046BDE810400449FFF7A2BD600F0020E1
:10237000402D0008452D00084A2D000800000000EF
:102380004FF47A725143A1F57A71B1FBF2F1034631
:10239000024A01310430FFF743B800BF8122000830
:1023A000036910B5044613B10430FFF761F8E3691F
:1023B0001A78032AFDD8DFE802F00209101A236810
:1023C00020461B6898470128F1D110BDD3F80110B1
:1023D0000833E3610029EAD006E0D3F80120A369BD
:1023E000012103EBC203E3612046FFF7C9FF10BDE3
:1023F00070B5C36990F85C20597904468A420AD1C5
:1024000090F85D509879854205D194F85E50D8795E
:10241000854200F08180D3F80150E5B999795A7965
:10242000DB7942EA012242EA034305F07F41194386
:102430002046FFF755FFE36928465A79083384F8A8
:102440005C2013F8022C84F85D2013F8012CE36162
:1024500084F85E2070BD8A4201D2013201E002D9C7
:10246000013A84F85C2094F85D2099798A4201D27F
:10247000013201E002D9013A84F85D2094F85E202F
:10248000DB799A4201D2013201E002D9013A84F8A3
:102490005E202046E16DFFF723FFE36994F85C00BE
:1024A0005A7982420AD194F85D109A7991420CD1FE
:1024B00094F85E10DA79914207D12DE0D3F80160EB
:1024C0000430B6FBF0F0461C00E0002694F85D20D6
:1024D000997991421EBFD3F801500432B5FBF2F056
:1024E00094F85E1018BF421CD87908BF00228842B9
:1024F0001DBFD3F801300431B3FBF1F1002118BF47
:102500000131B24238BF32469142204638BF1146AF
:10251000FFF736FF012070BD0833E361002070BD76
:102520001FB50446FFF774FA002102910191FF21C3
:10253000237CA28900912046A168FFF7D1FA226886
:1025400013889BB243F00103138004B010BD000058
:1025500038B504460D46202383F31188FEF780FB2F
:102560002368A561E5619B6820469847FEF790FBCC
:10257000002383F3118838BD000000000000000034
:10258000044608B5294E4FF0FF30FEF791FC810755
:10259000054606D520462649FFF7D2FE2448FFF718
:1025A0004FFDEA0621D5202383F31188FEF758FB5F
:1025B000F36813B11D48FEF75BFF20231D4A4FF45B
:1025C00061711A48FEF72CFFFEF762FB002383F3CC
:1025D00011882379E2799A4218D1217A627991425D
:1025E00014D1617AA279914210D1AB06CBD5124BAE
:1025F0001249DA680E48FFF75BFC11491148FFF7F2
:10260000A7FF0023E37123726372BCE70E490D48F4
:102610004B7163798B71A379CB712379E371637902
:102620002372A3796372FFF793FFDEE72C1100207A
:10263000600F0020B122000850180020552D00081E
:10264000F02D0008401100200008002000000000CC
:10265000F7B50546194E0024E1B21948FDF708FF09
:102660000DF107032A463F211548FDF719FF0746DC
:10267000B8B99DF907303E3313DBAB786A78297817
:10268000B37131717271202383F31188FEF7E8FA78
:1026900010213068FEF7E4FBFEF7FAFA3B4683F3BD
:1026A00011880134052CD7D139210548FDF7C0FE2A
:1026B0004FF4E170FEF754FE03B0F0BDA01100200E
:1026C000A80D002000000000000000000000000035
:1026D00008B5044B044A9B699A610448FFF7B8FFA8
:1026E000FBE700BF8C170020002E0008AC11002073
:1026F00037B53749374DCB69284643F00403CB61E2
:10270000354B1A6822F040521A601A6842F0805223
:102710001A609A8822F480421204120C9A809A88D5
:1027200092B29A80DA6822F04052DA60DA68DA60AF
:102730009A6822F040529A609A6842F040529A6039
:10274000CA6942F00402CA611A6822F040621A6043
:102750001A6842F080621A609A8822F400521204C9
:10276000120C9A809A8892B29A80DA6822F04062BB
:10277000DA60DA68DA609A6822F040629A609A68F1
:1027800042F040629A60FDF77BFF0446C0B9262202
:102790003E212846FDF724FE042206212846FDF7A7
:1027A0001FFE04232B7300940C4B7F224FF4CC713B
:1027B0000B48FEF7A5FD0B490B48FFF779FB04E03A
:1027C0000A490948FFF774FB0124204603B030BDD5
:1027D00000380240A80D002000080240D126000861
:1027E000E0110020062E0008600F0020122E0008C5
:1027F00070B4840746D0541E002A41D0CDB203469F
:1028000002E0621EE4B3144603F8015B9A07F8D1B4
:10281000032C2ED9CDB245EA05250F2C45EA0545F6
:1028200019D9264603F11002103E0F2E42F8105C13
:1028300042F80C5C42F8085C42F8045C02F11002B9
:10284000F2D8A4F1100222F00F0204F00F041032AB
:10285000032C13440DD91E462246043A032A46F897
:10286000045BFAD8221F22F003020432134404F05E
:1028700003042CB1C9B21C4403F8011BA342FBD1D1
:1028800070BC704714460346C2E700BF000000005A
:10289000F8B507460E4617F8014B00F071F82044D2
:1028A000437816F8015B03F00303012B08BF2034C3
:1028B00000F066F82844437803F00303012B04D0AA
:1028C000601B01D1002DE6D1F8BD05F12000201AD2
:1028D000E1D0F8BD00000000000000000000000092
:1028E000024A012312685C3200F002B8380C002062
:1028F000F0B420B307460D4617F8016B01E0A6427D
:1029000016D015F8014B002CF9D1EEB13E460C461D
:1029100016F8015B00E073B114F8013B9D42FAD157
:102920005DB100233B70166006463046F0BC704730
:1029300063B13846DEE73746E8E72E46F3E710682E
:102940000028D7D10646F0E71660EEE71760064686
:102950000370EAE700000000000000000000000033
:10296000034A044B1268506B002808BF1846704792
:10297000380C00203C0C002000000000000000008B
:1029800008B5034B1868FFF7EBFFD0F8EC0008BD63
:10299000380C0020000000000000000000000000D3
:1029A00082B049B15AB16BB113780B601278101C28
:1029B00018BF012002B0704701A9002AF3D11046C8
:1029C00002B070476FF00100F4E700BF00000000A4
:1029D00021B1FF2A04D80A700120704708467047C9
:1029E0008A2303604FF0FF30704700BF00000000F3
:1029F000030406080C10182030000000000000003E
:102A00000001020304060708090000000001020398
:102A100004000000000000000000000000000000B2
:102A20000D43432032000D43432031000D4343202A
:102A3000527374204661696C000D434320522F5736
:102A4000204661696C3B2072706C3D25750000006A
:102A50005356233100535623320053562333005329
:102A6000562334005356233500535623360053560D
:102A70002337005356233800535623390053562327
:102A800031300053562331310000000000000000B7
:102A900022636845767452656769737465724D6127
:102AA000736B22282900226368457674556E72651F
:102AB00067697374657222282900226368457674F9
:102AC0005369676E616C4922282900226368457644
:102AD0007442726F6164636173744D61736B4922F8
:102AE0002829002263684576745369676E616C22F9
:102AF00028290022636845767444697370617463A1
:102B0000682228290063684576744469737061748B
:102B1000636828292C2023310000000000000000F9
:102B20006D61696E00168011040434080C101418CD
:102B30001C202100222400000000000000000000F2
:102B4000636853636852656164794928292C20239E
:102B50003100737461636B206F766572666C6F779A
:102B60000000000000000000000000000000000065
:102B700069646C65000000000000000000000000B7
:102B80002263685468644372656174654922282928
:102B9000002263685468645365745072696F726987
:102BA0007479222829006368546864526573756DCE
:102BB0006528292C20233100226368546864536CF3
:102BC00065657022282900636854686445786974D3
:102BD0005328292C202331002263685468645761EC
:102BE00069742228290063685468645761697428ED
:102BF000292C20233100000000000000000000000C
:102C00002263685654536574492228290022636858
:102C100056545265736574492228290063685654D6
:102C200052657365744928292C2023310000000067
:102C300022646D6153747265616D416C6C6F636188
:102C400074652228290022646D6153747265616D78
:102C500052656C6561736522282900646D61537447
:102C60007265616D52656C6561736528292C20233E
:102C70003100000000000000000000000000000023
:102C8000086002400460024000000B001C6002402B
:102C90000460024004010C00306002400460024005
:102CA00008020D0044600240046002400C030E0064
:102CB000586002400460024010040F006C60024043
:102CC000046002401405100080600240046002406D
:102CD00018061100000000000000000000000000C5
:102CE0000D255320402025530D000000000000005A
:102CF000202C005561727452780000000000000022
:102D00000000000000000000F1230008212300085B
:102D1000A1230008000000000000000000000000E7
:102D200000680100000000FF0068010000000000D2
:102D30000300000000000000000000000000000090
:102D40000D25530D0050696E67000D0A41636B201D
:102D500025640D0A000D4F6666202575003230315E
:102D600037303631305F3030323500466972656653
:102D70006C795258000D25535F25533B2041484242
:102D80003D2575000000000000000000000000006C
:102D90000000000000FF00000163000000000000D0
:102DA00000000000000000000163000000000000BF
:102DB0000000000000FF00000163000000000000B0
:102DC000000000000000000001630000000000009F
:102DD0000000000000FF0000016300000000000090
:102DE00000000000000000000300000000000000E0
:102DF000002A0300000000000300000000000000A3
:102E0000724C766C31000D434320696E6974204F1B
:102E10004B000D434320696E6974206572726F72B6
:102E200000000000000000000000000000000000A2
:102E300043000000504F53495800000000000000BC
:102E40002E00000000000000000000000000000054
:102E5000002020202020202020202828282828206A
:102E60002020202020202020202020202020202062
:102E700020881010101010101010101010101010CA
:102E800010040404040404040404041010101010BA
:102E90001010414141414141010101010101010184
:102EA00001010101010101010101010110101010D6
:102EB0001010424242424242020202020202020256
:102EC00002020202020202020202020210101010AA
:102ED00020000000000000000000000000000000D2
:102EE00000000000000000000000000000000000E2
:102EF00000000000000000000000000000000000D2
:102F000000000000000000000000000000000000C1
:102F100000000000000000000000000000000000B1
:102F200000000000000000000000000000000000A1
:102F30000000000000000000000000000000000091
:102F40000000000000000000000000000000000081
:012F50000080
:102F5800002A03000000FF0003000000000000003A
:102F680000000000FC0A0020640B0020CC0B0020AD
:102F78000000000000000000000000000000000049
:102F88000000000000000000000000000000000039
:102F98000000000000000000000000000000000029
:102FA8000000000000000000000000000000000019
:102FB8000000000000000000000000000000000009
:102FC80000000000000000000000000000000000F9
:102FD80000000000000000000000000000000000E9
:102FE80000000000000000000000000000000000D9
:102FF80000000000000000000000000000000000C9
:1030080000000000000000000100000000000000B7
:103018000E33CDAB34126DE6ECDE05000B0000007C
:103028000000000000000000000000000000000098
:103038000000000000000000000000000000000088
:103048000000000000000000000000000000000078
:103058000000000000000000000000000000000068
:1033880000000000000000001008002043000000BA
:103398000000000000000000000000000000000025
:1033A80000000000000000000000000043000000D2
:1033B8000000000000000000000000000000000005
:1033C80000000000000000000000000043000000B2
:1033D80000000000000000000000000000000000E5
:1033E8000000000000000000000000004300000092
:1033F80000000000000000000000000000000000C5
:103408000000000000000000000000004300000071
:1034180000000000000000000000000000000000A4
:103428000000000000000000000000004300000051
:103438000000000000000000000000000000000084
:103448000000000000000000000000004300000031
:103458000000000000000000000000000000000064
:10346800000000000000000000000000D129000852
:10347800A129000800000000502E0008402E000876
:103488003C2E00083C2E00083C2E00083C2E00086C
:103498003C2E00083C2E00083C2E00083C2E00085C
:1034A8003C2E0008FFFFFFFFFFFFFFFFFFFFFFFFAE
:1034B800FFFF00000100415343494900000000009C
:1034C80000000000000000000000000000000000F4
:1034D800000000000000415343494900000000007B
:1034E80000000000000000000000000000000000D4
:0834F8000000000000000000CC
:0400000508000B8163
:00000001FF
