:020000040800F2
:100000000004002091260008112500081125000891
:1000100011250008112500081125000811250008E8
:1000200011250008112500081125000831250008B8
:1000300011250008112500081125000801260008D7
:1000400011250008112500081125000811250008B8
:1000500011250008112500081125000811250008A8
:1000600011250008715000081125000831320008E0
:100070006132000891320008D132000811330008C3
:10008000513300089133000811250008112500089C
:100090001125000811250008112500081125000868
:1000A0001125000811250008112500081125000858
:1000B0001125000811250008112500081125000848
:1000C0001125000811250008112500081125000838
:1000D0001125000811250008112500081125000828
:1000E0001125000811250008112500081125000818
:0400F00011250008CE
:0800F4000101000821030008CE
:10010000034B044ADA6203F54072C3F800257047D6
:100110003C0C0020800008080000000000000000E7
:10012000F7B5032003F0C4FB674803F031FB03F08D
:100130003FF802F0A5FE65484FF4E13103F0B0FC52
:100140006349644A614803F0EBFB634C634801F088
:1001500037F9634E634801F063FE204600F0F0FD7E
:10016000B3696148E36502F043F9604A604DD369C1
:10017000284643F00103D3615E4B1A6842F0030244
:100180001A60DA6822F00302DA6003F061FAB369F8
:100190002B62202383F3118802F0EAFA04F1A00015
:1001A0006321554A002302F0B3FF04F1B4004FF479
:1001B000B471524A002302F0ABFF04F1DC0040F2BC
:1001C000E7314F4A002302F0A3FF02F0E9FA0023CF
:1001D00083F311881F464FF0FF3002F011FC0546F3
:1001E000680602D5394803F01BFC69070BD53D486A
:1001F000502101F0A5FE28B92FB9374801F018FDAC
:10020000012700E00027EA0502D5334801F0B8FDD8
:10021000AB0720D51021E26C3A4804F0A9FA2E4E23
:100220000C213848A26C04F0A3FA02A9002341F87B
:10023000043D06F12C0003F00BFE18B9336B019A54
:100240009A4208D03048216B03F0A2FD18B11F4834
:100250002E4903F065FBEE0607D52D4A2448536866
:1002600043F40003536003F043FAA8061CD5284A60
:10027000002153681E4823F40003536003F058FA2A
:10028000112106461A4803F053FA224B1A8840F609
:10029000B8335343B3FBF0F046431F480F4B86423D
:1002A0008CBF002601261E72E90402D51B4800F00F
:1002B0005FFA2A0544BF012384F890302B078AD5C2
:1002C000054800F0CDF886E7F8140020041500205A
:1002D000005B0008075B00083C0C00204411002074
:1002E0003C1D002098120020C4120020003802405B
:1002F000D01400200000024061140008A11400087E
:1003000021150008380C0020680C0020245B000830
:10031000002701407800F81FB3BB44009C0C00206C
:10032000074B0022C3F8E422C3F8E82203F5567213
:10033000C3F8002403F56B72C3F80424704700BFB0
:100340000415002000000000000000000000000074
:1003500010B505490446002004F02AFF206000780B
:10036000B0FA80F0400910BD1055000800000000F0
:1003700008B504F0FDFEB0FA80F0400908BD0000A9
:1003800013B503780C465BB101A9002205F090F883
:10039000019B20601B78002B0CBF00200B2000E08D
:1003A0000A2002B010BD00000000000000000000A4
:1003B00013B503780C465BB101A9002204F0C8FF15
:1003C000019B20601B78002B0CBF00200B2000E05D
:1003D0000A2002B010BD0000000000000000000074
:1003E0000A46014903F09CBA1355000800000000BA
:1003F00007B50A46CB1F016043604B00032193FB06
:10040000F1F392FBF1F18360C1600091034804496C
:1004100003F086FA03B05DF804FB00BF041500206A
:100420001D55000800000000000000000000000052
:1004300043688268934201DB04230EE0C268934262
:1004400001DB032309E00269934201DB022304E09C
:1004500042699342ACBF012300230376704700003A
:100460002DE9F047D0F8006504463146334632683E
:100470000A2505FB0265AB421DD0B3F90C0010F153
:10048000640F05DB6FF00E07B842A8BF384601E0E5
:100490006FF06300704F643057F820000A335880C3
:1004A00033F8020C800023F8020C33F8040C8000AF
:1004B00023F8040CDFE794F85870012F03D0BB1F1A
:1004C000012B00F2A3804FF0000E73464FF0010C99
:1004D00096452AD0B1F90C90B1F80680C14520DBD1
:1004E0000A2000FB0E604089D0B1C87AB1F808A09C
:1004F000FF288D7A0CBF606B4043D14505FB05F5A5
:100500000CDAC8EB0A08451B08FB00F005FB0900E4
:1005100005FB1A0090FBF8F020EAE070034400E0CD
:1005200084460EF1010E0A31D2E70CEB03024B4870
:10053000C4F80425C368D6F8F8110546591AB1F570
:10054000806F1FD94FEAE279A2FB012301FB093337
:10055000012B08BF002A0FD3990A900A002940EA0C
:10056000835008BFB0F1004F26BF6FF00043C4F8BE
:100570000435C4F8040505E04FF47A73B2FBF3F2D6
:10058000C4F80425012F64D1E36C002B18DDD4F8E6
:100590000405D6F8F8111B1A002BEA68E36403DAA5
:1005A0005B42C4F804350BE0A36C521A9A424FF038
:1005B000000198BF9B1AC4F804158CBFE164A364C2
:1005C000D4F8045504F12C00002D226B0BDBA36B37
:1005D0009A4203DA991A8D420ADC07E0636B9A4269
:1005E00009DA013207E06B42934203DC2A4402E05D
:1005F0001A4600E000222263FFF71AFF226B2B4607
:10060000BDE8F0471648174903F08AB90A2F20D1F0
:10061000002318461C46934219D0B1F90C50A5424C
:100620000CDD0A2000FB0360408948B1C87AFF282E
:1006300008D00B280CBF0320042004E0254602E06C
:10064000022000E0052001330A312C46E3E7064B87
:10065000D870BDE8F08700BF90560008001E00204B
:100660000415002039550008441100200000000046
:1006700010B504461E4B1F491A68043382621B687A
:10068000C3621D4803F04CF9E36A0BB93C23E362F3
:10069000E36AA26A9A4288BFA362A26A9A42174A90
:1006A0000CBF0023012384F83030D36943F00403E6
:1006B000D361134B1A6822F040621A60DA6822F0A4
:1006C0004062DA60DA6842F08062DA60202383F305
:1006D000118802F04DF82046B4210A4A4FF48053A5
:1006E00002F016FD02F05CF8002383F3118810BDC0
:1006F000140008084855000804150020003802407E
:100700000008024061150008000000000000000021
:10071000C36810B504460BB102F022FD236A2BB169
:1007200004F11400BDE8104002F01ABD10BD000035
:10073000074B826A1B683C339B1A782B03D8C36A29
:100740009A4200D01AB90348142104F011B8704736
:1007500014000808380C0020000000000000000011
:10076000836AC26A93423CBF01338362FFF7E0BFF2
:10077000F8B52A4B04461B8A13F4005F284B38D186
:100780001E78C6BB90F8305001221A70EDB9856210
:10079000FFF7CEFF032384F83030224B4FF4804123
:1007A000586802F00DF9202383F3118801F0E0FF6F
:1007B0004FF4006304F1140041F65A311A4A02F072
:1007C000A7FC01F0EDFF2B4610E0032D13D0174FCF
:1007D000174D20237D6183F3118801F0C9FF38464E
:1007E000294600F0EDFE01F0DBFF334683F311886C
:1007F00001E000221A70202383F3118801F0B8FF72
:100800002046B421084A4FF4805302F081FC01F0E5
:10081000C7FF002383F31188F8BD00BF0008024022
:10082000390C0020441100206115000874120020CA
:1008300070560008000000000000000000000000EA
:10084000184A4FF40051D36943F00403D361164BA7
:100850001A6822F040621A601A6842F080621A60D8
:100860009A8822F400521204120C9A809A8892B24A
:100870009A80DA6822F04062DA60DA68DA609A68B0
:1008800022F040629A609A6842F040629A60074A99
:100890001268032A28BF002202700AB91983704720
:1008A0005983704700380240000802401C000808C5
:1008B000B1F5803F70B506460D4613D20A480021B7
:1008C0002A4603F055FF044638B9756507480849BC
:1008D0002A4603F025F8204670BD04480549224603
:1008E00003F01EF8012070BD380C00200415002014
:1008F000605500086C550008000000000000000072
:100900004B1E0A2B88BF012373B588BF80F858306F
:10091000044698BF80F85810202383F3118801F013
:1009200027FFD4F8D4301BB104F1C80002F018FC42
:1009300004F160052846FFF7EBFE294B93F8583089
:10094000012B07D104F1C80040F6A571254A002308
:1009500002F0DEFB01F024FF002383F31188224B19
:1009600004F134001968214B04F12C06002908BF5A
:100970001946FFF73DFD94F85830082B1AD0092B83
:1009800014D0012B1AD102A9002341F8043D3046AE
:1009900003F05EFA019B30462363FFF749FD144BD9
:1009A0001B68E364134B1B68A36407E02846FFF74A
:1009B0005FFE03E004F19400FFF742FF0E4800F0F1
:1009C0001FFD94F858200D480D4902F0A9FF04219D
:1009D00094F858200B4803F0CBFE02B070BD00BF66
:1009E0003C0C0020E114000808000808C04B03007C
:1009F000100008080C00080844110020041500200D
:100A00007A550008380C00200000000000000000AB
:100A1000F0B5CE6C87B004460D4630468E49FFF7E0
:100A2000A7FC10B18D48002111E030468C49FFF73A
:100A30009FFC78B1286D03A9FFF7A2FC002840F0C5
:100A4000CA8020460399FFF733FF01468348FFF72A
:100A5000C7FC6AE130468349FFF78AFC18B17F483A
:100A60008149626DC8E030468049FFF781FC60B182
:100A7000286D03A9FFF784FC002840F0AC802046D5
:100A80009DF80C10FFF73CFFDFE730467849FFF791
:100A90006FFC20B17148774994F85820ACE030469B
:100AA0007549FFF765FCB0B1286D05A9FFF768FC33
:100AB000002840F09080059B072B00F28C806F4847
:100AC000502101F03DFA10B964486D4901E06348D6
:100AD0006C49059A90E030466B49FFF749FC0028C5
:100AE0003AD0286D04A9FFF74BFC0446002872D1C8
:100AF000049B072B6FD805F15000FFF729FC06A9CE
:100B000041F8044D286DFFF73BFC002863D15348A2
:100B10005E4902F005FF0025059BAA009D42D2B266
:100B20000FD2042300935548502103AB01F028FA5B
:100B3000044638B949485649039A02F0F1FE013596
:100B4000EAE700244548534902F0EAFE002C00F091
:100B5000EC80424821467AE730464F49FFF708FCCF
:100B600018B3286D05A9FFF70BFC002833D1059BAE
:100B7000072B30D8002405F15000FFF7E9FB286D62
:100B800003A9FFF7FDFB70B90423009350213B48F4
:100B9000224603AB01F01CFA014600287FF456AF51
:100BA0000434E4B2E7E7002150E730463B49FFF761
:100BB000DFFB98B194F858300B2B0FD17EE0304614
:100BC0003749FFF7D5FB002837D0286D05A9FFF777
:100BD000EFFB054628B32148072138E73046314965
:100BE000FFF7C6FB58B930462F49FFF7C1FB002875
:100BF000E5D01A482D49626B02F092FE95E0286D0F
:100C000005A9FFF7D5FB05460028E4D104F134001F
:100C10000599FFF7EDFB0821626B254803F0A8FD5D
:100C200008E0059B626B93427FDC236304F12C0098
:100C3000FFF7FEFB0948294609E730461D49FFF743
:100C400097FB18B105481C49226BD5E73378232B55
:100C50006BD102480921FAE68455000804150020EA
:100C60008A5500089155000898550008A1550008BC
:100C7000AA550008B3550008BE5500089812002078
:100C8000C9550008D7550008E7550008F355000876
:100C900000560008955B000804560008115600082D
:100CA0003E5600085B5600082456000830560008DF
:100CB000380C00204756000850560008286D05A93A
:100CC000FFF75EFB002886D1059B072B83D8606168
:100CD000A061E06120626062A06204F1180604F184
:100CE0002C0705F15000FFF733FB58B93146286D4A
:100CF000FFF75EFB014668B9636904360133BE4203
:100D00006361EED104F1140109481822202303F095
:100D10005FFD01460748FFF763FB0748502101F0DC
:100D20000FF910B9054800F083FF07B0F0BD00BF10
:100D3000380C002004150020981200203C0C0020E4
:100D400010B504462C3002F0F3FF084B20461B6818
:100D50006365074B1978FFF7D3FD06480649626DB6
:100D600002F0DEFD0123C4F8043510BD00000808C0
:100D70000400080804150020675600080000000061
:100D800082B0064B0190C0B218649DF80520DA636A
:100D90009DF806209A6302B0704700BF000400402F
:100DA00038B505460C466961202383F3118801F0AC
:100DB000DFFC2846214600F003FC01F0F1FC002393
:100DC00083F3118838BD000000000000000000001F
:100DD0002DE9F7432D4B2E4D197895F84420814687
:100DE000914204D02B482C491A70FFF7D9FF95F88F
:100DF00044402A4E240137193059FFF7C1FFF968E2
:100E0000B04611B12348FFF7CBFF08EB04039888E5
:100E100002F01EF999F80830012B12D100238DF849
:100E200004308DF805308DF806300198FFF7A8FFE3
:100E3000362002F00DF93059FFF7A2FF242002F00E
:100E400007F995F89C30B3B1154EF388357A43EA2B
:100E500005452846FFF794FFB42002F0F9F8306802
:100E6000FFF78EFF362002F0F3F82846FFF788FFE1
:100E7000B42002F0EDF8FB88387A444443EA00409D
:100E8000FFF77EFF608903B0BDE8F0830108002012
:100E90003C0C00207412002030590008F057000864
:100EA000405A0008000000000000000000000000A0
:100EB00037B5244C0546D4F80435002B1CDD04F06E
:100EC00037F940F2E73390FBF3F202FB1300D4F85A
:100ED00004354FF47072013B534340F2077293FBA9
:100EE000F2F328339842BFBF174BDA6913889BB2DD
:100EF000BCBF43F001031380144B1A781C46511CED
:100F0000622A19700BD9124B1A889B78ADF8002011
:100F10008DF802300098FFF733FF00232370237809
:100F20005A2B0CD12B7A012B09D1094B1A889B78AB
:100F3000ADF804208DF806300198FFF721FF12204C
:100F400003B030BD3C0C0020741200205011002072
:100F5000D054000800000000000000000000000065
:100F60001D4BF7B5D3F804450746012C02D0CCBF82
:100F700002240024194B1A78A24204D018481949B7
:100F80001C70FFF70DFF184D240128592E19FFF78B
:100F9000F7FEB08802F05CF83B7A012B12D10023F7
:100FA0008DF804308DF805308DF806300198FFF784
:100FB000E7FE362002F04CF82859FFF7E1FE242026
:100FC00002F046F8F388307A2C4443EA0040FFF7F9
:100FD000D7FE608903B0F0BD3C0C00200008002063
:100FE000741200203059000840580008000000002A
:100FF0001B4B2DE9F34193F890401A4D2401804694
:101000002E192859FFF7BCFEF1682F4611B116487A
:10101000FFF7C6FE3B19988802F01AF898F80830D6
:10102000012B12D100238DF804308DF805308DF896
:1010300006300198FFF7A4FE362002F009F828597F
:10104000FFF79EFE242002F003F8F388307A3C4438
:1010500043EA0040FFF794FE608902B0BDE8F081EA
:101060003C0C002080580008741200200000000092
:10107000F7B51F4B1F49074693F8942008781C4684
:1010800090420AD0022A0A7002D11B481B4902E092
:101090001AB919481A49FFF783FE94F89440194D7C
:1010A000240128592E19FFF76BFEB08801F0D0FFFC
:1010B0003B7A012B12D100238DF804308DF80530D6
:1010C0008DF806300198FFF75BFE362001F0C0FF77
:1010D0002859FFF755FE242001F0BAFFF388307A33
:1010E0002C4443EA0040FFF74BFE608903B0F0BD9B
:1010F0003C0C00207012002074120020905900084F
:10110000705A0008C05800080000000000000000ED
:1011100037B50546C378194C03EB4303E218507802
:10112000E35C43EA0023907843EA0040FFF728FE9F
:101130002B7A012B4FF000031BD18DF804308DF872
:1011400005308DF806300198FFF71AFE362001F0C1
:101150007FFFEB7803EB4303E2185078E35C43EA4C
:101160000023907843EA0040FFF70AFE242001F0B4
:101170006FFF40F2BE2003B030BD00BFD059000861
:1011800037B50546144A92F8224092F8213043EAD6
:10119000042392F8234043EA04442046FFF7F0FD7D
:1011A0002B7A012B4FF0000311D18DF804308DF80C
:1011B00005308DF806300198FFF7E2FD362001F08A
:1011C00047FF2046FFF7DCFD242001F041FF40F2FD
:1011D000D77003B030BD00BFD05900080000000038
:1011E00010B50C460868FFF7CBFDE16811B108485F
:1011F000FFF7D6FDA08801F02BFFE388207A43EAB1
:101200000040FFF7BDFD6089BDE8104001F020BF40
:101210007412002000000000000000000000000028
:1012200073B5574E044696F85830013B0A2B20D828
:10123000DFE803F009060606060C101613191C0059
:1012400040F6A57517E0FFF7C3FD01E0FFF730FE9C
:10125000054610E0FFF784FEFAE7FFF7C9FEF7E75F
:10126000FFF706FFF4E7FFF753FFF1E7FFF788FF0B
:10127000EEE740F2E735A378EBB196F858304148F5
:1012800003EB430202441088023B92780021032BB7
:10129000A170ADF804008DF8062009D8237A012B3F
:1012A00001BFFF238DF804308DF805108DF806106E
:1012B0000198FFF765FD29464FF0FF3001F0C0FBB4
:1012C0000306054628D596F858302E4903EB43030C
:1012D000CA185078CB5C43EA0023907843EA004078
:1012E000FFF74EFD96F85830062B03D026482749C5
:1012F000FFF756FD40F2E73001F0AAFE00238DF81B
:1013000000308DF801308DF802300098FFF738FD7D
:1013100040F2E73001F09CFE680709D563783BB1E5
:101320001B49204601EB0311FFF75AFF00236370AE
:10133000A90403D520461749FFF752FFAA0503D594
:1013400020461549FFF74CFF6B0503D5204613498E
:10135000FFF746FF00238DF804308DF805308DF837
:1013600006300198FFF70CFD96F85830062B05D093
:101370002D2002B0BDE8704001F06ABE02B070BD21
:101380003C0C0020D059000874120020305900088D
:10139000005A0008C059000810590008F058000809
:1013A00008B5044B044A9B699A610448FFF738FF6B
:1013B000FBE700BF3C1D002000590008441100203D
:1013C00013B5044600F03CF9074800F0E1F80023AB
:1013D00000934FF48C710222044B054801F008FE83
:1013E000606002B010BD00BF74120020A11300089D
:1013F0005811002000000000000000000000000064
:10140000144B10B593F858300446062B19D14FF001
:10141000804308221A801622DA624FF4E0421A83CF
:1014200010221A84D96A4FF47A7251430A4A5268D8
:10143000B2FBF1F202B1013A92B21A8514229A6318
:1014400002E0064800F0A4F860688021BDE8104082
:1014500001F0B6BA3C0C0020F814002074120020F1
:1014600010B5202383F31188094C01F0B1F9E06D28
:10147000402101F07DFA04F1A0006321054A002318
:1014800001F046FE01F0BCF9002383F3118810BD82
:101490003C0C002061140008000000000000000067
:1014A00010B5202383F311880A4C01F091F9E06D07
:1014B000042101F05DFA04F1B4004FF4B471064A5E
:1014C000002301F025FE01F09BF9002383F311882E
:1014D00010BD00BF3C0C0020A1140008000000005B
:1014E00010B5202383F311880A4C01F071F9E06DE7
:1014F000022101F03DFA04F1C80040F6A571064A48
:10150000002301F005FE01F07BF9002383F311882D
:1015100010BD00BF3C0C0020E114000800000000DA
:1015200010B5202383F311880A4C01F051F9E06DC6
:10153000102101F01DFA04F1DC0041F28C31064A61
:10154000002301F0E5FD01F05BF9002383F311882E
:1015500010BD00BF3C0C0020211500080000000059
:1015600010B52023044683F3118801F031F9054BAF
:101570002146D86D01F0FCF901F042F9002383F314
:10158000118810BD3C0C002000000000000000008D
:101590001FB50221162200238DE80E0018300449E1
:1015A00003224FF0804302F08BFD05B05DF804FB91
:1015B00000040240000000000000000000000000E5
:1015C000C36870B505460C460BB101F0C9FD14B9EE
:1015D0002B6A1C6070BD05F11800618802F0F8FDEF
:1015E0002B6A22781A60A3791BB1022B04D16B6994
:1015F00003E004F1080300E000232846A188024A22
:10160000BDE8704001F084BD111600080000000024
:1016100010B52023044683F3118801F0D9F805485A
:101620002146FFF7CDFF01F0EBF8002383F311888B
:1016300010BD00BF74120020000000000000000078
:101640004D4AD36943F00203D3614C4B196821F032
:1016500003011960196841F002011960998821F0AD
:1016600001010904090C9980998889B29980D96887
:1016700021F00301D960D968D960996821F003018C
:101680009960996841F002019960196A21F00F018F
:101690001962196A41F002011962D16941F002012F
:1016A000D161196821F00C011960196841F0080135
:1016B0001960998821F002010904090C9980998820
:1016C00089B29980D96821F00C01D960D968D960B4
:1016D000996821F00C019960996841F008019960BE
:1016E000196A21F0F0011962196A41F020011962AA
:1016F000D16941F00201D161196821F4406119609A
:10170000196841F400611960998821F020010904E9
:10171000090C9980998889B29980D96821F440612F
:10172000D960D968D960996821F440619960996855
:1017300041F400619960196A21F470011962196A13
:1017400041F400111962536AFF2143F0020353620E
:101750000B4B01221A8000229A801A85D9624FF41D
:10176000C041198346F26001998341F21011198436
:101770001A64DA639A63704700380240000402403A
:101780000004004000000000000000000000000015
:1017900002461C21014802F0EBBF00BF380C0020BC
:1017A0000B1E30B5816844680ADBC268944203DAD4
:1017B000151BAB420CDC06E08C4206DA621C07E02B
:1017C0005A42A24203DCE21802E0224600E0002274
:1017D0008A42426001DB04210EE0C1688A4201DBDB
:1017E000032109E001698A4201DB022104E0416929
:1017F0008A42ACBF012100210176BDE83040024899
:10180000024902F08DB800BF0415002039550008C8
:1018100010B52023044683F3118800F0A9FF04F1DA
:10182000F00040F2E731054A4FF4807301F070FC9C
:1018300000F0B6FF002383F3118810BD6115000886
:1018400007B5016B42680346914206D0042200921C
:1018500003485021303300F0BBFB03B05DF804FBBC
:1018600098120020000000000000000000000000AE
:1018700037B583680446002B37DD202383F31188B6
:1018800000F076FFD4F8FC5000F08AFF002383F3C9
:1018900011880DB1002535E0A3681D485A1E234666
:1018A00043F8082F042200925021082200F090FBF8
:1018B000054638BB94F84430042BEBD004F12C00DF
:1018C000E168FFF76DFF236B43B9124B84F89C501E
:1018D00058684FF4007101F073F813E0012384F8A5
:1018E0009C302046FFF794FF0CE090F89C302BB121
:1018F000084B4FF48061586801F062F8002384F8C7
:101900009C3001252046FFF79BFF284603B030BDE1
:101910009812002044110020000000000000000088
:10192000F7B503780446093B122B00F28180DFE80B
:1019300003F00A2547597F7F7F7F7F5D7F7F7F7F11
:101940007F7F7F7F74008368002B75DD5A1E0346FE
:1019500043F8082F042200923B485021082200F04F
:1019600037FB0546002868D194F84430042B5DD03D
:1019700004F12C00E168FFF713FF5EE08368002BA1
:101980005ADD5A1E034643F8082F042200922E48BF
:101990005021082200F01CFB054600284DD194F888
:1019A0004430042B42D0E7682669202383F3118852
:1019B00000F0DEFE4FF47A737343E764A3640BE038
:1019C0002C302249FFF7ECFE202383F311880025F9
:1019D00000F0CEFEE564A56400F0E2FE2B4683F342
:1019E00011882AE0FFF744FF054626E082680321BC
:1019F000D31F8363530093FBF1F392FBF1F1426336
:101A0000C363016400911248124901F089FF082163
:101A1000626B114802F0ACFE08E0042300930A4810
:101A20005021082204F1340300F0D2FA002504E02A
:101A300007480A4901F074FF01252046FFF700FF1F
:101A4000284603B0F0BD00BF9812002001000080BE
:101A5000041500201D550008380C0020405B0008CC
:101A600037B504462023194804F11401182202F066
:101A70009FFE636933B31648164901F051FF0023F6
:101A800062695D1CDBB2934208D204EB83039A695E
:101A90000F48114901F044FF2B46F1E70C480F496C
:101AA00001F03EFF14230093502104F1180300229B
:101AB0000B4800F08DFA04460A490548224601F019
:101AC0002FFF00E00124204603B030BD380C002079
:101AD000041500204E5B00085D5B0008955B000864
:101AE00098120020135500080000000000000000BC
:101AF00070B504460E4611B90378212B14D0D4F8E2
:101B00008C30D4F888209A420AD3002284F890209E
:101B1000C4F8883004F16000BDE87040FEF708BEEC
:101B2000012384F8903070BD202383F3118800F0E6
:101B30001FFED4F8FC5000F033FE334683F31188C7
:101B400095B904F16000FEF70BFED4F88820D4F8B4
:101B50008C309A4202D184F8905005E0022384F838
:101B600090302046FFF754FED4F88C20D4F888300B
:101B700002480349BDE8704001F0D2BE04150020C0
:101B8000615B000800000000000000000000000091
:101B900090F8943070B504460D46002B40D011B932
:101BA0000378202B0AD01F4B02204FF4005284F8F8
:101BB00094005A83BDE87040FFF7EABD83F31188B3
:101BC00000F0D6FDD4F8FC6000F0EAFD2B4683F36C
:101BD0001188E6B9D4F89830A26893423CBF01332B
:101BE000C4F89830D4F8983093420E4B4FF400521A
:101BF00006D3002084F894001A83FFF7C9FD06E09D
:101C0000012184F8941020465A83FFF701FEA26850
:101C1000D4F8983004480549BDE8704001F080BE12
:101C200070BD00BF0008024004150020725B000870
:101C300073B50446142305460093454850210022FD
:101C4000234600F09DF9002877D14248424901F02F
:101C500067FE4048414901F063FE04F1140655F85F
:101C6000042B3C483E4901F05BFEB542F7D13948B0
:101C70003C4901F055FE237894F85820632B06D197
:101C80000B2A04D02046217AFEF73AFE52E0013AB0
:101C90000A2A52D8DFE802F006515151515151261B
:101CA0000A514A002046FFF73BFE42E00B2B0DD0C5
:101CB000212B36D1A2681821C4F88C202A4802F0C2
:101CC00057FD20460021FFF713FF33E0D4F88C3096
:101CD00004F16000C4F88830FEF72AFD002384F880
:101CE000903027E01F2B0BD0202B13D00B2B18D1BB
:101CF0001E4B00204FF4005284F894001A8306E033
:101D00001A4B02204FF4005284F894005A83FFF7D4
:101D10003FFD0FE00021C4F898102046FFF738FF80
:101D200008E00C48124901F0FBFD06E02046FFF7F1
:101D300097FE10B90F4B012201E00E4B02225868AA
:101D400004215A7002B0BDE8704000F039BE00BFF7
:101D50009812002004150020855B0008F355000848
:101D600000560008955B0008380C0020000802406F
:101D7000405B00084411002000000000000000004B
:101D800013B5044614230093502123461148002222
:101D900000F0F6F894F858300146082B15D0092BBE
:101DA0000FD0012B14D110B923780C2B03D00023B2
:101DB00084F89C300CE0204602B0BDE81040FFF7EC
:101DC00057BD2046FFF794FE02E02046FFF7E0FEF5
:101DD00002B010BD981200200000000000000000BA
:101DE00038B505460C4C80236383012001F030F99F
:101DF0000A4A05F10C00D36943F00203D36123685A
:101E000043F440432360E36823F44043E360BDE8C8
:101E1000384002F0FDB900BF000402400038024023
:101E200030B5054685B0002100F092FF2846FFF747
:101E3000D7FF1F4A1F4CD369012043F00203D3612F
:101E4000236823F440432360236843F480432360E2
:101E5000A38823F080031B041B0CA380A3889BB2E0
:101E6000A380E36823F44043E360E368E360A3688E
:101E700023F44043A360A36843F44043A36080235A
:101E8000238301F0E5F80C4B09228DE80C000B4B85
:101E900005F10C0002930C330393094922460823F1
:101EA00002F066FA284605B0BDE8304000F0A8BF51
:101EB0000038024000040240400D0300DC600008CE
:101EC000005400400000000000000000000000007E
:101ED00010B50446FFF784FF174A0120D36943F089
:101EE0000203D361154B1A6822F440421A601A6843
:101EF00042F480421A609A8822F080021204120C86
:101F00009A809A8892B29A80DA6822F44042DA6023
:101F1000DA68DA609A6822F440429A609A6842F479
:101F200040429A6080221A8301F092F804F10C007A
:101F3000BDE8104002F0ACB9003802400004024095
:101F400037B504460D4600F043FF002229461346EC
:101F50000092019204F10C0002F06AFB237F054617
:101F600013B12046FFF7B4FF204600F049FF284692
:101F700003B030BD000000000000000000000000C1
:101F8000F0B504461F460E4685B004AD05F8012D98
:101F900000F01EFF9DF828302A4601930097012388
:101FA00004F10C00314602F073FA237F054613B1A9
:101FB0002046FFF78DFF204600F022FF284605B09F
:101FC000F0BD000000000000000000000000000064
:101FD0002DE9FF470C9C054689461F468DF80F20CA
:101FE00000F0F6FEF4B1A046082C28BF4FF0080818
:101FF0005FFA88FA8DE8800405F10C0049460DF17E
:102000000F02012302F014FB064660B9052001F01F
:102010001FF89DF80F30C8EB0404534447448DF873
:102020000F30DFE726462B7F13B12846FFF750FF1E
:10203000284600F0E5FE304604B0BDE8F087000019
:10204000F0B5D0F8F8532E68312E00D9F0BD002439
:10205000B4420BD00A2707FB045797F804E08E45DB
:102060001DD12646B7F90C409C421CDC0A2474435F
:1020700025442971D0F8F81321448B811378CB8043
:1020800053780B8193788B72D0F8F813D3780C4483
:10209000E372D0F8F82313689E4202D2F0BD0134F7
:1020A000D6E701331360F0BD00000000000000001F
:1020B000D0F8F8330022834200F5FE730EBFC0F85B
:1020C000F833C0F8F803C0F8FC33D0F8F83308BF91
:1020D000C0F8FC031A60024AD268C3F8F8217047BE
:1020E000001E0020000000000000000000000000B2
:1020F000044683B50A26A74D95F85830023B082BB5
:1021000045D8DFE803F005050505444444302200C6
:10211000696DA1F16403312B0ED85A399E48C9B2BA
:1021200002F04EFD9B4B9D4993F858309A48023B74
:10213000DBB201EB830120E0994B4FF4005158686A
:1021400000F03EFC40F2E73021E19348092102F023
:1021500037FD042790489349013F02F061FD17F0D5
:10216000FF07F7D113E095F890308B48032B07D188
:10217000072102F025FD88488A4902F051FD06E05A
:10218000392102F0CDFC4FF4E17000F061FF95F8C9
:1021900058300A2B29D0092B04D17E4B93F890306C
:1021A000032B22D07C48092102F00AFD7A48042141
:1021B00022460DF1070302F0CBFCB0B99DF90730C0
:1021C00013F1640F05DB6FF00E029342A8BF1346B4
:1021D00001E06FF06303744A643352F82330B3F5BF
:1021E0002F7FC2BF6E4B01229A7095F858300B2B8F
:1021F00081D801A252F823F0832300082922000885
:10220000F7200008F7200008F7200008F720000852
:10221000292200082922000813230008F7200008BB
:10222000BF220008832300084FF004080A275A48F9
:10223000394602F0C5FC5848052122460DF1070336
:1022400002F086FC30B95948394622469DF90730DC
:10225000FFF7F6FE0137FFB23C2FE8D1B8F10108D5
:10226000E4D1534BD5F8FC24DB68D2F8F871DF1BBE
:10227000B7F57A7F11D24848392102F051FC4D4818
:1022800000FB07F303F5732303F658634FF47A70EA
:10229000B3FBF0F0013000F0DBFE202383F3118864
:1022A00000F066FA4148FFF703FFE86D082100F0EF
:1022B0005FFB00F075FA002383F311881BE73648B3
:1022C000314602F07DFC0721334822460DEB010325
:1022D00002F03EFC30B93548314622469DF90730C0
:1022E000FFF7AEFE0136F6B23B2E7FF604AF202399
:1022F00083F3118800F03CFA2C48FFF7D9FEE86D13
:10230000082100F035FB00F04BFA002383F311881D
:10231000F0E62148072102F053FC1F480521224620
:102320000DF1070302F014FC58BBE378042B28D10D
:10233000A378032B25D16378022B22D12378012B9C
:102340001FD19DF9073013F1640F05DB6FF00E020A
:102350009342A8BF134601E06FF06303124A64334F
:1023600052F823201448154901F0DAFA144B4FF4BF
:102370000051022285F89420124859831C2102F052
:10238000F7F90548392102F0CBFB4FF4E17000F07A
:102390005FFEB0E63C0C00200C190020D05B00086A
:1023A00044110020A05B0008E05B0008400D002005
:1023B000001E002018FCFFFF04150020B05B000881
:1023C00000080240380C002000000000000000005F
:1023D00008B5034B034A9B6903489A61FFF788FEDF
:1023E0003C1D0020BC5B0008C4120020000000005F
:1023F0001F4A13B5D3691F4C43F00403D3611E4B2E
:1024000020461A6822F040421A601A6842F0804260
:102410001A609A88C2F30E029A809A8892B29A80C1
:10242000DA6822F04042DA60DA68DA609A6822F00C
:1024300040429A609A6842F040429A6002F0D0FCB2
:1024400020463E21502202F053FB20460621042262
:1024500002F04EFB04232373002300934FF4CC714E
:102460007F22064B064800F0C3FD02B010BD00BF3E
:10247000003802400C19002000080240D123000857
:10248000C812002000000000000000000000000052
:1024900020F0030303F1604303F5614300F00302FE
:1024A00030B5D200D3F80053FF249440914025EA80
:1024B000040400F01F02400921438000C3F8001308
:1024C00000F160400123934000F56140C0F8803185
:1024D000036030BD000000000000000000000000AC
:1024E00020F0030303F1604310B503F56D4300F0E2
:1024F00003009C69C000FF22824024EA020281405E
:102500001143996110BD00000000000000000000B0
:10251000FEE70000000000000000000000000000D6
:1025200000F026F900F004FC00F03AF900DF0000AA
:10253000EFF30983203383F30988002383F31188A1
:1025400070470000000000000000000000000000D4
:1025500008B50A4B00229A60094A0720DA60102168
:10256000FFF7BEFF0A204FF40071FFF7B9FFBDE887
:1025700008400B208021FFF7B3BF00BF00ED00E053
:102580000003FA0500000000000000000000000049
:10259000202383F31188154B5B6813F4006321D06B
:1025A000EFF30982A2F1200383F3098810494FF069
:1025B000807342F8043C8B69096893F822008968AB
:1025C0009B6820B1994294BF0023012303E0994204
:1025D00034BF002301230BB1064B00E0064B42F849
:1025E000083C704783F31188704700BF00ED00E09E
:1025F0003C1D0020212500082C25000800000000BB
:1026000008B500F015F9202383F3118800F0E0F8F5
:1026100000F06EFC00F0F4F8002383F3118800F062
:1026200027F9BDE80840FFF7B3BF00000000000035
:102630002DE9F04FC1F80CD0D0F80CD0BDE8F08FE8
:1026400008B500F0ADF8002383F311882846A047B1
:1026500000F03EFD08BD000000000000000000008A
:1026600070470000000000000000000000000000B3
:1026700070470000000000000000000000000000A3
:10268000FEE7000000000000000000000000000065
:1026900072B6214B83F30988022282F31488BFF3B8
:1026A0006F8F1E4A1E498A4204D24FF0553142F8BC
:1026B000041BF7E71B4A9A4204D24FF0553142F807
:1026C000041BF8E7FFF7CCFF174A184B18498B4259
:1026D00004D252F8041F43F8041BF7E7154B164ABF
:1026E000934203D2002243F8042BF8E7FFF7C0FF20
:1026F000124C134B9C4203D254F8043B9847F8E722
:10270000FDF70EFD0F4C104B9C4203D254F8043BD6
:102710009847F8E7FFF7B4FF00080020000000200A
:1027200000040020000400201462000800080020BB
:10273000340C0020380C0020101E0020F40000088B
:10274000FC000008FC000008FC000008000000007D
:10275000044B1B6813B9044B1B6813B1034801F009
:1027600047BD7047341D0020381D00204A5D000819
:10277000064B10B51B68064C0BB9236813B105480E
:1027800001F036FD0123236010BD00BF341D002081
:10279000381D00204F5D0008000000000000000010
:1027A000064B10B51B68064C13B92368002B02DCDE
:1027B000044801F01DFD0023236010BD341D0020DE
:1027C000381D0020545D00080000000000000000DB
:1027D000064B10B51B68064C002B01DD236813B1B6
:1027E000044801F005FD0123236010BD341D0020C5
:1027F000381D0020595D00080000000000000000A6
:10280000074B10B51B68074C002B02DD2368002B1B
:1028100002DC054801F0ECFC0023236010BD00BF82
:10282000341D0020381D00205E5D000800000000FF
:1028300010B5202383F31188084C2368002B02DB9A
:10284000074B1B6813B1074801F0D2FC2368013322
:102850002360002383F3118810BD00BF341D0020C6
:10286000381D0020635D000800000000000000002B
:1028700010B5202383F31188084C2368002B02DD58
:10288000074B1B6813B1074801F0B2FC2368013BFA
:102890002360002383F3118810BD00BF341D002086
:1028A000381D0020685D00080000000000000000E6
:1028B000054B1B68002B03DB044B1B68002B02DC61
:1028C000034801F095BC7047341D0020381D0020DE
:1028D0006D5D000800000000000000000000000026
:1028E000054B1B681BB9054B1B68002B02DC044819
:1028F00001F07EBC704700BF341D0020381D002051
:10290000735D0008000000000000000000000000EF
:10291000034A4021134643F8081B5360704700BF29
:102920002819002000000000000000000000000046
:102930000C4A0D495368C968103343F8101C0B4901
:10294000896943F80C1C816A43F8081C90F8201030
:1029500003F8041C02F581618B4228BF02F10803D1
:102960005360704728190020001E00203C1D0020E5
:1029700038B504460D46FFF79BFF14B90C4801F02B
:1029800037FC216B94F820302943082B216303D1B5
:10299000A36A194206D138BD092B08D1A36A194090
:1029A000994204D1204600F08BF80023836238BDA1
:1029B000AA5D000800000000000000000000000008
:1029C00038B50D46044610B9094801F011FC202322
:1029D00083F31188FFF7CCFE20462946FFF7C8FF96
:1029E00000F08EF9FFF7DCFE002383F3118838BD79
:1029F000D35D00080000000000000000000000009F
:102A00000E4B70B59D690646202383F31188FFF7AE
:102A1000AFFE2C6B344005D1AE62082000F098F870
:102A20002C6B34402B6B23EA04032B63FFF7B8FEB7
:102A3000002383F31188204670BD00BF3C1D002099
:102A4000F8B5164B06469D690F46202383F311887F
:102A5000FFF78EFE2C6B344013D11FB9FFF7A0FE99
:102A60003B4609E0AE620820394600F099F800289C
:102A700005DAFFF795FE234683F311880BE02C6BF4
:102A800034402B6B23EA04032B63FFF789FE0023FA
:102A900083F3118823461846F8BD00BF3C1D002073
:102AA000034B00225B601B609A605B611B61704797
:102AB0003C1D00200000000000000000000000009D
:102AC00010B50446FFF7F4FE94F820300BB10E2B3E
:102AD00002D1094801F08CFB002384F82030A26861
:102AE000064B1B6899689142FBD25A68236062606A
:102AF00020465C60146010BD305E00083C1D002064
:102B000038B50446202383F31188FFF761FE94F85B
:102B100020505DB1032D0DD1A26A936801339360FB
:102B200094E80C001A602268536003E0FFF768FE27
:102B30002B4608E04FF0FF33A3622046FFF7C0FFAB
:102B4000FFF75EFE002383F3118838BD000000000C
:102B500070B50646104CFFF7C3FEA569142385F82F
:102B60002230236885F820601A6828465460226065
:102B7000012283F82020A361FFF7DAFEEA69ADF1B4
:102B800024039A4202D9054801F032FBA069294684
:102B9000BDE87040FFF74CBD3C1D0020425E0008C0
:102BA00070B50E4686B00546FFF79AFE731C0C4CB6
:102BB0000ED0A36901A831460A4A00F0A9FA2846B6
:102BC000FFF7C6FF049B33B101A800F0C9FA02E089
:102BD0002846FFF7BDFFA369986A06B070BD00BF25
:102BE0003C1D0020012B0008000000000000000038
:102BF00070B504460D46124EFFF772FEB069A2682A
:102C00008368A5629A4204D82046BDE87040FFF769
:102C100057BFFFF755FF0546012384F82030B46104
:102C2000FFF786FEEA69ADF124039A4202D905480E
:102C300001F0DEFA20462946BDE87040FFF7F8BCF7
:102C40003C1D0020425E0008000000000000000063
:102C500038B5104C2368A5691A682846546022606C
:102C6000012283F82020A361142385F82230FFF786
:102C700027FF2846FFF75CFEEA69ADF124039A427C
:102C800002D9054801F0B4FAA0692946BDE83840E8
:102C9000FFF7CEBC3C1D0020425E00080000000093
:102CA00038B5144B1D461A689C6911684B60196051
:102CB000012182F820109A61002284F82020A26865
:102CC0001B6899689142FBD85A682360626020466D
:102CD0005C601460FFF72CFEE269ADF124039A42B8
:102CE00002D9054801F084FAA8692146BDE83840B8
:102CF000FFF79EBC3C1D0020425E00080000000063
:102D000008B5FFF7EDFD064B1A689B6992689B6852
:102D10009A4203D9BDE80840FFF7C2BF08BD00BF13
:102D20003C1D00200000000000000000000000002A
:102D3000044B9B6993F822300BB9FFF789BFFFF76B
:102D4000AFBF00BF3C1D00200000000000000000DD
:102D500038B50D46044608B1002902DA034801F0EF
:102D600047FA64602460A56038BD00BF605E00085B
:102D700038B50446FFF7B4FD14B9124801F038FA2B
:102D8000A368002B236802DBA34202D104E0A34224
:102D900002D10D4801F02CFAA368013B002BA3607F
:102DA0000DDA0A4D0320AB699C6262681C605A60B0
:102DB00063601360FFF7CCFEAB69986A38BD0020F2
:102DC00038BD00BF905E00089F5E00083C1D0020DB
:102DD00010B52023044683F31188FFF7C9FC204671
:102DE000FFF7C6FF0446FFF7DBFC002383F31188DF
:102DF000204610BD000000000000000000000000A0
:102E000010B5044610B9134801F0F2F9A368002B7D
:102E1000236802DBA34202D104E0A34202D10E48A0
:102E200001F0E6F9202383F31188FFF7A1FCA368E2
:102E30000133002BA36006DC2068002103682360B7
:102E40005C60FFF7D5FEFFF7ABFC002383F311882E
:102E500010BD00BFDE5E0008EE5E0008000000004E
:102E6000024B034A9B699A61FEE700BF3C1D0020AC
:102E7000905F00080000000000000000000000005B
:102E800037B5FFF765FBFFF70BFE00F031F9FFF7F1
:102E90003FFD40210D4800F063F80D4B0D4D01241E
:102EA000C36180F82040A861FFF752FC002383F340
:102EB000118862B60849AA69084891610093A8215F
:102EC0002246074B00F094F803B030BD6014002098
:102ED000000400203C1D0020105E0008581D00204A
:102EE000612E00080000000000000000000000004B
:102EF000F8B5FFF7DDFC164B9B6993F8222012B161
:102F0000013A83F822205A6A01325A62114BDA6878
:102F10001C460132DA601A689A4218D09368013B65
:102F2000936025680B4BAE688EB92A68EF68EE6037
:102F300053601A60FFF764FC334683F311882869F5
:102F4000B847202383F31188FFF742FCE9E7F8BD77
:102F50003C1D0020001E00200000000000000000BA
:102F6000022280F82020002280F8212002634262A1
:102F70008261084A8160142180F82210516902613F
:102F80004161506100F12C020861C26200F134021B
:102F9000C26170473C1D00200000000000000000DE
:102FA0002DE9F04104460D4616461F46DDF818800F
:102FB000FFF77EFC24B1972D02D97F2E00D817B9D8
:102FC000084801F015F9243D074A6319E3602046DB
:102FD00067513146C3F804801A62BDE8F041FFF73B
:102FE000BFBF00BFA05F000841260008000000002E
:102FF000F7B504460D4617461E4600F134039842C5
:1030000003D0FF2200F8012BF9E76219934203D2A3
:10301000552103F8011BF9E7202383F31188FFF7FB
:10302000A7FB089B3A460093294633462046FFF704
:10303000B7FF00210446FFF7DBFDFFF7B1FB0023DC
:1030400083F31188204603B0F0BD000000000000AB
:1030500010B5044610B9094801F0CAF8202383F3DB
:103060001188FFF785FB21460620FFF799FDFFF742
:1030700097FB002383F3118810BD00BFD85F0008C1
:103080000F4B10B59C69A062234653F82C0F984251
:1030900004D00368E362FFF713FDF5E794F82130ED
:1030A0000E209B0701BF226963691A61226908BF6C
:1030B0005361FFF74DFDBDE81040024801F098B89C
:1030C0003C1D0020E75F0008000000000000000039
:1030D00010B52023044683F31188FFF749FB2046EF
:1030E000BDE81040FFF7CCBF00000000000000006A
:1030F000044B4FF0FF329A6000225B601B60DA6085
:10310000704700BF001E002000000000000000000B
:10311000F8B504460D4616461F46FFF7C9FB0CB12D
:1031200006B115B90C4801F063F80C4A2761136821
:10313000E6609968A94202D26D1A1B68F9E75968DE
:103140002360616093425C600C60A5601EBF99685B
:10315000491B9960F8BD00BF20600008001E0020D8
:1031600010B50446FFF7A4FB14B90B4801F040F872
:10317000E36813B9094801F03BF82368084A934211
:103180001FBF9968A26852189A606268136023682A
:103190005A600023E36010BD2D6000083C60000809
:1031A000001E0020000000000000000000000000E1
:1031B00000F006B800000000000000000000000061
:1031C000154B00211A694FF47A7062F400421A61BB
:1031D00019619A6962F080529A6199615A694FF057
:1031E000FF325A6159611A6A42F001021A62DA6AC0
:1031F00042F00102DA62094A1268B2FBF0F20848B2
:10320000013A42600722816002605A6A42F08052AD
:103210005A6200F0DDB800BF00380240F814002008
:1032200010E000E0000000000000000000000000CE
:1032300008B5FFF7FDFA084B0F2219685A60074AD4
:1032400001F00F0113680BB150689847FFF710FBAE
:10325000BDE80840FFF79CB90060024094140020CC
:1032600008B5FFF7E5FA084BF02219685A60074ADB
:10327000C1F3031193680BB1D0689847FFF7F8FAD0
:10328000BDE80840FFF784B90060024094140020B4
:1032900008B5FFF7CDFA094B4FF4706219685A6010
:1032A000074AC1F3032113690BB150699847FFF72F
:1032B000DFFABDE80840FFF76BB900BF00600240CD
:1032C0009414002000000000000000000000000036
:1032D00008B5FFF7ADFA094B4FF4704219685A6010
:1032E000074AC1F3033193690BB1D0699847FFF7DF
:1032F000BFFABDE80840FFF74BB900BF00600240CD
:1033000094140020000000000000000000000000F5
:1033100008B5FFF78DFA094B4FF4702219685A600F
:10332000074AC1F30341136A0BB1506A9847FFF78C
:103330009FFABDE80840FFF72BB900BF00600240CC
:1033400094140020000000000000000000000000B5
:1033500008B5FFF76DFA094B4FF4700219685A600F
:10336000074AC1F30351936A0BB1D06A9847FFF73C
:103370007FFABDE80840FFF70BB900BF00600240CC
:103380009414002000000000000000000000000075
:1033900008B5FFF74DFA094B4FF0706219685A6093
:1033A000074AC1F30361136B0BB1506B9847FFF7EA
:1033B0005FFABDE80840FFF7EBB800BF00600240CD
:1033C0009414002000000000000000000000000035
:1033D000094A002313600C225A430849515800221D
:1033E0000A60074941F833200133072BF3D1054B1D
:1033F0004FF0FF325A607047CC140020A0600008E4
:103400009414002000600240000000000000000052
:103410002DE9F0410F4614469846054610B91D485F
:1034200000F0E6FEDFF878E0697ADEF8006001205F
:1034300000FA01FC1CEA060F29D1174A4CEA0603E0
:1034400042F83140CEF8003002EBC1025B06C2F810
:10345000048018BF114A696818BFD3694FF000068D
:103460001CBF43F08073D3612B681A6822F00F02EF
:103470001A60287A0F2282400A601E6034B1A87A4E
:103480003901FFF705F83046BDE8F0812046BDE878
:10349000F08100BF50600008941400200038024002
:1034A000CC1400200000000000000000000000001C
:1034B00038B5104B104D196800240A6822F00F022D
:1034C0000A60197A5A680F238B4013600B4B9C607B
:1034D0002B6A6BB1202383F31188FFF779F9286AEF
:1034E0002021FFF745FAFFF78BF9234683F3118874
:1034F00038BD00BFA0600008D014002000240140A7
:10350000054B01391A6B22F470021A631A6B42EAF6
:1035100001521A63704700BF002401400000000000
:10352000092910B51D4B4FEA41000BD85C690144D5
:103530000720884024EA0000586158698A40024305
:103540005A6110BD13290CD801441C691E3907208B
:10355000884024EA0000186118698A4002431A6111
:1035600010BD1D290CD80144DC683C390720884077
:1035700024EA0000D860D8688A400243DA6010BDAF
:103580000144DC6D5A390720884024EA0000D865E0
:10359000D86D8A400243DA6510BD00BF00240140A7
:1035A000062910B50ED8294B01391C6C01EB81019D
:1035B0001F20884024EA00001864186C8A400243E7
:1035C0001A6410BD0C290ED8204B0739DC6B01EBB7
:1035D00081011F20884024EA0000D863D86B8A400C
:1035E0000243DA6310BD12290ED8184B0D399C6BBB
:1035F00001EB81011F20884024EA00009863986B4A
:103600008A4002439A6310BD18290ED80F4B133914
:103610005C6B01EB81011F20884024EA00005863A5
:10362000586B8A4002435A6310BD1B290DD8074BC3
:1036300019391C6B01EB81011F20884024EA00002E
:103640001863186B8A4002431A6310BD00240140BE
:1036500070B505461D4A1E48136A43F40073136291
:1036600000F07EF81B4B4FF400325A6028461021C0
:10367000FFF746FF002128460522FFF751FF0121F1
:103680004C1CE4B228460022FFF78AFF092C214691
:10369000F6D1284611210522FFF742FF661CF6B23B
:1036A000214628461122FFF77BFF112E3446F5D123
:1036B000094C0A4A002320460F21FFF7A9FE236880
:1036C000074A9A6040F282521A6070BD0038024088
:1036D000F814002000270140A0600008B134000861
:1036E000582401400000000000000000000000001D
:1036F0000D4B10221B68D8605A6040F282521A604B
:103700001A6842F001021A60084B4FF480725A6046
:1037100040F201129A601968044A4906FBD5936881
:1037200043F0804393607047A0600008002401408C
:1037300010B519B1A1F1110359425941C90001F164
:1037400008020023914204D230F811400131234491
:10375000F8E7D80810BD00000000000000000000DD
:10376000084A136843F0010313604FF4A063054A4D
:103770001268920703D4013BF9D101207047002061
:10378000704700BF00380240000000000000000049
:10379000F0B593B00021202204460AA801F078FC7D
:1037A0004FF480330A934FF400330B934FF480238C
:1037B0000C93344B03AA0D93334B06AE0E93334B4D
:1037C0000F93334B1093334B5968186803C2197A1F
:1037D000117003F1090219331F463546106851680C
:1037E000083203C59A422E46F7D13868796801AB92
:1037F00003C329488368C3F38103022B0CD0032B36
:103800000CD0012B20D0436812AAC3F3423302EB41
:10381000830353F8203C18E0204B16E0836812AA7B
:10382000C3F38343134413F83C2C8368C3F38153DD
:10383000591C8368194813F4803F194B18BF03467D
:103840005343B3FBF1F300E0154B134912A88A6808
:10385000C2F30312024412F8302CD34023608A686A
:10386000C2F30222024412F8442C23FA02F26260EC
:103870008A68C2F3C222024412F8442CD340A360E7
:1038800013B0F0BD9CFF0700C0FD0F0068FF1F00D4
:10389000D0FE3F00E05400080038024000127A00D9
:1038A0000024F40000000000000000000000000000
:1038B000094B4FF080525A62084B5A68D106FBD42C
:1038C0001A6822F4C05242EAC0221A605A68D2062C
:1038D000FCD4034B18707047003802400070004061
:1038E000F4140020000000000000000000000000B0
:1038F000D0F8D4325A1CC0F8D4221970D0F8D4228F
:1039000000F534739A4228BFC0F8D4027047000013
:1039100001460148FFF7ECBF04150020000000003D
:103920000EB417B5D0F8D432D0F8D01204468B427A
:1039300028BF01F53471C91A144806AB059A0193E2
:1039400000F0A6FFD4F8DC32184494F8D832C4F85A
:10395000DC02B3B1002384F8D8320D4BD4F8D01276
:103960005A6A04F534735B1A984228BF18469223AA
:10397000D160C4F8E00250601360136843F00103A3
:10398000136003B0BDE8104003B070471139000860
:10399000A06000080000000000000000000000001F
:1039A00038B5D0F8003404469B6C9BB3202383F3D6
:1039B0001188FEF7DDFED4F80054AB6C2B445A1B83
:1039C000472A03D8002203F8012BF8E728461249BA
:1039D00001F0EEFB1049E864002001F0E9FB2865E6
:1039E000D4F8003404F55672934208BF04F56B72A4
:1039F0000025C4F80434C4F800249564FEF7D0FE12
:103A00002B4683F311880548D4F80414BDE83840E8
:103A1000FCF7FEBF38BD00BF105500083C0C00206D
:103A20001E4B70B51B6BD0F8E4525B680446C3F1C3
:103A30006C03AB4231D05D1B48BF6C35C0F8E4323B
:103A40000026AE4229DAD4F8E8325A1C234493F80F
:103A5000EC32C4F8E822082B06D1D4F80024936C89
:103A600093B1013B93640FE00D2B01D00A2B03D1DE
:103A70002046FFF795FF07E0D4F800148A6C462A29
:103A80009EBF501C88648B54D4F8E83201366B2BEF
:103A9000C4BF0023C4F8E832D3E770BDA0600008BB
:103AA0002DE9F84F0546DFF86CB10027C5F8D402C0
:103AB000C5F8D0020123C0F8DC7280F8D832DBF8F8
:103AC0001C30504C43F00103CBF81C3023684E4EA1
:103AD00023F4402323602368DFF83C9143F4002360
:103AE0002360A388C84623F400731B041B0CA38027
:103AF000A388464A9BB2A380E368484623F4402348
:103B0000E360E368DFF814A1E360A36805F53B75A3
:103B100023F44023A360A36843F40023A360636AF3
:103B200023F0F0036362636A43F070036362DBF8BF
:103B3000203043F48043CBF820304FF40053B3815E
:103B4000334B9B68B3FBF1F189B231813B460721CE
:103B50003782FFF75DFC58F824399222C3F808A099
:103B60001A600C23B381C023B382DBF81C303A46C1
:103B700043F00103CBF81C30236809F10C0023F457
:103B80004013236023680F2143F400132360A388AC
:103B900023F480631B041B0CA380A3889BB243F413
:103BA0008063A380E36823F44013E360E36843F495
:103BB0008013E360A36823F44013A360A36843F475
:103BC0000013A360636A23F470636362636A43F45F
:103BD000E06363623B46FFF71BFCD8F830306C2291
:103BE000C3F808A0DD605A60A0221A601A6842F08B
:103BF00001021A60B3899BB243F40053B381BDE85C
:103C0000F88F00BF0000024000380140913C0008DE
:103C1000F814002000380240C46000080438014055
:103C2000184B10B55C6A93F82C10226822F00F0232
:103C300022609A6A0F238B401360D0F8E022D0F8FC
:103C4000DC12D0F8D032891A134400F53472934252
:103C500028BF0346C0F8DC12C0F8D03219B90123DE
:103C600080F8D83210BDE360D31A994228BF1946B4
:103C70009223C0F8E01261602360236843F00103DF
:103C8000236010BDA06000080000000000000000DC
:103C90000148FFF7C5BF00BF041500200000000069
:103CA00048F6A143013B0DD0084A9169C907F9D4F0
:103CB0009369DB0508D4936913F4F05F14BF012006
:103CC000002070470220704708207047003C0240E7
:103CD000124B10B51A8841F27A539A421BD1104AFE
:103CE000012341F27A501488844204D00D4ADB004B
:103CF0001A440A600DE0907812F8064C001BC0B21E
:103D00000128F3D10133FA2B02F10802E9D1064B65
:103D10000B60002010BD012010BD00BF800008080E
:103D20008800080878000808480808080000000013
:103D300010B501460446FFF7CBFF28B92368044AB3
:103D400008339342236001D9024B236010BD00BFAA
:103D50004808080880000808000000000000000073
:103D60000368074A93420CBF064B083B0B600B6885
:103D7000188841F27A53C01A18BF0120704700BF5B
:103D80008000080848080808000000000000000043
:103D900041F27A53F0B585B00E4601A90546ADF85B
:103DA0000830FFF7DDFF18B9019B5B88013300E0A5
:103DB0000023224CADF80A3063682F68DB0714D566
:103DC000202383F31188FEF7D3FC1D4BE3601D4BCA
:103DD000E3604FF48073A361636823F480736360CE
:103DE000FEF7DEFC002383F31188202383F3118880
:103DF000FEF7BEFCFFF754FF044648B9029B3B6048
:103E0000FFF74EFF044618B97E60FFF749FF0446EE
:103E10000A4A536843F001035360FEF7C1FC0023D4
:103E200083F3118834B92B68074A0833934288BF5B
:103E3000064B2B60204605B0F0BD00BF003C0240A1
:103E4000EFCDAB8905040302480808088000080884
:103E500013B50C4601A9FFF783FF18B9019B5B68F6
:103E6000236000E0012002B010BD0000000000004F
:103E700010B52023044683F31188FEF7A9FC60697E
:103E800018B100226261FEF71BFEFEF7B9FC0023A9
:103E900083F3118810BD0000000000000000000046
:103EA000104B984204D1104AD36943F0010316E045
:103EB0000E4B984204D10C4AD36943F002030EE042
:103EC0000B4B984204D1084AD36943F0040306E03F
:103ED000084B984204D1044AD36943F00803D361E4
:103EE000704700BF0000024000380240000402405A
:103EF00000080240000C024000000000000000002A
:103F00002DE9F0410D46044690461F46FFF7C8FFD5
:103F10004FEA450E032101FA0EF1C943236808FA5E
:103F200005F80B4023602268022303FA0EF31343C3
:103F30002360A088072D86B24FF0010000FA05F03B
:103F400026EA0000A080A08888BF083D48EA000259
:103F500092B2A280E3684FEA850503EA0103E360B9
:103F6000E36807FA05F7E360A36801EA0301A160CB
:103F70009DF81830A26803FA0EF343EA0203A36027
:103F80008CBF0123002304EB8304226A0F23AB4080
:103F900022EA03032362226A17432762BDE8F08105
:103FA00010B50D4C6368DB0714D5202383F311880B
:103FB000FEF7DEFB094BE360094BE3604FF48073CF
:103FC000A361636823F480736360FEF7E9FB002359
:103FD00083F3118810BD00BF003C0240EFCDAB89D8
:103FE00005040302000000000000000000000000C3
:103FF000012A01F1FF3110B50CBF07240624032963
:1040000056D8DFE801F002162A3E436803F1340275
:1040100082601A8B22F070021204120C1A831A8B1F
:1040200092B242EA04141C831A8C92B242F001024A
:104030003AE0436803F1380282601A8B22F4E042CE
:104040001204120C1A831A8B92B242EA04341C83B3
:104050001A8C92B242F0100226E0436803F13C024F
:1040600082609A8B22F070021204120C9A839A8B4F
:1040700092B242EA04149C831A8C92B242F4807287
:1040800012E0436803F1400282609A8B22F4E0421E
:104090001204120C9A839A8B92B242EA04349C83E3
:1040A0001A8C92B242F480521A84836800221A60F9
:1040B00010BD000000000000000000000000000033
:1040C000B3F1804FF7B504460D461646436004D160
:1040D00036494A6A42F0010206E0354A934206D167
:1040E00032494A6A42F002024A62324A20E0324AC7
:1040F000934204D12D494A6A42F00402F4E72F4A60
:10410000934204D129490A6A42F004020EE02C4A83
:10411000934204D125490A6A42F0080206E0294A7E
:10412000934204D121490A6A42F010020A62264AE7
:104130002260BDF8242000275F6220469F809DF802
:104140002010DA629DF82820FFF752FF6368B3F170
:10415000804F06D102230093284631463A46012378
:1041600015E0134A934205D10223009328463146B5
:1041700000220CE0104A9342F6D002F580329342BE
:1041800008D1284631460223009300220323FFF77B
:10419000B7FE06E00A4A9342F3D002F580629342EA
:1041A000EFD0636801221A8003B0F0BD00380240EE
:1041B00000040040FC1400200008004000080140FA
:1041C000000C01400010014000150020000000001C
:1041D0004268D36A594307D003681B68B3FBF1F107
:1041E00001B1013989B2118570470000000000005B
:1041F000013810F8013F33B1034A11880906FBD595
:104200009BB29380F5E77047003801400000000042
:1042100070B5064602681C4B44689A4203F5F233B7
:104220009A6905890BBF42F4001242F480029A6138
:104230009A610BBF002200229A619A610BBF5A6AF1
:104240005A6A22F4001222F480025A622046FFF7D2
:1042500027FE22686B00032505FA03F10A4322605A
:10426000E36823EA0103E360746876892046FFF778
:1042700017FE76002368B5402B432360E36823EAEA
:104280000505E56070BD00BF00540040000000005F
:1042900073B504460025022605740189009640681E
:1042A00001220423FFF72CFE6189012204230096DA
:1042B0006068FFF725FE2368294A934202F5F2322F
:1042C000516A0BBF41F4001141F480015162516207
:1042D0000BBF9169916941F4001141F48001916132
:1042E0009561204A5168204AB1FBF2F59A88012D68
:1042F00022F03F024FEA02424FEA124203D9212D37
:1043000028BF202500E002252A4392B29A801A880D
:104310004FF4967022F001021204120C1A8000FB76
:1043200005F24FF47A70B2FBF0F20132E06892B21B
:104330001A8419224243B1FBF2F292B2002A08BF5A
:10434000012242F440429A831A8892B242F001025A
:104350001A809A8892B242F400629A8002B070BDCC
:1043600000540040F814002040420F0000000000FC
:10437000F8B504460381BDF8183080E80600438193
:10438000079B089FC360104D099EFFF741FF204621
:10439000FFF77EFF09212A462346A7613846FFF72B
:1043A00037F8A36930461A682368092110339360EF
:1043B0002A462346E661FFF72BF8E3691A6823686B
:1043C00010339360F8BD00BF713E0008000000008C
:1043D00038B505460524013C14F0FF0409D02B68CC
:1043E000188B00F0020080B230B10120FEF730FEE1
:1043F000F1E701232B74022038BD0000000000000B
:1044000040F2C313013B09D00268918A128BC9079D
:1044100092B2F7D59207F5D00020704701230374BC
:104420001846704700000000000000000000000077
:1044300001682E228B8A013A9BB206D003F4806079
:1044400080B210B99B07F5D5704701207047000076
:104450002E23013B05D00268928A1206F9D500206E
:104460007047012303740220704700000000000021
:1044700040F2C313013B05D00268928A5207F9D576
:10448000002070470220704700000000000000007C
:104490002DE9F84304460D46914698469DF8247050
:1044A000FFF796FF002874D1236898829A8A5206F3
:1044B00001D51A8AFAE79A8A1A8B1A88204692B28C
:1044C00042F480721A80FFF79BFF002861D16D00D3
:1044D0002368EDB2AAB21A822046FFF7A9FF22682C
:1044E000064628B113889BB243F40073138050E052
:1044F000938A138BB8F1000F2DD02046FFF7A8FF49
:10450000002846D1A36992221B68C3F80C901A6058
:10451000C3F80480202383F31188FEF729F9414B67
:1045200002209B696361A3691A68136843F0010361
:104530001360FEF70DFBFEF733F9334683F3118862
:10454000A36919680A6822F00F020A60197A5A688A
:104550000F238B4013602046002F57D0FFF778FFC2
:10456000B8B92268204613889BB243F48073138045
:10457000FFF746FF68B9236845F001051D82204614
:10458000FFF756FF23681A8828B192B242F40072EE
:104590001A80012642E0012F05BF22F48062120436
:1045A00092B2120C18BF42F480621A809A8A1A8B57
:1045B000E26908991268D1608221116057609A8877
:1045C00092B242F480529A80202383F31188FEF73E
:1045D000CFF8144B02209B696361E3691A68136882
:1045E00043F001031360FEF7B3FAFEF7D9F8002396
:1045F00083F31188E36919680A6822F00F020A60E0
:10460000197A5A680F238B40136001E0FFF730FFDF
:10461000226813889BB243F4007313803046BDE8D0
:10462000F88300BF3C1D00200000000000000000D7
:104630002DE9F04104460D4690461F469DF81C604A
:10464000FFF7C6FE08BB236898829A8A520601D5F6
:104650001A8AFAE79A8A1A8B1A88204692B242F48A
:1046600080721A80FFF7CCFE78B923686D0005F0E0
:10467000FE051D822046FFF7DBFE2268054630B1AD
:1046800013889BB243F400731380012569E0938A79
:10469000138B002F2CD02046FFF7DAFE0028F4D130
:1046A000A36992221B68C3F80C801A605F60202304
:1046B00083F31188FEF75CF82B4B02209B69636142
:1046C000A3691A68136843F001031360FEF740FA08
:1046D000FEF766F82B4683F31188A36919680A6808
:1046E00022F00F020A60197A5A680F238B40136078
:1046F000002E2DD02046FFF7ABFE07460028C4D180
:10470000A369069A1B68DA6092221A605E60202311
:1047100083F31188FEF72CF8134B02209B69636129
:10472000A3691A68136843F001031360FEF710FAD7
:10473000FEF736F83B4683F31188A36919680A68C7
:1047400022F00F020A60197A5A680F238B40136017
:104750002046FFF78DFE226813889BB243F4007356
:1047600013802846BDE8F0813C1D002000000000B9
:1047700038B501F1006404F500242368154693421E
:104780000DD0FFF70DFCFFF78BFA10B92560FFF78E
:1047900087FA044A536843F00103536038BD002090
:1047A00038BD00BF003C02400000000000000000D7
:1047B000064822F0030218440A44914204D050F8FB
:1047C000043F41F8043BF8E7704700BFFCFF0708CF
:1047D00070B50D4603F10066D41CFFF7E1FBFFF74F
:1047E0005FFA24F0030406F500262C4440B9A542E4
:1047F00006D055F8043B46F8043BFFF751FAF5E7BD
:10480000024A536843F00103536070BD003C02400C
:10481000F0B5644685B00026B0FBF1F201FB12034F
:10482000092B06F1010694BF3033373301AFDBB2F9
:10483000BD19104605F8013C002AEDD13546236824
:104840009E420ED2227CE3680AB1302000E0202094
:104850009847A368626801339342A3600FD2013680
:10486000EDE7A26863689B1A9D4228BF1D462A4453
:10487000A26025B1013DE368785D9847F9E705B08E
:10488000F0BD00000000000000000000000000007B
:104890002DE9F0431C4687B0002304900291039356
:1048A00001938DF814301078561C002800F09F807A
:1048B000252809D0049B9847039B029A0133934211
:1048C0000393C0F0928092E000221146019216F804
:1048D000013BA3F13000C5B2092D07D812B9302B26
:1048E00008BF01210A2303FB0202F0E7019203F053
:1048F000DF02532A8DF814100FD1251D2468237868
:10490000002B6DD0039B5A1C0392029A934267D2EC
:1049100014F8010B049B9847F1E7632B0BD1049B20
:1049200020789847039B029A0133934204F10405CF
:10493000039355D35BE0582B05D1251D0DF1040CD5
:104940002068102106E0752B07D12068251D0DF188
:10495000040C0A21FFF75CFF42E0642B11D1251DF6
:104960002468002C09DA049B2D209847039B029AA7
:104970000133934203933AD264420DF1040C204672
:10498000E7E7412B2BD101238DF814300223D4F813
:104990000080676804F10C05D4F8089001930024A6
:1049A000BC421DDA002C0CDC0DF1040C18F80400DC
:1049B0001021FFF72DFF029B039A9A4210D2013477
:1049C000EEE7B9F1000FEFD0049B5FFA89F098474A
:1049D000039B029A013393420393E5D300E02546FB
:1049E000029B039A9A4202D22C4632465BE7039816
:1049F00007B0BDE8F08300000000000000000000E8
:104A0000024B1B8A5B06FBD4704700BF00000240CC
:104A1000036899811A89D207FCD59889C0B270477A
:104A200088B27F28C4BFA1F5807188B2022300B28A
:104A300090FBF3F04A3840B27047000000000000DD
:104A4000F8B504460F46084D102608346E83FFF76C
:104A5000D7FF47F080012046FFF7DAFF204600210C
:104A6000FFF7D6FF2E83F8BD0000024000000000D3
:104A70002DE9F0418846782106461446FFF7E0FF0D
:104A800003062CD5174B10225A8306F10805FFF7B1
:104A9000B7FF2846FF21FFF7BBFF4746C8EB0703D8
:104AA000327BDBB29A4228464FF0000104D9FFF76F
:104AB000AFFF07F8010BF1E7FFF7AAFF0021074658
:104AC0002846FFF7A5FF074B10221A8324B1304672
:104AD0003946FFF7A5FF20700020BDE8F0810120D6
:104AE000BDE8F0810000024000000000000000006E
:104AF0002DE9F041044688461746084D1026083433
:104B00006E83FFF77DFF41462046FFF781FF204679
:104B10003946FFF77DFF2E83BDE8F081000002409B
:104B2000F8B504460F46084D10266E83FFF768FF60
:104B300004F108003946FFF76BFF20702E832378BD
:104B400003F070032370F8BD000002400000000075
:104B5000F8B50C463A211E4605461746FFF7E0FF1A
:104B6000202383F31188FDF703FE134B28469B692E
:104B700034216B60FFF7D4FF4FF47A714C43A4F5F6
:104B80007A74B4FBF1F102200131FEF709F8044612
:104B9000FDF706FE002383F311880134284605D073
:104BA00039463246BDE8F840FFF762BF3621FFF7CD
:104BB000B7FF0220F8BD00BF3C1D00200000000030
:104BC00038B504460D46237820461BB13621FFF741
:104BD000A7FFF8E72A46BDE838400A21FFF788BF5B
:104BE000F8B506460B4C1023638308360D4617466E
:104BF000FFF706FF30467F21FFF70AFF2F44BD4233
:104C000005D0304615F8011BFFF702FFF7E7102328
:104C10002383F8BD000002400000000000000000F7
:104C200070B504460E46257820461DB13621FFF7A3
:104C300077FFF8E73146227BFFF7D2FF202383F38B
:104C40001188FDF795FD084B35219B69204663606F
:104C5000FFF766FF0220FDF77BFFFDF7A1FD2B4666
:104C600083F3118870BD00BF3C1D002000000000D0
:104C700010B504460B210C22FFF73AFF20460C2109
:104C80000022FFF735FF20460D212022FFF730FFDD
:104C900020460E212522FFF72BFF20460F21ED2273
:104CA000FFF726FF204610212D22FFF721FF204687
:104CB00011212F22FFF71CFF204612211322FFF79C
:104CC00017FF204613212322FFF712FF204614214D
:104CD000E522FFF70DFF20460A210022FFF708FF1B
:104CE000204615216222FFF703FF20462121B6222C
:104CF000FFF7FEFE204622211022FFF7F9FE1821C1
:104D000020460A46FFF7F4FE204619211D22FFF730
:104D1000EFFE20461A211C22FFF7EAFE20461B2147
:104D2000C722FFF7E5FE20461C210022FFF7E0FE28
:104D300020461D21B022FFF7DBFE20462321EA2278
:104D4000FFF7D6FE204624212A22FFF7D1FE204677
:104D500025210022FFF7CCFE204626211F22FFF747
:104D6000C7FE20462C218822FFF7C2FE20462D21B7
:104D70003122FFF7BDFE20462E210922FFF7B8FEA3
:104D8000204603210722FFF7B3FE20460021072219
:104D9000FFF7AEFE204602210622FFF7A9FE2046BD
:104DA00007210C22FFF7A4FE204608214422FFF72A
:104DB0009FFE204606210722FFF79AFE20463E214D
:104DC0005022FFF795FE204616210722FFF790FE9E
:104DD0002046BDE8104017210022FFF789BE0000E1
:104DE000F8B5884D884CEB69064643F00103EB614A
:104DF0002368002723F4407323602368302143F4A1
:104E000080732360A38823F010031B041B0CA38072
:104E1000A3889BB2A380E36823F44073E360E36854
:104E2000E360A36823F44073A360A36843F4407372
:104E3000A360EB6943F00103EB61236823F4406353
:104E40002360236843F400632360A38823F02003D6
:104E50001B041B0CA380A3889BB2A380E36823F4EC
:104E60004063E360E368E360A36823F44063A36006
:104E7000A36843F40063A360236A23F470032362EE
:104E8000236A43F4A0032362EB6943F00103EB615F
:104E9000236823F440532360236843F400532360C2
:104EA000A38823F040031B041B0CA380A3889BB2A0
:104EB000A380E36823F44053E360E368E360A368FE
:104EC00023F44053A360A36843F40053A360236A10
:104ED00023F070632362236A43F0A0632362EB69CB
:104EE00043F00103EB61236823F44043236023680C
:104EF00043F400432360A38823F080031B041B0CAE
:104F0000A380A3889BB2A380E36823F44043E360BB
:104F1000E368E360A36823F44043A360A36843F419
:104F20000043A360236A23F070432362236A43F0A3
:104F3000A0432362EB6943F00103EB61236823F094
:104F4000C0032360E36823F0C003E360E368E36029
:104F5000EB6943F00103EB61236823F03003236026
:104F6000E36823F03003E360E368E3601023238306
:104F70002A6A264B42F4805283602A624FF44172BF
:104F80001A801A8892B21A809F809A8B22F400624B
:104F90001204120C9A831A8892B242F040021A80CC
:104FA000FFF7BEFD30463A21FFF7BAFD3046FFF766
:104FB0005FFE032333762B6A154A43F001037760C3
:104FC00074612B629368092023F470439360114B42
:104FD0001A6842F008021A605A6822F008025A6001
:104FE000317E01228A40996821EA02019960D968DC
:104FF0000A43DA6008225A6170213061BDE8F84046
:10500000FDF746BA0038024000000240003001407F
:10501000000001400004014000000000000000000A
:1050200010B5027E012393400D4A044653612023AC
:1050300083F31188FDF7CCFB636853B193F820200C
:10504000022A04D100229A626068FDF739FD00232C
:105050006360FDF7D5FB002383F3118810BD00BF0B
:1050600000040140000000000000000000000000FB
:1050700008B5FDF7DDFB0448FFF7D2FFFDF7F8FBAD
:10508000BDE80840FDF784BA0C19002000000000BC
:1050900070B4840746D0541E002A41D0CDB20346D6
:1050A00002E0621EE4B3144603F8015B9A07F8D1EC
:1050B000032C2ED9CDB245EA05250F2C45EA05452E
:1050C00019D9264603F11002103E0F2E42F8105C4B
:1050D00042F80C5C42F8085C42F8045C02F11002F1
:1050E000F2D8A4F1100222F00F0204F00F041032E3
:1050F000032C13440DD91E462246043A032A46F8CF
:10510000045BFAD8221F22F003020432134404F095
:1051100003042CB1C9B21C4403F8011BA342FBD108
:1051200070BC704714460346C2E700BF0000000091
:1051300030B40C4B0C4C19680C4DD1F8A820D1F8A8
:10514000AC0004FB02F4A2FB052305FB0040013286
:10515000034443F10003C1E92A2323F0004030BC9B
:10516000704700BF300C00202DF451582D7F954C16
:105170000E4B30B41D6802E09B1A14D19AB110F89E
:10518000013BEA18527802F00302012A11F8012BC0
:1051900008BF2033AC18647804F00304012CEBD171
:1051A00020329B1AEBD0184630BC70470408002010
:1051B000024A012312685C3200F002B8300C002071
:1051C000F0B420B307460D4617F8016B01E0A64284
:1051D00016D015F8014B002CF9D1EEB13E460C4625
:1051E00016F8015B00E073B114F8013BAB42FAD151
:1051F0005DB100233B70166006463046F0BC704738
:1052000063B13846DEE73746E8E72E46F3E7106835
:105210000028D7D10646F0E71660EEE7176006468D
:105220000370EAE70000000000000000000000003A
:105230002DE9F04F444C83460E46D4F800E000E0E0
:105240002646344614F8015B0EEB0500407800F06A
:10525000080000F0FF080028F2D12D2D4BD02B2D97
:1052600004BF7578B41C1BB1102B60D09A4603E0C4
:10527000302D54D00A239A46B8F1000F14BF4FF0D6
:1052800000406FF00040B0FBFAF90027BC460AFB73
:1052900019000CE0303DAB4219DD7E1C05D0CC4539
:1052A00024D821D00AFB0C5C012714F8015B0EEB1B
:1052B0000506767816F0040FECD116F0030606D03A
:1052C000012E0CBF37265726AD1BAB42E5DC7B1CFD
:1052D00016D0C8F100008CEA000040444AB107B182
:1052E000611E1160BDE8F08F8542DBDD4FF0FF37B6
:1052F000DBE7BDE8F08FB41C75784FF00108B2E72A
:10530000B8F1000F4FF0220314BF4FF000406FF0D0
:105310000040CBF80030002AE2D1BDE8F08F2378BE
:1053200003F0DF03582B09D008239A46A4E7302D59
:105330009CD1207800F0DF00582897D14FF0100A58
:1053400065785346023497E7040800200000000007
:1053500030B40D46034C134601462A46206830BC43
:10536000FFF766BF300C00200000000000000000C6
:105370002DE9F04F494C0F46D4F800E000E02746F5
:105380003C4614F8015B0EEB0506767806F008063D
:1053900006F0FF08002EF2D12D2D51D02B2D04BF89
:1053A0007D78BC1C5BB1102B5BD04FF0FF39B9FB93
:1053B000F3F903FB09FB9A466FEA0B0B07E0302D6C
:1053C00043D00A239A46DFF8D8904FF0050B002708
:1053D000BC460CE0303DAB4219DD7E1C05D0CC450F
:1053E00024D821D00AFB0C5C012714F8015B0EEBDA
:1053F0000506767816F0040FECD116F0030606D0F9
:10540000012E0CBF37265726AD1BAB42E5DC002F23
:1054100011DBC8F100008CEA000040444AB107B13A
:10542000611E1160BDE8F08F5D45DBDD4FF0FF3799
:10543000DBE7BDE8F08F222303604FF0FF30EDE79C
:10544000BC1C7D784FF00108ACE7237803F0DF0344
:10545000582B0ED008239A464FF0070B6FF0604987
:10546000B5E7302D0FD09A464FF00F0B6FF0704913
:10547000ADE74FF0100A657853464FF00F0B02343A
:105480006FF07049A3E7267806F0DF06582EF0D0BB
:105490004FF00F0B6FF070499A4698E70408002010
:1054A0009999991900000000000000000000000018
:1054B00030B40D46034C134601462A46206830BCE2
:1054C000FFF756BF300C0020000000000000000075
:1054D00000FFFF00000000000000000000000000CE
:1054E000030406080C101820300000000000000023
:1054F000000102030406070809000000000102037E
:105500000400000000000000000000000000000097
:10551000202C002341636B2025640D0A00546F701A
:105520003D25753B205265643D25753B2059656CD2
:105530006C6F773D25750D0A00447A3D25643B204C
:10554000446D673D25640D004368617267653D25C4
:10555000753B2043617061636974793D25750D0069
:105560004E65772049443A2025750D004545206554
:1055700072726F723A2025750D00547970653D2561
:10558000750D0A002350696E670023536574494402
:1055900000234765744944002349442025750D0ABA
:1055A00000235365745479706500234765745479FA
:1055B00070650023547970652025750D0A0023500D
:1055C000696C6C5374617465002350696C6C2025A0
:1055D00075204F6B0D0A002350696C6C20257520D7
:1055E0004661696C0D0A002350696C6C52656164F8
:1055F0003332002350696C6C446174613332200093
:10560000256420002350696C6C57726974653332CD
:10561000002350696C6C52657065617457726974CF
:105620006533320023476574446F7365546F7000AF
:1056300023446F7365546F702025750D0A00235342
:105640006574446F73650023476574446F73650028
:1056500023446F73652025750D0A00235365744438
:105660006F7365546F700049443D25750D0A000045
:1056700002007D065A000000020020065A000000C9
:105680000200C8055A00000002007505B4000100C0
:105690000A00000075000000A2000000C400000025
:1056A000E1000000FA0000001101000026010000E6
:1056B0003A0100004C0100005E0100006E01000094
:1056C0007E0100008D0100009C010000AA01000085
:1056D000B8010000C5010000D2010000DE01000099
:1056E000EA010000F6010000020200000D020000C5
:1056F00018020000230200002E0200003802000001
:10570000420200004C02000056020000600200004D
:1057100069020000730200007C02000085020000A4
:105720008E02000097020000A0020000A902000003
:10573000B1020000BA020000C2020000CA0200006A
:10574000D2020000DA020000E2020000EA020000D9
:10575000F2020000FA020000010300000903000049
:1057600010030000180300001F03000026030000C0
:105770002E030000350300003C030000430300003B
:105780004A03000051030000580300005E030000BC
:10579000650300006C030000720300007903000041
:1057A0007F030000860300008C03000093030000C9
:1057B000990300009F030000A6030000AC03000053
:1057C000B2030000B8030000BE030000C4030000E1
:1057D000CA030000D0030000D6030000DC03000071
:1057E000E2030000E80300000000000000000000E9
:1057F00000FF0000240000000000BE0B00000000BD
:10580000FFFF0000240000000000BE0B00000000AD
:10581000FF000000240000000000F0030000000072
:10582000FF0000002400000000003600205900089E
:10583000FF0000002400FF0000000F27305A00087E
:1058400000FF00000E0100000000A00500000000A5
:10585000FFFF00000E0100000000E7030000000051
:10586000FF0000000E0100000000E7030000000040
:1058700002007505B40000000200B80768010100CD
:1058800000FF0000B400000000001404000000004D
:105890000000FF00B40000000000BE0B000000008C
:1058A00000FFFF00B40000000000E703000000005C
:1058B000FF000000EF0100FF0000EF01705800083A
:1058C00000FF0000B400000000001404000000000D
:1058D000FFFF0000B40000000000140400000000FE
:1058E000FF000000B40000000000140400000000ED
:1058F000FFFF0000D7070000000092095059000880
:10590000496E6469636174696F6E00000000000095
:1059100000FF0000D707000000005C0D805A00085F
:105920000200B8073600010000000000000000007F
:105930000200B8073600000000000000360000003A
:105940000200B8073600010000000000000000005F
:1059500002002006B4000000000000001200000059
:1059600002002006B4000000000000001200000049
:1059700002002006B4000000000000001200000039
:105980000200DD04A005010000000000000000008E
:1059900002007D06D70701000000000000000000A3
:1059A0000200B807B40000000200B909B40000000A
:1059B0000200900BB4000100000000000000000095
:1059C000FF000000C20100000000F801205900089B
:1059D00000010000FF000000FF00FF00FFFF00FFCC
:1059E00000FF00FFFF00FFFF0000FFFF0000FFFFC0
:1059F000FF000001000000000000000000000000A7
:105A00000000000000000000000000000000000096
:105A10000000FF00BE0200000000F801A0590008CD
:105A2000FF000000BE0200000000F801505A00080C
:105A30000200B807D0070000000000001027010096
:105A40000000FF00360000000000B400000000006D
:105A50000200EA0AB400000002002D09B4000000B0
:105A60000200B807B40001000000000000000000C0
:105A70000200B807D7070100000000000000000086
:105A800002007505D00200000000000012000000B6
:105A900002002705B4000000000000001200000012
:105AA00002007505B40000000000000012000000B4
:105AB000020027056801000000000000120000003D
:105AC00002001704B40000000000000012000000F3
:105AD000020017046801000000000000120000002E
