:020000040800F2
:1000000000040020110D0008910B0008910B00085E
:10001000910B0008910B0008910B0008910B000850
:10002000910B0008910B0008910B0008B10B000820
:10003000910B0008910B0008910B0008810C00083F
:10004000910B0008910B0008910B0008910B000820
:10005000910B0008910B0008910B0008910B000810
:10006000910B0008F10A0008910B0008D116000856
:10007000011700083117000871170008B1170008B0
:10008000F117000831180008910B0008910B0008C7
:10009000910B0008910B0008910B0008910B0008D0
:1000A000910B0008910B0008910B0008910B0008C0
:1000B000910B0008910B0008910B0008910B0008B0
:1000C000910B0008910B0008910B0008910B0008A0
:1000D000910B0008910B0008910B0008910B000890
:1000E000910B0008910B0008910B0008910B000880
:0400F000910B000868
:1000F4001101000821010008C10200088103000861
:10011000024B00221A705A601A737047380C002084
:10012000104B002183F8C0111846002242540131BF
:10013000CF290C4BF9D1012183F8D8104FF4E131CC
:10014000C3F8D430C3F8D030C3F8DC20C3F8E020C3
:10015000C3F8E410C3F8E820C3F8EC20C3F8542136
:10016000704700BFF00D00200000000000000000FC
:1001700030B5032087B001F073FC3F4801F0E0FB8D
:1001800001F066FA01F0CCF83C4B3D4C9B693D48D0
:1001900023604FF4E13102F043F8002104F1E40060
:1001A0000A4601F0E5FDD4F8E430374A37493548CE
:1001B00001F04EFF364802F07BFB364802F078FB38
:1001C0000025354802F074FB344C8DF814508DF83E
:1001D00015508DF816500599314802F0C1F904F117
:1001E000200001F0D5FC1621A28D94F830308DE866
:1001F0002200029504F12000A16A01F031FD2046A1
:1002000050F8203F4FF461611A8892B242F0010227
:100210001A8001F08DFD234802F012FC10B1204835
:10022000214901E01E48214902F05AFB202383F3B3
:10023000118800F0DDFD1E484FF461611D4A002366
:1002400001F0B6F900F0ECFD002383F311882023C0
:1002500083F3118800F0CCFD17484FF4E161174A91
:10026000002301F0A5F900F0DBFD002383F31188E2
:10027000034802F0C5F900BFC80C0020FC1700209D
:1002800050100020F00D0020DA300008CF300008B8
:10029000101000202410002038100020BC0F002077
:1002A000F00F00206011002010310008903000088D
:1002B00038110020512400084C110020912400081E
:1002C0002DE9F043244B254ADFF8A0801A60244929
:1002D00006220026DFF898C09A850122DFF8949064
:1002E0009E61DE61C3F828801A6319621D4B91B0CC
:1002F000644644F8203BCDF80490CDF80C80ADF86E
:10030000102001AD0FCD0FC4CDF81890CDF820808E
:10031000ADF8246004230CF1340506AF2360CCF85B
:1003200018600FCFCCF81C600FC503232B6005238A
:10033000CDF82C90CDF83480ADF838300CF148046D
:100340000BAD0FCD0FC402232360074BC3F8E06051
:1003500011B0BDE8F08300BFBC0F002018300008CA
:10036000000800403830000850100020000402400F
:10037000F00F00200004004000000000000000001A
:10038000044B00229A6003F10C02C3F8E420C3F886
:10039000E82070476011002000000000000000000D
:1003A000054B064A108A00F0400080B210B1013BB4
:1003B000F7D10120704700BFB88201000000024061
:1003C000036899811A89D207FCD59889C0B2704711
:1003D0007F29C4BFA1F5807189B208B2022390FBC6
:1003E000F3F04A3840B270470000000000000000FF
:1003F0002DE9F0410E4C1025658307468846FFF72E
:10040000CFFF064638B125830A480B4901F020FE8C
:100410000120BDE8F081083748F080013846FFF739
:10042000CFFF38463146FFF7CBFF2583BDE8F0818B
:1004300000000240F00D0020302D000800000000F8
:100440002DE9F8438946782106469046FFF7D0FF0C
:10045000030631D51A4D10276F83FFF7A1FF04461D
:1004600008B12F8328E006F108052846FF21FFF791
:10047000A7FF4F46C9EB0703327BDBB29A422846FF
:100480004FF0000104D9FFF79BFF07F8010BF1E7DC
:10049000FFF796FF002107462846FFF791FF084B1C
:1004A00010221A83B8F1000F07D030463946FFF703
:1004B0008FFF88F8000000E001242046BDE8F883A3
:1004C00000000240000000000000000000000000EA
:1004D0002DE9F8430E4C1026668307468946904660
:1004E000FFF75EFF054630B126830A480A4901F04E
:1004F000AFFD012509E0083749463846FFF760FFA0
:1005000038464146FFF75CFF26832846BDE8F8835E
:1005100000000240F00D0020362D00080000000011
:100520002DE9F0410C4D10276F8304468846FFF7F4
:1005300037FF064610B12F8301260AE004F10800B8
:100540004146FFF73DFF20702F83237803F07003AF
:1005500023703046BDE8F08100000240000000003A
:100560002DE9F0410E463A211F4604469046FFF71A
:10057000D7FF202383F3118800F03AFC134B204669
:100580009D6934216560FFF7CBFF4FF47A7000FB63
:1005900006F1A1F57A71B1FBF0F10131022000F012
:1005A000EFFD054600F03CFC002383F31188013584
:1005B000204605D041463A46BDE8F041FFF740BF2E
:1005C0003621FFF7ADFF0220BDE8F081FC170020C7
:1005D00038B504460D46237820461BB13621FFF777
:1005E0009FFFF8E72A460A21BDE83840FFF770BFB1
:1005F0002DE9F843114D10276F8306468946904632
:10060000FFF7CEFE044610B12F83012412E0083616
:1006100030467F21FFF7D4FE2546EBB2434506D294
:1006200019F805103046FFF7CBFE0135F5E7034B0F
:1006300010221A832046BDE8F88300BF0000024064
:1006400038B504460D46237820461BB13621FFF706
:1006500067FFF8E72946227BFFF7CAFF202383F3D1
:10066000118800F0C5FB084B35219B69204663606B
:10067000FFF756FF022000F05BFD00F0D1FB0023E6
:1006800083F3118838BD00BFFC1700200000000074
:1006900010B50B2104460E22FFF71AFF20460C214D
:1006A0000022FFF715FF20460D212022FFF710FF43
:1006B00020460E212522FFF70BFF20460F21ED22B9
:1006C000FFF706FF204610210E22FFF701FF20460C
:1006D00011212F22FFF7FCFE204612217322FFF783
:1006E000F7FE204613212322FFF7F2FE20461421B5
:1006F000FF22FFF7EDFE20460A210022FFF7E8FE69
:10070000204615210022FFF7E3FE20462121B622D4
:10071000FFF7DEFE204622211022FFF7D9FE182126
:100720000A462046FFF7D4FE204619211D22FFF776
:10073000CFFE20461A211C22FFF7CAFE20461B21AD
:10074000C722FFF7C5FE20461C210022FFF7C0FE8E
:1007500020461D21B022FFF7BBFE20462321EA22BE
:10076000FFF7B6FE204624212A22FFF7B1FE2046DD
:1007700025210022FFF7ACFE204626211F22FFF78D
:10078000A7FE20462C218822FFF7A2FE20462D211D
:100790003122FFF79DFE20462E210922FFF798FE09
:1007A000204603210722FFF793FE2046002107225F
:1007B000FFF78EFE204602210622FFF789FE204623
:1007C00007210C22FFF784FE204608214422FFF770
:1007D0007FFE20463E215022FFF77AFE204616215A
:1007E0000722FFF775FE204617210022BDE81040C2
:1007F000FFF76EBE000000000000000000000000D7
:10080000F8B59F4D9F4CEB69302143F00103EB613C
:100810002368064623F440732360236843F48073FF
:100820002360A38823F010031B041B0CA380A38860
:100830009BB2A380E36823F44073E360E368E36062
:10084000A36823F44073A360A36843F44073A360D8
:10085000EB6943F00103EB61236823F440632360F9
:10086000236843F400632360A38823F020031B0460
:100870001B0CA380A3889BB2A380E36823F440638E
:10088000E360E368E360A36823F44063A360A368C4
:1008900043F40063A360236A23F470032362236A92
:1008A00043F4A0032362EB6943F00103EB61236887
:1008B00023F440532360236843F400532360A38848
:1008C00023F040031B041B0CA380A3889BB2A380CE
:1008D000E36823F44053E360E368E360A36823F430
:1008E0004053A360A36843F40053A360236A23F03A
:1008F00070632362236A43F0A0632362EB6943F0D1
:100900000103EB61236823F440432360236843F42D
:1009100000432360A38823F080031B041B0CA380E7
:10092000A3889BB2A380E36823F44043E360E368B9
:10093000E360A36823F44043A360A36843F4004347
:10094000A360236A23F070432362236A43F0A04329
:100950002362EB6943F00103EB61236823F0C003DA
:100960002360E36823F0C003E360E368E360EB69BE
:1009700043F00103EB61236843F030032360E36835
:1009800023F03003E360102323832A6A3E4B42F4B2
:10099000805283602A624FF441721A801A8892B2A0
:1009A0001A8000229A809A8B22F400621204120CA0
:1009B0009A831A8892B242F040021A80FFF7B0FD83
:1009C000074658B1B26831481388314923F04003D3
:1009D0001B041B0C138001F03BFB16E007220621D1
:1009E0003046FFF775FD30460621FFF701FD072869
:1009F00002460CD0B16825480B8823F040031B0445
:100A00001B0C0B80234901F023FB012736E03A2120
:100A10003046FFF785FD3046FFF73AFE0323337675
:100A20002B6A776043F0010374612B621A4B01213A
:100A30009A68092022F470429A60D3F8002442F0A8
:100A40000802C3F80024D3F8042422F00802C3F8F3
:100A50000424327E01FA02F2D3F8081421EA0201DA
:100A6000C3F80814D3F80C140A43C3F80C24082262
:100A7000C3F814247021306100F04AF83846F8BDFC
:100A8000003802400000024000300140F00D00201C
:100A90003C2D0008492D0008000001400000000026
:100AA00010B5037E01229A400D4B04465A61202363
:100AB00083F3118800F0CCF9636853B193F82020D8
:100AC000022A04D100229A62606800F0E9FA002349
:100AD000636000F0D5F9002383F3118810BD00BFD7
:100AE00000040140000000000000000000000000C1
:100AF00008B500F0DDF90448FFF7D2FF00F0F8F97F
:100B0000BDE8084000F084B8380C00200000000068
:100B100000F0030230B5D200FF249440914020F051
:100B2000030303F1604303F56143D3F8005301224B
:100B300025EA04040C43C3F8004300F01F0302FA43
:100B400003F34009800000F1604000F56140C0F807
:100B50008031036030BD0000000000000000000094
:100B600020F0030300F00300C000FF228240814018
:100B700003F1604310B503F56D439C6924EA02025A
:100B80000A439A6110BD0000000000000000000050
:100B9000FEE7000000000000000000000000000070
:100BA00000F026F900F09CFB00F03AF900DF0000AD
:100BB000EFF30983203383F30988002383F311883B
:100BC000704700000000000000000000000000006E
:100BD00008B50A4B00229A60094A0720DA60102102
:100BE000FFF7BEFF0A204FF40071FFF7B9FFBDE821
:100BF00008400B208021FFF7B3BF00BF00ED00E0ED
:100C00000003FA05000000000000000000000000E2
:100C1000202383F31188154B5B6813F4006321D004
:100C2000EFF30983A3F1200282F309884FF0807269
:100C300043F8042C0E4A9169126891F822009268D8
:100C4000896820B18A4294BF0022012203E08A42CF
:100C500034BF002201220AB1064A00E0064A43F8E6
:100C6000082C704783F31188704700BF00ED00E047
:100C7000FC170020A10B0008AC0B000800000000CE
:100C800008B500F015F9202383F3118800F0E0F88F
:100C900000F07EFB00F0F4F8002383F3118800F0ED
:100CA00027F9BDE80840FFF7B3BF000000000000CF
:100CB0002DE9F04FC1F80CD0D0F80CD0BDE8F08F82
:100CC00008B500F0ADF8002383F311882846A0474B
:100CD00000F04EFC08BD0000000000000000000015
:100CE000704700000000000000000000000000004D
:100CF000704700000000000000000000000000003D
:100D0000FEE70000000000000000000000000000FE
:100D100072B6224B83F30988022383F31488BFF34E
:100D20006F8F1F4B1D4A1F498B4204D24FF0553124
:100D300043F8041BF7E71C4B934204D24FF05531A4
:100D400043F8041BF8E7FFF7CBFF0023174A1849C5
:100D50009818884204D21749595899500433F5E736
:100D6000154B164A934203D2002243F8042BF8E7AE
:100D7000FFF7BEFF124C134B9C4203D254F8043BC6
:100D80009847F8E7FFF7F4F90F4C104B9C4203D259
:100D900054F8043B9847F8E7FFF7B2FF000800203B
:100DA00000000020000400200004002000080020B3
:100DB000340C002008330008380C0020D018002024
:100DC000F400000804010008040100080401000800
:100DD000044B1B6813B9044B1B6813B1034800F0A4
:100DE000B7BF7047F4170020F81700206A2D0008DD
:100DF000064B10B51B68064C0BB9236813B10548A8
:100E000000F0A6FF0123236010BD00BFF4170020EF
:100E1000F81700206F2D00080000000000000000FF
:100E2000064B10B51B68064C13B92368002B02DC77
:100E3000044800F08DFF0023236010BDF41700204C
:100E4000F8170020742D00080000000000000000CA
:100E5000064B10B51B68064C002B01DD236813B14F
:100E6000044800F075FF0123236010BDF417002033
:100E7000F8170020792D0008000000000000000095
:100E8000074B10B51B68074C002B02DD2368002BB5
:100E900002DC054800F05CFF0023236010BD00BFAA
:100EA000F4170020F81700207E2D00080000000035
:100EB00010B5202383F31188084C2368002B02DB34
:100EC000074B1B6813B1074800F042FF236801334A
:100ED0002360002383F3118810BD00BFF4170020A6
:100EE000F8170020832D000800000000000000001B
:100EF00010B5202383F31188084C2368002B02DDF2
:100F0000074B1B6813B1074800F022FF2368013B21
:100F10002360002383F3118810BD00BFF417002065
:100F2000F8170020882D00080000000000000000D5
:100F3000054B1B68002B03DB044B1B68002B02DCFA
:100F4000034800F005BF7047F4170020F817002091
:100F50008D2D0008000000000000000000000000CF
:100F6000054B1B681BB9054B1B68002B02DC0448B2
:100F700000F0EEBE704700BFF4170020F817002005
:100F8000932D000800000000000000000000000099
:100F9000034A4021134643F8081B5360704700BFC3
:100FA000E813002000000000000000000000000026
:100FB0000C4B0D495A68C968103242F8101C0B4995
:100FC000896942F80C1C816A42F8081C90F82010CC
:100FD00002F8041C03F581618A4228BF03F108026C
:100FE0005A607047E8130020C0180020FC1700204A
:100FF00038B504460D46FFF79BFF14B90D4800F0C5
:10100000A7FE236B45EA030194F820302163082BE7
:1010100003D1A36A194206D138BD092B08D1A36AAE
:101020001940994204D1204600F03AF80023836227
:1010300038BD00BFCA2D00080000000000000000FD
:101040000E4B70B59C690546202383F31188FFF78A
:10105000CFFE266B2E4005D1A562082000F068F86F
:10106000266B2E40236B23EA06032363FFF7D8FE8B
:10107000002383F31188304670BD00BFFC170020A9
:10108000034B00225B601B609A605B611B617047D1
:10109000FC1700200000000000000000000000001D
:1010A00010B50446FFF744FF94F820300BB10E2B27
:1010B00002D1094800F04CFE002384F82030A168DA
:1010C000064B1B689A688A42FBD25A6823606260AA
:1010D00020465C60146010BD502E0008FC170020F4
:1010E00038B50446202383F31188FFF7B1FE94F846
:1010F00020505DB1032D0DD1A36A9A6801329A6028
:1011000094E80C001A602268536003E0FFF7B8FE11
:101110002B4608E04FF0FF33A3622046FFF7C0FFE5
:10112000FFF7AEFE002383F3118838BD00000000F6
:1011300070B5114C0646FFF713FFA569142385F817
:101140002230236885F820601A682846546022609F
:10115000012283F82020A361FFF72AFFEB69ADF19C
:101160002402934202D9054800F0F2FDA069294605
:10117000BDE87040FFF79CBDFC170020622E000800
:1011800070B50E4686B00546FFF7EAFE731C0C4CA0
:101190000ED0A36901A831460A4A00F009FA284690
:1011A000FFF7C6FF049B33B101A800F029FA02E063
:1011B0002846FFF7BDFFA369986A06B070BD00BF5F
:1011C000FC170020E11000080000000000000000F3
:1011D00070B5134E04460D46FFF7C2FEB069A26813
:1011E0008368A5629A4204D82046BDE87040FFF7A4
:1011F00057BFFFF755FF0123054684F82030B4613F
:10120000FFF7D6FEEB69ADF12402934202D90548FF
:1012100000F09EFD20462946BDE87040FFF748BD1E
:10122000FC170020622E00080000000000000000F3
:1012300038B5104C2368A5691A68284654602260A6
:10124000012283F82020A361142385F82230FFF7C0
:1012500027FF2846FFF7ACFEEB69ADF1240293426D
:1012600002D9054800F074FDA0692946BDE8384060
:10127000FFF71EBDFC170020622E000800000000D2
:1012800038B5144B1A689C6911681D464B6019608B
:10129000012182F820109A61A168002284F82020A0
:1012A0001B689A688A42FBD85A68236062602046AD
:1012B0005C601460FFF77CFEE369ADF124029342A9
:1012C00002D9054800F044FDA8692146BDE8384030
:1012D000FFF7EEBCFC170020622E000800000000A3
:1012E000044B9B6993F822300BB9FFF7A1BFFFF7BE
:1012F000C7BF00BFFC170020000000000000000076
:10130000024B034A9B699A61FEE700BFFC1700206D
:10131000802E000800000000000000000000000017
:1013200007B5FFF755FCFFF7ABFE00F031F9FFF70B
:101330002FFE40210F4800F063F80F4B9861012306
:1013400080F820300D4BC361FFF742FD002383F38B
:10135000118862B6084B0A4A9B69A8219A6100234A
:1013600000930122074B084800F092F803B05DF8A3
:1013700004FB00BF540C0020FC17002000040020D8
:10138000302E00080113000818180020000000008B
:10139000F8B5FFF7CDFD164B9B6993F8222012B1EB
:1013A000013A83F822205A6A01325A62114BDA68F4
:1013B0001E460132DA601A689A4218D091680139E3
:1013C000916034680B4AA5688DB92168E768E560CB
:1013D0004A601160FFF754FD2B4683F311882069A2
:1013E000B847202383F31188FFF732FDE9E7F8BD02
:1013F000FC170020C01800200000000000000000C2
:10140000022280F82020002280F82120026342621C
:101410008261084A8160142180F8221051690261BA
:101420004161506100F12C020861C26200F1340296
:10143000C2617047FC17002000000000000000009F
:101440002DE9F04104460F4615461E46DDF818808A
:10145000FFF76EFD24B1972F02D97F2D00D816B962
:10146000084800F075FC243F074BE019E06029466E
:10147000E651C0F8048003622046BDE8F041FFF762
:10148000BFBF00BF902E0008C10C00080000000084
:101490002DE9F341044600F134050E4690461F46FF
:1014A0000020FF23235401303428FAD1A3199D4290
:1014B00003D2552205F8012BF9E7202383F3118885
:1014C000FFF796FC08993B4642460091204631467C
:1014D000FFF7B6FF00210446FFF77AFEFFF7A0FCF6
:1014E000002383F31188204602B0BDE8F08100009C
:1014F00010B5044610B9094800F02AFC202383F3F4
:101500001188FFF775FC21460620FFF739FEFFF72B
:1015100087FC002383F3118810BD00BFC82E00088C
:101520000F4B10B59C69A062234653F82C0F9842CC
:1015300004D00368E362FFF7B3FDF5E794F82130C8
:101540009B0704D1226963691A61226953610E20E5
:10155000FFF7EEFDBDE81040024800F0F9BB00BF08
:10156000FC170020D72E000800000000000000003B
:1015700010B52023044683F31188FFF739FC204679
:10158000BDE81040FFF7CCBF0000000000000000E5
:10159000044B4FF0FF329A6000225B601B60DA6000
:1015A000704700BFC01800200000000000000000CD
:1015B000F8B504460D4616461F46FFF7B9FC0CB1B8
:1015C00006B115B90C4800F0C3FB0C4A276113683B
:1015D000E66011469A68AA4202D2AD1A1B68F9E782
:1015E0005A688B42236062605C601460A56002D020
:1015F0009A68551B9D60F8BD102F0008C018002088
:1016000010B50446FFF794FC14B90B4800F0A0FB9A
:10161000E36813B9094800F09BFB2368084A93422A
:1016200003D09968A2680A449A60626813602368CC
:101630005A600023E36010BD1D2F00082C2F000806
:10164000C0180020000000000000000000000000A2
:1016500000F006B8000000000000000000000000DC
:10166000154B1A6962F400421A6100221A619969E5
:1016700061F0805199619A6159694FF0FF31596168
:101680005A61196A41F001011962D96A41F00101F8
:10169000D9620A4908684FF47A71B0FBF1F0084941
:1016A000013848608A6007220A605A6A42F0805214
:1016B0005A6200F0DDB800BF00380240C80C0020BC
:1016C00010E000E00000000000000000000000004A
:1016D00008B5FFF7EDFB084B0F2219685A60074A5F
:1016E00001F00F0113680BB150689847FFF700FC39
:1016F000BDE80840FFF78CBA00600240880C00206B
:1017000008B5FFF7D5FB084BF02219685A60074A65
:10171000C1F3031193680BB1D0689847FFF7E8FB5A
:10172000BDE80840FFF774BA00600240880C002052
:1017300008B5FFF7BDFB094B4FF4706219685A609A
:10174000074AC1F3032113690BB150699847FFF7AA
:10175000CFFBBDE80840FFF75BBA00BF0060024066
:10176000880C0020000000000000000000000000C5
:1017700008B5FFF79DFB094B4FF4704219685A609A
:10178000074AC1F3033193690BB1D0699847FFF75A
:10179000AFFBBDE80840FFF73BBA00BF0060024066
:1017A000880C002000000000000000000000000085
:1017B00008B5FFF77DFB094B4FF4702219685A609A
:1017C000074AC1F30341136A0BB1506A9847FFF708
:1017D0008FFBBDE80840FFF71BBA00BF0060024066
:1017E000880C002000000000000000000000000045
:1017F00008B5FFF75DFB094B4FF4700219685A609A
:10180000074AC1F30351936A0BB1D06A9847FFF7B7
:101810006FFBBDE80840FFF7FBB900BF0060024066
:10182000880C002000000000000000000000000004
:1018300008B5FFF73DFB094B4FF0706219685A601D
:10184000074AC1F30361136B0BB1506B9847FFF765
:101850004FFBBDE80840FFF7DBB900BF0060024066
:10186000880C0020000000000000000000000000C4
:10187000094A002313600C215943084A8958002261
:101880000A60074941F833200133072BF3D1054B98
:101890004FF0FF325A607047C00C0020902F0008B4
:1018A000880C0020006002400000000000000000E2
:1018B0002DE9F0410F4615469846044610B91A48DE
:1018C00000F046FA627A012000FA02FC174E3168F5
:1018D0001CEA010F26D116484CEA010340F83250A9
:1018E000336000EBC2025B06C2F8048004D0114BE7
:1018F000DA6942F08072DA6123680F201A680026E4
:1019000022F00F021A60217A626800FA01F1116078
:101910001E6035B1A07A3901FFF7FAF83046BDE80C
:10192000F0812846BDE8F081402F0008C00C00205F
:10193000880C002000380240000000000000000079
:10194000F0B593B00021202205460AA801F000F965
:101950004FF480330A934FF400330B934FF48023FA
:101960000C93344B344A0D93344B51680E93344BE3
:1019700010680F93334B06AE109303AB03C3117A79
:10198000197002F10903193217461868596834466C
:1019900003C4083393422646F7D13868796801AB0F
:1019A00003C3294B9A68C2F38102022A24D0032A76
:1019B0000CD0012A01D1254B1FE05B6812A8C3F3AC
:1019C000423300EB830353F8203C16E09A6812A9D7
:1019D000C2F383420A4412F83C1C9A689B681C4874
:1019E00013F4803F194BC2F3815218BF03464B4397
:1019F0000132B3FBF2F300E0154B134A12A89168D1
:101A0000C1F30311014411F8301CCB402B609168E5
:101A1000C1F30221014411F8441C23FA01F1696069
:101A20009268C2F3C222024412F8442CD340AB6045
:101A300013B0F0BD9CFF0700002D0008C0FD0F0093
:101A400068FF1F00D0FE3F00003802400024F40071
:101A500000127A00000000000000000000000000FA
:101A6000094B4FF080525A62084B5A68D106FBD49A
:101A70001A6822F4C05242EAC0221A605A68D2069A
:101A8000FCD4034B187070470038024000700040CF
:101A9000C40C002000000000000000000000000056
:101AA000124B984205D103F56053DA6942F0010206
:101AB00019E00F4B984205D103F55053DA6942F013
:101AC000020210E00B4B984205D103F54053DA694E
:101AD00042F0040207E0084B984205D103F5305369
:101AE000DA6942F00802DA61704700BF0000024084
:101AF0000004024000080240000C02400000000008
:101B0000F8B50D46044616461F46FFF7C9FF6800A4
:101B100003218140022202FA00F02368C9430B40EE
:101B200023602368AE40034323600123AB40A288B7
:101B3000072D92B222EA0303A380A38888BF083D41
:101B400046EA0306B6B2A680E3684FEA850501EAD5
:101B50000303E360E368E360A36801EA0301A160B3
:101B6000A36840EA030094BF00230123A06004EBB4
:101B700083040F23AB4007FA05F5226A22EA030328
:101B80002362236A1D432562F8BD000000000000A7
:101B90000368284A934206D027498B4203D001F5B7
:101BA00080618B4201D1254900E02549B3F1804F86
:101BB000416005D103F50E335A6A42F0010206E096
:101BC00020498B4205D1204B5A6A42F002025A62E8
:101BD00070471E498B4204D11B4B5A6A42F00402E3
:101BE000F5E71B498B4204D1174B5A6A42F01002A9
:101BF000EDE718498B4204D1134B5A6A42F0200298
:101C0000E5E7934204D1104B1A6A42F004020EE059
:101C1000094A934204D10C4B1A6A42F0080206E0CA
:101C20000D4A934204D1084B1A6A42F010021A621C
:101C3000704700BF00080140000C0140D00C00209C
:101C4000CC0C002000040040003802400008004096
:101C5000001000400014004000100140000000008F
:101C600070B505462C680846B4F1804F11461E46F3
:101C70009DF8182008BF012314D0284B9C4203D0A4
:101C800003F580639C4201D102230BE0244B9C426C
:101C900007D003F580639C4203D003F580639C4228
:101CA00002D10323FFF72CFF049B2A68D3629DF81F
:101CB0001430012B06F1FF3314BF06210721032B3B
:101CC0002BD8DFE803F0020C1620138B9BB243EAFB
:101CD00001111183138C9BB243F001031CE0138BA1
:101CE0009BB243EA01311183138C9BB243F0100382
:101CF00012E0938B9BB243EA01119183138C9BB248
:101D000043F4807308E0938B9BB243EA01319183E3
:101D1000138C9BB243F48053138470BD00040040C5
:101D2000000801400000000000000000000000006A
:101D300003684068DA6A00680132B0FBF2F2B2FB75
:101D4000F1F101B1013989B2198570470000000035
:101D5000034B02469B69034803499B6900F098B90D
:101D6000FC170020F00D0020F02F000800000000FC
:101D700012B1064B1B68136011B1054B1B680B6059
:101D800010B1044B1B680360704700BF5000F81F80
:101D90005400F81F6400F81F00000000000000005D
:101DA000F0B5644685B00025B0FBF1F301FB1302EA
:101DB000092A05F1010594BF3032373201AED2B2A3
:101DC0007719184607F8012C002BEDD12F46236810
:101DD0009D420ED2227CE3680AB1302000E0202030
:101DE0009847A368626801339342A3600FD201351C
:101DF000EDE7A3686568ED1AAF4238BF3D462B4456
:101E0000A36025B1013DE368705D9847F9E705B02F
:101E1000F0BD000000000000000000000000000015
:101E20002DE9F0431C4687B00023049002910393F0
:101E300001938DF814301078561C50B125280CD021
:101E4000049B9847039B029A013393420393C0F08B
:101E50009580039807B0BDE8F083002201921146F7
:101E600016F8013BA3F13000C5B2092D07D812B90D
:101E7000302B08BF01210A2303FB0202F0E7019285
:101E800003F0DF02532A8DF8141010D1251D2468A9
:101E900014F8013B002B6BD0039B5A1C0392029A4F
:101EA000934265D214F8010C049B9847F0E7632B2A
:101EB0000BD1049B20789847039B029A01339342ED
:101EC00004F10405039353D3C3E7582B05D1251D13
:101ED0000DF1040C2068102106E0752B07D1206855
:101EE000251D0DF1040C0A21FFF75AFF40E0642B79
:101EF00011D1251D2468002C09DA049B2D20984758
:101F0000039B029A013393420393A2D264420DF1E0
:101F1000040C2046E7E7412B29D101238DF814302A
:101F20000223D4F80090D4F8048004F10C05A768CB
:101F30000193002444451BDA002C0CDC0DF1040C49
:101F400019F804001021FFF72BFF029B039A9A4215
:101F50000ED20134EEE7002FF0D0049BF8B2984780
:101F6000039B029A013393420393E7D300E0254693
:101F7000029B039A9A42BFF46CAF2C4632465AE752
:101F8000044B1A881106FBD598801A881206FCD5D6
:101F9000704700BF00380140000000000000000052
:101FA000D0F8D4305A1CC0F8D4201970D0F8D430EE
:101FB00000F1CF02934228BFC0F8D4007047000060
:101FC00001460148FFF7ECBFF00D002000000000C3
:101FD000D0F8D01000F1CF02D0F8DC30521A9A427B
:101FE00028BF1A46C0F8E02062B1002380F8D8303C
:101FF000054B5B6AD9605A6092221A601A6842F0F7
:1020000001021A60704700BF902F00080000000016
:1020100058B50E46D0F8DC10044613460948C1F105
:10202000CF013246FFF7FCFED4F8DC30184494F8B8
:10203000D830C4F8DC0023B12046BDE85840FFF793
:10204000C7BF58BDC11F000800000000000000000D
:102050000EB477B507AC064654F8045B202383F32F
:102060001188FEF7C5FE3046294622460194FFF747
:10207000CFFFFEF7D5FE002383F3118803B0BDE840
:10208000704003B070470000000000000000000036
:102090000EB403B503AB53F8042B0549054801936F
:1020A000FFF7BEFE02B05DF804EB03B0704700BF5F
:1020B0009F860100811F0008000000000000000052
:1020C00008B5344B04469B69C0F854316320FFF7D0
:1020D0000FFA314BD4F8E8501B6B5B68C3F1630314
:1020E000AB42F3D05D1B48BF6335C4F8E83000262F
:1020F000AE42EBDAD4F8EC20531C622BC4F8EC307F
:102100002244C8BF002392F8F020C8BFC4F8EC30C6
:1021100094F8C03123B1002384F8C031C4F8BC3135
:10212000082AD4F8BC3104D18BB3013BC4F8BC31CC
:102130002DE00D2A01D00A2A21D143B323440022E5
:1021400083F8582104F5AC70144900F099FD01237F
:1021500084F8C031C4F8C401202383F31188FEF74A
:1021600047FE0F4B02211868FEF742FF0220FEF7E0
:10217000DFFFFEF755FE002383F3118807E0612B94
:1021800005D8591C2344C4F8BC1183F858210136E2
:10219000AEE700BFFC170020902F000800300008B9
:1021A00050100020000000000000000000000000AF
:1021B00008B5034B034A9B6903489A61FFF780FF08
:1021C000FC17002003300008F00D00200000000084
:1021D00010B52023044683F31188FEF709FED4F8D6
:1021E000540190F82030022B01D1FEF759FFFEF781
:1021F00017FE002383F3118810BD000000000000CB
:10220000044BD0F8E4209B68B3FBF2F3024A9BB284
:1022100013817047C80C0020003801400000000006
:102220002DE9F74F514D524CEB69524E43F00103EB
:10223000EB612368DFF84CB123F44023236023686B
:10224000002743F400232360A388814623F400730E
:102250001B041B0CA380A388D8469BB2A380E36811
:10226000DFF824A123F44023E360E368E360A3687C
:1022700023F44023A360A36843F40023A360636AAC
:1022800023F0F0036362636A43F070036362C0F893
:10229000E4102B6A43F480432B62FFF7B1FF3B4607
:1022A000378258460721344AFFF702FB58F8243991
:1022B0009222C3F808A01A600C23B381C023B38212
:1022C000EB693A4643F00103EB6123680BF10C0024
:1022D00023F44013236023680F2143F40013236089
:1022E000A38823F480631B041B0CA380A3889BB2E8
:1022F00043F48063A380E36823F44013E360E3685E
:1023000043F48013E360A36823F44013A360A3683D
:1023100043F40013A360636A23F470636362636A27
:1023200043F4E06363623B46FFF7C2FAD8F830102B
:1023300009F1F003C1F808A0CB6063234B604FF4B0
:1023400085530B600B68022243F001030B600B48BE
:1023500000974FF48C710A4BFFF79AF8B3899BB240
:1023600043F40053B38103B0BDE8F08F003802405E
:102370000000024000380140F1230008D80C002082
:10238000B1210008B42F000804380140000000000B
:10239000134A10B5516A0C6824F00F040C60916A5E
:1023A00092F82C200F2404FA02F20A60D0F8D040F0
:1023B000D0F8E010D0F8DC20521A214400F1CF040C
:1023C000A14228BF0146C0F8DC20C0F8D0101AB9DD
:1023D000012280F8D82010BDBDE81040FFF7F8BDFD
:1023E000902F000800000000000000000000000026
:1023F0000148FFF7CDBF00BFF00D00200000000036
:10240000C369016B026A083302EB810213F8041CF2
:102410001163C3610020704700000000000000004D
:1024200010B52023044683F31188FEF711FD2368BD
:1024300020469B689847FEF723FD002383F311880D
:1024400010BD0000000000000000000000000000BF
:1024500010B5202383F311880A4CFEF7F9FC54F8D9
:10246000E80B0821FEF7C4FD20464FF46161064ADF
:102470000023FFF79DF8FEF703FD002383F3118887
:1024800010BD00BF501000205124000800000000C3
:1024900010B5202383F311880A4CFEF7D9FC54F8B9
:1024A000FC0B1021FEF7A4FD20464FF4E161064A23
:1024B0000023FFF77DF8FEF7E3FC002383F3118888
:1024C00010BD00BF50100020912400080000000043
:1024D000036B026A03F18043013B02EB830300229A
:1024E0005A63704700000000000000000000000078
:1024F000036910B5044613B10430FFF781F8E369AE
:102500001A78032AFDD8DFE802F0020918252368AB
:1025100020461B6898470128F1D110BD5A6808333E
:10252000E361002AEBD04FF47A735A43A2F57A7232
:10253000B2FBF3F1201D013106E05A68A369201DAA
:1025400003EBC203E36101212346034ABDE81040C7
:10255000FFF72EB810BD00BF2124000800000000C6
:10256000026B82B06FF0404301919918026A02EB4E
:1025700081029DF804105163426C9918426B02EB82
:1025800081029DF805105163826D816C13449DF8A2
:10259000062001EB83035A6302B07047000000007D
:1025A00007B500238DF804308DF805308DF806301E
:1025B0000199FFF7D5FF03B05DF804FB00000000B0
:1025C00010B50C46D4F8C42108480949FFF740FD6E
:1025D0000849D4F8C40100F02BFB02460649204606
:1025E00002B10922BDE81040FFF732BDF00D002016
:1025F000B0300008B5300008BA3000080000000014
:1026000080B504464FF0FF30FEF71AFD81070546FE
:1026100006D520463049FFF7D3FF2F48FFF7D8FDF6
:102620002A0737D52D480023D0F8E410C4F8DC3051
:1026300086682A4AFEB10B4653F8047B02F1E0019A
:102640000C328B4294BF19461146013ED4F8DC206F
:102650008660002393424FEA830606D0261D56F873
:102660002360BE42E4D00133F4E7A219013357607E
:10267000C4F8DC30DCE7C2F8E41017481849D4F895
:10268000DC20FFF7E5FCD4F8DC30012B19D1154B29
:10269000C4F8E030EB06B5D5D4F8E050002DB1D049
:1026A000202383F31188FEF7A3FB0F48036885619D
:1026B000C5619B689847FEF7B3FB002383F311883D
:1026C000A0E7022B01D1094BE2E701D9084BDFE774
:1026D000C4F8E060DEE700BFF00D002060110020CC
:1026E000C5300008F0300008BC0F00205030000852
:1026F0007031000800000000000000000000000031
:102700004FF47A725143A1F57A71B1FBF2F10346AD
:1027100001310430014AFEF74BBF00BF21240008FD
:10272000036910B5044613B10430FEF769FFE3698D
:102730001A78032AFDD8DFE802F00209111B23688A
:1027400020461B6898470128F1D110BDD3F801102D
:102750000833E3610029EAD0204607E0D3F80120DE
:10276000A369204603EBC203E3610121FFF7C8FF21
:1027700010BD00000000000000000000000000008C
:1027800038B5C36990F85C20597904468A4209D16A
:1027900090F85D509879854204D194F85E50D879CC
:1027A00085427AD0D3F80150BDB999795A79DB794D
:1027B00042EA012242EA034305F07F4119432046E1
:1027C000FFF7CEFEE3695A7984F85C209A7984F8A1
:1027D0005D20DA7984F85E205FE08A4201D201321E
:1027E00001E002D9013A84F85C2094F85D209979DF
:1027F0008A4201D2013201E002D9013A84F85D2017
:1028000094F85E20DB799A4201D2013201E002D9CC
:10281000013A84F85E20E16D2046FFF7A1FEE369EE
:1028200094F85C105A798A420AD194F85D109A792A
:1028300091420CD194F85E10DA79914207D12CE0E4
:10284000D3F801200431B2FBF1F2013200E00022A2
:1028500094F85D009979814206D0D3F801100430D4
:10286000B1FBF0F1013100E0002194F85E00DD7968
:10287000854206D0D3F801300430B3FBF0F30133C6
:1028800000E00023914238BF11462046994238BFEC
:102890001946FFF735FF012038BD0833E3610020FA
:1028A00038BD000000000000000000000000000033
:1028B0001FB50446FFF76CF9FF2100910021A289A2
:1028C000237C019102912046A168FFF7C9F9236892
:1028D0001A8892B242F001021A8004B010BD0000C2
:1028E00038B504460D46202383F31188FEF780FA9D
:1028F0002368A561E5619B6820469847FEF790FA3A
:10290000002383F3118838BD0000000000000000A0
:10291000174B2DE9F341DD6804460D449846154EEA
:102920004FF400573783144822460DF10703FDF793
:1029300017FE778388B9D4F8E830226843F8042B6F
:1029400004F1E002934288BF04F10C03C4F8E830BC
:10295000A368352B9CBF0133A360D8F80C30AB4281
:1029600003D2034BD968691AD9E702B0BDE8F081F8
:10297000C018002000080240380C002000000000B1
:10298000112910B50C460FD908483921FDF7C8FDAB
:102990004FF47A735C43A4F57A74B4FBF3F001301E
:1029A000BDE81040FEF7A4BD10BD00BF380C0020EC
:1029B0002DE9F0410546002400F01AF96C2390FB44
:1029C000F3F606FB1306710006D0284614B9FFF78C
:1029D0009FFF01E0FFF7D4FF0D4F4FF48048291D02
:1029E000A7F818800B487600FDF72AFED6F1D6012D
:1029F000A7F81A8006D0284614B9FFF789FF01E02E
:102A0000FFF7BEFF0134042CD6D1BDE8F08100BF32
:102A100000080240380C0020000000000000000008
:102A200008B5044B044A9B699A610448FFF7C0FF4C
:102A3000FBE700BFFC170020D03100086011002028
:102A400073B53A493A4CCB69064643F00403CB616F
:102A5000384B20461A6822F040521A601A6842F039
:102A600080521A609A8822F480421204120C9A80D2
:102A70009A8892B29A80DA6822F04052DA60DA6874
:102A8000DA609A6822F040529A609A6842F04052A6
:102A90009A60CA6942F00402CA611A6822F0406270
:102AA0001A601A6842F080621A609A8822F4005212
:102AB0001204120C9A809A8892B29A80DA6822F0F4
:102AC0004062DA60DA68DA609A6822F040629A60FE
:102AD0009A6842F040629A60FDF792FE0546E0B9BE
:102AE00020463E212622FDF7F3FC04222046062143
:102AF000FDF7EEFC0423204609212373FDF768FD52
:102B00000D4B4FF4CC71D3F8E4307F227360009505
:102B10000A4B0B48FEF7BCFC04E00A480A49FFF7E1
:102B200097FA0125284602B070BD00BF0038024068
:102B3000380C00200008024050100020212A000814
:102B400050120020F00D0020D631000800000000D7
:102B5000F0B4840743D0541E002A3ED0CDB20346C1
:102B600003E0621E002C38D0144603F8015B9A077C
:102B7000F7D1032C2AD9CDB245EA05250F2C45EA19
:102B8000054515D9A4F110073F0903F1100606EB1E
:102B900007161A46156055609560D5601032B2422E
:102BA000F8D104F00F040137032C03EB07130DD900
:102BB0001E462246043A032A46F8045BFAD8221F2E
:102BC00022F003020432134404F003042CB1C9B20E
:102BD0001C4403F8011BA342FBD1F0BC7047144610
:102BE0000346C6E7000000000000000000000000EF
:102BF00030B40C4B0C4D1C680C49D4F8A820D4F808
:102C0000AC0005FB02F5A2FB012301FB00510132E0
:102C10000B4443F10003C4E92A2323F0004030BCF5
:102C2000704700BF300C00202DF451582D7F954C7B
:102C30000F4B30B405461C6802E0D01A16D1ABB178
:102C400015F8013BE21850781A4600F003000128FD
:102C500008BF03F1200211F8013BE018407800F0B2
:102C600003000128E9D12033D01AE9D030BC7047E5
:102C7000000800200000000000000000000000002C
:102C8000024A012312685C3200F002B8300C0020C6
:102C9000F0B420B3074617F8016B0D4601E0A642D9
:102CA00016D015F8014B002CF9D1EEB13E4616F8BE
:102CB000015B0C4600E073B114F8013BAB42FAD162
:102CC0005DB100233B70166006463046F0BC70478D
:102CD00063B13846DEE73746E8E72E46F3E710688B
:102CE0000028D7D10646F0E71660EEE717600646E3
:102CF0000370EAE700000000000000000000000090
:102D0000030406080C10182030000000000000002A
:102D10000001020304060708090000000001020385
:102D2000040000000000000000000000000000009F
:102D30000D43432032000D43432031000D43432017
:102D4000527374204661696C000D434320522F5723
:102D5000204661696C3B2072706C3D257500000057
:102D60005356233100535623320053562333005316
:102D700056233400535623350053562336005356FA
:102D80002337005356233800535623390053562314
:102D900031300053562331310000000000000000A4
:102DA00022636845767452656769737465724D6114
:102DB000736B22282900226368457674556E72650C
:102DC00067697374657222282900226368457674E6
:102DD0005369676E616C4922282900226368457631
:102DE0007442726F6164636173744D61736B4922E5
:102DF0002829002263684576745369676E616C22E6
:102E0000282900226368457674446973706174638D
:102E10006822282900636845767444697370617478
:102E2000636828292C2023310000000000000000E6
:102E30006D61696E00168011040434080C101418BA
:102E40001C202100222400000000000000000000DF
:102E5000636853636852656164794928292C20238B
:102E60003100737461636B206F766572666C6F7787
:102E70000000000000000000000000000000000052
:102E800069646C65000000000000000000000000A4
:102E90002263685468644372656174654922282915
:102EA000002263685468645365745072696F726974
:102EB0007479222829006368546864526573756DBB
:102EC0006528292C20233100226368546864536CE0
:102ED00065657022282900636854686445786974C0
:102EE0005328292C202331002263685468645761D9
:102EF00069742228290063685468645761697428DA
:102F0000292C2023310000000000000000000000F8
:102F10002263685654536574492228290022636845
:102F200056545265736574492228290063685654C3
:102F300052657365744928292C2023310000000054
:102F400022646D6153747265616D416C6C6F636175
:102F500074652228290022646D6153747265616D65
:102F600052656C6561736522282900646D61537434
:102F70007265616D52656C6561736528292C20232B
:102F80003100000000000000000000000000000010
:102F9000086002400460024000000B001C60024018
:102FA0000460024004010C003060024004600240F2
:102FB00008020D0044600240046002400C030E0051
:102FC000586002400460024010040F006C60024030
:102FD000046002401405100080600240046002405A
:102FE00018061100000000000000000000000000B2
:102FF0000D255320402025530D0000000000000047
:10300000202C00556172745278000000000000000E
:10301000000000000000000001240008D124000886
:10302000F124000800000000000000000000000083
:10303000000000000000000081270008A125000812
:103040002127000800000000000000000000000030
:103050000000000016000000010000000E0100004A
:1030600000000000000000000100000063000000FC
:103070000000000016000000010000000E0100002A
:10308000000000000000000003000000000000003D
:10309000006801000000FF0000680100000000005F
:1030A000030000000000000000000000000000001D
:1030B0000D25530D0050696E67000D0A41636B20AA
:1030C00025640D0A000D436E74203D202575000D0A
:1030D0002553202049443D2558005261676E617296
:1030E0006F6B2076312E30000000000000000000E1
:1030F0000000000016000000010000000E010000AA
:1031000000000000000000000300000000000000BC
:103110000000000000FF000001630000000000004C
:10312000000000000000000001630000000000003B
:103130000000000000FF000001630000000000002C
:10314000000000000000000001630000000000001B
:103150000000000000FF000001630000000000000C
:10316000000000000000000003000000000000005C
:103170000000000016000000010000000E01000029
:1031800000000000000000000100000063000000DB
:103190000000000016000000010000000E01000009
:1031A00000000000000000000100000063000000BB
:1031B0000000000016000000010000000E010000E9
:1031C00000000000000000000300000000000000FC
:1031D000724C766C31000D434320696E6974206532
:1031E00072726F720000000000000000000000001A
:1031F00000202020202020202020282828282820C7
:1032000020202020202020202020202020202020BE
:103210002088101010101010101010101010101026
:103220001004040404040404040404101010101016
:1032300010104141414141410101010101010101E0
:103240000101010101010101010101011010101032
:1032500010104242424242420202020202020202B2
:103260000202020202020202020202021010101006
:10327000200000000000000000000000000000002E
:10328000000000000000000000000000000000003E
:10329000000000000000000000000000000000002E
:1032A000000000000000000000000000000000001E
:1032B000000000000000000000000000000000000E
:1032C00000000000000000000000000000000000FE
:1032D00000000000000000000000000000000000EE
:1032E00000000000000000000000000000000000DE
:1032F00000000000000000000000000000000000CE
:043300004300000086
:10330800F03100080000000000000000F40A00206E
:103318005C0B0020C40B002000000000000000002F
:103328000000000000000000000000000000000095
:10333800000000000000000000000000003300084A
:103348000000000000000000000000000000000075
:103358000000000000000000000000000000000065
:103368000000000000000000000000000000000055
:103378000000000000000000000000000000000045
:103388000000000000000000000000000000000035
:103398000000000000000000000000000000000025
:1033A8000000000000000000000000000000000015
:1033B80001000000000000000E33CDAB34126DE6B2
:1033C800ECDE05000B00000000000000000000001B
:1033D80000000000000000000000000000000000E5
:1033E80000000000000000000000000000000000D5
:1033F80000000000000000000000000000000000C5
:1034080000000000000000000000000000000000B4
:04373800080800205D
:0400000508000D11D1
:00000001FF
