:020000040800F2
:1000000000040020910100082111000821110008BE
:1000100021110008211100082111000821110008F8
:1000200021110008211100082111000861020008B7
:1000300021110008211100082111000821110008D8
:1000400021110008211100082111000821110008C8
:100050002111000821110008F114000841150008C1
:1000600091150008E1150008311600082103000869
:1000700061030008A1030008E1030008210400084F
:1000800061040008A10400082111000821110008E2
:100090002111000821110008211100088116000813
:1000A0002111000821110008211100082111000868
:1000B00081100008211100082111000821110008F9
:1000C0002111000821110008211100082111000848
:1000D0002111000821110008211100082111000838
:1000E000D116000821110008211100082111000873
:1000F0002111000821110008211100082111000818
:100100002111000821110008211100082111000807
:1001100021110008211100082111000821110008F7
:1001200021110008211100082111000821110008E7
:1001300021110008211100082111000821110008D7
:0C014000F1200008012E000881350008A5
:100150002DE9F04FC1F80CD0C3689D46BDE8F08F83
:1001600000F046FA002383F311882846A0470020B8
:1001700000F0F6FD00F02CFA00F012FC00F038FA66
:1001800000DFFEE7000000000000000000000000AB
:1001900072B6234880F30988022080F31488BFF3E5
:1001A0006F8F00F0D5FE00F0DBFE4FF055301D499B
:1001B0001D4A91423CBF41F8040BFAE71B49184A1B
:1001C00091423CBF41F8040BFAE71949194A1A4B0E
:1001D0009A423EBF51F8040B42F8040BF8E70020A6
:1001E0001649174A91423CBF41F8040BFAE700F068
:1001F000CFFE00F0BDFE134C134DAC4203DA54F8B1
:10020000041B8847F9E702F0E3FF104C104DAC42A5
:1002100003DA54F8041B8847F9E700F0B1BE000088
:10022000000800200000002000040020000400203E
:1002300028440008000800209C0D0020A00D00208C
:1002400098160020400100084C0100084C010008ED
:100250004C01000800000000000000000000000049
:1002600080B500AFEFF30983203383F309880023BF
:1002700083F3118880BD0000000000000000000032
:1002800098B5202300AF83F311880D4B5B6813F4FE
:10029000006312D0EFF309844FF0807344F8043CFC
:1002A000A4F1200383F3098800F022FB18B1054B69
:1002B00044F8083C98BD044BFAE783F3118898BDD5
:1002C00000ED00E07501000880010008000000005A
:1002D0000F4B1A6962F400421A6100221A6199698F
:1002E00061F0805199619A6159694FF0FF3159610C
:1002F0005A615A6A42F080525A621A6A42F0010206
:100300001A62DA6A42F00102DA6200F0E9B800BF6C
:100310000038024000000000000000000000000063
:1003200008B500F0ADF90A4B0A4A1968126801F0E5
:100330000E01114205D0084A596013680BB150688C
:10034000984700F0B5F9BDE80840FFF799BF00BF36
:1003500000600240086002406415002000000000B8
:1003600008B500F08DF90B4B0B4A196812680909A2
:1003700001F00E01114206D00A015A60074A936843
:100380000BB1D068984700F093F9BDE80840FFF73B
:1003900077BF00BF006002401C600240641500206F
:1003A00008B500F06DF90B4B0B4A19681268090A81
:1003B00001F00E01114206D00A025A60074A136981
:1003C0000BB15069984700F073F9BDE80840FFF79A
:1003D00057BF00BF0060024030600240641500203B
:1003E00008B500F04DF90B4B0B4A19681268090B60
:1003F00001F00E01114206D00A035A60074A9369C0
:100400000BB1D069984700F053F9BDE80840FFF7F9
:1004100037BF00BF00600240446002406415002006
:1004200008B500F02DF90B4B0B4A19681268090C3E
:1004300001F00E01114206D00A045A60074A136AFD
:100440000BB1506A984700F033F9BDE80840FFF758
:1004500017BF00BF006002405860024064150020D2
:1004600008B500F00DF90B4B0B4A19681268090D1D
:1004700001F00E01114206D00A055A60074A936A3C
:100480000BB1D06A984700F013F9BDE80840FFF7B8
:10049000F7BE00BF006002406C600240641500209F
:1004A00008B500F0EDF80B4B0B4A19681268090EFD
:1004B00001F00E01114206D00A065A60074A136B7A
:1004C0000BB1506B984700F0F3F8BDE80840FFF718
:1004D000D7BE00BF0060024080600240641500206B
:1004E00000230A4A30B5136014251A46084C0949FE
:1004F00005FB03404068026041F833200133072BBD
:10050000F6D14FF0FF32044B5A6030BDA00D0020F1
:10051000603D0008641500200060024000000000FB
:100520002DE9F8430F4690469946044610B91C48F9
:1005300000F0FEFA01201B4D627C2E6800FA02F3E7
:1005400033422BD11848730640F8328000EBC200CA
:10055000C0F804904FF00E0001BF144AD36943F075
:100560008073D36163681A6822F00F021A60217CDD
:1005700022688840506000221A60A3681E4206D19B
:10058000B8F1000F03D03946A07C00F029FD01230B
:100590000020627C93402A6813432B60BDE8F883F7
:1005A000403D0008A00D00206415002000380240E6
:1005B000044B5A6A0AB99B6A13B1034800F0B8BAEF
:1005C000704700BFA0150020F03D000800000000AB
:1005D00010B5054C636A0BB9A36A13B1034800F068
:1005E000A7FA0123A36210BDA0150020203E000839
:1005F00010B5064C636A13B9A36A002B02DC0448E9
:1006000000F096FA0023A36210BD00BFA0150020E1
:10061000403E000800000000000000000000000054
:1006200010B5064C636A002B01DDA36A13B10448C0
:1006300000F07EFA0123A36210BD00BFA0150020C8
:10064000303E000800000000000000000000000034
:1006500010B5064C636A002B02DDA36A002B02DC96
:10066000034800F065FA0023A36210BDA015002026
:10067000503E0008000000000000000000000000E4
:1006800010B5202383F31188074C636A002B01DB2C
:10069000A36A13B1054800F04BFA636A0133636241
:1006A000002383F3118810BDA0150020003E000830
:1006B00010B5202383F31188074C636A002B01DDFA
:1006C000A36A13B1054800F033FA636A013B636221
:1006D000002383F3118810BDA0150020103E0008F0
:1006E000054B5A6A002A02DB9B6A002B02DC034896
:1006F00000F01EBA704700BFA0150020603E000841
:10070000044B5A6A12B99B6A002B02DC024800F0C3
:100710000FBA7047A0150020703E000800000000CE
:100720000022024B1B605B609A607047A01500209E
:1007300010B50446FFF7D4FF14B90C4800F0F8F9DF
:10074000237D0BB10F2B02D1084800F0F1F90023F3
:10075000A2682375064B1B6899689142FBD25A68C0
:1007600023606260204614605C6010BD803E00081B
:10077000A0150020000000000000000000000000A4
:1007800038B50446202383F31188FFF749FF237D02
:100790000025052B0BD8DFE803F0030A0A081C1616
:1007A000FFF756FF85F3118838BDA3691D604FF030
:1007B000FF332046A361FFF7BBFFFFF749FF00238C
:1007C00083F3118838BDA569FFF78AFFAB68013351
:1007D000AB6094E80C001A6022685360E7E7000001
:1007E00038B50446FFF78CFF0C4B1D691A682C7551
:1007F00011684B60196001211A611175EFF30982CC
:100800002969243A91421C4602D9054800F090F922
:1008100029462069BDE83840FFF79ABCA0150020A2
:10082000A03E0008000000000000000000000000E2
:1008300070B586B00E460546FFF762FF4FF6FF73B0
:100840009E420D4C13D023690C4A314601A800F09A
:10085000D7FA2846FFF7C4FFFFF742FF049B13B106
:1008600001A800F025FB2369986906B070BD2846F1
:10087000FFF7B6FFF7E700BFA015002081070008CB
:1008800070B5184C05460E46FFF73AFF2368A342A1
:1008900007D022699B6892689A4202D2124800F0FF
:1008A00047F92069AE61AA6883689A4204D828464D
:1008B000BDE87040FFF73CBFFFF73AFF0123064653
:1008C00025612B75EFF309830269243B9A4202D913
:1008D000064800F02DF931462846BDE87040FFF784
:1008E00037BC00BFA0150020903E0008A03E0008C5
:1008F000044B1A681B6990689B68984294BF00205B
:1009000001207047A015002000000000000000003A
:10091000012038B5114B1A681C6911681D464B60DF
:1009200019601A61A1681075002222751B689A6807
:100930009142FBD35A682360626014605C60EFF3FD
:1009400009832269243B9A4202D9054800F0F0F855
:1009500021462869BDE83840FFF7FABBA015002002
:10096000A03E0008000000000000000000000000A1
:1009700008B5FFF7C5FEFFF7B3FE064B1A681B6903
:1009800092689B689A4203D9BDE80840FFF7C0BF50
:1009900008BD00BFA01500200000000000000000FE
:1009A000FFF7B6BF000000000000000000000000DC
:1009B00038B50D46044608B1002902DA034800F0B4
:1009C000B7F824606460A56038BD00BFB03E000881
:1009D00038B504460D46FFF793FE14B9144800F0ED
:1009E000A7F8A368002B23680BDB9C420BD1A368FC
:1009F0005A1E002AA26018DA4DB9A3604FF0FF30EA
:100A000038BD9C42F3D10A4800F092F8EFE7094B59
:100A100029461B6905209C6162681C605A6013604E
:100A20006360BDE83840FFF703BF002038BD00BF5A
:100A3000C03E0008A01500200000000000000000DB
:100A400010B50446FFF74CFE14B90F4800F070F8DB
:100A5000A368002B236810DB9C4210D1A3680133EC
:100A6000002BA3600FDC2068036823605C60002318
:100A70008361BDE81040FFF75BBE9C42EED10248A7
:100A800000F056F8EAE710BDE03E00080000000064
:100A9000FEE7000000000000000000000000000071
:100AA00073B500251B4B1C4A9D60D9681B4C21F473
:100AB000E0610904090C0A431949DA60CA68012691
:100AC00042F08072CA6017490A6842F001020A6067
:100AD0001022DA77202283F82220FFF721FE00F08F
:100AE0007FF94021204600F0B3F80F4B44F81C0C6E
:100AF00006750361FFF75CFD85F3118862B60B4B49
:100B000000953246B02104F11C0000F0D9F802B083
:100B100070BD00BF00ED00E00003FA05CC15002019
:100B2000F0ED00E0001000E000040020910A000851
:100B300072B6014B1862FEE7A0150020000000000D
:100B40002DE9F8430026FFF7CBFDFFF7C9FD4FF075
:100B500080433746224D5B6A6C699BB205F11408ED
:100B6000E98B2289581A80B2824219D968694045B6
:100B700034D00A44D21A92B2022A2CBF9C189C1C70
:100B8000A0B200F06DFA4FF08043596AEA8B89B247
:100B9000891AA21A914221DD72B6124B2B62FEE72E
:100BA00023680A444345EA83D4F80C90C3F80480D0
:100BB0006B61E66001D100F04BFAFFF749FD87F366
:100BC00011882069C847202383F31188FFF728FD87
:100BD0004FF080435B6A6C699BB2C1E7BDE8F88364
:100BE000A0150020F03E00080000000000000000FA
:100BF000202383F31188FFF7EBBC00000000000006
:100C000008B5FFF7F5FC084B1A689A4207D01B6934
:100C100099689368994202D20448FFF789FF00233C
:100C200083F3118808BD00BFA0150020003F000815
:100C300010B5044610B90448FFF77AFF2146BDE815
:100C400010400820FFF7F4BD103F0008000000002E
:100C5000022202750022427500F11C0281600261CD
:100C600070470000000000000000000000000000CD
:100C7000F8B504460D4616461F46FFF731FD24B170
:100C80009F2D02D97F2E00D817B90A48FFF750FFD1
:100C9000243D069A6319E36067515A60064A20466C
:100CA0001A62022323750023637504F11C03A660F6
:100CB0002361F8BD203F000861010008000000002A
:100CC0002DE9F341174605460E460446FF22984695
:100CD00000F11C03A34217D15522AB19A34216D829
:100CE000FFF786FF089B3A46009331464346284665
:100CF000FFF7BEFF04460021FFF7C2FDFFF780FFAC
:100D0000204602B0BDE8F08104F8012BE2E704F8C8
:100D1000012BE3E7000000000000000000000000DD
:100D200010B50446FFF764FF2046FFF781FFBDE8DA
:100D30001040FFF765BF0000000000000000000049
:100D400008B5054B1B6998610F20FFF749FDBDE809
:100D500008400248FFF7ECBEA0150020303F000815
:100D600010B50446FFF744FF2046BDE81040FFF7EA
:100D7000E7BF0000000000000000000000000000CD
:100D800070B50268074C0546266912B10648FFF7A0
:100D9000CFFE2E600320B561FFF722FD236998691D
:100DA00070BD00BFA0150020403F000800000000FB
:100DB00070B5046805460E466CB1237D032B02D046
:100DC0000548FFF7B5FE00232B60A6612046BDE86D
:100DD0007040FFF7ADBC70BD503F00080000000040
:100DE000054B03F114025A619A614FF6FF729A8320
:100DF0000022DA83704700BFA01500200000000029
:100E0000F8B506460C4615461F46FFF769FC0EB1BD
:100E100005B114B92148FFF78BFE214A022C214667
:100E200014464FF08043F56054F8145F5B6A38BF96
:100E30000221A542376198B217460BD1D0830844EE
:100E40005661966180B2356075603181BDE8F840C9
:100E500000F0E6B8D28B9BB2841A0C449B1AA4B261
:100E60009C422B8903DAE41AA4B22D6805E0A34260
:100E700003D9101980B200F0F3F82B899C42F2D804
:100E80006B68356073601E606E6034812B891C1B3B
:100E90004FF6FF732C81BB83F8BD00BF603F000895
:100EA000A01500200000000000000000000000006D
:100EB00010B50446FFF714FC14B92048FFF738FEBC
:100EC000E36813B91D48FFF733FE1D490B4653F87D
:100ED000142F944222680CD061680A602268516025
:100EE00000219A42E16027D0138921890B441381A4
:100EF00010BD00209A424A615360E06003D1BDE812
:100F0000104000F0A5B81389208903449BB21381D7
:100F10004FF08042506ACA8B80B2821A92B29342DA
:100F20000AD9BDE810409B1A9BB2022B2CBFC018F7
:100F3000023080B200F094B810BD00BF703F0008CE
:100F4000A0150020000000000000000000000000CC
:100F500070470000000000000000000000000000DA
:100F600070470000000000000000000000000000CA
:100F700070470000000000000000000000000000BA
:100F8000FEE700000000000000000000000000007C
:100F900070B500240C4B03F18000A3F1100126C9A9
:100FA0000439AA4207D353F8041C8A4208D31033E9
:100FB0008342F2D170BD51F8046F42F8046BF0E740
:100FC00042F8044BF1E700BF903F0008000000002A
:100FD00008B5FFF77DF9BDE8084000F019B800003A
:100FE00000F16043090103F56143C9B283F80013BE
:100FF000012300F01F024009800000F1604093408F
:1010000000F56140C0F880310360704700000000C7
:1010100000F056B8000000000000000000000000D2
:1010200038B54FF08044E36805469B0702D5044875
:10103000FFF77EFD0023656323610223E36038BD73
:101040000040000800000000000000000000000058
:1010500000224FF08043DA6070470000000000007B
:1010600038B54FF08043DA68054612F0020F1C468F
:1010700002D10248FFF75CFD656338BD10400008EF
:1010800010B5FFF7FDFA4FF080431A6992070CD5AF
:1010900000241C61202383F31188FFF7C1FAFFF7B6
:1010A0004FFDFFF7D5FA84F31188FFF701FBBDE888
:1010B0001040FFF7E5B8000000000000000000004D
:1010C000114A0221536A1C2043F0010353620F4A64
:1010D000936843F0010393600D4B5A6842F210731A
:1010E000B2FBF3F24FF08043013A9A624FF6FF727F
:1010F000DA6200229A615A63DA605A6001225A6108
:101100001A60FFF76DBF00BF00380240002004E006
:10111000A40D0020000000000000000000000000FE
:10112000FEE70000000000000000000000000000DA
:10113000202383F31188FFF773BA0000000000003A
:1011400008B5FFF785FA002383F3118808BD000076
:1011500010B50446FFF7ECFF236820461B6898474C
:10116000BDE81040FFF7ECBF0000000000000000E9
:10117000074B5A68D2070AD5064ADA60064ADA608F
:101180004FF480729A615A6822F480725A607047F4
:10119000003C0240EFCDAB890504030200000000D3
:1011A00073B5837E1D4C8DF807300546FFF798FA1E
:1011B000D4F8AC30002B19DDFFF792FAD4F8AC303C
:1011C0000099013BC4F8AC30D4F89430144803F1D2
:1011D0000802C4F8942019600199596004F1900341
:1011E0009A4228BFC4F89440FFF72AFCEB7E012BFB
:1011F00011D12E8BFFF774FA2B692C1D13B12046E9
:10120000FFF756FE2B4631462046064A02B0BDE89F
:101210007040FFF7F5BD02B070BD00BF3413002071
:10122000CC13002051110008000000000000000055
:1012300046230E4A9169C90710D49169C9050FD494
:10124000916911F4F05F14BF01200020013B0328D5
:101250009BB207D1002BEDD1022070470320F5E7A8
:101260000D20F3E7002B08BF02207047003C02402E
:101270000368B3F1804F05D1224A536A43F001035A
:1012800053627047204A934205D102F50D32536AEA
:1012900043F00203F4E71D4A934205D102F50C32F4
:1012A000536A43F00403EBE7194A934205D102F570
:1012B0000A32536A43F01003E2E7164A934205D11B
:1012C00002F50932536A43F02003D9E7124A9342E8
:1012D00006D102F59832136A43F004031362704793
:1012E0000E4A934205D102F59632136A43F0080381
:1012F000F4E70B4A9342F2D102F59432136A43F0B9
:101300001003EBE7003802400004004000080040F2
:10131000001000400014004000080140000C014093
:10132000001001400000000000000000000000006C
:10133000F8B50446FFF79CFF826903680169DA6229
:10134000027D0139012A0CBF0722062203290BD88E
:10135000DFE801F0026A727A996941EA02129A6141
:101360001A6A42F001021A621A6842F001021A6017
:10137000494A934270D002F5806293426CD002F5E4
:10138000803293426AD002F58062934266D002F5C1
:10139000806293420CBF0322012263683F48218987
:1013A0008342667D5CD13E4CE06940F00100E06123
:1013B00003204D00A840C0431C6804401C60022468
:1013C0001F68AC403C431C600124002E60D15E6865
:1013D0008C4026EA04045C60DC68072904EA000407
:1013E000DC60DC68C8BF0839DC609C684FEA8101BA
:1013F00000EA040098604FF002009C6800FA05F0D3
:1014000040EA04009860CCBF012000200F2403EBC9
:101410008003186A8C4020EA04001862186A02FAF5
:1014200001F101431962F8BD996941EA02329A61FA
:101430001A6A42F0100296E7D96941EA0212DA61AB
:101440001A6A42F480728EE7D96941EA0232DA619F
:101450001A6A42F4805286E702229EE703229CE742
:101460001048834204D10E4CE06940F002009EE730
:101470000D48834204D10A4CE06940F0040096E72D
:101480000A48834294D1064CE06940F008008EE798
:101490005E688C4034439EE7000400400000024038
:1014A000003802400004024000080240000C0240E4
:1014B00000F1006000F500200068704700000000A7
:1014C00038B504460D46FFF753FEFFF7B1FE30B9BD
:1014D00004F1006000F500200560FFF7A9FE034A53
:1014E000536843F00103536038BD00BF003C024025
:1014F00008B5FFF7C5F8FFF71BFE0B4B186868B17E
:1015000003681B6898470122084B5A61FFF718FED1
:10151000FFF7CEF8BDE80840FEF7B2BE0449054823
:1015200000F02EFBEFE700BFB00D002000040140EB
:10153000704000082040000800000000000000008B
:1015400008B5FFF79DF8FFF7F3FD0B4B586868B13E
:1015500003681B6898470222084B5A61FFF7F0FDA9
:10156000FFF7A6F8BDE80840FEF78ABE0449054823
:1015700000F006FBEFE700BFB00D002000040140C3
:10158000804000082040000800000000000000002B
:1015900008B5FFF775F8FFF7CBFD0B4B986868B1FE
:1015A00003681B6898470422084B5A61FFF7C8FD7F
:1015B000FFF77EF8BDE80840FEF762BE0449054823
:1015C00000F0DEFAEFE700BFB00D0020000401409C
:1015D00090400008204000080000000000000000CB
:1015E00008B5FFF74DF8FFF7A3FD0B4BD86868B1BE
:1015F00003681B6898470822084B5A61FFF7A0FD53
:10160000FFF756F8BDE80840FEF73ABE0449054822
:1016100000F0B6FAEFE700BFB00D00200004014073
:10162000A04000082040000800000000000000006A
:1016300008B5FFF725F8FFF77BFD0B4B186968B17C
:1016400003681B6898471022084B5A61FFF778FD22
:10165000FFF72EF8BDE80840FEF712BE0449054822
:1016600000F08EFAEFE700BFB00D0020000401404B
:10167000B04000082040000800000000000000000A
:1016800008B5FEF7FDFFFFF753FD0B4B186870B16F
:1016900003681B6898474FF47872084B5A61FFF74C
:1016A0004FFDFFF705F8BDE80840FEF7E9BD044926
:1016B000044800F065FAEEE7C80D00200004014080
:1016C000C0400008204000080000000000000000AA
:1016D00008B5FEF7D5FFFFF72BFD0B4B186870B16F
:1016E00003681B6898474FF47C42084B5A61FFF728
:1016F00027FDFEF7DDFFBDE80840FEF7C1BD044948
:10170000044800F03DFAEEE7C40D0020000401405B
:10171000D040000820400008000000000000000049
:1017200070B592B02022002104460AA802F028F9E0
:101730004FF480330A934FF400330B934FF480231C
:101740000C933D4B03AA0D933C4B06AE0E933C4BC2
:101750000F933C4B10933C4B5968186803C2197A9D
:10176000117003F1090219333546106851680832C7
:1017700003C59A422E46F7D100238DF804308DF828
:1017800005308DF806308DF8073001238DF80830CC
:1017900002238DF8093003238DF80A3004232B49E6
:1017A0008DF80B308B68C3F38103022B05D0032B1C
:1017B0002CD0012B21D1264B00E0264B234812A927
:1017C0008268C2F303120A4412F8302CD34023601B
:1017D00081688268C1F30221120A12A802F038025D
:1017E0000144024411F8441C12F8442C23FA01F17C
:1017F000D3406160A36012B070BD4B6812AAC3F3FE
:10180000423302EB830353F8203CD7E78B6812AADC
:10181000C3F3834313448A6889680E4811F4803FF8
:101820000B4918BF014613F83C3CC2F381524B43AD
:101830000132B3FBF2F3C1E79CFF0700C0FD0F00CC
:1018400068FF1F00D0FE3F00D03C00080038024077
:101850000024F400001BB70000000000000000009E
:101860000D4B0E4A99420E4B06D00E48814203D0D2
:1018700000F58060814206D192689868C2F3C22266
:10188000032A07D8704792685868C2F30222032AD5
:1018900000D87047400070470008014000380240FF
:1018A000A40D0020000C014000000000000000001A
:1018B00038B504460D4601680748FFF7D1FF226896
:1018C000D36A0133B0FBF3F0B0FBF5F000B101389F
:1018D00000239062536238BDA40D00200000000078
:1018E00006480749836805C8B3FBF1F3B2FBF1F280
:1018F000B0FBF1F1034800F013B900BFA40D0020C4
:1019000040420F00304000080000000000000000CE
:101910004FF08052084B5A62084A11465368DB0662
:10192000FCD4136823F4C05343EAC02010604B6812
:10193000DB06FCD4704700BF003802400070004056
:101940002DE9F04305469846002485B09DF8309077
:1019500001AEB1FBF2F302FB1310092804F10104FC
:1019600094BF30303730C0B23719194607F8010C30
:10197000002BEED1274647450DD22B6849461B6800
:101980002846984718B10B2005B0BDE8F083013711
:10199000F1E7002CF8D02B68013C1B68315D28462C
:1019A00098470028F5D0EEE7000000000000000096
:1019B0002DE9F04F0B46054614464FF00A0B85B053
:1019C00019785E1C31B928462B685B6805B0BDE804
:1019D000F04F1847252905D02B6828461B689847E3
:1019E00048B3F0E75F784FF00008302F14BF20278E
:1019F0009E1C16F8011BA1F13003DBB2092B03D9A1
:101A00002A2904D1237804340BFB0838F1E72E2966
:101A100009D116F8011BA1F13003092BF9D92A29A4
:101A200001D10434F5E7632939D017D841294ED0C4
:101A300003D82529D0D03346C2E7532939D05829B5
:101A4000F9D14346102204F1040900972168284681
:101A5000FFF776FF0028B6D14C46ECE7692902D0A3
:101A600013D86429E7D104F104092468002C07DAAB
:101A70002B682D211B68284698470028A3D1644273
:101A8000009743460A222146E1E7732911D07529C0
:101A9000D1D104F10409009743460A22D6E72B6806
:101AA00021781B682846271D984700288BD13C4683
:101AB000C1E72768013F17F8011F09B90434BAE7E5
:101AC0002B6828461B6898470028F4D07BE700273E
:101AD0002368D4F80880D4F8049003935FFA88FA56
:101AE0004F4501DB0C34A6E7002F0DDC039B1022D1
:101AF000D95D3023284600930223FFF721FF0028F9
:101B00007FF461AF0137EBE7B8F1000FEED02B683F
:101B100051461B68284698470028E7D053E7000045
:101B20000FB413B504AB53F8044B0193202383F394
:101B30001188FEF74DFD019A21460C48FFF738FF4A
:101B4000FEF756FD0A4B1A689A4207D01B6999683E
:101B50009368994202D20748FEF7EAFF002383F315
:101B6000118802B0BDE8104004B070475C0F00203F
:101B7000A0150020E0400008000000000000000068
:101B80000FB407B504AA52F8041B04480192FFF7EA
:101B90000FFF03B05DF804EB04B070475C0F00204A
:101BA000704700000000000000000000000000007E
:101BB00008B5FEF71DFD084B1A689A4207D01B694D
:101BC00099689368994202D20448FEF7B1FF002356
:101BD00083F3118808BD00BFA015002070410008E4
:101BE0000EB403B503AA52F8041B00F5C6700192A7
:101BF000FFF7DEFE02B05DF804EB03B07047A0F51E
:101C0000C870EDE7000000000000000000000000C8
:101C1000F0B5324CA04244D1314DEC6944F001049E
:101C2000EC6103244E00B440E443056825400560A0
:101C300002250768B5403D4305600125002A48D1CB
:101C400042688D4022EA05054560C268072902EA1C
:101C50000402C260C56803FA06F242EA0502C260E5
:101C60008368C8BF083904EA03044FF002038460A4
:101C7000826803FA06F343EA02038360CCBF0123C0
:101C800000230F2200EB8300036A89008A4023EAC5
:101C9000020303620723026A03FA01F1114301629E
:101CA000F0BD104CA04204D10D4DEC6944F002048B
:101CB000B6E70D4CA04204D1094DEC6944F0040490
:101CC000AEE70A4CA042ACD1054DEC6944F00804E3
:101CD000A6E742688D401543B6E700BF000002400A
:101CE000003802400004024000080240000C02409C
:101CF00008B5202383F31188FEF76AFC054B1868AA
:101D0000037D032B01D1FEF713FDBDE80840FFF76B
:101D10004FBF00BFCC0D00200000000000000000FD
:101D2000A0F5C870FFF7E4BF00000000000000004D
:101D300010B5D0F80C41D0F8182100F586731B1BA4
:101D4000934228BF1346C0F81C316BB10022416892
:101D500080F814214A695268D4605360CB691360DB
:101D6000136843F00103136010BD00000000000081
:101D700043685B6959680A6822F00F020A60197C9F
:101D80001A680E238B405360D0F81C11D0F818311C
:101D9000D0F80C215B1A0A4400F586718A4228BFEC
:101DA00000F10C02C0F81831C0F80C212BB9012346
:101DB00080F8143103681B681847FFF7B9BF0000AB
:101DC000FFF7D6BF00000000000000000000000088
:101DD000D0F81831FF2B16D8D0F810315A1CC0F8A3
:101DE00010211970D0F8102100F586739A4224BF93
:101DF00000F10C03C0F81031D0F818310133C0F8ED
:101E00001831002070470B207047000000000000D0
:101E1000FFF7DEBFA0F5C670FAE700000000000083
:101E200090F814310BB1FFF783BF7047000000003A
:101E3000FFF7F6BFA0F5C670FAE70000000000004B
:101E40004368D0F824019B695B685B68C3F1630356
:101E5000181A48BF633070470000000000000000FF
:101E600008B50246FFF7ECFF80B1D2F82431581CC8
:101E7000C2F82401134493F8283100200B70D2F8E3
:101E80002431622B03DDC2F8240108BD0A2008BDFD
:101E90004368064A1B6881689342054A0CBF9268F2
:101EA0005268B2FBF1F29A60704700BF00380140FF
:101EB000A40D002000000000000000000000000051
:101EC00038B5002304460D4640681A46018940682B
:101ED000FFF79EFE63682E4A1B68A560934243D1BC
:101EE00002F58032136A43F48043136200252046D2
:101EF000FFF7CEFF6068274A036809211D6140692A
:101F00002346FEF70DFB6068436902685B68111D9C
:101F10009960C169196001230C2184F81431D160E2
:101F2000C02151611A46018AC068FFF771FE6068DE
:101F30002B462A460F218069FEF7F2FA616804F504
:101F400094748B690A685B68101D98606320096A45
:101F5000DC6058601960196841F001011960D368AC
:101F600043F40053D36038BD0B4A934206D102F5C7
:101F7000FA32536A43F400335362B7E7074A934295
:101F8000B4D102F5F832536A43F48023F4E700BF7A
:101F900000380140C11D00080044004000480040D6
:101FA0002DE9FF4104463A4D3A4E05F190070DF1F7
:101FB00007012046FFF754FF002865D194F8FC2163
:101FC0009DF8073042B1082B84F8FC01C4F8F801F1
:101FD000EDD00D2B0CD1EAE7082B07D1D4F8F8315E
:101FE000002BE4D0013BC4F8F831E0E70D2B01D021
:101FF0000A2B3ED1D4F8F831002BD8D0002223444C
:1020000083F89421314604F5CA7001F031FD4FF098
:102010000108C4F8000284F8FC81202383F31188AE
:10202000FEF7D6FA8DF80F80FEF75AFBD5F8AC30E4
:10203000002B1BDDFEF754FBD5F8AC3004F5C8715E
:10204000013BC5F8AC30D5F89430134803F10802D1
:10205000C5F8942019600399BA42596028BFC5F8A1
:102060009450FEF7EDFC0320FEF7BAFBFFF7A0FD4E
:102070009DE7D4F8F821612A99D8511C2244C4F86C
:10208000F81182F8943192E704B0BDE8F08100BF06
:102090003413002020410008CC1300200000000071
:1020A00008B5044C40F2DE30FEF73AFE2046FFF75A
:1020B00077FFF7E7D00D00200000000000000000CF
:1020C00013B5084CFFF7FCFE236843B90093402288
:1020D000054B4FF490710548FEF7F2FD206002B009
:1020E00010BD00BFCC0D0020A1200008D80F00209B
:1020F000154B164A5A604FF4E1329A6003F10C0214
:10210000C3F80C21C3F81021012283F81421002206
:10211000C3F81821C3F81C21C3F82021C3F82421D7
:10212000C3F8F82183F8FC21C3F80022C3F8042285
:10213000074A02F10801196002F124013432C3F8A0
:102140008C11C3F890217047D00D0020F04000089A
:102150003041000800000000000000000000000006
:1021600008B5FEF745FA084B1A689A4207D01B6972
:1021700099689368994202D20448FEF7D9FC00237B
:1021800083F3118808BD00BFA0150020D0410008CE
:10219000104B984205D1104AD36943F00103D36133
:1021A00070470E4B984204D10B4AD36943F00203A7
:1021B000F5E70B4B984204D1074AD36943F0040377
:1021C000EDE7084B9842EBD1034AD36943F008038B
:1021D000E5E700BF00000240003802400004024072
:1021E00000080240000C0240000000000000000057
:1021F00070B504461546FFF7CBFF032302264800BF
:102200008340DB4306FA00F0012622688E401A4024
:1022100022602268072942EA000222606268C8BF81
:10222000083922EA06026260E2684FEA810102EAA6
:102230000302E260E268E260A26803EA0203A360CC
:10224000A3684FF00F0240EA0300CCBF0123002334
:10225000A06004EB8304236A8A4023EA020323621A
:10226000226A05FA01F11143216270BD00000000ED
:102270000368197303689A68D207FCD5187B704706
:102280000123C28981689340034A0869184002D03B
:10229000013AFAD101207047B88201000000000025
:1022A0000123418A82688B409361704700000000DF
:1022B000438A816803F11002012393408B617047C8
:1022C00008B27F28C8BFA1F580704FF00201C8BFD7
:1022D00000B290FBF1F04A3840B2704700000000B5
:1022E0002DE9F041054688461746FFF7E1FF2846ED
:1022F000FFF7C6FF044630B12846FFF7D1FF01249F
:102300002046BDE8F0812E1D48F080013046FFF7E1
:10231000AFFF21463046FFF7ABFF38702846FFF786
:10232000BFFFEDE70000000000000000000000001B
:102330002DE9F041044688461746FFF7B9FF2046CD
:10234000FFF79EFF054630B12046FFF7A9FF0125A4
:102350002846BDE8F081261D41463046FFF788FF3C
:1023600039463046FFF784FF2046FFF799FFEFE735
:1023700010B504460C220B21FFF7DAFF00220C21D6
:102380002046FFF7D5FF20220D212046FFF7D0FF82
:1023900025220E212046FFF7CBFFED220F212046FC
:1023A000FFF7C6FF2D2210212046FFF7C1FF2F2285
:1023B00011212046FFF7BCFF132212212046FFF710
:1023C000B7FF232213212046FFF7B2FFFF2214217B
:1023D0002046FFF7ADFF00220A212046FFF7A8FFA5
:1023E000622215212046FFF7A3FFB62221212046B5
:1023F000FFF79EFF102222212046FFF799FF0822B7
:1024000018212046FFF794FF1D2219212046FFF7CF
:102410008FFF1C221A212046FFF78AFFC7221B21AB
:102420002046FFF785FF00221C212046FFF780FF92
:10243000B0221D212046FFF77BFFEA222321204600
:10244000FFF776FF2A2224212046FFF771FF0022A2
:1024500025212046FFF76CFF1F2226212046FFF78B
:1024600067FF88222C212046FFF762FF31222D21B1
:102470002046FFF75DFF09222E212046FFF758FF77
:10248000072203212046FFF753FF072200212046A1
:10249000FFF74EFF062202212046FFF749FF0C22DC
:1024A00007212046FFF744FF442208212046FFF77A
:1024B0003FFF50223E212046FFF73AFF0722162118
:1024C0002046FFF735FF2046BDE8104000221721C7
:1024D000FFF72EBF00000000000000000000000019
:1024E00070B504460E46FFF7E3FE2046FFF7C8FE30
:1024F000054628B12046FFF7D3FE0125284670BDCA
:102500003146201DFFF7B4FE20772046FFF7C8FEB6
:10251000237F03F070032377F0E700000000000042
:102520002DE9F7434368974A0446934200F0C88078
:10253000A2F5784293420CBF4FF005084FF0060811
:102540000325A168678A0846FFF722FE7B00DBB2FD
:1025500005FA03F2D2430126086806FA07F710408D
:102560000860D1F800E006FA03F040EA0E000860C7
:10257000486820EA07074F600227486807FA03F314
:102580004860C8681040C860C868C8608868024071
:102590008A608A68A06813438B604246A189FFF76E
:1025A00027FE4246E189A068FFF722FE4246218AC3
:1025B000A068FFF71DFE6169237E0846B3405FFAFD
:1025C00083F894F81A90FFF7E3FD05FA08F5ED4358
:1025D0000B68208B2B400B60CB681D40CD600F2516
:1025E000CA6809FA08F31343674ACB60136A00F01C
:1025F00003013343136200F47F7303F1804303F557
:1026000080339A68B9408D4022EA05029A605F4D96
:102610006269AA4257D19F688E403E439E60012264
:102620005B4B8240196811431960D14358680840D8
:102630005860986801409960D96820461143D96074
:102640005A61FFF72DFE4F4B626852499A42524B36
:1026500041D18968B1FBF3F3802B53D8402B53D879
:10266000202B47D8102B47D8082B47D8042B47D806
:10267000022B94BF0023012342498A4231D14248B0
:10268000016A41F4805101624FF441711160116897
:10269000204641EAC30313600023536013683021CE
:1026A00043F040031360FFF71BFF00282ED0626841
:1026B0003A48136823F040031360FFF731FA3DE016
:1026C0004FF005083CE7364DAA4201BF9E688F4097
:1026D00037439F60A3E74968B1FBF3F3802B4CD9E4
:1026E000072330498A4201BF2748416A41F48041AB
:1026F0004162C9E70523BFE70423BDE70323BBE726
:102700000223B9E70723BAE70623B8E70722062121
:102710002046FFF70DFE08B12348CEE702AA02F8D3
:10272000010D06212046FFF7DBFD054658B99DF84F
:102730000710072909D01D48FFF7F2F9012528469F
:1027400003B0BDE8F0831A48B7E73A212046FFF707
:10275000C7FE2046FFF70CFE208B092809DC042861
:1027600009DC06300721FEF73BFC1248FFF7D8F9D9
:10277000E5E72820F6E71720F4E7402B7FF670AF57
:102780000623AEE70030014000380240000402405A
:1027900000040140A40D0020A02E63008041000829
:1027A00000080240003800408D41000898410008B0
:1027B000AD410008B8410008000000000000000022
:1027C00038B504460D46237F23B136212046FFF756
:1027D00087FEF8E72A462046BDE838400A21FFF781
:1027E000A7BD000000000000000000000000000085
:1027F00038B504460D463A21FFF772FE6562204661
:10280000BDE838403421FFF76BBE00000000000037
:102810002DE9F843044688469146FFF749FD2046D6
:10282000FFF72EFD054630B12046FFF739FD0125A3
:102830002846BDE8F883271D7F213846FFF718FD9D
:102840004646A6EB0803DBB24B4505DA16F8011B3A
:102850003846FFF70DFDF4E72046FFF721FDE7E7D7
:10286000002370B504460D46164643623521FFF736
:1028700037FE324629462046FFF7CAFF202383F35E
:102880001188FDF7A5FE04F12000FEF779FABDE8F6
:102890007040FFF765BC0000000000000000000071
:1028A0002DE9F3478946904678210DF10702044649
:1028B0009A46FFF715FD70B99DF90730002B0ADA2B
:1028C0002046FFF7F5FC2046FFF7DAFC054620B16D
:1028D0002046FFF7E5FC012529E0261DFF213046B3
:1028E000FFF7C6FC4F46A7EB0903DBB253454FF099
:1028F0000001304606DAFFF7BBFC8DF8070007F849
:10290000010BF0E7FFF7B4FC00218DF8070030461B
:10291000FFF7AEFC2046FFF7C3FCB8F1000F06D06E
:102920009DF807102046FFF7CBFC88F800002846EA
:1029300002B0BDE8F08700000000000000000000C9
:1029400008B5FDF755FE084B1A689A4207D01B6977
:1029500099689368994202D20448FEF7E9F8002387
:1029600083F3118808BD00BFA0150020F0410008C6
:10297000416A10B5044619B188470023636210BD4F
:102980002030BDE81040FEF713BA00000000000040
:1029900010B5044636212046FFF7A2FD08B10120FC
:1029A00010BD237F002BF5D133212046FFF798FD82
:1029B0000028F4D10122E389A1689A40034B0C69F5
:1029C000144202D0013BFAD1E9E710BDB882010000
:1029D00010B50446FDF784FEE36813B12046FEF708
:1029E00067FA2046BDE810400023024A1421FEF792
:1029F00007BA00BFB12B0008000000000000000073
:102A000037B52D4A0446D369092143F00403D36145
:102A10002A4B38301A6822F040621A601A6842F075
:102A200080621A605A6822F400525A605A685A60EA
:102A3000DA6822F04062DA60DA68DA609A6822F0D6
:102A400040629A609A6842F000629A60FDF7B0FFB7
:102A500004F12C000021FDF7ABFF1948FFF760FDE2
:102A6000044630BB062216481146FFF761FC0721D9
:102A70001348FFF7A5FE50223E211148FFF758FCEE
:102A8000202383F311880F4DFDF7A2FD2846FFF7A1
:102A90009FFF0D4B1B882B84FFF752FF00940B4BBD
:102AA0007F224FF4D0710A48FEF70AF9204603B09E
:102AB00030BD0124FAE700BF0038024000080240A0
:102AC000F81000200C130020E4130020D12D000882
:102AD000681100200000000000000000000000005D
:102AE00038B504460D46FDF7FBFD236B002B14DDC6
:102AF000FDF7F6FD236BA2692988013B2363931C34
:102B0000A361118004F11202934204F11C0028BF5A
:102B1000A461FDF795FF002038BD022038BD0000FC
:102B200013B50446FFF754FFE3691B4A0133E36121
:102B3000E369B3F58D7F0FD30021E161A369013310
:102B4000A361A369032B07D9A38AA161032BCBBF80
:102B5000138801332384A382E1691388994206D143
:102B600003238DF8043000238DF805300AE0A269B4
:102B70000A4B1B7862B9012B08D002238DF805207F
:102B80008DF8043001A90648FFF7AAFF02B010BD76
:102B9000002BFBD00423E4E7E413002008130020FB
:102BA00030110020000000000000000000000000C4
:102BB00008B5202383F31188FDF732FD0448FFF7A1
:102BC000AFFFFDF745FD002383F3118808BD00BF6B
:102BD0000C130020000000000000000000000000B6
:102BE000044683B56F4D704F202383F31188FDF7A2
:102BF000EFFC4FF6FF7104F12C0004F11009FDF712
:102C0000E7FED8B9636A04F138009A1C93F8008093
:102C10005E7804F122039A42626228BFC4F82490CD
:102C2000FDF70EFFFDF7A4FEFFF78AFEB8F1050FD2
:102C3000DAD8DFE808F0ACB22E063E460026B046F1
:102C4000F2E70222594B5A481A705A4B1A786270AE
:102C50005B7803F01F02A37823F01F031343A370D4
:102C6000AA69DBB262F34713A3702B8CA4F803307C
:102C7000514B1B7863714FF40053BB61FFF788FE23
:102C80000622611C4A48FFF7EBFD4FF00053BB6181
:102C9000AAE7484B1B88B3F5C87F02D14448FFF729
:102CA00077FE0122414B454941481A70FFF7A0FDCC
:102CB0009AE700223D4B36213D481A70FFF710FC81
:102CC00092E70022394BE11D1A703948062322464B
:102CD000FFF7E6FD002887D1394E2B8CB6F8092086
:102CE0009A421FDA202383F31188FDF771FCFDF768
:102CF000F7FCEB6813B12846FEF7DAF8337A28467A
:102D00005A09AA61F27903F01F0342EA0323EB6137
:102D1000B368C3F30F232B840023AB82FFF700FFBC
:102D2000FFF70EFE04238DF80730E37A8DF80030AC
:102D3000237B8DF8013023788DF80230202383F334
:102D40001188204EFDF744FCFDF7CAFCD6F8AC30E4
:102D5000002B19DDFDF7C4FCD6F8AC300099013B1F
:102D6000C6F8AC30D6F89430174803F10802C6F81C
:102D7000942019600199596006F190039A4228BF86
:102D8000C6F89460FDF75CFEFFF7DAFD2CE73246EB
:102D90003E210748FFF7CCFA26E731460448FFF703
:102DA0000FFD21E70C13002000080240081300204B
:102DB000F8100020E4130020E6130020E12D0008A5
:102DC0002011002034130020CC130020000000004C
:102DD00008B50148FFF704FF2011002000000000A3
:102DE000052307B58DF80430002301A903488DF8A9
:102DF0000530FFF775FE03B05DF804FB30110020CD
:102E00000521154B154A998106211A60144AD9816A
:102E100007215A6002F550429A605A6103221982D2
:102E200004211A83002259820E499A76CB601A77C0
:102E30001A625A6210230C495A54C8180233222BC2
:102E40004270F9D1094B4B628B62094B9A61DA618E
:102E5000084A12881A847047F8100020E8410008D8
:102E600000300140B00D0020201100203011002062
:102E70000C130020E41300200000000000000000FC
:102E800073B50024642603688DF804408DF805406E
:102E90008DF806408DF80760DB6801990546984774
:102EA0008DF804408DF805408DF806408DF80760D8
:102EB000019BC5F8843002B070BD00000000000026
:102EC00010B50446FDF70CFCE36823B12046BDE8CD
:102ED0001040FDF7EDBF10BD000000000000000035
:102EE00008B5FDF785FB084B1A689A4207D01B69A5
:102EF00099689368994202D20448FDF719FE0023AD
:102F000083F3118808BD00BFA015002030420008DF
:102F10006FF0404313B5C26B01919C18C26AC9B2ED
:102F200002EB84025163826D9918826C02EB81027C
:102F30009DF805105163426F1344426E02EB830308
:102F40009DF806205A6302B010BD0000000000008A
:102F500003680A465B680149184700BF2042000821
:102F600070B5041D054620460E46FFF7A9FF42F244
:102F700010724FF47A7302FB06F101F2E731B1FBF4
:102F8000F3F120462B46BDE87040024A89B2FDF7B6
:102F900037BF00BF51110008000000000000000012
:102FA000C369D0F88420D3F8051070B59142044667
:102FB0000AD0D3F8015006684DB9F3689847E36921
:102FC000D3F80520C4F884200933E3612DE090F89C
:102FD000842059798A422ADA013284F8842094F8CC
:102FE000852099798A4225DA013284F8852094F87F
:102FF0008620D9798A4220DA013284F8862094F832
:1030000087201B7A9A421BDA013284F88720F36802
:103010002046D4F884109847E069D4F88420D0F88A
:1030200005309A420FD10930E061002070BDD6DD35
:10303000013AD2E7DBDD013AD7E7E0DD013ADCE730
:10304000E5DD013AE1E794F884104279D0F80130E7
:103050008A421CBF0431B3FBF1F194F885208579D5
:1030600014BF01310021954206D00432B3FBF2F2C5
:103070000132914238BF114694F88620C5799542B5
:1030800006D00432B3FBF2F20132914238BF11464E
:1030900094F88720007A904206D00432B3FBF2F312
:1030A0000133994238BF19462046FFF759FF0120E6
:1030B00070BD0000000000000000000000000000E3
:1030C00038B50446FDF70CFB236913B1201DFFF74B
:1030D000F7FE4FF0FF35E3691A78042AFDD8DFE8E0
:1030E00002F0030A141D4500236820469B68984798
:1030F0000128F0D138BDD3F801100933E36100296C
:10310000E9D02046FFF72CFF38BDD3F80130A26983
:1031100003EBC3031344E3610121F2E794F82B307E
:1031200003B31B4DFDF7DCFAD5F8AC30002B19DDED
:10313000FDF7D6FAD5F8AC301648013BC5F8AC30EF
:10314000D5F89430616A03F10802C5F8942019603B
:10315000A16A596005F190039A4228BFC5F89450BE
:10316000FDF76EFC0023A361E36138BD226A0132E2
:1031700004BFD3F801202262226A1AB909332562FA
:10318000E361A8E7A369013AE3612262A3E700BF14
:1031900034130020CC1300200000000000000000C9
:1031A00038B504460D46202383F31188FDF710FA45
:1031B0004FF0FF3323622368A561E5611B68204659
:1031C0009847BDE83840FFF78BBE000000000000C4
:1031D0002DE98048022089B0FEF79AFBB24AB34835
:1031E0005368B34D23F4604343F440435360FEF708
:1031F00097FAFDF7EDFEFDF753FC1221AD48FDF700
:10320000D7FB0021AC48FDF7D3FB4FF4E131AB48CD
:10321000FEF756FF0020FEF74BF980B2A0F15203F3
:10322000C72B288007D9B0F5C87F04D0A448FEF783
:1032300077FC52232B800820FEF73AF9A14FA24CCD
:103240003870C0B22B88A14AA1490090A148FEF76E
:1032500067FC9648FEF744FB04F12C00FEF768F883
:10326000D4F8801004F12C00FEF722FB04F1480092
:10327000FEF75EF8D4F8801004F14800FEF718FB62
:1032800004F16400FEF754F8D4F8801004F16400EF
:10329000FEF70EFB00238DF818308DF819308DF8ED
:1032A0001A3064238DF81B3006992046FFF730FE54
:1032B000202383F31188884EFDF78AF9B6F8188029
:1032C000301DFFF7FDFD41463346844A301DFDF7B2
:1032D00097FDFFF705FE8248FFF792FBB8460028EE
:1032E00047D12B88B3F5C87F0CBF7E497E49204665
:1032F000FFF756FF7D4E06F1980906F1900A00236C
:1033000006938DF81F30202383F31188FDF760F9B1
:103310004FF6FF714846FDF75BFB90B9D6F8903049
:103320006448196803F10802C6F8902006915B68AA
:103330005245079328BFC6F89060FDF781FBFDF763
:1033400017FBFFF7CDFD9DF81F10022913D00429AC
:1033500000F0F080012940F00681069C6449276F47
:10336000384600F05DFB014690B92046FFF7F0FDBE
:103370001AE06049BBE7604A1368002BBFD0013BED
:103380001360002BBBD15D494F48FFF709FFB6E73B
:103390005B49384600F044FB58B923684C4A5F68E3
:1033A00058494A4B2046B847236820461B6898472F
:1033B000A5E75549384600F033FB28B92368534A3E
:1033C0005F682B885249EDE75249384600F028FBE8
:1033D000834678BB504900F04BFB6067037833B1FC
:1033E0005A4605A900F01CFC059B1B780BB1052172
:1033F000BBE783B2A3F15202C72A2B801F460ED827
:10340000394600200393FEF75BF8039B834660B9BF
:10341000394642482B80FEF783FB5946A5E7B3F5B2
:10342000C87FEDD04FF0010BF7E701463C48FEF7AF
:1034300077FBF7E73B49384600F0F2FA28B92368F2
:10344000394A5F6898F80030BCE73849384600F0E0
:10345000E7FA38BB304900F00BFB60670378002BBC
:10346000C5D0002205A900F0DBFB059B83461B7835
:10347000002BBCD15FFA8BF3194608200393FEF7AB
:103480001FF8039B074638B91946294888F800B049
:10349000FEF746FB394668E701462148FEF740FB48
:1034A0000127F7E7062160E700380240A40D00205D
:1034B000E4130020D8130020CC130020D00D0020EE
:1034C00040420008E6130020E813002053420008A1
:1034D0006142000872420008701400205111000877
:1034E00020110020F814002025150020341300209E
:1034F0008E4200088C140020301300201315002089
:10350000934200089B420008A2420008A54200081E
:10351000A8420008B042000820410008B642000856
:10352000C2420008D0420008D3420008D742000837
:10353000DE4200089DF819305B067FF5E0AE2B886F
:10354000B3F5C87F7FF4DBAE9DF91A304A33FFF63E
:10355000D6AE074C23681BB906490748FFF720FE83
:1035600012232360CBE60548FEF7DAFAC7E600BF70
:103570003013002052150020E8130020EB42000811
:103580000023F0B564216320FF2403250126E74AC8
:103590001F4650709072D074107713709370D37070
:1035A000137154719371D37111725372D372137377
:1035B00053739373D4731374517493741375537555
:1035C0009375D375137654769176D3765377937734
:1035D000D3779362536282F8203082F8213082F8E8
:1035E000223082F8231082F8245082F8293082F8A1
:1035F0002A3082F82B3082F82C10CD4AB7B05070A8
:103600009072C2F8123013709370D37013715371AB
:103610009371D47111725372D37213735373937382
:10362000D37313745174C2F816309574D37513762E
:1036300053769176BF4A56729072D6761077137091
:1036400053709370D370137154719371D37111725D
:10365000D372137353739373D3731374517493743A
:10366000D374137553759375D3751376537691761A
:10367000537782F82D6082F82E009377D37782F803
:10368000203082F8213082F8223082F8231082F82C
:10369000243082F8253082F8263082F8273082F8EC
:1036A000283082F8294082F82A3082F82B3082F8BC
:1036B0002C1082F82F3082F8303082F8313082F8C6
:1036C000323082F8333082F8343082F8351082F8A4
:1036D000363082F8373082F8383082F8393082F864
:1036E0003A3082F83B3082F83C3082F83D3082F844
:1036F0003E1082F83F6082F8400082F8516082F804
:1037000052006FF02F06022082F8413082F84230DA
:1037100082F8433082F8443082F8453082F84630EF
:1037200082F8471082F8483082F8493082F84A30EF
:1037300082F84B3082F84C3082F84D4082F84E309F
:1037400082F84F3082F8501082F8533082F85430AB
:1037500082F8553082F8563082F8573082F8583067
:1037600082F8591082F85A3082F85B3082F85C3067
:1037700082F85D3082F85E3082F85F30C2F86730E0
:10378000C2F8633082F8603082F8613082F86210EB
:1037900082F8635082F8683082F8693082F86A30C3
:1037A00082F86B10644AC2F80D3013705670907036
:1037B000D37013715371C2F809309371D4711172BF
:1037C00055729373D373137451745C4A13705670AB
:1037D0009070D370137153719371C2F80D30C2F8A9
:1037E0000930D371117255729373D373137451747A
:1037F000534A9F50D1180833902BCF71F9D16D46A1
:10380000504CC2F89020C2F894200FCC0FC594E819
:1038100003000DF1180C04F1080685E803000FCE33
:10382000ACE80F0096E803000DF1300E20348CE870
:1038300003000FCCAEE80F0094E803006C4612AE14
:103840008EE803000FCC0FC695E8030006AC18AD58
:1038500086E803000FCC0FC59CE803001EAC0DF1F9
:10386000300C85E80300BCE80F000FC49EE803009D
:103870000DF1480C0DF1900E84E80300BCE80F0038
:10388000AEE80F0096E803008EE803002AAE0DF1C3
:10389000600EBEE80F000FC695E8030030AD86E865
:1038A00003001EAE0FCE0FC594E80300264C85E83A
:1038B00003002C220021204600F062F84FF0FF3C6C
:1038C00004F1300524AE0FCE0FC596E803002AAEF2
:1038D00085E803000FCE04F14C050FC596E8030000
:1038E000DFF874E085E8030030AE04F16805C4F841
:1038F00020C0676284F82B70C4F82CE0C4F848E05C
:10390000C4F864E00FCE0FC596E80300642385E891
:10391000030084F887300D4B0D4A23600D4BC4F82B
:1039200080C01A6042F206721A8317E02515002043
:10393000F81400208C1400205215002013150020CC
:1039400034130020F03C0008E8130020084200086F
:1039500068400008701400200004004002229A769B
:10396000012284F8847084F8857084F88670DA7691
:1039700037B0F0BD000000000000000000000000B3
:1039800070B4860746D0541E002A41D0CAB20346FE
:1039900002E014F1FF343BD303F8012B9D07F8D16B
:1039A000032C2ED9CDB245EA05250F2C45EA054555
:1039B00019D9264603F11002103E0F2E42F8105C72
:1039C00042F80C5C42F8085C42F8045C02F1100218
:1039D000F2D8A4F1100222F00F0204F00F0410320A
:1039E000032C13440DD91E462246043A032A46F8F6
:1039F000045BFAD8221F22F003020432134404F0BD
:103A000003042CB1C9B21C4403F8011B9C42FBD136
:103A100070BC704714460346C2E700BF00000000B8
:103A2000F8B507460E4617F8014B00F019F9204487
:103A3000437816F8015B03F00303012B08BF203421
:103A400000F00EF92844437803F00303012B04D05F
:103A5000601B01D1002DE6D1F8BD05F12000201A30
:103A6000E1D0F8BD000000000000000000000000F0
:103A7000024A012312685C3200F002B800080020FC
:103A8000F0B418B307460D4617F8016B01E0A642E3
:103A900017D015F8014B002CF9D1E6B10C4617F8F8
:103AA000015B01E0002BF9D014F8013B9D42F9D1F4
:103AB00055B1002307F8013C064617603046F0BCBC
:103AC000704753B13846DDE72F46F5E71068002808
:103AD000D8D10646F2E71660F0E717600646037095
:103AE000ECE700BF00000000000000000000000044
:103AF0002DE9F84FDDF828900F46804616461D4602
:103B00008A4600E0A2465446484614F801BB00F03D
:103B10009FF85844427812F00802F3D1BBF12D0F00
:103B20004FD0BBF12B0F04BF94F800B00AF1020490
:103B30001DB1102D56D0AC4604E0BBF1300F60D063
:103B40000A25AC46002A0CBF6FF000494FF000492F
:103B50000021B9FBFCFE08460CFB1E9A05E029D0AB
:103B600001210CFB003014F801BBABF13003092B31
:103B700005D9ABF14103192B0BD8ABF137039D42AB
:103B80000FDDB1F1FF3FEED08645E8D24FF0FF31B7
:103B9000E9E7ABF16103192B03D8ABF157039D4261
:103BA000EFDC4B1C13D002B1404246B1C1B93760C3
:103BB000BDE8F88F9A45D3DA4FF0FF31D3E7BDE87F
:103BC000F88F94F800B001220AF10204B0E7222332
:103BD000C8F80030EEB1671E48463760BDE8F88F80
:103BE0008146F8E7BBF1300FA5D1237803F0DF035E
:103BF000582BA0D14FF0100C94F801B06546023458
:103C0000A0E7237803F0DF03582BF3D00825AC4658
:103C100098E74846BDE8F88F00000000000000006B
:103C2000084B70B51D68084E6C6B82B0002C08BF45
:103C30003446134600940A4601462846FFF758FFCB
:103C400002B070BD00080020300C00200000000011
:103C5000D0F8EC00704700BF00000000000000003A
:103C6000044B054A1B685B6B002B08BF1346D3F857
:103C7000EC00704700080020300C0020000000001D
:103C800082B049B15AB16BB113780B601278101C35
:103C900018BF012002B0704701A9002AF3D11046D5
:103CA00002B070476FF00100F4E700BF00000000B1
:103CB00019B1FF2A03D80A700121084670478A23E8
:103CC0004FF0FF310360F8E7000000000000000043
:103CD000030406080C10182030000000000000004B
:103CE00000010203040607080900000000000000AC
:103CF0000004024001000000000400400400000035
:103D000000000000FF00000000040240000000006E
:103D1000000400400300000000000000FF0000005D
:103D20000004024005000000000400400200000002
:103D300000000000FF000000000000000000000084
:103D4000646D6153747265616D416C6C6F63617415
:103D500065000000000000000000000000000000FE
:103D60000060024008600240010000000000000006
:103D700000000B00006002401C60024002000000D6
:103D80000000000004010C000060024030600240AE
:103D9000040000000000000008020D000060024066
:103DA0004460024008000000000000000C030E0008
:103DB0000060024058600240100000000000000057
:103DC00010040F00006002406C6002402000000000
:103DD00000000000140510000060024080600240F6
:103DE0004000000000000000180611000000000064
:103DF00053562333000000000000000000000000C4
:103E000053562338000000000000000000000000AE
:103E1000535623390000000000000000000000009D
:103E20005356233400000000000000000000000092
:103E30005356233600000000000000000000000080
:103E40005356233500000000000000000000000071
:103E5000535623370000000000000000000000005F
:103E60005356233130000000000000000000000025
:103E70005356233131000000000000000000000014
:103E8000636853636852656164794900000000000B
:103E9000636853636857616B657570530000000079
:103EA000737461636B206F766572666C6F77000068
:103EB000636853656D4F626A656374496E69740027
:103EC000636853656D5761697454696D656F757486
:103ED000530000000000000000000000000000008F
:103EE000636853656D5369676E616C49000000003B
:103EF00063685654446F5469636B490000000000C6
:103F00006368537973556E6C6F636B00000000003B
:103F10006368546864536C6565705300000000006A
:103F20006368546864437265617465490000000009
:103F300063685468644578697453000000000000A9
:103F4000636854686453757370656E645300000051
:103F50006368546864526573756D654900000000BC
:103F600063685654446F53657449000000000000B4
:103F700063685654446F52657365744900000000CD
:103F8000C4490008981600209816002098160020B2
:103F9000C44900080000000000000000000000000C
:103FA000C4490008000000000000000000000000FC
:103FB000C4490008000000000000000000000000EC
:103FC000C4490008000000000000000000000000DC
:103FD000C4490008000000000000000000000000CC
:103FE000C4490008000000000000000000000000BC
:103FF000C4490008000000000000000000000000AC
:1040000073745374617274416C61726D00000000CE
:104010007374536574416C61726D000000000000A0
:10402000556E68616E646C65642025530D00000058
:10403000414842467265713D25754D487A3B2041A5
:10404000504231467265713D25754D487A3B20419D
:10405000504232467265713D25754D487A0D00001B
:104060000000000000000000A11100080000000096
:10407000566563746F723538000000000000000060
:10408000566563746F723543000000000000000045
:10409000566563746F723630000000000000000047
:1040A000566563746F723634000000000000000033
:1040B000566563746F72363800000000000000001F
:1040C000566563746F723943000000000000000001
:1040D000566563746F7245300000000000000000F8
:1040E0006368537973556E6C6F636B00000000005A
:1040F00000380140000002400900000000000240BA
:104100000A0000009C3D0008B03D0008920000003D
:10411000A0100000000000000000000000000000EF
:10412000202C000000000000000000000000000043
:104130000000000000000000A11B0008111E000884
:10414000311E0008E11B0008F11C000874FEFFFF8F
:1041500000000000151E0008351E000870FEFFFF5D
:1041600000000000211D0008FF1B000800000000E7
:104170006368537973556E6C6F636B0000000000C9
:10418000434320527374204661696C0D0043432001
:1041900057204661696C0D00434320522F5720463B
:1041A00061696C3B2072706C3D25750D00434320A6
:1041B00052204661696C0D00434320696E6974208A
:1041C0006F6B0D0000000000000000000000000008
:1041D0006368537973556E6C6F636B000000000069
:1041E000000000000000000071290008000000002D
:1041F0006368537973556E6C6F636B000000000049
:104200000000000000000000C1300008812E0008FE
:10421000A12F0008112F000800000000000000007E
:1042200041636B2025640D0A0000000000000000BF
:104230006368537973556E6C6F636B000000000008
:104240000D5573696E672064656661756C742049ED
:10425000440D0032303138303532305F3131303456
:10426000004461726B546F776572204C7573747281
:1042700061000D25532025530D49443D25753B20F4
:10428000496E666C75656E63653D25750D005069F8
:104290006E670056657273696F6E00255320255353
:1042A0000D0047657449440025532C25640D0A0010
:1042B0005365744944004E65772049443A2025757A
:1042C0000D004545206572726F723A2025750D000C
:1042D000476574496E6600536574496E66004E65A5
:1042E0007720496E663A2025750D00556E68616E1F
:1042F000646C6564204D73672025750D0000000017
:1043000043000000504F53495800000000000000D7
:104310002E0000000000000000000000000000006F
:104320000020202020202020202028282828282085
:10433000202020202020202020202020202020207D
:1043400020881010101010101010101010101010E5
:1043500010040404040404040404041010101010D5
:10436000101041414141414101010101010101019F
:1043700001010101010101010101010110101010F1
:104380001010424242424242020202020202020271
:1043900002020202020202020202020210101010C5
:1043A00020000000000000000000000000000000ED
:1043B00000000000000000000000000000000000FD
:1043C00000000000000000000000000000000000ED
:1043D00000000000000000000000000000000000DD
:1043E00000000000000000000000000000000000CD
:1043F00000000000000000000000000000000000BD
:1044000000000000000000000000000000000000AC
:10441000000000000000000000000000000000009C
:01442000009B
:10442800080800200000000000000000F40A002036
:104438005C0B0020C40B00200000000000000000FE
:104448000000000000000000000000000000000064
:104458000000000000000000000000000000000054
:104468000000000000000000000000000000000044
:104478000000000000000000000000000000000034
:104488000000000000000000000000000000000024
:104498000000000000000000000000000000000014
:1044A8000000000000000000000000000000000004
:1044B80000000000000000000000000000000000F4
:1044C80000000000000000000000000000000000E4
:1044D80001000000000000000E33CDAB34126DE681
:1044E800ECDE05000B0000000000000000000000EA
:1044F80000000000000000000000000000000000B4
:1045080000000000000000000000000000000000A3
:104518000000000000000000000000000000000093
:104528000000000000000000000000000000000083
:10485800430000000000000000000000000000000D
:104868000000000000000000000000000000000040
:1048780043000000000000000000000000000000ED
:104888000000000000000000000000000000000020
:1048980043000000000000000000000000000000CD
:1048A8000000000000000000000000000000000000
:1048B80043000000000000000000000000000000AD
:1048C80000000000000000000000000000000000E0
:1048D800430000000000000000000000000000008D
:1048E80000000000000000000000000000000000C0
:1048F800430000000000000000000000000000006D
:10490800000000000000000000000000000000009F
:10491800430000000000000000000000000000004C
:10492800000000000000000000000000000000007F
:10493800B13C0008813C000800000000204300084A
:10494800104300080C4300080C4300080C430008FF
:104958000C4300080C4300080C4300080C430008F3
:104968000C4300080C430008FFFFFFFFFFFFFFFF99
:10497800FFFFFFFFFFFF00000100415343494900CB
:10498800000000000000000000000000000000001F
:1049980000000000000000000000415343494900A6
:1049A80000000000000000000000000000000000FF
:0C49B800000000000000000000000000F3
:04000005080001915D
:00000001FF
