:020000040800F2
:1000000000040020D1010008B12B0008B12B00082A
:10001000B12B0008B12B0008B12B0008B12B000850
:10002000B12B0008B12B0008B12B0008F1340008F7
:10003000B12B0008B12B0008B12B0008B12B000830
:10004000B12B0008B12B0008B12B0008B12B000820
:10005000B12B0008B12B00084112000891120008D2
:10006000E11200083113000881130008B1350008BF
:10007000F13500083136000871360008B136000845
:10008000F136000831370008B12B0008B12B000809
:10009000B12B0008B12B0008B12B0008D1130008C8
:1000A000B12B0008B12B0008B12B0008B12B0008C0
:1000B000112B0008B12B0008B12B0008B12B000850
:1000C000B12B0008B12B0008B12B0008B12B0008A0
:1000D000B12B0008B12B0008B12B0008B12B000890
:1000E00021140008B12B0008B12B0008B12B000827
:1000F000B12B0008B12B0008B12B0008B12B000870
:10010000B12B0008B12B0008B12B0008B12B00085F
:10011000B12B0008B12B0008B12B0008B12B00084F
:10012000B12B0008B12B0008B12B0008B12B00083F
:10013000B12B0008B12B0008B12B0008B12B00082F
:0C01400075010008110E000821250008C0
:04014C005101000855
:1001500010B5054C237833B9044B13B10448AFF301
:1001600000800123237010BDD00900200000000092
:100170000C43000808B5034B1BB103490348AFF318
:10018000008008BD00000000D40900200C430008D6
:100190002DE9F04FC1F80CD0C3689D46BDE8F08F43
:1001A00002F02EFD002383F311882846A04700208B
:1001B00003F0BEF802F014FD02F0FAFE02F020FD9A
:1001C00000DFFEE70000000000000000000000006B
:1001D00072B6234880F30988022080F31488BFF3A5
:1001E0006F8F02F0FDFB02F003FC4FF055301D490C
:1001F0001D4A91423CBF41F8040BFAE71B49184ADB
:1002000091423CBF41F8040BFAE71949194A1A4BCD
:100210009A423EBF51F8040B42F8040BF8E7002065
:100220001649174A91423CBF41F8040BFAE702F025
:10023000F7FB02F0E5FB134C134DAC4203DA54F824
:10024000041B8847F9E701F0ABFF104C104DAC429E
:1002500003DA54F8041B8847F9E702F0D9BB000021
:1002600000080020000000200004002000040020FE
:100270001043000800080020D0090020D009002009
:1002800034150020400100084C0100084C01000812
:100290005001000800000000000000000000000005
:1002A000104B984205D1104AD36943F00103D36142
:1002B00070470E4B984204D10B4AD36943F00203B6
:1002C000F5E70B4B984204D1074AD36943F0040386
:1002D000EDE7084B9842EBD1034AD36943F008039A
:1002E000E5E700BF00000240003802400004024081
:1002F00000080240000C0240000000000000000066
:100300000123994203FA00F00CD002D3022911D044
:1003100070470A4B9A6802439A60DA6822EA000042
:10032000D8607047054B9A6822EA00029A60DA6842
:100330001043F5E7014B9A680243F7E700040140D8
:1003400070B504461546FFF7ABFF032302264800AD
:100350008340DB4306FA00F0012622688E401A40F3
:1003600022602268072942EA000222606268C8BF50
:10037000083922EA06026260E2684FEA810102EA75
:100380000302E260E268E260A26803EA0203A3609B
:10039000A3684FF00F0240EA0300CCBF0123002303
:1003A000A06004EB8304236A8A4023EA02032362E9
:1003B000226A05FA01F11143216270BD00000000BC
:1003C000F8B504688779064605792046FFF768FF87
:1003D00003236D00EDB2AB40DB43226807FA05F55D
:1003E0001A402260E268B0881340E360E368194A6B
:1003F0001D43E5600F25136A43F00103136200F407
:100400007F7303F1804303F5803300F003029C689F
:100410009700BD4024EA05049C6032680E4CA2425D
:1004200012D101229C68BA4022439A6001250B4CEC
:10043000854023682B432360636823EA05036360D8
:10044000FFF75EFF6561F8BD054CA242EED19C68E6
:100450000222E8E7003802400004024000040140A4
:100460000008024000000000000000000000000042
:100470000368197303689A68D207FCD5187B704724
:100480000123C28981689340034A0869184002D059
:10049000013AFAD101207047B88201000000000043
:1004A0000123418A82688B409361704700000000FD
:1004B000438A816803F11002012393408B617047E6
:1004C00008B27F28C8BFA1F580704FF00201C8BFF5
:1004D00000B290FBF1F04A3800B270470000000013
:1004E0002DE9F041054688461746FFF7E1FF28460B
:1004F000FFF7C6FF044630B12846FFF7D1FF0124BD
:100500002046BDE8F0812E1D48F080013046FFF7FF
:10051000AFFF21463046FFF7ABFF38702846FFF7A4
:10052000BFFFEDE700000000000000000000000039
:100530002DE9F041044688461746FFF7B9FF2046EB
:10054000FFF79EFF054630B12046FFF7A9FF0125C2
:100550002846BDE8F081261D41463046FFF788FF5A
:1005600039463046FFF784FF2046FFF799FFEFE753
:1005700010B504460E220B21FFF7DAFF00220C21F2
:100580002046FFF7D5FF20220D212046FFF7D0FFA0
:1005900025220E212046FFF7CBFFED220F2120461A
:1005A000FFF7C6FF0E2210212046FFF7C1FF2F22C2
:1005B00011212046FFF7BCFF732212212046FFF7CE
:1005C000B7FFA32213212046FFF7B2FFFF22142119
:1005D0002046FFF7ADFF00220A212046FFF7A8FFC3
:1005E000002215212046FFF7A3FFB6222121204635
:1005F000FFF79EFF102222212046FFF799FF0822D5
:1006000018212046FFF794FF1D2219212046FFF7ED
:100610008FFF1C221A212046FFF78AFFC7221B21C9
:100620002046FFF785FF00221C212046FFF780FFB0
:10063000B0221D212046FFF77BFFEA22232120461E
:10064000FFF776FF2A2224212046FFF771FF0022C0
:1006500025212046FFF76CFF1F2226212046FFF7A9
:1006600067FF88222C212046FFF762FF31222D21CF
:100670002046FFF75DFF09222E212046FFF758FF95
:100680000C2203212046FFF753FF072200212046BA
:10069000FFF74EFF062202212046FFF749FF0C22FA
:1006A00007212046FFF744FF442208212046FFF798
:1006B0003FFF50223E212046FFF73AFF0722162136
:1006C0002046FFF735FF2046BDE8104000221721E5
:1006D000FFF72EBF00000000000000000000000037
:1006E00070B504460E46FFF7E3FE2046FFF7C8FE4E
:1006F000054628B12046FFF7D3FE0125284670BDE8
:100700003146201DFFF7B4FE20772046FFF7C8FED4
:10071000237F03F070032377F0E700000000000060
:100720003621FFF7DDBF00000000000000000000E0
:1007300038B504460D46237F1BB12046FFF7F0FF76
:10074000F9E72A462046BDE838400A21FFF7F0BE07
:100750003A21FFF7C5BF00000000000000000000C4
:10076000F7B5704B456804469D4274D0A3F57843B5
:100770009D420CBF05250625A168678A0846FFF73C
:100780008FFD7B00DAB203239340DB430126086828
:1007900006FA07F718400860D1F800E006FA02F000
:1007A00040EA0E000860486820EA07074F60486882
:1007B0004860C8681840C860C868C8608868034056
:1007C0008B6002238868934003438B602A46A1898B
:1007D000A068FFF7B5FD2A46E189A068FFF7B0FDE4
:1007E0002A46218AA068FFF7ABFD314604F11400C8
:1007F000FFF7E6FD2046FFF753FE4A4B62684A4981
:100800009A424A4B29D18968B1FBF3F3802B40F21D
:10081000848007234648016A41F4805101624FF405
:10082000417111601168204641EAC303136000233F
:1008300053601368302143F040031360FFF750FF0B
:10084000002835D062683B48136823F040031360EA
:1008500001F026F844E005258EE74968B1FBF3F383
:10086000802B21D8402B21D8202B15D8102B15D820
:10087000082B15D8042B15D8022B94BF0023012375
:1008800028498A42C6D02C498A4201BF2848416A79
:1008900041F480414162C2E70523F1E70423EFE719
:1008A0000323EDE70223EBE70723ECE70623EAE760
:1008B000072206212046FFF73BFE08B11F48C7E785
:1008C00002AA02F8010D06212046FFF709FE05469F
:1008D00050B99DF80710072908D0194800F0E0FF2B
:1008E0000125284603B0F0BD1648B1E72046FFF7C2
:1008F0002FFF2046FFF73CFE208B092809DC042847
:1009000009DC0630072102F0B3F80F4800F0C8FFF9
:10091000E7E72820F6E71720F4E7402BA4D90623C1
:1009200078E700BF003001404C0C0020A02E63008F
:1009300000380240A03C000800380040AD3C0008F0
:10094000B83C0008CD3C0008D83C0008000000007E
:100950003421FFF7C5BE00000000000000000000C9
:1009600038B504460D46FFF7F3FE65622046FFF7F3
:10097000EFFF38BD00000000000000000000000094
:100980002DE9F3478946904678210DF10702044688
:100990009A46FFF7A5FD70B99DF90730002B0ADADA
:1009A0002046FFF785FD2046FFF76AFD054620B18A
:1009B0002046FFF775FD012529E0261DFF21304661
:1009C000FFF756FD4F46A7EB0903DBB253454FF047
:1009D0000001304606DAFFF74BFD8DF8070007F8F7
:1009E000010BF0E7FFF744FD00218DF807003046CA
:1009F000FFF73EFD2046FFF753FDB8F1000F06D08C
:100A00009DF807102046FFF75BFD88F80000284698
:100A100002B0BDE8F0870000000000000000000008
:100A200008B502F0EDF8084B1A689A4207D01B6926
:100A300099689368994202D2044802F081FB00232E
:100A400083F3118808BD00BF00140020003D00089A
:100A5000416A10B5044619B188470023636210BD8E
:100A60002030BDE8104002F073BC00000000000020
:100A700038B504460D4602F03BF9236B002B14DD1C
:100A800002F036F9236BA2692988013B2363931C8A
:100A9000A361118004F11202934204F11C0028BFEB
:100AA000A46102F0D5FA002038BD022038BD000054
:100AB000836A37B50133032B88BF00230446836262
:100AC00000F1140502F014F9236A13B1284602F06C
:100AD000BFFC00230B4A40F2F661284602F060FC9E
:100AE000A36A53B902228DF8042001A906488DF8A3
:100AF0000530FFF7BDFF03B030BD04238DF804308F
:100B00000023F2E7110B0008200A0020000000007B
:100B100008B5202383F3118802F08AF80448FFF710
:100B2000C7FF02F09DF8002383F3118808BD00BFC2
:100B3000200C002000000000000000000000000069
:100B40003C4A13B5D369044643F00403D3613A4BDE
:100B50003430196821F040611960196841F08061F2
:100B60001960596821F40051596059685960D96871
:100B700021F04061D960D968D960996821F040615D
:100B80009960996841F000619960D16941F0040170
:100B9000D1611A68092122F040421A601A6842F0B5
:100BA00080421A605A6822F400425A605A685A60B9
:100BB000DA6822F04042DA60DA68DA609A6822F095
:100BC00040429A609A6842F000429A6002F0F8F956
:100BD00004F12800002102F0F3F91848FFF7C0FDE6
:100BE000044620BB86223E211448FFF7A1FC0422C4
:100BF00006211248FFF79CFC07211048FFF798FDDB
:100C000000940F4B7F224FF4D0710E4802F050FB3E
:100C1000202383F3118801F0E3FF0B48FFF748FF1F
:100C200002F0AEF9FFF7FCFE204602B010BD012431
:100C3000FAE700BF0038024000080240EC0900203B
:100C4000010E0008800A0020200C00200000000097
:100C5000052307B58DF80430002301A903488DF85A
:100C60000530FFF705FF03B05DF804FB200A002004
:100C700083B5044600275A4E202383F3118801F0E0
:100C8000AFFF4FF6FF7104F1280004F10C0902F0E8
:100C9000A7F928BB236A04F134009A1C93F800805A
:100CA0005D7804F11E039A42226228BFC4F82090A6
:100CB00002F0CEF902F064F9FFF7B2FEB8F1050FC9
:100CC000DAD801A353F828F0C90D0008D50D0008A3
:100CD000E70C0008790C00082B0D00083B0D0008FC
:100CE0000025A846E8E74FF400433E4DB3613621A6
:100CF0003C48FFF7F5FC20B13B493A48FFF730FE8E
:100D0000BAE72B7F002BF2D133213648FFF7E8FCFE
:100D10000028F1D10122EB89A9689A40334B086978
:100D20001042E9D0013BFAD1E6E74FF00043392108
:100D3000B3612C48FFF7D4FC9EE74FF000432246F6
:100D4000B361611D04232748FFF71AFEA0B994F987
:100D5000003013F1350F0FDBA2790A2A0CDC237265
:100D6000236C83421ED004EB800191F845509542DC
:100D700016D1D4F805304B64202383F3118801F099
:100D80002FFF1B4B9B6ABBB902228DF805308DF8F3
:100D9000042001A91748FFF76BFEFFF741FE6BE740
:100DA0000130DEE7092BE7D8D4F8051004EB830205
:100DB000013351642364DFE704238DF805708DF857
:100DC00004300DEB0301E5E72A463E210548FFF715
:100DD000AFFB51E729460348FFF7AAFC4CE700BFE9
:100DE00000080240EC090020510C0008B882010004
:100DF000200C0020200A002000000000000000005D
:100E000008B50148FFF734FF140A00200000000075
:100E10000521144B144A99810621D98107211A60B2
:100E2000124A19825A6002F550429A6004215A61AE
:100E3000032259821A830E490022CB600C219A7634
:100E40001A771A625A620B4BCA54581802311E297B
:100E50004270F9D108491A6419625962074B9A62C3
:100E6000704700BFEC090020F83C0008003001404A
:100E7000580C0020140A0020200A0020200C00201A
:100E8000202383F3118801F0D3BE0000000000008E
:100E900008B501F0E5FE002383F3118808BD0000CA
:100EA00010B50446FFF7ECFF236820461B689847FF
:100EB000BDE81040FFF7ECBF00000000000000009C
:100EC000074B5A68D2070AD5064ADA60064ADA6042
:100ED0004FF480729A615A6822F480725A607047A7
:100EE000003C0240EFCDAB89050403020000000086
:100EF00073B5837E1D4C8DF80730054601F0F8FE72
:100F0000D4F8AC30002B19DD01F0F2FED4F8AC308F
:100F10000099013BC4F8AC30D4F89430144803F184
:100F20000802C4F8942019600199596004F19003F3
:100F30009A4228BFC4F8944002F08AF8EB7E012B55
:100F400011D12E8B01F0D4FE2B692C1D13B120463C
:100F500002F07EFA2B4631462046064A02B0BDE832
:100F6000704002F01DBA02B070BD00BF740C0020CA
:100F70000C0D0020A10E0008000000000000000081
:100F800046230E4A9169C90710D49169C9050FD447
:100F9000916911F4F05F14BF01200020013B032888
:100FA0009BB207D1002BEDD1022070470320F5E75B
:100FB0000D20F3E7002B08BF02207047003C0240E1
:100FC0000368B3F1804F05D1224A536A43F001030D
:100FD00053627047204A934205D102F50D32536A9D
:100FE00043F00203F4E71D4A934205D102F50C32A7
:100FF000536A43F00403EBE7194A934205D102F523
:101000000A32536A43F01003E2E7164A934205D1CD
:1010100002F50932536A43F02003D9E7124A93429A
:1010200006D102F59832136A43F004031362704745
:101030000E4A934205D102F59632136A43F0080333
:10104000F4E70B4A9342F2D102F59432136A43F06B
:101050001003EBE7003802400004004000080040A5
:10106000001000400014004000080140000C014046
:10107000001001400000000000000000000000001F
:10108000F8B50446FFF79CFF826903680169DA62DC
:10109000027D0139012A0CBF0722062203290BD841
:1010A000DFE801F0026A727A996941EA02129A61F4
:1010B0001A6A42F001021A621A6842F001021A60CA
:1010C000494A934270D002F5806293426CD002F597
:1010D000803293426AD002F58062934266D002F574
:1010E000806293420CBF0322012263683F4821893A
:1010F0008342667D5CD13E4CE06940F00100E061D6
:1011000003204D00A840C0431C6804401C6002241A
:101110001F68AC403C431C600124002E60D15E6817
:101120008C4026EA04045C60DC68072904EA0004B9
:10113000DC60DC68C8BF0839DC609C684FEA81016C
:1011400000EA040098604FF002009C6800FA05F085
:1011500040EA04009860CCBF012000200F2403EB7C
:101160008003186A8C4020EA04001862186A02FAA8
:1011700001F101431962F8BD996941EA02329A61AD
:101180001A6A42F0100296E7D96941EA0212DA615E
:101190001A6A42F480728EE7D96941EA0232DA6152
:1011A0001A6A42F4805286E702229EE703229CE7F5
:1011B0001048834204D10E4CE06940F002009EE7E3
:1011C0000D48834204D10A4CE06940F0040096E7E0
:1011D0000A48834294D1064CE06940F008008EE74B
:1011E0005E688C4034439EE70004004000000240EB
:1011F000003802400004024000080240000C024097
:1012000000F1006000F50020006870470000000059
:1012100038B504460D46FFF753FEFFF7B1FE30B96F
:1012200004F1006000F500200560FFF7A9FE034A05
:10123000536843F00103536038BD00BF003C0240D7
:1012400008B501F025FDFFF71BFE0B4B186868B1D0
:1012500003681B6898470122084B5A61FFF718FE84
:1012600001F02EFDBDE8084002F052B904490548DE
:1012700000F036FBEFE700BF580C002000040140EF
:10128000603D0008103D0008000000000000000064
:1012900008B501F0FDFCFFF7F3FD0B4B586868B192
:1012A00003681B6898470222084B5A61FFF7F0FD5C
:1012B00001F006FDBDE8084002F02AB904490548DE
:1012C00000F00EFBEFE700BF580C002000040140C7
:1012D000703D0008103D0008000000000000000004
:1012E00008B501F0D5FCFFF7CBFD0B4B986868B152
:1012F00003681B6898470422084B5A61FFF7C8FD32
:1013000001F0DEFCBDE8084002F002B904490548DE
:1013100000F0E6FAEFE700BF580C0020000401409F
:10132000803D0008103D00080000000000000000A3
:1013300008B501F0ADFCFFF7A3FD0B4BD86868B111
:1013400003681B6898470822084B5A61FFF7A0FD05
:1013500001F0B6FCBDE8084002F0DAB804490548DF
:1013600000F0BEFAEFE700BF580C00200004014077
:10137000903D0008103D0008000000000000000043
:1013800008B501F085FCFFF77BFD0B4B186968B1D0
:1013900003681B6898471022084B5A61FFF778FDD5
:1013A00001F08EFCBDE8084002F0B2B804490548DF
:1013B00000F096FAEFE700BF580C0020000401404F
:1013C000A03D0008103D00080000000000000000E3
:1013D00008B501F05DFCFFF753FD0B4B186870B1C9
:1013E00003681B6898474FF47872084B5A61FFF7FF
:1013F0004FFD01F065FCBDE8084002F089B80449E2
:10140000044800F06DFAEEE7700C00200004014083
:10141000B03D0008103D0008000000000000000082
:1014200008B501F035FCFFF72BFD0B4B186870B1C8
:1014300003681B6898474FF47C42084B5A61FFF7DA
:1014400027FD01F03DFCBDE8084002F061B8044909
:10145000044800F045FAEEE76C0C0020000401405F
:10146000C03D0008103D0008000000000000000022
:1014700070B592B02022002104460AA802F0E0F9DB
:101480004FF480330A934FF400330B934FF48023CF
:101490000C933D4B03AA0D933C4B06AE0E933C4B75
:1014A0000F933C4B10933C4B5968186803C2197A50
:1014B000117003F10902193335461068516808327A
:1014C00003C59A422E46F7D100238DF804308DF8DB
:1014D00005308DF806308DF8073001238DF808307F
:1014E00002238DF8093003238DF80A3004232B4999
:1014F0008DF80B308B68C3F38103022B05D0032BCF
:101500002BD0012B20D1264B00E0264B234812A9DB
:101510008268C2F303120A4412F8302CD3402360CD
:1015200081688268C1F3022112A8C2F3C222014479
:10153000024411F8441C12F8442C23FA01F1D34060
:101540006160A36012B070BD4B6812AAC3F342334E
:1015500002EB830353F8203CD8E78B6812AAC3F34D
:10156000834313448A6889680E4811F4803F0C490C
:1015700018BF014613F83C3CC2F381524B43013281
:10158000B3FBF2F3C2E700BF9CFF0700C0FD0F00F2
:1015900068FF1F00D0FE3F00303C000800380240CA
:1015A0000024F400001BB700000000000000000051
:1015B0000D4B0E4A99420E4B06D00E48814203D085
:1015C00000F58060814206D192689868C2F3C22219
:1015D000032A07D8704792685868C2F30222032A88
:1015E00000D87047400070470008014000380240B2
:1015F0004C0C0020000C0140000000000000000026
:1016000038B504460D4601680748FFF7D1FF226848
:10161000D36A0133B0FBF3F0B0FBF5F000B1013851
:1016200000239062536238BD4C0C00200000000083
:1016300006480749836805C8B3FBF1F3B2FBF1F232
:10164000B0FBF1F1034800F02BB900BF4C0C0020B7
:1016500040420F00203D0008000000000000000094
:101660004FF08052084B5A62084A11465368DB0615
:10167000FCD4136823F4C05343EAC02010604B68C5
:10168000DB06FCD4704700BF003802400070004009
:1016900008B501F0B5FA084B1A689A4207D01B69E1
:1016A00099689368994202D2044801F049FD0023E9
:1016B00083F3118808BD00BF00140020D03D00084E
:1016C0002DE9F04305469846002485B09DF83090FA
:1016D00001AEB1FBF2F302FB1310092804F101047F
:1016E00094BF30303730C0B23719194607F8010CB3
:1016F000002BEED1274647450DD22B6849461B6883
:101700002846984718B10B2005B0BDE8F083013793
:10171000F1E7002CF8D02B68013C1B68315D2846AE
:1017200098470028F5D0EEE7000000000000000018
:101730002DE9F04F0B46054614464FF00A0B85B0D5
:1017400019785E1C31B928462B685B6805B0BDE886
:10175000F04F1847252905D02B6828461B68984765
:1017600048B3F0E75F784FF00008302F14BF202710
:101770009E1C16F8011BA1F13003DBB2092B03D923
:101780002A2904D1237804340BFB0838F1E72E29E9
:1017900009D116F8011BA1F13003092BF9D92A2927
:1017A00001D10434F5E7632939D017D841294ED047
:1017B00003D82529D0D03346C2E7532939D0582938
:1017C000F9D14346102204F1040900972168284604
:1017D000FFF776FF0028B6D14C46ECE7692902D026
:1017E00013D86429E7D104F104092468002C07DA2E
:1017F0002B682D211B68284698470028A3D16442F6
:10180000009743460A222146E1E7732911D0752942
:10181000D1D104F10409009743460A22D6E72B6888
:1018200021781B682846271D984700288BD13C4605
:10183000C1E72768013F17F8011F09B90434BAE767
:101840002B6828461B6898470028F4D07BE70027C0
:101850002368D4F80880D4F8049003935FFA88FAD8
:101860004F4501DB0C34A6E7002F0DDC039B102253
:10187000D95D3023284600930223FFF721FF00287B
:101880007FF461AF0137EBE7B8F1000FEED02B68C2
:1018900051461B68284698470028E7D053E70000C8
:1018A0000FB413B504AB53F8044B0193202383F317
:1018B000118801F095F9019A21460548FFF738FF94
:1018C000FFF7E6FE02B0BDE8104004B0704700BF6D
:1018D0004C1200200000000000000000000000008A
:1018E0000FB407B504AA52F8041B04480192FFF78D
:1018F0001FFF03B05DF804EB04B070474C120020EA
:101900007047000000000000000000000000000020
:1019100010B52023044683F3118801F089F9236868
:1019200020465B68984701F09BF9002383F31188F8
:1019300010BD0000000000000000000000000000DA
:1019400008B501F05DF9084B1A689A4207D01B6987
:1019500099689368994202D2044801F0F1FB002390
:1019600083F3118808BD00BF00140020303E00083A
:101970000EB403B503AA52F8041B00F29C40019276
:10198000FFF7D6FE02B05DF804EB03B07047A0F598
:101990009460EDE70000000000000000000000007F
:1019A000F0B5324CA04244D1314DEC6944F0010411
:1019B000EC6103244E00B440E44305682540056013
:1019C00002250768B5403D4305600125002A48D13E
:1019D00042688D4022EA05054560C268072902EA8F
:1019E0000402C260C56803FA06F242EA0502C26058
:1019F0008368C8BF083904EA03044FF00203846017
:101A0000826803FA06F343EA02038360CCBF012332
:101A100000230F2200EB8300036A89008A4023EA37
:101A2000020303620723026A03FA01F11143016210
:101A3000F0BD104CA04204D10D4DEC6944F00204FD
:101A4000B6E70D4CA04204D1094DEC6944F0040402
:101A5000AEE70A4CA042ACD1054DEC6944F0080455
:101A6000A6E742688D401543B6E700BF000002407C
:101A7000003802400004024000080240000C02400E
:101A800010B5D0F80844D0F8142400F581631B1B6E
:101A9000934228BF1346C0F818346BB10022416846
:101AA00080F810248A695268D46053600B6A13600E
:101AB000136843F00103136010BD00000000000034
:101AC00043689B6959680A6822F00F020A60197C12
:101AD0001A680E238B405360D0F81814D0F81434D1
:101AE000D0F808245B1A0A4400F581618A4228BFB5
:101AF00000F10802C0F81434C0F808242BB90123FF
:101B000080F8103403681B681847FFF7B9BF00005E
:101B1000FFF7D6BF0000000000000000000000003A
:101B2000D0F81434B3F5806F16D2D0F80C345A1CA8
:101B3000C0F80C241970D0F80C2400F581639A4287
:101B400024BF00F10803C0F80C34D0F8143401337A
:101B5000C0F81434002070470B20704700000000CC
:101B6000FFF7DEBFA0F19C00A0F58060F8E7000061
:101B700090F810340BB1FFF783BF704700000000EE
:101B8000FFF7F6BFA0F19C00A0F58060F8E7000029
:101B90004368D0F82004DB695B685B68C3F16303CA
:101BA000181A48BF633070470000000000000000B2
:101BB00008B50246FFF7ECFF80B1D2F82034581C7C
:101BC000C2F82004134493F8243400200B70D2F898
:101BD0002034622B03DDC2F8200408BD0A2008BDB2
:101BE0002DE9FF41044600F5916501F081F8D4F834
:101BF000943413B1284601F02BFC23463A4A632162
:101C0000284601F0CDFB94F88734002B68D0374D7F
:101C1000374E05F190070DF107012046FFF7C8FF89
:101C200000285DD194F80C259DF8073042B1082BAF
:101C300084F80C05C4F80805EDD00D2B0CD1EAE7AB
:101C4000082B07D1D4F80835002BE4D0013BC4F8A9
:101C50000835E0E70D2B01D00A2B36D1D4F8083532
:101C6000002BD8D04FF00008234483F8A4843146D9
:101C700004F2A44001F00CFE0123C4F8100584F81E
:101C80000C3584F887848DF80F3001F031F8D5F8E1
:101C9000AC304345BFDD01F02BF8D5F8AC3004F58E
:101CA0009461013BC5F8AC30D5F89430114803F18C
:101CB0000802C5F8942019600399BA42596028BFF8
:101CC000C5F8945001F0C4F9A5E7D4F80825612AB5
:101CD000A1D8511C2244C4F8081582F8A4349AE70C
:101CE00004B0BDE8F08100BF11190008740C002099
:101CF000E03D00080C0D0020000000000000000086
:101D00004168064A4B6809689342054A0CBF9268CD
:101D10005268B2FBF1F29A60704700BF0038014090
:101D20004C0C00200000000000000000000000003B
:101D300038B50023044640681A4681898068FFF759
:101D40002FFE63682D4A5B68934243D102F58032CF
:101D5000136A43F48043136200252046FFF7D0FF47
:101D60006068274A436809211D618069234601F0A4
:101D70001FFD6068836942685B68111D9960016A94
:101D8000196001230C2184F81034D160C021516105
:101D90001A46818A0069FFF703FE60682B462A46CF
:101DA0000F21C06901F004FD616804F22444CB698D
:101DB0004A685B68101D98606320496ADC6058605F
:101DC0001960196841F001011960D36843F40053A8
:101DD000D36038BD0B4A934206D102F5FA32536AFA
:101DE00043F400335362B7E7074A9342B4D102F594
:101DF000F832536A43F48023F4E700BF003801400F
:101E0000111B000800440040004800400000000092
:101E100038B5044600F59165202383F3118800F05E
:101E2000DFFE00F065FFD4F8943413B1284601F0CA
:101E30000FFB23462846044A632101F0B1FABDE8AE
:101E40003840FFF77DBD00BF1119000800000000F9
:101E500010B52023044683F3118800F0C1FE01234E
:101E600084F88734BDE81040FFF76ABD0000000029
:101E7000FFF7EEBFA0F59460FAE700000000000055
:101E800073B50024642603688DF804408DF805407E
:101E90008DF806408DF80760DB6801990546984784
:101EA0008DF804408DF805408DF806408DF80760E8
:101EB000019BC5F8843002B070BD00000000000036
:101EC00010B5044600F014FFE36823B12046BDE8D6
:101ED000104001F0BDBA10BD00000000000000007D
:101EE00008B500F08DFE084B1A689A4207D01B69AE
:101EF00099689368994202D2044801F021F90023BD
:101F000083F3118808BD00BF00140020903E000834
:101F10006FF0404313B5C26B01919C18C26AC9B2FD
:101F200002EB84025163826D9918826C02EB81028C
:101F30009DF805105163426F1344426E02EB830318
:101F40009DF806205A6302B010BD0000000000009A
:101F500003680A465B680149184700BF803E0008D5
:101F600010B50020FFF74CF9054CC0B220700138C5
:101F7000092804D90348FFF793FC0123237010BDFF
:101F8000240D0020603E000800000000000000005A
:101F900070B5041D054620460E46FFF791FF42F23C
:101FA00010724FF47A7302FB06F101F2E731B1FBD4
:101FB000F3F120462B46BDE87040024A89B201F099
:101FC000EFB900BFA10E00080000000000000000F3
:101FD000C369D0F88420D3F8051070B59142044647
:101FE0000AD0D3F8015006684DB9F3689847E36901
:101FF000D3F80520C4F884200933E3612DE090F87C
:10200000842059798A422ADA013284F8842094F8AB
:10201000852099798A4225DA013284F8852094F85E
:102020008620D9798A4220DA013284F8862094F811
:1020300087201B7A9A421BDA013284F88720F368E2
:102040002046D4F884109847E069D4F88420D0F86A
:1020500005309A420FD10930E061002070BDD6DD15
:10206000013AD2E7DBDD013AD7E7E0DD013ADCE710
:10207000E5DD013AE1E794F884104279D0F80130C7
:102080008A421CBF0431B3FBF1F194F885208579B5
:1020900014BF01310021954206D00432B3FBF2F2A5
:1020A0000132914238BF114694F88620C579954295
:1020B00006D00432B3FBF2F20132914238BF11462E
:1020C00094F88720007A904206D00432B3FBF2F3F2
:1020D0000133994238BF19462046FFF759FF0120C6
:1020E00070BD0000000000000000000000000000C3
:1020F00038B504460D46202383F3118800F070FDA7
:102100004FF0FF3323622368A561E5611B68204619
:102110009847BDE83840FFF7E3BE0000000000002C
:1021200008B583698B4201D0FFF7E2FF08BD0000CC
:1021300038B5134C94F84050F5B100231A461946AF
:1021400004EB830090F84600C0B1022808D10131A9
:10215000C9B201339D42F3D1914206DC094905E041
:10216000012804BF0132D2B2F3E707490748FFF75D
:10217000D7FF0023236438BD0549F7E70549F5E794
:10218000140A0020DD1300209E130020280D0020DB
:102190008C13002034130020000000000000000019
:1021A0002DE99F480320FFF75BFA7C48FFF760F9B1
:1021B00000F056FC00F07CFF1221794800F000FF8F
:1021C0000021784800F0FCFE774F7848FFF7B0FD1B
:1021D0007648774CFFF71CFEFFF7C2FE3B78754A46
:1021E00075497648FFF75CFB6C48FFF721FA04F16C
:1021F0002C00FEF745FFD4F8801004F12C00FFF707
:10220000FFF904F14800FEF73BFFD4F8801004F119
:102210004800FFF7F5F904F16400FEF731FFD4F848
:10222000801004F16400FFF7EBF900238DF808300B
:102230008DF809308DF80A3064238DF80B30204674
:102240000299FFF765FE5E48FEF77AFC002849D147
:102250005C492046FFF74CFF202383F311885A4C3A
:1022600000F0BEFC258B201DFFF72AFE2346574AAF
:102270002946201D01F094F8FFF732FE544E06F176
:10228000980906F1900A002420238DF80F4083F36B
:10229000118800F0A5FC4FF6FF71484600F0A0FE43
:1022A00088B9D6F890303E4803F10802C6F890206D
:1022B0001C685B685245039328BFC6F8906000F025
:1022C000C7FE00F05DFEFFF70BFE9DF80F80B8F132
:1022D000010F09D0B8F1060F5CD041463D48FFF729
:1022E000DFFAD0E73C49B4E7256F3C49284601F0C6
:1022F000AFFA014618B92046FFF72AFE0BE038492D
:10230000284601F0A5FA58B923682B4A5D6835497B
:10231000284B2046A847236820461B689847B2E709
:102320003149284601F094FA28B923682F4A5D689C
:102330002F493B78EDE728462E4901F089FA0546FA
:1023400030BB2D4901F0A4FA606703783BB12A46FF
:1023500001A901F07DFB019B0546187808B1052114
:10236000C9E7EDB26B1E092B3D700FD82946FEF769
:102370004FFF834630B9294620483D70FFF790FA59
:102380005946B8E701461E48FFF78AFAC346F7E701
:102390000621B0E7FFF7CCFE75E700BF4C0C00202C
:1023A000180D00200C0D0020240D0020B00D002081
:1023B000280D0020A03E0008AE3E0008BB3E0008ED
:1023C000140A0020B013002070130020A10E000892
:1023D000740C00200B3F0008C8120020C93E000802
:1023E000CE3E0008D63E0008DD3E0008E03E000874
:1023F000E33E0008EB3E0008E03D0008F13E000827
:10240000FD3E000800000000000000000000000089
:1024100038B504460D4600F06BFCD4F8AC30002B08
:102420001EDD00F065FCD4F8AC3004F19800013BEF
:10243000C4F8AC30D4F8943003F10802C4F8942006
:102440002A681A606A685A60D4F8942004F19003EC
:102450009A4228BFC4F8944000F0FAFD002038BD2D
:10246000022038BD00000000000000000000000055
:1024700038B5044600F03CFC236913B1201DFFF77A
:102480001FFD4FF0FF35E3691A78042AFDD8DFE815
:1024900002F0030A14253100236820469B68984700
:1024A0000128F0D138BDD3F801100933E3610029C8
:1024B000E9D02046FFF76CFD38BDD3F80130A269A2
:1024C00003EBC3031344E36194F82B3023B104F10D
:1024D00024011148FFF79CFF0121EAE794F82B3013
:1024E00023B104F124010C48FFF792FF0023A361FC
:1024F000E36138BD226A013204BFD3F801202262B1
:10250000226A1AB909332562E361BCE7A369013A7B
:10251000E3612262B7E700BF740C002000000000F6
:1025200000232DE9F0416421FF20632403250126C7
:10253000EA4AB6B054709472D474147713709370DE
:10254000D370137150719371D37111725372D3722E
:10255000137353739373D07313745174937413750B
:1025600053759375D375137650769176D3765377EA
:102570009377D3779362536282F8203082F82450A5
:1025800082F8213082F8223082F8231082F8293034
:1025900082F82A3082F82B3082F82C10D04A9472BC
:1025A000137053709370D370137150719371D37112
:1025B00011725672D372137353739373D37313746C
:1025C00051749374D37413755375147782F82E4035
:1025D0009375D375137653769176D6765377937732
:1025E000D37782F8203082F8213082F8223082F8C6
:1025F000231082F8243082F8253082F8263082F8C1
:10260000273082F8283082F8290082F82A3082F8B0
:102610002B3082F82C1082F82D6082F82F3082F84F
:10262000303082F8313082F8323082F8333082F83C
:10263000343082F8351082F8363082F8404082F823
:1026400052406FF04B0482F8373082F8383082F80D
:10265000393082F83A3082F83B3082F83C3082F8E8
:102660003D3082F83E1082F83F6082F8413082F8B7
:10267000423082F8433082F8443082F8453082F8A4
:10268000463082F8471082F8483082F8493082F8A4
:102690004A3082F84B3082F84C3082F84D0082F894
:1026A0004E3082F84F3082F8501082F8516082F834
:1026B000533082F8543082F8553082F8563082F820
:1026C0005730C2F86730C2F8633082F8583082F869
:1026D000635082F8591082F85A3082F85B3082F8E1
:1026E0005C3082F85D3082F85E3082F85F3082F8CC
:1026F000603082F8613082F8621082F8683082F8C7
:10270000693082F86A3082F86B10764AC2F80D3070
:10271000C2F809301370557254709370D3701371EE
:1027200050719071D07111729373D373137451748B
:102730006D4AC2F80D30C2F8093093735572D373E5
:102740001374137054709370D37013715371937129
:10275000D07111725174654AC2F80D30C2F8093057
:102760001370557254709370D370137150719371CC
:10277000D37111729373D373137451745C4AC2F89A
:10278000093055721D46C2F80D30137054709370A5
:10279000D370137153719371D37111729373D37397
:1027A00013745174534A9D50D1180833902BCD7136
:1027B000F9D14FF4E133C2F89020C2F894204E4A88
:1027C000092113604D4B0127536003F54843936083
:1027D00013610A2393824A4B6E4693611433D3618B
:1027E000922313624FF485535362464B91815A6092
:1027F00003F10802C3F80824C3F80C24424A434CEE
:102800001A6002F12001303283F81074C3F81454B6
:10281000C3F81854C3F81C54C3F8205483F88774C1
:10282000C3F8085583F80C55C3F81055C3F8145570
:10283000C3F89C14C3F8A0240FCC0FC694E803007F
:102840000DF1180804F1080E86E80300BEE80F0039
:10285000A8E80F009EE803000DF1300C203488E852
:1028600003000FCCACE80F0094E803006C460DF1B8
:10287000480E8CE803000FCCAEE80F0096E803008A
:1028800006AC18AE8EE803000FCC0FC698E8030024
:102890001EAC0DF1300886E80300B8E80F000FC445
:1028A0009CE803000DF148080DF1900C84E803004A
:1028B000B8E80F00ACE80F009EE803008CE80300C6
:1028C0000DF1A80E0DF1600CBCE80F00AEE80F0092
:1028D00096E803008EE8030030AE19E0B013002044
:1028E000C812002034130020DD1300209E130020A6
:1028F0008C130020740C0020481300200038014085
:102900008C410008B00D0020F83D0008503C000844
:102910000DF1780EBEE80F000FC694E80300284CB6
:1029200086E803002C220021204600F089FF4FF0AA
:10293000FF3C04F130060DF1900EBEE80F000FC60B
:102940009EE803000DF1A80E86E80300BEE80F0024
:1029500004F14C060FC69EE80300DFF8748086E899
:1029600003000DF1C00E04F16806C4F820C06562D2
:1029700084F82B50C4F82C80C4F84880C4F86480D4
:10298000BEE80F000FC69EE80300642386E803003C
:1029900084F887300B4B0C4A23600C4BC4F880C082
:1029A0001A6049F672421A83062284F8845084F829
:1029B000855084F886509A76DF7636B0BDE8F0818F
:1029C000280D0020483E0008583D000870130020E4
:1029D00000040040000000000000000000000000B3
:1029E0007047000000000000000000000000000030
:1029F0007047000000000000000000000000000020
:102A0000704700000000000000000000000000000F
:102A1000FEE70000000000000000000000000000D1
:102A200070B500240B4B03F1800093E826000439B5
:102A3000AA4206D3D9688A4208D310338342F4D31A
:102A400070BD51F8046F42F8046BF1E742F8044B93
:102A5000F1E700BF203F0008000000000000000078
:102A600008B500F07DFDBDE8084000F019B8000091
:102A700000F16043090103F56143C9B283F8001313
:102A8000012300F01F024009800000F160409340E4
:102A900000F56140C0F8803103607047000000001D
:102AA00000F056B800000000000000000000000028
:102AB00038B54FF08044E36805469B0702D50448CB
:102AC00000F03EFB0023656323610223E36038BD11
:102AD000A03F00080000000000000000000000000F
:102AE00000224FF08043DA607047000000000000D1
:102AF00038B54FF08043DA68054612F0020F1C46E5
:102B000002D1024800F01CFB656338BDB03F0008ED
:102B100010B500F0BDF84FF080431A6992070CD54C
:102B200000241C61202383F3118800F081F800F059
:102B30000FFB00F095F884F3118800F0C1F8BDE8B0
:102B4000104000F0E5BC00000000000000000000A4
:102B5000114A0221536A1C2043F0010353620F4AB9
:102B6000936843F0010393600D4B5A6842F210736F
:102B7000B2FBF3F24FF08043013A9A624FF6FF72D4
:102B8000DA6200229A615A63DA605A6001225A615D
:102B90001A60FFF76DBF00BF00380240002004E05C
:102BA0004C0C0020000000000000000000000000AD
:102BB000FEE7000000000000000000000000000030
:102BC000044B5A6A0AB99B6A13B1034800F0B8BAB9
:102BD000704700BF00140020C03F00080000000044
:102BE00010B5054C636A0BB9A36A13B1034800F032
:102BF000A7FA0123A36210BD00140020F03F0008D3
:102C000010B5064C636A13B9A36A002B02DC0448B2
:102C100000F096FA0023A36210BD00BF001400204C
:102C2000104000080000000000000000000000004C
:102C300010B5064C636A002B01DDA36A13B104488A
:102C400000F07EFA0123A36210BD00BF0014002033
:102C5000004000080000000000000000000000002C
:102C600010B5064C636A002B02DDA36A002B02DC60
:102C7000034800F065FA0023A36210BD0014002091
:102C800020400008000000000000000000000000DC
:102C900010B5202383F31188074C636A002B01DBF6
:102CA000A36A13B1054800F04BFA636A013363620B
:102CB000002383F3118810BD00140020D03F0008CA
:102CC00010B5202383F31188074C636A002B01DDC4
:102CD000A36A13B1054800F033FA636A013B6362EB
:102CE000002383F3118810BD00140020E03F00088A
:102CF000054B5A6A002A02DB9B6A002B02DC034860
:102D000000F01EBA704700BF0014002030400008D9
:102D1000044B5A6A12B99B6A002B02DC024800F08D
:102D20000FBA704700140020404000080000000067
:102D30000022024B1B605B609A6070470014002009
:102D400010B50446FFF7D4FF14B90C4800F0F8F9A9
:102D5000237D0BB10F2B02D1084800F0F1F90023BD
:102D6000A2682375064B1B6899689142FBD25A688A
:102D700023606260204614605C6010BD5040000813
:102D8000001400200000000000000000000000000F
:102D900038B50446202383F31188FFF749FF237DCC
:102DA0000025052B0BD8DFE803F0030A0A081C16E0
:102DB000FFF756FF85F3118838BDA3691D604FF0FA
:102DC000FF332046A361FFF7BBFFFFF749FF002356
:102DD00083F3118838BDA569FFF78AFFAB6801331B
:102DE000AB6094E80C001A6022685360E7E70000CB
:102DF00038B50446FFF78CFF0C4B1D691A682C751B
:102E000011684B60196001211A611175EFF3098295
:102E10002969243A91421C4602D9054800F090F9EC
:102E200029462069BDE83840FDF7B2B900140020FA
:102E300070400008000000000000000000000000DA
:102E400070B586B00E460546FFF762FF4FF6FF737A
:102E50009E420D4C13D023690C4A314601A800F064
:102E60009FFA2846FFF7C4FFFFF742FF049B13B108
:102E700001A800F0EDFA2369986906B070BD2846F4
:102E8000FFF7B6FFF7E700BF00140020912D000800
:102E900070B5184C05460E46FFF73AFF2368A3426B
:102EA00007D022699B6892689A4202D2124800F0C9
:102EB00047F92069AE61AA6883689A4204D8284617
:102EC000BDE87040FFF73CBFFFF73AFF012306461D
:102ED00025612B75EFF309830269243B9A4202D9DD
:102EE000064800F02DF931462846BDE87040FDF750
:102EF0004FB900BF00140020604000087040000877
:102F0000044B1A681B6990689B68984294BF002024
:102F100001207047001400200000000000000000A5
:102F2000012038B5114B1A681C6911681D464B60A9
:102F300019601A61A1681075002222751B689A68D1
:102F40009142FBD35A682360626014605C60EFF3C7
:102F500009832269243B9A4202D9054800F0F0F81F
:102F600021462869BDE83840FDF712B90014002059
:102F70007040000800000000000000000000000099
:102F800008B5FFF7C5FEFFF7B3FE064B1A681B69CD
:102F900092689B689A4203D9BDE80840FFF7C0BF1A
:102FA00008BD00BF00140020000000000000000069
:102FB000FFF7B6BF000000000000000000000000A6
:102FC00038B50D46044608B1002902DA034800F07E
:102FD000B7F824606460A56038BD00BF8040000879
:102FE00038B504460D46FFF793FE14B9144800F0B7
:102FF000A7F8A368002B23680BDB9C420BD1A368C6
:103000005A1E002AA26018DA4DB9A3604FF0FF30B3
:1030100038BD9C42F3D10A4800F092F8EFE7094B23
:1030200029461B6905209C6162681C605A60136018
:103030006360BDE83840FFF703BF002038BD00BF24
:103040009040000800140020000000000000000074
:1030500010B50446FFF74CFE14B90F4800F070F8A5
:10306000A368002B236810DB9C4210D1A3680133B6
:10307000002BA3600FDC2068036823605C600023E2
:103080008361BDE81040FFF75BBE9C42EED1024871
:1030900000F056F8EAE710BDB0400008000000005C
:1030A000FEE700000000000000000000000000003B
:1030B00073B500251B4B1C4A9D60D9681B4C21F43D
:1030C000E0610904090C0A431949DA60CA6801265B
:1030D00042F08072CA6017490A6842F001020A6031
:1030E0001022DA77202283F82220FFF721FE00F059
:1030F00047F94021204600F0A3F80F4B44F81C0C80
:1031000006750361FFF75CFD85F3118862B60B4B12
:1031100000953246B02104F11C0000F0C9F802B05D
:1031200070BD00BF00ED00E00003FA052C14002084
:10313000F0ED00E0001000E000040020A1300008E5
:1031400072B6014B1862FEE7001400200000000078
:103150002DE9F8430026FFF7CBFDFFF7C9FD4FF03F
:1031600080433746224D5B6A6C699BB205F11408B7
:10317000E98B2289581A80B2824219D96869404580
:1031800034D00A44D21A92B2022A2CBF9C189C1C3A
:10319000A0B2FFF7ADFC4FF08043596AEA8B89B2C9
:1031A000891AA21A914221DD72B6124B2B62FEE7F8
:1031B00023680A444345EA83D4F80C90C3F804809A
:1031C0006B61E66001D1FFF78BFCFFF749FD87F3E8
:1031D00011882069C847202383F31188FFF728FD51
:1031E0004FF080435B6A6C699BB2C1E7BDE8F8832E
:1031F00000140020C0400008000000000000000093
:10320000202383F31188FFF7EBBC000000000000CF
:1032100008B5FFF7F5FC084B1A689A4207D01B69FE
:1032200099689368994202D20448FFF789FF002306
:1032300083F3118808BD00BF00140020D0400008AF
:10324000022202750022427500F11C0281600261B7
:1032500070470000000000000000000000000000B7
:10326000F8B504460D4616461F46FFF741FD24B14A
:103270009F2D02D97F2E00D817B90A48FFF760FFAB
:10328000243D069A6319E36067515A60064A204656
:103290001A62022323750023637504F11C03A660E0
:1032A0002361F8BDE0400008A10100080000000013
:1032B0002DE9F341174605460E460446FF2298467F
:1032C00000F11C03A34217D15522AB19A34216D813
:1032D000FFF796FF089B3A4600933146434628463F
:1032E000FFF7BEFF04460021FFF7D2FDFFF790FF76
:1032F000204602B0BDE8F08104F8012BE2E704F8B3
:10330000012BE3E7000000000000000000000000C7
:1033100008B5054B1B6998610F20FFF769FDBDE8F3
:1033200008400248FFF70CBF00140020F0400008DE
:1033300010B50446FFF764FF2046BDE81040FFF7D4
:10334000E7BF0000000000000000000000000000D7
:1033500070B5046805460E466CB1237D032B02D080
:103360000548FFF7EDFE00232B60A6612046BDE86F
:103370007040FFF7E5BC70BD004100080000000090
:10338000054B03F114025A619A614FF6FF729A835A
:103390000022DA83704700BF001400200000000004
:1033A000F8B506460C4615461F46FFF7A1FC0EB1C0
:1033B00005B114B92148FFF7C3FE214A022C21466A
:1033C00014464FF08043F56054F8145F5B6A38BFD1
:1033D0000221A542376198B217460BD1D083084429
:1033E0005661966180B2356075603181BDE8F84004
:1033F000FFF75EBBD28B9BB2841A0C449B1AA4B21B
:103400009C422B8903DAE41AA4B22D6805E0A3429A
:1034100003D9101980B2FFF76BFB2B899C42F2D8BD
:103420006B68356073601E606E6034812B891C1B75
:103430004FF6FF732C81BB83F8BD00BF104100081D
:103440000014002000000000000000000000000048
:1034500010B50446FFF74CFC14B92048FFF770FE86
:10346000E36813B91D48FFF76BFE1D490B4653F87F
:10347000142F944222680CD061680A60226851605F
:1034800000219A42E16027D0138921890B441381DE
:1034900010BD00209A424A615360E06003D1BDE84C
:1034A0001040FFF71DBB1389208903449BB2138191
:1034B0004FF08042506ACA8B80B2821A92B2934215
:1034C0000AD9BDE810409B1A9BB2022B2CBFC01832
:1034D000023080B2FFF70CBB10BD00BF20410008D6
:1034E00000140020000000000000000000000000A8
:1034F00080B500AFEFF30983203383F309880023FD
:1035000083F3118880BD000000000000000000006F
:1035100098B5202300AF83F311880D4B5B6813F43B
:10352000006312D0EFF309844FF0807344F8043C39
:10353000A4F1200383F30988FFF7E2FC18B1054BDF
:1035400044F8083C98BD044BFAE783F3118898BD12
:1035500000ED00E0B5010008C00100080000000017
:103560000F4B1A6962F400421A6100221A619969CC
:1035700061F0805199619A6159694FF0FF31596149
:103580005A615A6A42F080525A621A6A42F0010243
:103590001A62DA6A42F00102DA6200F0E9B800BFAA
:1035A00000380240000000000000000000000000A1
:1035B00008B5FFF76DFB0A4B0A4A1968126801F05B
:1035C0000E01114205D0084A596013680BB15068CA
:1035D0009847FFF775FBBDE80840FFF799BF00BFAC
:1035E0000060024008600240F81400200000000063
:1035F00008B5FFF74DFB0B4B0B4A19681268090918
:1036000001F00E01114206D00A015A60074A936880
:103610000BB1D0689847FFF753FBBDE80840FFF7B0
:1036200077BF00BF006002401C600240F814002019
:1036300008B5FFF72DFB0B4B0B4A19681268090AF6
:1036400001F00E01114206D00A025A60074A1369BE
:103650000BB150699847FFF733FBBDE80840FFF70F
:1036600057BF00BF0060024030600240F8140020E5
:1036700008B5FFF70DFB0B4B0B4A19681268090BD5
:1036800001F00E01114206D00A035A60074A9369FD
:103690000BB1D0699847FFF713FBBDE80840FFF76F
:1036A00037BF00BF0060024044600240F8140020B1
:1036B00008B5FFF7EDFA0B4B0B4A19681268090CB5
:1036C00001F00E01114206D00A045A60074A136A3B
:1036D0000BB1506A9847FFF7F3FABDE80840FFF7CF
:1036E00017BF00BF0060024058600240F81400207D
:1036F00008B5FFF7CDFA0B4B0B4A19681268090D94
:1037000001F00E01114206D00A055A60074A936A79
:103710000BB1D06A9847FFF7D3FABDE80840FFF72E
:10372000F7BE00BF006002406C600240F814002049
:1037300008B5FFF7ADFA0B4B0B4A19681268090E72
:1037400001F00E01114206D00A065A60074A136BB7
:103750000BB1506B9847FFF7B3FABDE80840FFF78D
:10376000D7BE00BF0060024080600240F814002015
:1037700000230A4A30B5136014251A46084C09493B
:1037800005FB03404068026041F833200133072BFA
:10379000F6D14FF0FF32044B5A6030BDF0130020D9
:1037A00050410008F81400200060024000000000B2
:1037B0002DE9F8430F4690469946044610B91C4837
:1037C000FFF7BEFC01201B4D627C2E6800FA02F35D
:1037D00033422BD11848730640F8328000EBC20008
:1037E000C0F804904FF00E0001BF144AD36943F0B3
:1037F0008073D36163681A6822F00F021A60217C1B
:1038000022688840506000221A60A3681E4206D1D8
:10381000B8F1000F03D03946A07CFFF729F9012346
:103820000020627C93402A6813432B60BDE8F88334
:1038300030410008F0130020F81400200038024046
:1038400003460244934200D1704703F8011BF9E795
:10385000F8B506460F4616F8014B00F019F920445A
:10386000437817F8015B03F00303012B08BF2034F2
:1038700000F00EF92844437803F00303012B08BF3E
:103880002035601B01D1002DE5D1F8BD00000000FE
:10389000134B2DE9F0411D680646AC6D0F46B4B9D7
:1038A000502000F005F9A865046044608460C4609D
:1038B0000461446184618462C46204634463846318
:1038C000C463046444648464C46404774462AA6D79
:1038D00039463046BDE8F041012300F009B800BF89
:1038E00000080020000000000000000000000000B0
:1038F000F0B518B9106808B9F0BD204604460F4667
:1039000014F8015B17F8016B1EB965B915602846FC
:10391000F0BDB542F6D1002BEFD114600370F0BDBD
:103920001C460CE015B90E4614F8013B16F8015B75
:10393000AB42F7D1002BF3D0002304F8013C146014
:10394000F0BD0000000000000000000000000000CA
:103950002DE9F84F8046894692461F468B465D46C4
:103960000A9815F8014B00F08BF82044467816F0C1
:1039700008060BD12D2C0BD101262C780BF102055A
:1039800067B1102F14D1302C0AD011E0AB46E6E716
:103990002B2C04BF2C780BF10205F1E7302C27D13A
:1039A0002B7803F0DF03582B4BD110276C780235AE
:1039B000002E0CBF6FF000414FF000410022B1FB20
:1039C000F7FE104607FB1E1CA4F13003092B11D88B
:1039D0001C46A7421DDD531C07D0864516D301D1D6
:1039E000A44513DB012200FB074015F8014BEBE770
:1039F0000A27DDE7A4F14103192B01D8373CE8E79A
:103A0000A4F16103192B04D8573CE2E74FF0FF32D1
:103A1000EBE7531C08D122230846C8F80030BAF15E
:103A2000000F07D1BDE8F88F06B14042BAF1000F90
:103A30000CD022B1013DCAF80050BDE8F88F4D46C8
:103A4000F9E73024002FB3D10827B1E7BDE8F88F9C
:103A5000084B37B51C68084D236A002B08BF2B465E
:103A6000009313460A4601462046FFF771FF03B054
:103A700030BD00BF000800206408002000000000E6
:103A8000D0F8EC00704700000000000000000000CB
:103A9000044B054A1B681B6A002B08BF1346D3F86A
:103AA000EC007047000800206408002000000000BF
:103AB000024B0146186800F01BB800BF0008002048
:103AC00082B001B901A942B14BB113780B601278F1
:103AD000101C18BF012002B070471046FBE76FF0C2
:103AE0000100F8E7000000000000000000000000F6
:103AF00070B5CD1C25F0030508350C2D38BF0C25FD
:103B0000002D064601DBA94203D90C2333600020B7
:103B100070BD00F06DF8234A1468214691B9224C1B
:103B200023681BB9304600F043F820602946304630
:103B300000F03EF8431C26D10C233046336000F0E1
:103B40005FF8E4E70B685B1B1AD40B2B0FD90B60F3
:103B5000CC18CD50304600F053F804F10B00231D73
:103B600020F00700C31A1BD05A42E25070BD8C42AD
:103B70000BBF63684B681360636018BF0C46E9E7CE
:103B80000C464968CAE7C41C24F00304A04205D0CF
:103B9000211A304600F00CF80130CDD02560D9E76D
:103BA00070BD00BFF4130020F813002000000000D7
:103BB00038B50023054C05460846236000F028F878
:103BC000431C02D1236803B12B6038BD301500209F
:103BD00049B1FF2A8BBF8A230A700360012088BF86
:103BE0004FF0FF30704708467047000000000000AB
:103BF000704700000000000000000000000000000E
:103C000070470000000000000000000000000000FD
:103C1000044B0246196809B903491960186802443F
:103C20001A607047FC1300203415002000000000CB
:103C3000030406080C1018203000000000000000EB
:103C4000000102030406070809000000000000004C
:103C500000040240010000000004004004000000D5
:103C600000000000FF00000000040240000000000F
:103C7000000400400300000000000000FF000000FE
:103C800000040240050000000004004002000000A3
:103C900000000000FF000000000000000000000025
:103CA000434320527374204661696C0D00434320E6
:103CB00057204661696C0D00434320522F57204620
:103CC00061696C3B2072706C3D25750D004343208B
:103CD00052204661696C0D00434320696E6974206F
:103CE0006F6B0D00000000000000000000000000ED
:103CF0000000000000000000510A00080000000061
:103D00006368537973556E6C6F636B00000000003D
:103D1000556E68616E646C65642025530D0000006B
:103D2000414842467265713D25754D487A3B2041B8
:103D3000504231467265713D25754D487A3B2041B0
:103D4000504232467265713D25754D487A0D00002E
:103D50000000000000000000F10E0008000000005C
:103D6000566563746F723538000000000000000073
:103D7000566563746F723543000000000000000058
:103D8000566563746F72363000000000000000005A
:103D9000566563746F723634000000000000000046
:103DA000566563746F723638000000000000000032
:103DB000566563746F723943000000000000000014
:103DC000566563746F72453000000000000000000B
:103DD0006368537973556E6C6F636B00000000006D
:103DE000202C000000000000000000000000000087
:103DF000000000000000000001190008E11B00089D
:103E0000611B0008811B000871190008711E000861
:103E100064FBFFFF00000000651B0008851B000815
:103E200060FBFFFF00000000751E00088F190008EE
:103E30006368537973556E6C6F636B00000000000C
:103E4000000000000000000071240008811E00082E
:103E5000D11F0008111F0008000000000000000032
:103E60000D5573696E672064656661756C742049D1
:103E7000440D0000000000000000000000000000F1
:103E800041636B2025640D0A000000000000000063
:103E90006368537973556E6C6F636B0000000000AC
:103EA00032303138303830345F313732370057688C
:103EB000697465466C6F77657273000D2553202514
:103EC000532049443D25750D0050696E67005665C5
:103ED0007273696F6E0025532025530D004765747A
:103EE00049440025532C25640D0A00536574494448
:103EF000004E65772049443A2025750D0045452040
:103F00006572726F723A2025750D00556E68616E8C
:103F1000646C6564204D73672025750D00000000FA
:103F2000E04400083415002034150020341500202A
:103F3000E044000800000000000000000000000055
:103F4000E044000800000000000000000000000045
:103F5000E044000800000000000000000000000035
:103F6000E044000800000000000000000000000025
:103F7000E044000800000000000000000000000015
:103F8000E044000800000000000000000000000005
:103F9000E0440008000000000000000000000000F5
:103FA00073745374617274416C61726D000000002F
:103FB0007374536574416C61726D00000000000001
:103FC00053562333000000000000000000000000F2
:103FD00053562338000000000000000000000000DD
:103FE00053562339000000000000000000000000CC
:103FF00053562334000000000000000000000000C1
:1040000053562336000000000000000000000000AE
:10401000535623350000000000000000000000009F
:10402000535623370000000000000000000000008D
:104030005356233130000000000000000000000053
:104040005356233131000000000000000000000042
:104050006368536368526561647949000000000039
:10406000636853636857616B6575705300000000A7
:10407000737461636B206F766572666C6F77000096
:10408000636853656D4F626A656374496E69740055
:10409000636853656D5761697454696D656F7574B4
:1040A00053000000000000000000000000000000BD
:1040B000636853656D5369676E616C490000000069
:1040C00063685654446F5469636B490000000000F4
:1040D0006368537973556E6C6F636B00000000006A
:1040E0006368546864437265617465490000000048
:1040F00063685468644578697453000000000000E8
:104100006368546864526573756D6549000000000A
:1041100063685654446F5365744900000000000002
:1041200063685654446F526573657449000000001B
:10413000646D6153747265616D416C6C6F63617421
:10414000650000000000000000000000000000000A
:104150000060024008600240010000000000000012
:1041600000000B00006002401C60024002000000E2
:104170000000000004010C000060024030600240BA
:10418000040000000000000008020D000060024072
:104190004460024008000000000000000C030E0014
:1041A0000060024058600240100000000000000063
:1041B00010040F00006002406C600240200000000C
:1041C0000000000014051000006002408060024002
:1041D0004000000000000000180611000000000070
:1041E0004300504F534958000000000000000000F9
:1041F0002E00000000000000000000000000000091
:1042000000202020202020202020282828282820A6
:10421000202020202020202020202020202020209E
:104220002088101010101010101010101010101006
:1042300010040404040404040404041010101010F6
:1042400010104141414141410101010101010101C0
:104250000101010101010101010101011010101012
:104260001010424242424242020202020202020292
:1042700002020202020202020202020210101010E6
:10428000200000000000000000000000000000000E
:10429000000000000000000000000000000000001E
:1042A000000000000000000000000000000000000E
:1042B00000000000000000000000000000000000FE
:1042C00000000000000000000000000000000000EE
:1042D00000000000000000000000000000000000DE
:1042E00000000000000000000000000000000000CE
:1042F00000000000000000000000000000000000BE
:0143000000BC
:04430400F8B500BF49
:04430800F8B500BF45
:104310000408002000000000000000000000000071
:10432000000000000000000000000000000000008D
:10433000000000000000000000000000000000007D
:10434000000000000000000000000000000000006D
:10435000000000000000000000000000000000005D
:10436000000000000000000000000000000000004D
:1043700000000000430000000000000000000000FA
:10438000000000000000000000000000000000002D
:1043900000000000430000000000000000000000DA
:1043A000000000000000000000000000000000000D
:1043B00000000000430000000000000000000000BA
:1043C00000000000000000000000000000000000ED
:1043D000000000004300000000000000000000009A
:1043E00000000000000000000000000000000000CD
:1043F000000000004300000000000000000000007A
:1044000000000000000000000000000000000000AC
:104410000000000043000000000000000000000059
:10442000000000000000000000000000000000008C
:104430000000000043000000000000000000000039
:10444000000000000000000000000000000000006C
:1044500000000000D13B0008C13A00080000000045
:1044600000420008F0410008883E0008883E00082D
:10447000883E0008883E0008883E0008883E000804
:10448000883E0008883E0008883E0008FFFFFFFFC6
:10449000FFFFFFFFFFFFFFFFFFFF00000100415391
:1044A0004349490000000000000000000000000037
:1044B0000000000000000000000000000000415368
:1044C0004349490000000000000000000000000017
:1044D00000000000000000000000000000000000DC
:04000005080001D11D
:00000001FF
