:020000040800F2
:1000000000040020E1010008112C0008112C000858
:10001000112C0008112C0008112C0008112C0008CC
:10002000112C0008112C0008112C0008C135000803
:10003000112C0008112C0008112C0008112C0008AC
:10004000112C0008112C0008112C0008112C00089C
:10005000112C0008112C0008A1150008F11500084A
:100060004116000891160008E116000881360008C4
:10007000C136000801370008413700088137000801
:10008000C137000801380008112C0008112C0008A5
:10009000112C0008112C0008112C00083117000841
:1000A000112C0008112C0008112C0008112C00083C
:1000B000712B0008112C0008112C0008112C0008CD
:1000C000112C0008112C0008112C0008112C00081C
:1000D000112C0008112C0008112C0008112C00080C
:1000E00081170008112C0008112C0008112C0008A1
:1000F000112C0008112C0008112C0008112C0008EC
:10010000112C0008112C0008112C0008112C0008DB
:10011000112C0008112C0008112C0008112C0008CB
:10012000112C0008112C0008112C0008112C0008BB
:10013000112C0008112C0008112C0008112C0008AB
:100140008501000871050008A10C000801130008D2
:04015000712700080B
:04015400610100083D
:1001600010B5054C237833B9044B13B10448AFF3F1
:1001700000800123237010BDD00900200000000082
:10018000AC42000808B5034B1BB103490348AFF369
:10019000008008BD00000000D4090020AC42000827
:1001A0002DE9F04FC1F80CD0C3689D46BDE8F08F33
:1001B00002F056FD002383F311882846A047002053
:1001C00003F006F902F03CFD02F022FF02F048FDC8
:1001D00000DFFEE70000000000000000000000005B
:1001E00072B6234880F30988022080F31488BFF395
:1001F0006F8F02F025FC02F02BFC4FF055301D49AB
:100200001D4A91423CBF41F8040BFAE71B49184ACA
:1002100091423CBF41F8040BFAE71949194A1A4BBD
:100220009A423EBF51F8040B42F8040BF8E7002055
:100230001649174A91423CBF41F8040BFAE702F015
:100240001FFC02F00DFC134C134DAC4203DA54F8C2
:10025000041B8847F9E702F0FBF8104C104DAC4244
:1002600003DA54F8041B8847F9E702F001BC0000E8
:1002700000080020000000200004002000040020EE
:10028000B042000800080020D0090020D00900205A
:10029000AC1400204001000854010008540100087B
:1002A00058010008000000000000000000000000ED
:1002B00008B502F0D5FC084B1A689A4207D01B69B2
:1002C00099689368994202D2044802F069FF0023BA
:1002D00083F3118808BD00BF78130020303C00086C
:1002E000104B984205D1104AD36943F00103D36102
:1002F00070470E4B984204D10B4AD36943F0020376
:10030000F5E70B4B984204D1074AD36943F0040345
:10031000EDE7084B9842EBD1034AD36943F0080359
:10032000E5E700BF00000240003802400004024040
:1003300000080240000C0240000000000000000025
:100340000168F8B5858884790846FFF7C9FF6B0016
:10035000DAB203239340DB430868AC4018400860DE
:1003600001200F6800FA02F63E430E604E68A84076
:1003700026EA00004860486804434C60C86818409A
:10038000C860C868C860886803408B6002238868BA
:10039000934003438B60F8BD0000000000000000A4
:1003A00007B50430FFF7CCFF0023402200934FF441
:1003B000D071034B034802F0BBFF03B05DF804FBB0
:1003C000D1040008000A0020000000000000000026
:1003D00010B50446006800F053FD012361682489CC
:1003E00004F1100293408B6100BF00BF00BF00BF4B
:1003F0000846FFF775FF03230A686400A340134310
:100400000B6010BD000000000000000000000000B4
:1004100010B504460430FFF793FF01232189626879
:100420008B40936100BF00BF00BF00BF2068BDE8E4
:10043000104000F065BD000000000000000000005A
:10044000F0B51D460646174685B004AC04F8011DFC
:10045000EDB2FFF7DDFF2246012350210195009701
:10046000306800F08DFE04463046FFF7B1FF2046AD
:1004700005B0F0BD0000000000000000000000001A
:1004800010B50446FFF7C4FF217B79B150212068E5
:1004900000F01EFE30B9022363732046BDE8104011
:1004A000FFF796BF002323730123F5E7042304F12C
:1004B00010022046FFF7C4FF0028ECD1012360732F
:1004C0002373EAE7000000000000000000000000C5
:1004D00007B5224C224E04F1900541F2185002F06B
:1004E00057FF1F48FFF7CCFF737B73B1012BF4D18B
:1004F00009238DF80730202383F3118802F0A0FB35
:1005000002F026FCD4F8AC300BE008238DF807305D
:10051000202383F3118802F093FB02F019FCD4F836
:10052000AC30002B17DD02F013FCD4F8AC3000998E
:10053000013BC4F8AC30D4F894300A4803F1080207
:10054000C4F8942019600199AA42596028BFC4F8E0
:10055000944002F0ADFDFFF7ABFEBEE7940C002027
:10056000EC0900202C0D002000000000000000001D
:10057000064B074A1A60074A5A6007221A8100226E
:100580009A721A7302225A73704700BFEC09002056
:10059000600C002000040240000000000000000089
:1005A000104B984205D1104AD36943F00103D3613F
:1005B00070470E4B984204D10B4AD36943F00203B3
:1005C000F5E70B4B984204D1074AD36943F0040383
:1005D000EDE7084B9842EBD1034AD36943F0080397
:1005E000E5E700BF0000024000380240000402407E
:1005F00000080240000C0240000000000000000063
:100600000123994203FA00F00CD002D3022911D041
:1006100070470A4B9A6802439A60DA6822EA00003F
:10062000D8607047054B9A6822EA00029A60DA683F
:100630001043F5E7014B9A680243F7E700040140D5
:1006400070B504461546FFF7ABFF032302264800AA
:100650008340DB4306FA00F0012622688E401A40F0
:1006600022602268072942EA000222606268C8BF4D
:10067000083922EA06026260E2684FEA810102EA72
:100680000302E260E268E260A26803EA0203A36098
:10069000A3684FF00F0240EA0300CCBF0123002300
:1006A000A06004EB8304236A8A4023EA02032362E6
:1006B000226A05FA01F11143216270BD00000000B9
:1006C000F8B504688779064605792046FFF768FF84
:1006D00003236D00EDB2AB40DB43226807FA05F55A
:1006E0001A402260E268B0881340E360E368194A68
:1006F0001D43E5600F25136A43F00103136200F404
:100700007F7303F1804303F5803300F003029C689C
:100710009700BD4024EA05049C6032680E4CA2425A
:1007200012D101229C68BA4022439A6001250B4CE9
:10073000854023682B432360636823EA05036360D5
:10074000FFF75EFF6561F8BD054CA242EED19C68E3
:100750000222E8E7003802400004024000040140A1
:10076000000802400000000000000000000000003F
:100770000368197303689A68D207FCD5187B704721
:100780000123C28981689340034A0869184002D056
:10079000013AFAD101207047B88201000000000040
:1007A0000123418A82688B409361704700000000FA
:1007B000438A816803F11002012393408B617047E3
:1007C0002DE9F041054688461746FFF7F1FF284618
:1007D000FFF7D6FF044630B12846FFF7E1FF0124BA
:1007E0002046BDE8F0812E1D48F080013046FFF71D
:1007F000BFFF21463046FFF7BBFF38702846FFF7A2
:10080000CFFFEDE700000000000000000000000046
:100810002DE9F041044688461746FFF7C9FF2046F8
:10082000FFF7AEFF054630B12046FFF7B9FF0125BF
:100830002846BDE8F081261D41463046FFF798FF67
:1008400039463046FFF794FF2046FFF7A9FFEFE750
:1008500010B504460E220B21FFF7DAFF00220C210F
:100860002046FFF7D5FF20220D212046FFF7D0FFBD
:1008700025220E212046FFF7CBFFED220F21204637
:10088000FFF7C6FF0E2210212046FFF7C1FF2F22DF
:1008900011212046FFF7BCFF732212212046FFF7EB
:1008A000B7FFA32213212046FFF7B2FFFF22142136
:1008B0002046FFF7ADFF00220A212046FFF7A8FFE0
:1008C000002215212046FFF7A3FFB6222121204652
:1008D000FFF79EFF102222212046FFF799FF0822F2
:1008E00018212046FFF794FF1D2219212046FFF70B
:1008F0008FFF1C221A212046FFF78AFFC7221B21E7
:100900002046FFF785FF00221C212046FFF780FFCD
:10091000B0221D212046FFF77BFFEA22232120463B
:10092000FFF776FF2A2224212046FFF771FF0022DD
:1009300025212046FFF76CFF1F2226212046FFF7C6
:1009400067FF88222C212046FFF762FF31222D21EC
:100950002046FFF75DFF09222E212046FFF758FFB2
:100960000C2203212046FFF753FF072200212046D7
:10097000FFF74EFF062202212046FFF749FF0C2217
:1009800007212046FFF744FF442208212046FFF7B5
:100990003FFF50223E212046FFF73AFF0722162153
:1009A0002046FFF735FF2046BDE810400022172102
:1009B000FFF72EBF00000000000000000000000054
:1009C00070B504460E46FFF7F3FE2046FFF7D8FE4B
:1009D000054628B12046FFF7E3FE0125284670BDF5
:1009E0003146201DFFF7C4FE20772046FFF7D8FED2
:1009F000237F03F070032377F0E70000000000007E
:100A00003621FFF7DDBF00000000000000000000FD
:100A100038B504460D46237F1BB12046FFF7F0FF93
:100A2000F9E72A462046BDE838400A21FFF7F0BE24
:100A30003A21FFF7C5BF00000000000000000000E1
:100A4000F7B5704B456804469D4274D0A3F57843D2
:100A50009D420CBF05250625A168678A0846FFF759
:100A60009FFD7B00DAB203239340DB430126086835
:100A700006FA07F718400860D1F800E006FA02F01D
:100A800040EA0E000860486820EA07074F6048689F
:100A90004860C8681840C860C868C8608868034073
:100AA0008B6002238868934003438B602A46A189A8
:100AB000A068FFF7C5FD2A46E189A068FFF7C0FDE1
:100AC0002A46218AA068FFF7BBFD314604F11400D5
:100AD000FFF7F6FD2046FFF763FE4A4B62684A497E
:100AE0009A424A4B29D18968B1FBF3F3802B40F23B
:100AF000848007234648016A41F4805101624FF423
:100B0000417111601168204641EAC303136000235C
:100B100053601368302143F040031360FFF750FF28
:100B2000002835D062683B48136823F04003136007
:100B300001F066F844E005258EE74968B1FBF3F360
:100B4000802B21D8402B21D8202B15D8102B15D83D
:100B5000082B15D8042B15D8022B94BF0023012392
:100B600028498A42C6D02C498A4201BF2848416A96
:100B700041F480414162C2E70523F1E70423EFE736
:100B80000323EDE70223EBE70723ECE70623EAE77D
:100B9000072206212046FFF73BFE08B11F48C7E7A2
:100BA00002AA02F8010D06212046FFF709FE0546BC
:100BB00050B99DF80710072908D0194801F020F80E
:100BC0000125284603B0F0BD1648B1E72046FFF7DF
:100BD0002FFF2046FFF73CFE208B092809DC042864
:100BE00009DC0630072101F073FF0F4801F008F817
:100BF000E7E72820F6E71720F4E7402BA4D90623DF
:100C000078E700BF003001406C0C0020A02E63008C
:100C100000380240403C0008003800404D3C0008CD
:100C2000583C00086D3C0008783C000800000000BB
:100C3000416A10B5044619B188470023636210BDAC
:100C40002030BDE8104002F0EBBB000000000000C7
:100C500010B504460921343002F0E2F904F128000D
:100C6000002102F0DDF90D48FFF7EAFE044698B9CD
:100C700086223E210948FFF7CBFD042206210748C2
:100C8000FFF7C6FD07210548FFF7C2FE39210348DB
:100C9000FFF796FE204610BD0124FBE7A00B0020C5
:100CA0000521144B144A99810621D98107211A6024
:100CB000124A19825A6002F550429A6004215A6120
:100CC000032259821A830E490022CB600C219A76A6
:100CD0001A771A625A620B4BCA54581802311E29ED
:100CE0004270F9D108491A6419625962074B9A6235
:100CF000704700BFA00B0020983C00080030014066
:100D0000780C0020C80B0020D40B0020340C0020ED
:100D100010B52023044683F3118801F0B9FF0021A8
:100D200004F1080002F07CFB01F0CAFF002383F30A
:100D3000118810BD0000000000000000000000004D
:100D400008B501F08DFF084B1A689A4207D01B695D
:100D500099689368994202D2044802F021FA00236C
:100D600083F3118808BD00BF78130020D03C000831
:100D7000104B984205D1104AD36943F00103D36167
:100D800070470E4B984204D10B4AD36943F00203DB
:100D9000F5E70B4B984204D1074AD36943F00403AB
:100DA000EDE7084B9842EBD1034AD36943F00803BF
:100DB000E5E700BF000002400038024000040240A6
:100DC00000080240000C024000000000000000008B
:100DD0000268136843F480731360704700000000DA
:100DE0000268136843F4007313607047000000004A
:100DF00003685A699B69704700000000000000000A
:100E000038B50446FFF7B4FF03234A009340DB43A1
:100E10000225006805FA02F21840206020680729C0
:100E200040EA020020604FF00100656800FA01F01E
:100E300040EA05006060E068C8BF083900EA0300C6
:100E4000E060E0684FEA8101E060A06803EA000327
:100E5000A360A36842EA0302CCBF01230023A2607F
:100E60000F2204EB8304236A8A4023EA02032362ED
:100E70000423226A03FA01F11143216238BD000004
:100E800002681B49136870B58B42064622D1194B84
:100E9000996941F40011996100219961596A21F41D
:100EA00000115962556811892846FFF761FF032434
:100EB0002B68490004FA01F1194333682960596825
:100EC0005D890846FFF754FF6D000B68AC401C437A
:100ED0000C6070BD08498B42E4D1064B996941F41E
:100EE0008001996100219961596A21F48001D8E754
:100EF000005400400038024000580040000000004C
:100F000070B5002604460368067119895868FFF712
:100F100077FF236859895868FFF772FF25682A4AC6
:100F20002B68934242D102F5F232516A41F400112A
:100F30005162916941F40011916196614FF6C0745C
:100F40005968224A0C4052682149B2FBF1F120292C
:100F500028BF2021022938BF02210C43A4B25C60C3
:100F60000846196821F001010904090C19604FF4C1
:100F7000967141434FF47A70B1FBF0F1013189B2BF
:100F800019621921E8684143B2FBF1F292B2002ADA
:100F900008BF012242F44042DA611A6842F00102BD
:100FA0001A605A6842F400625A6070BD094A93425E
:100FB000C4D102F5F032516A41F480015162916965
:100FC00041F48001B8E700BF005400406C0C0020E1
:100FD00040420F00005800400000000000000000E8
:100FE00038B50446FFF74CFF2046FFF789FF0D4D4B
:100FF000206823462A460921006902F041FC206846
:10100000092103695A6803684069103393602346D5
:101010002A4602F035FC23685A691B68526810336F
:10102000936038BD110D00080000000000000000B2
:1010300010B50446FFF724FF2046BDE81040FFF737
:101040005FBF000000000000000000000000000082
:1010500038B505460524013C14F0FF0409D02B687F
:101060001B68986910F0020006D00A2002F090F97F
:10107000F1E7012302202B7138BD000000000000C1
:1010800040F2C313013B09D00268126851699269AA
:10109000C907F7D59207F5D00020704701230371E7
:1010A000184670470000000000000000000000002B
:1010B00040F2C31203681968013A4B6902D013F475
:1010C000806001D0012070479B07F5D57047000074
:1010D00070B504460D46FFF7BBFF064628B116481B
:1010E00000F08EFD0321084670BD2046FFF7A0FFEB
:1010F000206803685E615A69520601D51A69FAE7E9
:10110000FFF776FE2068FFF763FE2046FFF7B8FF83
:1011100078B923686D001B68EDB21D612046FFF7AA
:10112000C7FF002814BF0F2100212068FFF758FED9
:10113000D9E70121F9E700BFC03C0008000000002A
:1011400040F2C313013B06D00268126852691206CE
:10115000F8D500207047012303710220704700007A
:1011600040F2C313013B06D002681268526952076D
:10117000F8D50020704702207047000000000000F2
:101180002DE9F84304460D46914698469DF8247093
:10119000FFF75EFF002840F0AE80226813685861B8
:1011A0005969490601D51969FAE71046FFF720FE8B
:1011B0002068FFF70DFE2046FFF762FF18B10126F9
:1011C0003046BDE8F88323686D001B68EDB21D61F1
:1011D0002046FFF76DFF0646206816B1FFF700FEB8
:1011E000EDE7FFF705FEB8F1000F2BD02046FFF723
:1011F000A7FF0028E3D12268136992695B68C3F8EE
:101200000C901A60C3F80480202383F3118801F046
:1012100017FD204650F8083B1B695A68136843F0D5
:101220000103136002F0E4F8FFF78AFD23681B69ED
:1012300059680A6822F00F020A60197C1A680E23A6
:101240008B4053602046002F52D0FFF779FF0028D3
:10125000B5D12068FFF7BCFD2046FFF711FF00283D
:10126000ADD1236845F001051B6820461D61FFF7DD
:101270001FFF08B12068B1E72368012F1A682068B2
:1012800013680CBF23F4806343F480631360FFF79B
:10129000AFFD236808995A695268D160D969116015
:1012A00057601A68536843F480535360202383F3D4
:1012B000118801F0C5FC204650F8083B5B695A686C
:1012C000136843F00103136002F092F8FFF738FD52
:1012D00023685B6959680A6822F00F020A60197C6A
:1012E0001A680E238B4053602068FFF779FD67E78B
:1012F000FFF736FFF8E7032662E700000000000072
:10130000034B044A1A6000221A719A60704700BFAA
:10131000600C0020A03C000800000000000000005D
:10132000202383F3118801F0B3BC0000000000000B
:1013300008B501F0C5FC002383F3118808BD000047
:1013400010B50446FFF7ECFF236820461B6898475A
:10135000BDE81040FFF7ECBF0000000000000000F7
:101360000368B3F1804F05D1224A536A43F0010369
:1013700053627047204A934205D102F50D32536AF9
:1013800043F00203F4E71D4A934205D102F50C3203
:10139000536A43F00403EBE7194A934205D102F57F
:1013A0000A32536A43F01003E2E7164A934205D12A
:1013B00002F50932536A43F02003D9E7124A9342F7
:1013C00006D102F59832136A43F0040313627047A2
:1013D0000E4A934205D102F59632136A43F0080390
:1013E000F4E70B4A9342F2D102F59432136A43F0C8
:1013F0001003EBE700380240000400400008004002
:10140000001000400014004000080140000C0140A2
:10141000001001400000000000000000000000007B
:10142000F8B50446FFF79CFF826903680169DA6238
:10143000027D0139012A0CBF0722062203290BD89D
:10144000DFE801F0026A727A996941EA02129A6150
:101450001A6A42F001021A621A6842F001021A6026
:10146000494A934270D002F5806293426CD002F5F3
:10147000803293426AD002F58062934266D002F5D0
:10148000806293420CBF0322012263683F48218996
:101490008342667D5CD13E4CE06940F00100E06132
:1014A00003204D00A840C0431C6804401C60022477
:1014B0001F68AC403C431C600124002E60D15E6874
:1014C0008C4026EA04045C60DC68072904EA000416
:1014D000DC60DC68C8BF0839DC609C684FEA8101C9
:1014E00000EA040098604FF002009C6800FA05F0E2
:1014F00040EA04009860CCBF012000200F2403EBD9
:101500008003186A8C4020EA04001862186A02FA04
:1015100001F101431962F8BD996941EA02329A6109
:101520001A6A42F0100296E7D96941EA0212DA61BA
:101530001A6A42F480728EE7D96941EA0232DA61AE
:101540001A6A42F4805286E702229EE703229CE751
:101550001048834204D10E4CE06940F002009EE73F
:101560000D48834204D10A4CE06940F0040096E73C
:101570000A48834294D1064CE06940F008008EE7A7
:101580005E688C4034439EE7000400400000024047
:10159000003802400004024000080240000C0240F3
:1015A00008B501F0A5FBFFF7BBFE0B4B186868B14F
:1015B00003681B6898470122084B5A61FFF7B8FE81
:1015C00001F0AEFBBDE8084002F00AB80449054846
:1015D00000F036FBEFE700BF780C0020000401406C
:1015E000203D0008E03C0008000000000000000072
:1015F00008B501F07DFBFFF793FE0B4B586868B10F
:1016000003681B6898470222084B5A61FFF790FE57
:1016100001F086FBBDE8084001F0E2BF044905483F
:1016200000F00EFBEFE700BF780C00200004014043
:10163000303D0008E03C0008000000000000000011
:1016400008B501F055FBFFF76BFE0B4B986868B1CE
:1016500003681B6898470422084B5A61FFF768FE2D
:1016600001F05EFBBDE8084001F0BABF044905483F
:1016700000F0E6FAEFE700BF780C0020000401401C
:10168000403D0008E03C00080000000000000000B1
:1016900008B501F02DFBFFF743FE0B4BD86868B18E
:1016A00003681B6898470822084B5A61FFF740FE01
:1016B00001F036FBBDE8084001F092BF044905483F
:1016C00000F0BEFAEFE700BF780C002000040140F4
:1016D000503D0008E03C0008000000000000000051
:1016E00008B501F005FBFFF71BFE0B4B186968B14D
:1016F00003681B6898471022084B5A61FFF718FED1
:1017000001F00EFBBDE8084001F06ABF044905483E
:1017100000F096FAEFE700BF780C002000040140CB
:10172000603D0008E03C00080000000000000000F0
:1017300008B501F0DDFAFFF7F3FD0B4B186870B147
:1017400003681B6898474FF47872084B5A61FFF79B
:10175000EFFD01F0E5FABDE8084001F041BF0449A2
:10176000044800F06DFAEEE7900C00200004014000
:10177000703D0008E03C0008000000000000000090
:1017800008B501F0B5FAFFF7CBFD0B4B186870B147
:1017900003681B6898474FF47C42084B5A61FFF777
:1017A000C7FD01F0BDFABDE8084001F019BF0449CA
:1017B000044800F045FAEEE78C0C002000040140DC
:1017C000803D0008E03C0008000000000000000030
:1017D00070B592B02022002104460AA802F098F8C1
:1017E0004FF480330A934FF400330B934FF480236C
:1017F0000C933D4B03AA0D933C4B06AE0E933C4B12
:101800000F933C4B10933C4B5968186803C2197AEC
:10181000117003F109021933354610685168083216
:1018200003C59A422E46F7D100238DF804308DF877
:1018300005308DF806308DF8073001238DF808301B
:1018400002238DF8093003238DF80A3004232B4935
:101850008DF80B308B68C3F38103022B05D0032B6B
:101860002BD0012B20D1264B00E0264B234812A978
:101870008268C2F303120A4412F8302CD34023606A
:1018800081688268C1F3022112A8C2F3C222014416
:10189000024411F8441C12F8442C23FA01F1D340FD
:1018A0006160A36012B070BD4B6812AAC3F34233EB
:1018B00002EB830353F8203CD8E78B6812AAC3F3EA
:1018C000834313448A6889680E4811F4803F0C49A9
:1018D00018BF014613F83C3CC2F381524B4301321E
:1018E000B3FBF2F3C2E700BF9CFF0700C0FD0F008F
:1018F00068FF1F00D0FE3F00C03B000800380240D8
:101900000024F400001BB7000000000000000000ED
:101910000D4B0E4A99420E4B06D00E48814203D021
:1019200000F58060814206D192689868C2F3C222B5
:10193000032A07D8704792685868C2F30222032A24
:1019400000D870474000704700080140003802404E
:101950006C0C0020000C01400000000000000000A2
:1019600038B504460D4601680748FFF7D1FF2268E5
:10197000D36A0133B0FBF3F0B0FBF5F000B10138EE
:1019800000239062536238BD6C0C00200000000000
:1019900006480749836805C8B3FBF1F3B2FBF1F2CF
:1019A000B0FBF1F1034800F02BB900BF6C0C002034
:1019B00040420F00F03C0008000000000000000062
:1019C0004FF08052084B5A62084A11465368DB06B2
:1019D000FCD4136823F4C05343EAC02010604B6862
:1019E000DB06FCD4704700BF0038024000700040A6
:1019F00008B501F035F9084B1A689A4207D01B69FF
:101A000099689368994202D2044801F0C9FB002307
:101A100083F3118808BD00BF78130020903D0008B3
:101A20002DE9F04305469846002485B09DF8309096
:101A300001AEB1FBF2F302FB1310092804F101041B
:101A400094BF30303730C0B23719194607F8010C4F
:101A5000002BEED1274647450DD22B6849461B681F
:101A60002846984718B10B2005B0BDE8F083013730
:101A7000F1E7002CF8D02B68013C1B68315D28464B
:101A800098470028F5D0EEE70000000000000000B5
:101A90002DE9F04F0B46054614464FF00A0B85B072
:101AA00019785E1C31B928462B685B6805B0BDE823
:101AB000F04F1847252905D02B6828461B68984702
:101AC00048B3F0E75F784FF00008302F14BF2027AD
:101AD0009E1C16F8011BA1F13003DBB2092B03D9C0
:101AE0002A2904D1237804340BFB0838F1E72E2986
:101AF00009D116F8011BA1F13003092BF9D92A29C4
:101B000001D10434F5E7632939D017D841294ED0E3
:101B100003D82529D0D03346C2E7532939D05829D4
:101B2000F9D14346102204F10409009721682846A0
:101B3000FFF776FF0028B6D14C46ECE7692902D0C2
:101B400013D86429E7D104F104092468002C07DACA
:101B50002B682D211B68284698470028A3D1644292
:101B6000009743460A222146E1E7732911D07529DF
:101B7000D1D104F10409009743460A22D6E72B6825
:101B800021781B682846271D984700288BD13C46A2
:101B9000C1E72768013F17F8011F09B90434BAE704
:101BA0002B6828461B6898470028F4D07BE700275D
:101BB0002368D4F80880D4F8049003935FFA88FA75
:101BC0004F4501DB0C34A6E7002F0DDC039B1022F0
:101BD000D95D3023284600930223FFF721FF002818
:101BE0007FF461AF0137EBE7B8F1000FEED02B685F
:101BF00051461B68284698470028E7D053E7000065
:101C00000FB413B504AB53F8044B0193202383F3B3
:101C1000118801F015F8019A21460548FFF738FFB1
:101C2000FFF7E6FE02B0BDE8104004B0704700BF09
:101C3000681200200000000000000000000000000A
:101C40000FB407B504AA52F8041B04480192FFF729
:101C50001FFF03B05DF804EB04B07047681200206A
:101C600070470000000000000000000000000000BD
:101C700010B52023044683F3118801F009F8236886
:101C800020465B68984701F01BF8002383F3118816
:101C900010BD000000000000000000000000000077
:101CA00008B500F0DDFF084B1A689A4207D01B699F
:101CB00099689368994202D2044801F071FA0023AE
:101CC00083F3118808BD00BF78130020F03D0008A1
:101CD0000EB403B503AA52F8041B00F29C40019213
:101CE000FFF7D6FE02B05DF804EB03B07047A0F535
:101CF0009460EDE70000000000000000000000001C
:101D0000F0B5324CA04244D1314DEC6944F00104AD
:101D1000EC6103244E00B440E443056825400560AF
:101D200002250768B5403D4305600125002A48D1DA
:101D300042688D4022EA05054560C268072902EA2B
:101D40000402C260C56803FA06F242EA0502C260F4
:101D50008368C8BF083904EA03044FF002038460B3
:101D6000826803FA06F343EA02038360CCBF0123CF
:101D700000230F2200EB8300036A89008A4023EAD4
:101D8000020303620723026A03FA01F111430162AD
:101D9000F0BD104CA04204D10D4DEC6944F002049A
:101DA000B6E70D4CA04204D1094DEC6944F004049F
:101DB000AEE70A4CA042ACD1054DEC6944F00804F2
:101DC000A6E742688D401543B6E700BF0000024019
:101DD000003802400004024000080240000C0240AB
:101DE00010B5D0F80844D0F8142400F581631B1B0B
:101DF000934228BF1346C0F818346BB100224168E3
:101E000080F810248A695268D46053600B6A1360AA
:101E1000136843F00103136010BD000000000000D0
:101E200043689B6959680A6822F00F020A60197CAE
:101E30001A680E238B405360D0F81814D0F814346D
:101E4000D0F808245B1A0A4400F581618A4228BF51
:101E500000F10802C0F81434C0F808242BB901239B
:101E600080F8103403681B681847FFF7B9BF0000FB
:101E7000FFF7D6BF000000000000000000000000D7
:101E8000D0F81434B3F5806F16D2D0F80C345A1C45
:101E9000C0F80C241970D0F80C2400F581639A4224
:101EA00024BF00F10803C0F80C34D0F81434013317
:101EB000C0F81434002070470B2070470000000069
:101EC000FFF7DEBFA0F19C00A0F58060F8E70000FE
:101ED00090F810340BB1FFF783BF7047000000008B
:101EE000FFF7F6BFA0F19C00A0F58060F8E70000C6
:101EF0004368D0F82004DB695B685B68C3F1630367
:101F0000181A48BF6330704700000000000000004E
:101F100008B50246FFF7ECFF80B1D2F82034581C18
:101F2000C2F82004134493F8243400200B70D2F834
:101F30002034622B03DDC2F8200408BD0A2008BD4E
:101F40002DE9FF41044600F5916500F001FFD4F84A
:101F5000943413B1284601F0E3FA23463A4A632148
:101F6000284601F085FA94F88734002B68D0374D65
:101F7000374E05F190070DF107012046FFF7C8FF26
:101F800000285DD194F80C259DF8073042B1082B4C
:101F900084F80C05C4F80805EDD00D2B0CD1EAE748
:101FA000082B07D1D4F80835002BE4D0013BC4F846
:101FB0000835E0E70D2B01D00A2B36D1D4F80835CF
:101FC000002BD8D04FF00008234483F8A484314676
:101FD00004F2A44001F0C4FC0123C4F8100584F805
:101FE0000C3584F887848DF80F3000F0B1FED5F8F9
:101FF000AC304345BFDD00F0ABFED5F8AC3004F5A6
:102000009461013BC5F8AC30D5F89430114803F128
:102010000802C5F8942019600399BA42596028BF94
:10202000C5F8945001F044F8A5E7D4F80825612AD2
:10203000A1D8511C2244C4F8081582F8A4349AE7A8
:1020400004B0BDE8F08100BF711C0008940C0020B2
:10205000A03D00082C0D0020000000000000000042
:102060004168064A4B6809689342054A0CBF92686A
:102070005268B2FBF1F29A60704700BF003801402D
:102080006C0C0020000000000000000000000000B8
:1020900038B50023044640681A4681898068FFF7F6
:1020A0002FFE63682D4A5B68934243D102F580326C
:1020B000136A43F48043136200252046FFF7D0FFE4
:1020C0006068274A436809211D618069234601F041
:1020D000D7FB6068836942685B68111D9960016A7B
:1020E000196001230C2184F81034D160C0215161A2
:1020F0001A46818A0069FFF703FE60682B462A466C
:102100000F21C06901F0BCFB616804F22444CB6973
:102110004A685B68101D98606320496ADC605860FB
:102120001960196841F001011960D36843F4005344
:10213000D36038BD0B4A934206D102F5FA32536A96
:1021400043F400335362B7E7074A9342B4D102F530
:10215000F832536A43F48023F4E700BF00380140AB
:10216000711E0008004400400048004000000000CC
:1021700038B5044600F59165202383F3118800F0FB
:102180005FFD00F0E5FDD4F8943413B1284601F06A
:10219000C7F923462846044A632101F069F9BDE8DE
:1021A0003840FFF77DBD00BF711C00080000000033
:1021B00010B52023044683F3118800F041FD01236C
:1021C00084F88734BDE81040FFF76ABD00000000C6
:1021D000FFF7EEBFA0F59460FAE7000000000000F2
:1021E00073B50024642603688DF804408DF805401B
:1021F0008DF806408DF80760DB6801990546984721
:102200008DF804408DF805408DF806408DF8076084
:10221000019BC5F8843002B070BD000000000000D2
:1022200010B5044600F094FDE36823B12046BDE8F4
:10223000104001F075B910BD000000000000000062
:1022400008B500F00DFD084B1A689A4207D01B69CB
:1022500099689368994202D2044800F0A1FF0023D4
:1022600083F3118808BD00BF78130020303E0008BA
:102270006FF0404313B5C26B01919C18C26AC9B29A
:1022800002EB84025163826D9918826C02EB810229
:102290009DF805105163426F1344426E02EB8303B5
:1022A0009DF806205A6302B010BD00000000000037
:1022B00003680A465B680149184700BF203E0008D2
:1022C00070B5041D054620460E46FFF7A9FF42F2F1
:1022D00010724FF47A7302FB06F101F2E731B1FBA1
:1022E000F3F120462B46BDE87040024A89B201F066
:1022F000BFB800BF4113000800000000000000004C
:10230000C369D0F88420D3F8051070B59142044613
:102310000AD0D3F8015006684DB9F3689847E369CD
:10232000D3F80520C4F884200933E3612DE090F848
:10233000842059798A422ADA013284F8842094F878
:10234000852099798A4225DA013284F8852094F82B
:102350008620D9798A4220DA013284F8862094F8DE
:1023600087201B7A9A421BDA013284F88720F368AF
:102370002046D4F884109847E069D4F88420D0F837
:1023800005309A420FD10930E061002070BDD6DDE2
:10239000013AD2E7DBDD013AD7E7E0DD013ADCE7DD
:1023A000E5DD013AE1E794F884104279D0F8013094
:1023B0008A421CBF0431B3FBF1F194F88520857982
:1023C00014BF01310021954206D00432B3FBF2F272
:1023D0000132914238BF114694F88620C579954262
:1023E00006D00432B3FBF2F20132914238BF1146FB
:1023F00094F88720007A904206D00432B3FBF2F3BF
:102400000133994238BF19462046FFF759FF012092
:1024100070BD00000000000000000000000000008F
:1024200038B504460D46202383F3118800F008FCDC
:102430004FF0FF3323622368A561E5611B682046E6
:102440009847BDE83840FFF7FBBE000000000000E1
:1024500083B50320FFF7B4FA6848FFF7B9F900F035
:102460002FFB00F055FE1221654800F0D9FD002138
:10247000644800F0D5FD6448FFF70AFE6248634CEB
:10248000FFF776FE624A63496348FFF7B9FB5B4892
:10249000FFF77EFA04F12C00FEF7C2FFD4F880109B
:1024A00004F12C00FFF75CFA04F14800FEF7B8FFD6
:1024B000D4F8801004F14800FFF752FA04F16400E8
:1024C000FEF7AEFFD4F8801004F16400FFF748FA7D
:1024D00000238DF800308DF801308DF80230642330
:1024E0008DF8033000992046FFF7C2FE4B49204685
:1024F000FFF796FF4A48FEF773FD4A48FDF750FF85
:102500004948FEF7A5FB494E06F1980706F19008E9
:10251000002520238DF8075083F3118800F090FBED
:102520004FF6FF71384600F08BFD88B9D6F8903031
:10253000334803F10802C6F890201D685B684245E5
:10254000019328BFC6F8906000F0B2FD00F048FD8E
:10255000FFF776FE9DF80710082923D009292FD010
:10256000012947D1D5F870903149484601F0D8F992
:10257000014618B92846FFF79BFE0CE02D49484656
:1025800001F0CEF960B92B68224AD3F804902A49A9
:102590001F4B2846C8472B6828461B689847B7E753
:1025A0000621E7E71F4D25482969FFF729FB2B691D
:1025B0001648042B0CBF22492249FFF731FFA7E739
:1025C0002148FFF71DFBA36983B1202383F3118802
:1025D00000F036FB00F0BCFB236913B11B48FFF78A
:1025E0001FFE0023A361E361FFF72AFE0748FFF700
:1025F000F7FD8DE71648FFF703FB89E76C0C002019
:10260000380D00202C0D0020CC0D0020440D0020A2
:10261000403E00084E3E0008563E0008441300208D
:10262000600C0020EC090020C80B0020940C002056
:102630005E3E0008633E0008573E00086B3E0008FF
:10264000E412002020130020753E0008480D0020F1
:10265000833E0008000000000000000000000000B1
:1026600038B504460D4600F073FBD4F8AC30002BAF
:102670001EDD00F06DFBD4F8AC3004F19800013B96
:10268000C4F8AC30D4F8943003F10802C4F89420B4
:102690002A681A606A685A60D4F8942004F190039A
:1026A0009A4228BFC4F8944000F002FD002038BDD3
:1026B000022038BD00000000000000000000000003
:1026C00038B5044600F044FB236913B1201DFFF721
:1026D000A7FD4FF0FF35E3691A78042AFDD8DFE83B
:1026E00002F0030A14253100236820469B689847AE
:1026F0000128F0D138BDD3F801100933E361002976
:10270000E9D02046FFF7DCFD38BDD3F80130A269DF
:1027100003EBC3031344E36194F82B3023B104F1BA
:1027200024011148FFF79CFF0121EAE794F82B30C0
:1027300023B104F124010C48FFF792FF0023A361A9
:10274000E36138BD226A013204BFD3F8012022625E
:10275000226A1AB909332562E361BCE7A369013A29
:10276000E3612262B7E700BF940C00200000000084
:10277000F0B56324A44A00236421FF20012594724C
:1027800003246FF03D065572C2F81B30C2F81F30AB
:10279000137053709370D370137150719071D07126
:1027A0001172D372137353739373D373137451747D
:1027B0009374D374137553759375D37513765376D9
:1027C0009176D47682F8203082F8213082F8223057
:1027D00082F823108D4AB7B05572D5721D46C2F8E3
:1027E0001B30137053709370D370137153719071C9
:1027F000D37111729672137353739373D3731374EB
:1028000051749374D374137553759375D37513768C
:1028100053769176C2F81F30D47682F8203082F851
:10282000213082F8223082F82310794AC2F80D3024
:10283000C2F80930137053709370D37013715071D4
:102840009071D071117254729373D3731374517465
:10285000704A9D50D1180833902BCD71F9D14FF4A7
:10286000E133C2F89020C2F894206B4A092113602A
:102870006A4B9181536003F54843936013610A23C7
:102880009382674B6E4693611433D3619223136234
:102890004FF485535362634B634C5A6003F1080253
:1028A000C3F80824C3F80C24012283F8102483F809
:1028B00087245E4AC3F814541A6002F120013032B2
:1028C000C3F81854C3F81C54C3F82054C3F808556F
:1028D00083F80C55C3F81055C3F81455C3F89C146D
:1028E000C3F8A0240FCC0FC694E803000DF1180C18
:1028F00004F1080786E803000FCFACE80F0097E863
:1029000003000DF1300E20348CE803000FCCAEE84C
:102910000F0094E803006C4612AF8EE803000FCC62
:102920000FC796E8030006AC18AE87E803000FCC8B
:102930000FC69CE803001EAC0DF1300C86E80300C6
:10294000BCE80F000FC49EE803000DF1480C0DF128
:10295000900E84E80300BCE80F00AEE80F0097E893
:1029600003008EE803002AAF0DF1600EBEE80F00F1
:102970000FC796E8030087E8030030AE1EAF0FCF05
:102980000FC694E803002A4C86E803002C2200219D
:10299000204600F0BDFF4FF0FF3C04F1300624AFAD
:1029A0000FCF0FC697E803002AAF86E803000FCFCA
:1029B00004F14C060FC697E80300DFF87CE086E8D8
:1029C000030030AF04F16806C4F820C0656284F8E3
:1029D0002B50C4F82CE0C4F848E0C4F864E00FCFF2
:1029E0000FC697E80300642386E8030084F8873065
:1029F000104BC4F880C084F8845084F8855084F863
:102A00008650236037B0F0BD44130020201300200F
:102A1000E4120020940C0020F8120020003801403D
:102A20002C410008CC0D0020E03B0008B83D000818
:102A3000440D0020083E0008000400400000000093
:102A400070470000000000000000000000000000CF
:102A500070470000000000000000000000000000BF
:102A600070470000000000000000000000000000AF
:102A7000FEE7000000000000000000000000000071
:102A800070B500240B4B03F1800093E82600043955
:102A9000AA4206D3D9688A4208D310338342F4D3BA
:102AA00070BD51F8046F42F8046BF1E742F8044B33
:102AB000F1E700BFA03E0008000000000000000099
:102AC00008B500F0B5FDBDE8084000F019B80000F9
:102AD00000F16043090103F56143C9B283F80013B3
:102AE000012300F01F024009800000F16040934084
:102AF00000F56140C0F880310360704700000000BD
:102B000000F056B8000000000000000000000000C7
:102B100038B54FF08044E36805469B0702D504486A
:102B200000F03EFB0023656323610223E36038BDB0
:102B3000203F00080000000000000000000000002E
:102B400000224FF08043DA60704700000000000070
:102B500038B54FF08043DA68054612F0020F1C4684
:102B600002D1024800F01CFB656338BD303F00080D
:102B700010B500F0BDF84FF080431A6992070CD5EC
:102B800000241C61202383F3118800F081F800F0F9
:102B90000FFB00F095F884F3118800F0C1F8BDE850
:102BA000104000F01DBD000000000000000000000B
:102BB000114A0221536A1C2043F0010353620F4A59
:102BC000936843F0010393600D4B5A6842F210730F
:102BD000B2FBF3F24FF08043013A9A624FF6FF7274
:102BE000DA6200229A615A63DA605A6001225A61FD
:102BF0001A60FFF76DBF00BF00380240002004E0FC
:102C00006C0C00200000000000000000000000002C
:102C1000FEE70000000000000000000000000000CF
:102C2000044B5A6A0AB99B6A13B1034800F0B8BA58
:102C3000704700BF78130020403F000800000000EC
:102C400010B5054C636A0BB9A36A13B1034800F0D1
:102C5000A7FA0123A36210BD78130020703F00087B
:102C600010B5064C636A13B9A36A002B02DC044852
:102C700000F096FA0023A36210BD00BF7813002075
:102C8000903F00080000000000000000000000006D
:102C900010B5064C636A002B01DDA36A13B104482A
:102CA00000F07EFA0123A36210BD00BF781300205C
:102CB000803F00080000000000000000000000004D
:102CC00010B5064C636A002B02DDA36A002B02DC00
:102CD000034800F065FA0023A36210BD78130020BA
:102CE000A03F0008000000000000000000000000FD
:102CF00010B5202383F31188074C636A002B01DB96
:102D0000A36A13B1054800F04BFA636A01336362AA
:102D1000002383F3118810BD78130020503F000872
:102D200010B5202383F31188074C636A002B01DD63
:102D3000A36A13B1054800F033FA636A013B63628A
:102D4000002383F3118810BD78130020603F000832
:102D5000054B5A6A002A02DB9B6A002B02DC0348FF
:102D600000F01EBA704700BF78130020B03F000883
:102D7000044B5A6A12B99B6A002B02DC024800F02D
:102D80000FBA704778130020C03F00080000000011
:102D90000022024B1B605B609A6070477813002032
:102DA00010B50446FFF7D4FF14B90C4800F0F8F949
:102DB000237D0BB10F2B02D1084800F0F1F900235D
:102DC000A2682375064B1B6899689142FBD25A682A
:102DD00023606260204614605C6010BDD03F000834
:102DE0007813002000000000000000000000000038
:102DF00038B50446202383F31188FFF749FF237D6C
:102E00000025052B0BD8DFE803F0030A0A081C167F
:102E1000FFF756FF85F3118838BDA3691D604FF099
:102E2000FF332046A361FFF7BBFFFFF749FF0023F5
:102E300083F3118838BDA569FFF78AFFAB680133BA
:102E4000AB6094E80C001A6022685360E7E700006A
:102E500038B50446FFF78CFF0C4B1D691A682C75BA
:102E600011684B60196001211A611175EFF3098235
:102E70002969243A91421C4602D9054800F090F98C
:102E800029462069BDE83840FDF78AB9781300204B
:102E9000F03F0008000000000000000000000000FB
:102EA00070B586B00E460546FFF762FF4FF6FF731A
:102EB0009E420D4C13D023690C4A314601A800F004
:102EC000D7FA2846FFF7C4FFFFF742FF049B13B170
:102ED00001A800F025FB2369986906B070BD28465B
:102EE000FFF7B6FFF7E700BF78130020F12D0008C9
:102EF00070B5184C05460E46FFF73AFF2368A3420B
:102F000007D022699B6892689A4202D2124800F068
:102F100047F92069AE61AA6883689A4204D82846B6
:102F2000BDE87040FFF73CBFFFF73AFF01230646BC
:102F300025612B75EFF309830269243B9A4202D97C
:102F4000064800F02DF931462846BDE87040FDF7EF
:102F500027B900BF78130020E03F0008F03F0008C9
:102F6000044B1A681B6990689B68984294BF0020C4
:102F700001207047781300200000000000000000CE
:102F8000012038B5114B1A681C6911681D464B6049
:102F900019601A61A1681075002222751B689A6871
:102FA0009142FBD35A682360626014605C60EFF367
:102FB00009832269243B9A4202D9054800F0F0F8BF
:102FC00021462869BDE83840FDF7EAB878130020AB
:102FD000F03F0008000000000000000000000000BA
:102FE00008B5FFF7C5FEFFF7B3FE064B1A681B696D
:102FF00092689B689A4203D9BDE80840FFF7C0BFBA
:1030000008BD00BF78130020000000000000000091
:10301000FFF7B6BF00000000000000000000000045
:1030200038B50D46044608B1002902DA034800F01D
:10303000B7F824606460A56038BD00BF0040000898
:1030400038B504460D46FFF793FE14B9144800F056
:10305000A7F8A368002B23680BDB9C420BD1A36865
:103060005A1E002AA26018DA4DB9A3604FF0FF3053
:1030700038BD9C42F3D10A4800F092F8EFE7094BC3
:1030800029461B6905209C6162681C605A601360B8
:103090006360BDE83840FFF703BF002038BD00BFC4
:1030A000104000087813002000000000000000001D
:1030B00010B50446FFF74CFE14B90F4800F070F845
:1030C000A368002B236810DB9C4210D1A368013356
:1030D000002BA3600FDC2068036823605C60002382
:1030E0008361BDE81040FFF75BBE9C42EED1024811
:1030F00000F056F8EAE710BD30400008000000007C
:10310000FEE70000000000000000000000000000DA
:1031100073B500251B4B1C4A9D60D9681B4C21F4DC
:10312000E0610904090C0A431949DA60CA680126FA
:1031300042F08072CA6017490A6842F001020A60D0
:103140001022DA77202283F82220FFF721FE00F0F8
:103150007FF94021204600F0B3F80F4B44F81C0CD7
:1031600006750361FFF75CFD85F3118862B60B4BB2
:1031700000953246B02104F11C0000F0D9F802B0ED
:1031800070BD00BF00ED00E00003FA05A4130020AD
:10319000F0ED00E0001000E0000400200131000824
:1031A00072B6014B1862FEE77813002000000000A1
:1031B0002DE9F8430026FFF7CBFDFFF7C9FD4FF0DF
:1031C00080433746224D5B6A6C699BB205F1140857
:1031D000E98B2289581A80B2824219D96869404520
:1031E00034D00A44D21A92B2022A2CBF9C189C1CDA
:1031F000A0B2FFF7ADFC4FF08043596AEA8B89B269
:10320000891AA21A914221DD72B6124B2B62FEE797
:1032100023680A444345EA83D4F80C90C3F8048039
:103220006B61E66001D1FFF78BFCFFF749FD87F387
:1032300011882069C847202383F31188FFF728FDF0
:103240004FF080435B6A6C699BB2C1E7BDE8F883CD
:10325000781300204040000800000000000000003B
:10326000202383F31188FFF7EBBC0000000000006F
:1032700008B5FFF7F5FC084B1A689A4207D01B699E
:1032800099689368994202D20448FFF789FF0023A6
:1032900083F3118808BD00BF781300205040000858
:1032A00010B5044610B90448FFF77AFF2146BDE87F
:1032B00010400820FFF7F4BD604000080000000047
:1032C000022202750022427500F11C028160026137
:1032D0007047000000000000000000000000000037
:1032E000F8B504460D4616461F46FFF731FD24B1DA
:1032F0009F2D02D97F2E00D817B90A48FFF750FF3B
:10330000243D069A6319E36067515A60064A2046D5
:103310001A62022323750023637504F11C03A6605F
:103320002361F8BD70400008B101000800000000F2
:103330002DE9F341174605460E460446FF229846FE
:1033400000F11C03A34217D15522AB19A34216D892
:10335000FFF786FF089B3A460093314643462846CE
:10336000FFF7BEFF04460021FFF7C2FDFFF780FF15
:10337000204602B0BDE8F08104F8012BE2E704F832
:10338000012BE3E700000000000000000000000047
:1033900010B50446FFF764FF2046FFF781FFBDE844
:1033A0001040FFF765BF00000000000000000000B3
:1033B00008B5054B1B6998610F20FFF749FDBDE873
:1033C00008400248FFF7ECBE781300208040000858
:1033D00010B50446FFF744FF2046BDE81040FFF754
:1033E000E7BF000000000000000000000000000037
:1033F00070B50268074C0546266912B10648FFF70A
:10340000CFFE2E600320B561FFF722FD2369986986
:1034100070BD00BF7813002090400008000000003D
:1034200070B5046805460E466CB1237D032B02D0AF
:103430000548FFF7B5FE00232B60A6612046BDE8D6
:103440007040FFF7ADBC70BDA04000080000000058
:10345000054B03F114025A619A614FF6FF729A8389
:103460000022DA83704700BF7813002000000000BC
:10347000F8B506460C4615461F46FFF769FC0EB127
:1034800005B114B92148FFF78BFE214A022C2146D1
:1034900014464FF08043F56054F8145F5B6A38BF00
:1034A0000221A542376198B217460BD1D083084458
:1034B0005661966180B2356075603181BDE8F84033
:1034C000FFF726BBD28B9BB2841A0C449B1AA4B282
:1034D0009C422B8903DAE41AA4B22D6805E0A342CA
:1034E00003D9101980B2FFF733FB2B899C42F2D825
:1034F0006B68356073601E606E6034812B891C1BA5
:103500004FF6FF732C81BB83F8BD00BFB0400008AD
:103510007813002000000000000000000000000000
:1035200010B50446FFF714FC14B92048FFF738FE25
:10353000E36813B91D48FFF733FE1D490B4653F8E6
:10354000142F944222680CD061680A60226851608E
:1035500000219A42E16027D0138921890B4413810D
:1035600010BD00209A424A615360E06003D1BDE87B
:103570001040FFF7E5BA1389208903449BB21381F9
:103580004FF08042506ACA8B80B2821A92B2934244
:103590000AD9BDE810409B1A9BB2022B2CBFC01861
:1035A000023080B2FFF7D4BA10BD00BFC04000089F
:1035B0007813002000000000000000000000000060
:1035C00080B500AFEFF30983203383F3098800232C
:1035D00083F3118880BD000000000000000000009F
:1035E00098B5202300AF83F311880D4B5B6813F46B
:1035F000006312D0EFF309844FF0807344F8043C69
:10360000A4F1200383F30988FFF7AAFC18B1054B46
:1036100044F8083C98BD044BFAE783F3118898BD41
:1036200000ED00E0C5010008D00100080000000026
:103630000F4B1A6962F400421A6100221A619969FB
:1036400061F0805199619A6159694FF0FF31596178
:103650005A615A6A42F080525A621A6A42F0010272
:103660001A62DA6A42F00102DA6200F0E9B800BFD9
:1036700000380240000000000000000000000000D0
:1036800008B5FFF735FB0A4B0A4A1968126801F0C2
:103690000E01114205D0084A596013680BB15068F9
:1036A0009847FFF73DFBBDE80840FFF799BF00BF13
:1036B000006002400860024070140020000000001A
:1036C00008B5FFF715FB0B4B0B4A1968126809097F
:1036D00001F00E01114206D00A015A60074A9368B0
:1036E0000BB1D0689847FFF71BFBBDE80840FFF718
:1036F00077BF00BF006002401C60024070140020D1
:1037000008B5FFF7F5FA0B4B0B4A19681268090A5E
:1037100001F00E01114206D00A025A60074A1369ED
:103720000BB150699847FFF7FBFABDE80840FFF777
:1037300057BF00BF0060024030600240701400209C
:1037400008B5FFF7D5FA0B4B0B4A19681268090B3D
:1037500001F00E01114206D00A035A60074A93692C
:103760000BB1D0699847FFF7DBFABDE80840FFF7D7
:1037700037BF00BF00600240446002407014002068
:1037800008B5FFF7B5FA0B4B0B4A19681268090C1C
:1037900001F00E01114206D00A045A60074A136A6A
:1037A0000BB1506A9847FFF7BBFABDE80840FFF736
:1037B00017BF00BF00600240586002407014002034
:1037C00008B5FFF795FA0B4B0B4A19681268090DFB
:1037D00001F00E01114206D00A055A60074A936AA9
:1037E0000BB1D06A9847FFF79BFABDE80840FFF796
:1037F000F7BE00BF006002406C6002407014002001
:1038000008B5FFF775FA0B4B0B4A19681268090ED9
:1038100001F00E01114206D00A065A60074A136BE6
:103820000BB1506B9847FFF77BFABDE80840FFF7F4
:10383000D7BE00BF006002408060024070140020CC
:1038400000230A4A30B5136014251A46084C09496A
:1038500005FB03404068026041F833200133072B29
:10386000F6D14FF0FF32044B5A6030BD6813002090
:10387000F0400008701400200060024000000000CA
:103880002DE9F8430F4690469946044610B91C4866
:10389000FFF786FC01201B4D627C2E6800FA02F3C4
:1038A00033422BD11848730640F8328000EBC20037
:1038B000C0F804904FF00E0001BF144AD36943F0E2
:1038C0008073D36163681A6822F00F021A60217C4A
:1038D00022688840506000221A60A3681E4206D108
:1038E000B8F1000F03D03946A07CFFF7F1F80123AF
:1038F0000020627C93402A6813432B60BDE8F88364
:10390000D0400008681300207014002000380240E6
:1039100003460244934200D1704703F8011BF9E7C4
:10392000F8B506460F4616F8014B00F079F820442A
:10393000437817F8015B03F00303012B08BF203421
:1039400000F06EF82844437803F00303012B08BF0E
:103950002035601B01D1002DE5D1F8BD000000002D
:10396000134B2DE9F0411D680646AC6D0F46B4B906
:10397000502000F065F8A865046044608460C4606D
:103980000461446184618462C46204634463846347
:10399000C463046444648464C46404774462AA6DA8
:1039A00039463046BDE8F041012300F009B800BFB8
:1039B00000080020000000000000000000000000DF
:1039C000F0B518B9106808B9F0BD204604460F4696
:1039D00014F8015B17F8016B1EB965B9156028462C
:1039E000F0BDB542F6D1002BEFD114600370F0BDED
:1039F0001C460CE015B90E4614F8013B16F8015BA5
:103A0000AB42F7D1002BF3D0002304F8013C146043
:103A1000F0BD0000000000000000000000000000F9
:103A2000044B054A1B681B6A002B08BF1346D3F8DA
:103A3000EC0070470008002064080020000000002F
:103A4000024B0146186800F01BB800BF00080020B8
:103A500082B001B901A942B14BB113780B60127861
:103A6000101C18BF012002B070471046FBE76FF032
:103A70000100F8E700000000000000000000000066
:103A800070B5CD1C25F0030508350C2D38BF0C256D
:103A9000002D064601DBA94203D90C233360002028
:103AA00070BD00F06DF8234A1468214691B9224C8C
:103AB00023681BB9304600F043F8206029463046A1
:103AC00000F03EF8431C26D10C233046336000F052
:103AD0005FF8E4E70B685B1B1AD40B2B0FD90B6064
:103AE000CC18CD50304600F053F804F10B00231DE4
:103AF00020F00700C31A1BD05A42E25070BD8C421E
:103B00000BBF63684B681360636018BF0C46E9E73E
:103B10000C464968CAE7C41C24F00304A04205D03F
:103B2000211A304600F00CF80130CDD02560D9E7DD
:103B300070BD00BF6C130020701300200000000057
:103B400038B50023054C05460846236000F028F8E8
:103B5000431C02D1236803B12B6038BDA814002098
:103B600049B1FF2A8BBF8A230A700360012088BFF6
:103B70004FF0FF307047084670470000000000001B
:103B8000704700000000000000000000000000007E
:103B9000704700000000000000000000000000006E
:103BA000044B0246196809B90349196018680244B0
:103BB0001A60704774130020AC140020000000004D
:103BC000030406080C10182030000000000000005C
:103BD00000010203040607080900000000000000BD
:103BE0000004024001000000000400400400000046
:103BF00000000000FF000000000402400000000080
:103C0000000400400300000000000000FF0000006E
:103C10000004024005000000000400400200000013
:103C200000000000FF000000000000000000000095
:103C30006368537973556E6C6F636B00000000000E
:103C4000434320527374204661696C0D0043432046
:103C500057204661696C0D00434320522F57204680
:103C600061696C3B2072706C3D25750D00434320EB
:103C700052204661696C0D00434320696E697420CF
:103C80006F6B0D000000000000000000000000004D
:103C90000000000000000000310C000800000000DF
:103CA000005400400004024008000900801A060089
:103CB00054410008684100089200000082000000A2
:103CC0006932634320427573790D000000000000E3
:103CD0006368537973556E6C6F636B00000000006E
:103CE000556E68616E646C65642025530D0000009C
:103CF000414842467265713D25754D487A3B2041E9
:103D0000504231467265713D25754D487A3B2041E0
:103D1000504232467265713D25754D487A0D00005E
:103D2000566563746F7235380000000000000000B3
:103D3000566563746F723543000000000000000098
:103D4000566563746F72363000000000000000009A
:103D5000566563746F723634000000000000000086
:103D6000566563746F723638000000000000000072
:103D7000566563746F723943000000000000000054
:103D8000566563746F72453000000000000000004B
:103D90006368537973556E6C6F636B0000000000AD
:103DA000202C0000000000000000000000000000C7
:103DB0000000000000000000611C0008411F000816
:103DC000C11E0008E11E0008D11C0008D121000816
:103DD00064FBFFFF00000000C51E0008E51E000890
:103DE00060FBFFFF00000000D5210008EF1C000869
:103DF0006368537973556E6C6F636B00000000004D
:103E00000000000000000000C1260008E1210008B9
:103E100001230008712200080000000000000000DB
:103E200041636B2025640D0A0000000000000000C3
:103E30006368537973556E6C6F636B00000000000C
:103E400032303139303132305F3136353200476906
:103E500067616E6461000D25532025530D00506984
:103E60006E670056657273696F6E0050696C6C3ACC
:103E70002025750D0050696C6C20646973636F6E4A
:103E80006E0D00556E68616E646C6564204D7367DD
:103E90002025750D0000000000000000000000005B
:103EA00080440008AC140020AC140020AC140020A6
:103EB0008044000800000000000000000000000036
:103EC0008044000800000000000000000000000026
:103ED0008044000800000000000000000000000016
:103EE0008044000800000000000000000000000006
:103EF00080440008000000000000000000000000F6
:103F000080440008000000000000000000000000E5
:103F100080440008000000000000000000000000D5
:103F200073745374617274416C61726D00000000AF
:103F30007374536574416C61726D00000000000081
:103F40005356233300000000000000000000000072
:103F5000535623380000000000000000000000005D
:103F6000535623390000000000000000000000004C
:103F70005356233400000000000000000000000041
:103F8000535623360000000000000000000000002F
:103F90005356233500000000000000000000000020
:103FA000535623370000000000000000000000000E
:103FB00053562331300000000000000000000000D4
:103FC00053562331310000000000000000000000C3
:103FD00063685363685265616479490000000000BA
:103FE000636853636857616B657570530000000028
:103FF000737461636B206F766572666C6F77000017
:10400000636853656D4F626A656374496E697400D5
:10401000636853656D5761697454696D656F757434
:10402000530000000000000000000000000000003D
:10403000636853656D5369676E616C4900000000E9
:1040400063685654446F5469636B49000000000074
:104050006368537973556E6C6F636B0000000000EA
:104060006368546864536C65657053000000000019
:1040700063685468644372656174654900000000B8
:104080006368546864457869745300000000000058
:10409000636854686453757370656E645300000000
:1040A0006368546864526573756D6549000000006B
:1040B00063685654446F5365744900000000000063
:1040C00063685654446F526573657449000000007C
:1040D000646D6153747265616D416C6C6F63617482
:1040E000650000000000000000000000000000006B
:1040F0000060024008600240010000000000000073
:1041000000000B00006002401C6002400200000042
:104110000000000004010C0000600240306002401A
:10412000040000000000000008020D0000600240D2
:104130004460024008000000000000000C030E0074
:1041400000600240586002401000000000000000C3
:1041500010040F00006002406C600240200000006C
:104160000000000014051000006002408060024062
:1041700040000000000000001806110000000000D0
:104180004300504F53495800000000000000000059
:104190002E000000000000000000000000000000F1
:1041A0000020202020202020202028282828282007
:1041B00020202020202020202020202020202020FF
:1041C0002088101010101010101010101010101067
:1041D0001004040404040404040404101010101057
:1041E0001010414141414141010101010101010121
:1041F0000101010101010101010101011010101073
:1042000010104242424242420202020202020202F2
:104210000202020202020202020202021010101046
:10422000200000000000000000000000000000006E
:10423000000000000000000000000000000000007E
:10424000000000000000000000000000000000006E
:10425000000000000000000000000000000000005E
:10426000000000000000000000000000000000004E
:10427000000000000000000000000000000000003E
:10428000000000000000000000000000000000002E
:10429000000000000000000000000000000000001E
:0142A000001D
:0442A400F8B500BFAA
:0442A800F8B500BFA6
:1042B00004080020000000000000000000000000D2
:1042C00000000000000000000000000000000000EE
:1042D00000000000000000000000000000000000DE
:1042E00000000000000000000000000000000000CE
:1042F00000000000000000000000000000000000BE
:1043000000000000000000000000000000000000AD
:10431000000000004300000000000000000000005A
:10432000000000000000000000000000000000008D
:10433000000000004300000000000000000000003A
:10434000000000000000000000000000000000006D
:10435000000000004300000000000000000000001A
:10436000000000000000000000000000000000004D
:1043700000000000430000000000000000000000FA
:10438000000000000000000000000000000000002D
:1043900000000000430000000000000000000000DA
:1043A000000000000000000000000000000000000D
:1043B00000000000430000000000000000000000BA
:1043C00000000000000000000000000000000000ED
:1043D000000000004300000000000000000000009A
:1043E00000000000000000000000000000000000CD
:1043F00000000000613B0008513A00080000000086
:10440000A041000890410008283E0008283E00080E
:10441000283E0008283E0008283E0008283E0008E4
:10442000283E0008283E0008283E0008FFFFFFFF46
:10443000FFFFFFFFFFFFFFFFFFFF000001004153F1
:104440004349490000000000000000000000000097
:1044500000000000000000000000000000004153C8
:104460004349490000000000000000000000000077
:10447000000000000000000000000000000000003C
:04000005080001E10D
:00000001FF
