:020000040800F2
:1000000000040020D1010008312A0008312A00082C
:10001000312A0008312A0008312A0008312A000854
:10002000312A0008312A0008312A0008F13300087B
:10003000312A0008312A0008312A0008312A000834
:10004000312A0008312A0008312A0008312A000824
:10005000312A0008312A0008E10F00083110000899
:1000600081100008D110000821110008B1340008E7
:10007000F13400083135000871350008B135000849
:10008000F135000831360008312A0008312A00080D
:10009000312A0008312A0008312A000871110008AD
:1000A000312A0008312A0008312A0008312A0008C4
:1000B00091290008312A0008312A0008312A000855
:1000C000312A0008312A0008312A0008312A0008A4
:1000D000312A0008312A0008312A0008312A000894
:1000E000C1110008312A0008312A0008312A00080D
:1000F000312A0008312A0008312A0008312A000874
:10010000312A0008312A0008312A0008312A000863
:10011000312A0008312A0008312A0008312A000853
:10012000312A0008312A0008312A0008312A000843
:10013000312A0008312A0008312A0008312A000833
:0C01400075010008E10B0008C123000855
:04014C005101000855
:1001500010B5054C237833B9044B13B10448AFF301
:1001600000800123237010BDD8090020000000008A
:10017000FC41000808B5034B1BB103490348AFF32A
:10018000008008BD00000000DC090020FC410008E0
:100190002DE9F04FC1F80CD0C3689D46BDE8F08F43
:1001A00002F06EFC002383F311882846A04700204C
:1001B00003F01EF802F054FC02F03AFE02F060FC7C
:1001C00000DFFEE70000000000000000000000006B
:1001D00072B6234880F30988022080F31488BFF3A5
:1001E0006F8F02F03DFB02F043FB4FF055301D498D
:1001F0001D4A91423CBF41F8040BFAE71B49184ADB
:1002000091423CBF41F8040BFAE71949194A1A4BCD
:100210009A423EBF51F8040B42F8040BF8E7002065
:100220001649174A91423CBF41F8040BFAE702F025
:1002300037FB02F025FB134C134DAC4203DA54F8A4
:10024000041B8847F9E701F05BFF104C104DAC42EE
:1002500003DA54F8041B8847F9E702F019BB0000E1
:1002600000080020000000200004002000040020FE
:100270000042000800080020D4090020D80900200E
:10028000AC140020400100084C0100084C0100089B
:100290005001000800000000000000000000000005
:1002A00008B502F0EDFB084B1A689A4207D01B69AB
:1002B00099689368994202D2044802F081FE0023B3
:1002C00083F3118808BD00BF78130020F03B0008BD
:1002D000104B984205D1104AD36943F00103D36112
:1002E00070470E4B984204D10B4AD36943F0020386
:1002F000F5E70B4B984204D1074AD36943F0040356
:10030000EDE7084B9842EBD1034AD36943F0080369
:10031000E5E700BF00000240003802400004024050
:1003200000080240000C0240000000000000000035
:1003300070B504461546FFF7CBFF0323022648009D
:100340008340DB4306FA00F0012622688E401A4003
:1003500022602268072942EA000222606268C8BF60
:10036000083922EA06026260E2684FEA810102EA85
:100370000302E260E268E260A26803EA0203A360AB
:10038000A3684FF00F0240EA0300CCBF0123002313
:10039000A06004EB8304236A8A4023EA02032362F9
:1003A000226A05FA01F11143216270BD00000000CC
:1003B0000368197303689A68D207FCD5187B7047E5
:1003C0000123C28981689340034A0869184002D01A
:1003D000013AFAD101207047B88201000000000004
:1003E0000123418A82688B409361704700000000BE
:1003F000438A816803F11002012393408B617047A7
:1004000008B27F28C8BFA1F580704FF00201C8BFB5
:1004100000B290FBF1F04A3840B270470000000093
:100420002DE9F041054688461746FFF7E1FF2846CB
:10043000FFF7C6FF044630B12846FFF7D1FF01247D
:100440002046BDE8F0812E1D48F080013046FFF7C0
:10045000AFFF21463046FFF7ABFF38702846FFF765
:10046000BFFFEDE7000000000000000000000000FA
:100470002DE9F041044688461746FFF7B9FF2046AC
:10048000FFF79EFF054630B12046FFF7A9FF012583
:100490002846BDE8F081261D41463046FFF788FF1B
:1004A00039463046FFF784FF2046FFF799FFEFE714
:1004B00010B504460C220B21FFF7DAFF00220C21B5
:1004C0002046FFF7D5FF20220D212046FFF7D0FF61
:1004D00025220E212046FFF7CBFFED220F212046DB
:1004E000FFF7C6FF2D2210212046FFF7C1FF2F2264
:1004F00011212046FFF7BCFF132212212046FFF7EF
:10050000B7FFA32213212046FFF7B2FFFF221421D9
:100510002046FFF7ADFF00220A212046FFF7A8FF83
:10052000622215212046FFF7A3FFB6222121204693
:10053000FFF79EFF102222212046FFF799FF082295
:1005400018212046FFF794FF1D2219212046FFF7AE
:100550008FFF1C221A212046FFF78AFFC7221B218A
:100560002046FFF785FF00221C212046FFF780FF71
:10057000B0221D212046FFF77BFFEA2223212046DF
:10058000FFF776FF2A2224212046FFF771FF002281
:1005900025212046FFF76CFF1F2226212046FFF76A
:1005A00067FF88222C212046FFF762FF31222D2190
:1005B0002046FFF75DFF09222E212046FFF758FF56
:1005C0000C2203212046FFF753FF0722002120467B
:1005D000FFF74EFF062202212046FFF749FF0C22BB
:1005E00007212046FFF744FF442208212046FFF759
:1005F0003FFF50223E212046FFF73AFF07221621F7
:100600002046FFF735FF2046BDE8104000221721A5
:10061000FFF72EBF000000000000000000000000F7
:1006200070B504460E46FFF7E3FE2046FFF7C8FE0E
:10063000054628B12046FFF7D3FE0125284670BDA8
:100640003146201DFFF7B4FE20772046FFF7C8FE95
:10065000237F03F070032377F0E700000000000021
:100660002DE9F7434368974A0446934200F0C88057
:10067000A2F5784293420CBF4FF005084FF00608F0
:100680000325A168678A0846FFF722FE7B00DBB2DC
:1006900005FA03F2D2430126086806FA07F710406C
:1006A0000860D1F800E006FA03F040EA0E000860A6
:1006B000486820EA07074F600227486807FA03F3F3
:1006C0004860C8681040C860C868C8608868024050
:1006D0008A608A68A06813438B604246A189FFF74D
:1006E00027FE4246E189A068FFF722FE4246218AA2
:1006F000A068FFF71DFE6169237E0846B3405FFADC
:1007000083F894F81A90FFF7E3FD05FA08F5ED4336
:100710000B68208B2B400B60CB681D40CD600F25F4
:10072000CA6809FA08F31343674ACB60136A00F0FA
:1007300003013343136200F47F7303F1804303F535
:1007400080339A68B9408D4022EA05029A605F4D75
:100750006269AA4257D19F688E403E439E60012243
:100760005B4B8240196811431960D14358680840B7
:100770005860986801409960D96820461143D96053
:100780005A61FFF72DFE4F4B626852499A42524B15
:1007900041D18968B1FBF3F3802B53D8402B53D858
:1007A000202B47D8102B47D8082B47D8042B47D8E5
:1007B000022B94BF0023012342498A4231D142488F
:1007C000016A41F4805101624FF441711160116876
:1007D000204641EAC30313600023536013683021AD
:1007E00043F040031360FFF71BFF00282ED0626820
:1007F0003A48136823F04003136000F021FF3DE006
:100800004FF005083CE7364DAA4201BF9E688F4075
:1008100037439F60A3E74968B1FBF3F3802B4CD9C2
:10082000072330498A4201BF2748416A41F4804189
:100830004162C9E70523BFE70423BDE70323BBE704
:100840000223B9E70723BAE70623B8E70722062100
:100850002046FFF70DFE08B12348CEE702AA02F8B2
:10086000010D06212046FFF7DBFD054658B99DF82E
:100870000710072909D01D4800F0E2FE012528468F
:1008800003B0BDE8F0831A48B7E73A212046FFF7E6
:10089000C7FE2046FFF70CFE208B092809DC042840
:1008A00009DC0630072102F023F8124800F0C8FEE8
:1008B000E5E72820F6E71720F4E7402B7FF670AF36
:1008C0000623AEE700300140003802400004024039
:1008D00000040140D80B0020A02E6300A03B0008BC
:1008E0000008024000380040AD3B0008B83B00085B
:1008F000CD3B0008D83B00080000000000000000CD
:1009000038B504460D46237F23B136212046FFF734
:1009100087FEF8E72A462046BDE838400A21FFF75F
:10092000A7BD000000000000000000000000000063
:100930002DE9F3478946904678210DF107020446D8
:100940009A46FFF76DFD70B99DF90730002B0ADA62
:100950002046FFF74DFD2046FFF732FD054620B14A
:100960002046FFF73DFD012529E0261DFF213046E9
:10097000FFF71EFD4F46A7EB0903DBB253454FF0CF
:100980000001304606DAFFF713FD8DF8070007F87F
:10099000010BF0E7FFF70CFD00218DF80700304652
:1009A000FFF706FD2046FFF71BFDB8F1000F06D04C
:1009B0009DF807102046FFF723FD88F80000284621
:1009C00002B0BDE8F0870000000000000000000059
:1009D0002DE9F04188463A211F4604461546069EF9
:1009E000FFF71EFE202383F3118802F039F834212B
:1009F0002046FFF715FE42F210714FF47A7301FBA7
:100A000008F101F2E731B1FBF3F104F1200089B202
:100A100002F0FEFB8046FFF743FCB8F1FF3F07D032
:100A20003B46324629462046BDE8F041FFF780BFED
:100A300036212046FFF7F4FD0220BDE8F0810000DA
:100A4000416A10B5044619B188470023636210BD9E
:100A50002030BDE8104002F0FBBB000000000000A9
:100A6000112910B50C4603D939210848FFF7D8FDE4
:100A700042F210704FF47A736043BDE8104000F208
:100A8000E730B0FBF3F080B202F092BBF409002033
:100A9000044683B5234D0A2631462846FFF730FF2A
:100AA00036212048FFF7BCFD10B300940423621DDB
:100AB00024212846FFF78CFF80B96369072B0DD8E6
:100AC000D4F8052003F10C00D2B204F10C0120444B
:100AD000814221D011F8017BBA42F9D10136F6B238
:100AE0000E2ED9D140F22A312046FFF7B9FFD2E7C6
:100AF0002B7F002BD4D133212846FFF791FD00280E
:100B0000D3D10122EB89A9689A40074B08691042AA
:100B1000CBD0013BFAD1C8E7E11801330A73636116
:100B2000DCE700BFF4090020B882010000000000EB
:100B300008B50148FFF7ACFF1C0A002000000000C8
:100B4000214A13B5D369214843F00403D361204BF4
:100B50001A6822F040621A601A6842F080621A60D5
:100B60005A6822F400525A605A685A60DA6822F0D1
:100B70004062DA60DA68DA609A6822F040629A606D
:100B80009A6842F000629A60FFF76AFD0446C0B9B5
:100B9000042206210D48FFF76BFC21460B48FFF7A6
:100BA000AFFE50223E210948FFF762FC0094094B3A
:100BB0007F224FF4D071084802F0CAFA204602B0F2
:100BC00010BD0124FAE700BF00380240F4090020FC
:100BD00000080240310B0008380A00200000000025
:100BE00005210E4B0E4A998106211A600D4AD981C2
:100BF00007215A6002F550425A619A600322198215
:100C000004211A830022598207499A76CB601A7709
:100C10001A625A62054B5A61704700BFF4090020FE
:100C2000083C000800300140E40B00201C0A0020B2
:100C3000202383F3118801F03BBF00000000000077
:100C400008B501F04DFF002383F3118808BD0000B3
:100C500010B50446FFF7ECFF236820461B68984751
:100C6000BDE81040FFF7ECBF0000000000000000EE
:100C7000074B5A68D2070AD5064ADA60064ADA6094
:100C80004FF480729A615A6822F480725A607047F9
:100C9000003C0240EFCDAB890504030200000000D8
:100CA00073B5837E1D4C8DF80730054601F060FF5B
:100CB000D4F8AC30002B19DD01F05AFFD4F8AC3079
:100CC0000099013BC4F8AC30D4F89430144803F1D7
:100CD0000802C4F8942019600199596004F1900346
:100CE0009A4228BFC4F8944002F0F2F8EB7E012B40
:100CF00011D12E8B01F03CFF2B692C1D13B1204626
:100D000002F026FB2B4631462046064A02B0BDE8DB
:100D1000704002F0C5BA02B070BD00BF000C0020E8
:100D2000980C0020510C000800000000000000009A
:100D300046230E4A9169C90710D49169C9050FD499
:100D4000916911F4F05F14BF01200020013B0328DA
:100D50009BB207D1002BEDD1022070470320F5E7AD
:100D60000D20F3E7002B08BF02207047003C024033
:100D70000368B3F1804F05D1224A536A43F001035F
:100D800053627047204A934205D102F50D32536AEF
:100D900043F00203F4E71D4A934205D102F50C32F9
:100DA000536A43F00403EBE7194A934205D102F575
:100DB0000A32536A43F01003E2E7164A934205D120
:100DC00002F50932536A43F02003D9E7124A9342ED
:100DD00006D102F59832136A43F004031362704798
:100DE0000E4A934205D102F59632136A43F0080386
:100DF000F4E70B4A9342F2D102F59432136A43F0BE
:100E00001003EBE7003802400004004000080040F7
:100E1000001000400014004000080140000C014098
:100E20000010014000000000000000000000000071
:100E3000F8B50446FFF79CFF826903680169DA622E
:100E4000027D0139012A0CBF0722062203290BD893
:100E5000DFE801F0026A727A996941EA02129A6146
:100E60001A6A42F001021A621A6842F001021A601C
:100E7000494A934270D002F5806293426CD002F5E9
:100E8000803293426AD002F58062934266D002F5C6
:100E9000806293420CBF0322012263683F4821898C
:100EA0008342667D5CD13E4CE06940F00100E06128
:100EB00003204D00A840C0431C6804401C6002246D
:100EC0001F68AC403C431C600124002E60D15E686A
:100ED0008C4026EA04045C60DC68072904EA00040C
:100EE000DC60DC68C8BF0839DC609C684FEA8101BF
:100EF00000EA040098604FF002009C6800FA05F0D8
:100F000040EA04009860CCBF012000200F2403EBCE
:100F10008003186A8C4020EA04001862186A02FAFA
:100F200001F101431962F8BD996941EA02329A61FF
:100F30001A6A42F0100296E7D96941EA0212DA61B0
:100F40001A6A42F480728EE7D96941EA0232DA61A4
:100F50001A6A42F4805286E702229EE703229CE747
:100F60001048834204D10E4CE06940F002009EE735
:100F70000D48834204D10A4CE06940F0040096E732
:100F80000A48834294D1064CE06940F008008EE79D
:100F90005E688C4034439EE700040040000002403D
:100FA000003802400004024000080240000C0240E9
:100FB00038B504460D46FFF75BFEFFF7B9FE30B9C2
:100FC00004F1006000F500200560FFF7B1FE034A60
:100FD000536843F00103536038BD00BF003C02403A
:100FE00008B501F095FDFFF723FE0B4B186868B1BB
:100FF00003681B6898470122084B5A61FFF720FEDF
:1010000001F09EFDBDE8084002F002BA044905481F
:1010100000F036FBEFE700BFE40B002000040140C6
:10102000603C0008103C00080000000000000000C8
:1010300008B501F06DFDFFF7FBFD0B4B586868B17B
:1010400003681B6898470222084B5A61FFF7F8FDB6
:1010500001F076FDBDE8084002F0DAB90449054820
:1010600000F00EFBEFE700BFE40B0020000401409E
:10107000703C0008103C0008000000000000000068
:1010800008B501F045FDFFF7D3FD0B4B986868B13B
:1010900003681B6898470422084B5A61FFF7D0FD8C
:1010A00001F04EFDBDE8084002F0B2B90449054820
:1010B00000F0E6FAEFE700BFE40B00200004014077
:1010C000803C0008103C0008000000000000000008
:1010D00008B501F01DFDFFF7ABFD0B4BD86868B1FB
:1010E00003681B6898470822084B5A61FFF7A8FD60
:1010F00001F026FDBDE8084002F08AB90449054820
:1011000000F0BEFAEFE700BFE40B0020000401404E
:10111000903C0008103C00080000000000000000A7
:1011200008B501F0F5FCFFF783FD0B4B186968B1BA
:1011300003681B6898471022084B5A61FFF780FD2F
:1011400001F0FEFCBDE8084002F062B90449054820
:1011500000F096FAEFE700BFE40B00200004014026
:10116000A03C0008103C0008000000000000000047
:1011700008B501F0CDFCFFF75BFD0B4B186870B1B3
:1011800003681B6898474FF47872084B5A61FFF761
:1011900057FD01F0D5FCBDE8084002F039B904491B
:1011A000044800F06DFAEEE7FC0B0020000401405B
:1011B000B03C0008103C00080000000000000000E7
:1011C00008B501F0A5FCFFF733FD0B4B186870B1B3
:1011D00003681B6898474FF47C42084B5A61FFF73D
:1011E0002FFD01F0ADFCBDE8084002F011B9044943
:1011F000044800F045FAEEE7F80B00200004014037
:10120000C03C0008103C0008000000000000000086
:1012100070B592B02022002104460AA802F090FA8C
:101220004FF480330A934FF400330B934FF4802331
:101230000C933D4B03AA0D933C4B06AE0E933C4BD7
:101240000F933C4B10933C4B5968186803C2197AB2
:10125000117003F1090219333546106851680832DC
:1012600003C59A422E46F7D100238DF804308DF83D
:1012700005308DF806308DF8073001238DF80830E1
:1012800002238DF8093003238DF80A3004232B49FB
:101290008DF80B308B68C3F38103022B05D0032B31
:1012A0002BD0012B20D1264B00E0264B234812A93E
:1012B0008268C2F303120A4412F8302CD340236030
:1012C00081688268C1F3022112A8C2F3C2220144DC
:1012D000024411F8441C12F8442C23FA01F1D340C3
:1012E0006160A36012B070BD4B6812AAC3F34233B1
:1012F00002EB830353F8203CD8E78B6812AAC3F3B0
:10130000834313448A6889680E4811F4803F0C496E
:1013100018BF014613F83C3CC2F381524B430132E3
:10132000B3FBF2F3C2E700BF9CFF0700C0FD0F0054
:1013300068FF1F00D0FE3F00303B0008003802402D
:101340000024F400001BB7000000000000000000B3
:101350000D4B0E4A99420E4B06D00E48814203D0E7
:1013600000F58060814206D192689868C2F3C2227B
:10137000032A07D8704792685868C2F30222032AEA
:1013800000D8704740007047000801400038024014
:10139000D80B0020000C01400000000000000000FD
:1013A00038B504460D4601680748FFF7D1FF2268AB
:1013B000D36A0133B0FBF3F0B0FBF5F000B10138B4
:1013C00000239062536238BDD80B0020000000005B
:1013D00006480749836805C8B3FBF1F3B2FBF1F295
:1013E000B0FBF1F1034800F02BB900BFD80B00208F
:1013F00040420F00203C00080000000000000000F8
:101400004FF08052084B5A62084A11465368DB0677
:10141000FCD4136823F4C05343EAC02010604B6827
:10142000DB06FCD4704700BF00380240007000406B
:1014300008B501F025FB084B1A689A4207D01B69D2
:1014400099689368994202D2044801F0B9FD0023DB
:1014500083F3118808BD00BF78130020D03C00083A
:101460002DE9F04305469846002485B09DF830905C
:1014700001AEB1FBF2F302FB1310092804F10104E1
:1014800094BF30303730C0B23719194607F8010C15
:10149000002BEED1274647450DD22B6849461B68E5
:1014A0002846984718B10B2005B0BDE8F0830137F6
:1014B000F1E7002CF8D02B68013C1B68315D284611
:1014C00098470028F5D0EEE700000000000000007B
:1014D0002DE9F04F0B46054614464FF00A0B85B038
:1014E00019785E1C31B928462B685B6805B0BDE8E9
:1014F000F04F1847252905D02B6828461B689847C8
:1015000048B3F0E75F784FF00008302F14BF202772
:101510009E1C16F8011BA1F13003DBB2092B03D985
:101520002A2904D1237804340BFB0838F1E72E294B
:1015300009D116F8011BA1F13003092BF9D92A2989
:1015400001D10434F5E7632939D017D841294ED0A9
:1015500003D82529D0D03346C2E7532939D058299A
:10156000F9D14346102204F1040900972168284666
:10157000FFF776FF0028B6D14C46ECE7692902D088
:1015800013D86429E7D104F104092468002C07DA90
:101590002B682D211B68284698470028A3D1644258
:1015A000009743460A222146E1E7732911D07529A5
:1015B000D1D104F10409009743460A22D6E72B68EB
:1015C00021781B682846271D984700288BD13C4668
:1015D000C1E72768013F17F8011F09B90434BAE7CA
:1015E0002B6828461B6898470028F4D07BE7002723
:1015F0002368D4F80880D4F8049003935FFA88FA3B
:101600004F4501DB0C34A6E7002F0DDC039B1022B5
:10161000D95D3023284600930223FFF721FF0028DD
:101620007FF461AF0137EBE7B8F1000FEED02B6824
:1016300051461B68284698470028E7D053E700002A
:101640000FB413B504AB53F8044B0193202383F379
:10165000118801F005FA019A21460548FFF738FF85
:10166000FFF7E6FE02B0BDE8104004B0704700BFCF
:10167000F011002000000000000000000000000049
:101680000FB407B504AA52F8041B04480192FFF7EF
:101690001FFF03B05DF804EB04B07047F0110020A9
:1016A0007047000000000000000000000000000083
:1016B00010B52023044683F3118801F0F9F923685B
:1016C00020465B68984701F00BFA002383F31188EA
:1016D00010BD00000000000000000000000000003D
:1016E00008B501F0CDF9084B1A689A4207D01B697A
:1016F00099689368994202D2044801F061FC002382
:1017000083F3118808BD00BF78130020303D000826
:101710000EB403B503AA52F8041B00F29C400192D8
:10172000FFF7D6FE02B05DF804EB03B07047A0F5FA
:101730009460EDE7000000000000000000000000E1
:10174000F0B5324CA04244D1314DEC6944F0010473
:10175000EC6103244E00B440E44305682540056075
:1017600002250768B5403D4305600125002A48D1A0
:1017700042688D4022EA05054560C268072902EAF1
:101780000402C260C56803FA06F242EA0502C260BA
:101790008368C8BF083904EA03044FF00203846079
:1017A000826803FA06F343EA02038360CCBF012395
:1017B00000230F2200EB8300036A89008A4023EA9A
:1017C000020303620723026A03FA01F11143016273
:1017D000F0BD104CA04204D10D4DEC6944F0020460
:1017E000B6E70D4CA04204D1094DEC6944F0040465
:1017F000AEE70A4CA042ACD1054DEC6944F00804B8
:10180000A6E742688D401543B6E700BF00000240DE
:10181000003802400004024000080240000C024070
:1018200010B5D0F80844D0F8142400F581631B1BD0
:10183000934228BF1346C0F818346BB100224168A8
:1018400080F810248A695268D46053600B6A136070
:10185000136843F00103136010BD00000000000096
:1018600043689B6959680A6822F00F020A60197C74
:101870001A680E238B405360D0F81814D0F8143433
:10188000D0F808245B1A0A4400F581618A4228BF17
:1018900000F10802C0F81434C0F808242BB9012361
:1018A00080F8103403681B681847FFF7B9BF0000C1
:1018B000FFF7D6BF0000000000000000000000009D
:1018C000D0F81434B3F5806F16D2D0F80C345A1C0B
:1018D000C0F80C241970D0F80C2400F581639A42EA
:1018E00024BF00F10803C0F80C34D0F814340133DD
:1018F000C0F81434002070470B207047000000002F
:10190000FFF7DEBFA0F19C00A0F58060F8E70000C3
:1019100090F810340BB1FFF783BF70470000000050
:10192000FFF7F6BFA0F19C00A0F58060F8E700008B
:101930004368D0F82004DB695B685B68C3F163032C
:10194000181A48BF63307047000000000000000014
:1019500008B50246FFF7ECFF80B1D2F82034581CDE
:10196000C2F82004134493F8243400200B70D2F8FA
:101970002034622B03DDC2F8200408BD0A2008BD14
:101980002DE9FF41044600F5916501F0F1F8D4F826
:10199000943413B1284601F0DBFC23463A4A632114
:1019A000284601F07DFC94F88734002B68D0374D31
:1019B000374E05F190070DF107012046FFF7C8FFEC
:1019C00000285DD194F80C259DF8073042B1082B12
:1019D00084F80C05C4F80805EDD00D2B0CD1EAE70E
:1019E000082B07D1D4F80835002BE4D0013BC4F80C
:1019F0000835E0E70D2B01D00A2B36D1D4F8083595
:101A0000002BD8D04FF00008234483F8A48431463B
:101A100004F2A44001F0BCFE0123C4F8100584F8D0
:101A20000C3584F887848DF80F3001F0A1F8D5F8D3
:101A3000AC304345BFDD01F09BF8D5F8AC3004F580
:101A40009461013BC5F8AC30D5F89430114803F1EE
:101A50000802C5F8942019600399BA42596028BF5A
:101A6000C5F8945001F034FAA5E7D4F80825612AA6
:101A7000A1D8511C2244C4F8081582F8A4349AE76E
:101A800004B0BDE8F08100BFB1160008000C0020D2
:101A9000E03C0008980C002000000000000000005E
:101AA0004168064A4B6809689342054A0CBF926830
:101AB0005268B2FBF1F29A60704700BF00380140F3
:101AC000D80B002000000000000000000000000013
:101AD00038B50023044640681A4681898068FFF7BC
:101AE0002FFE63682D4A5B68934243D102F5803232
:101AF000136A43F48043136200252046FFF7D0FFAA
:101B00006068274A436809211D618069234601F006
:101B1000CFFD6068836942685B68111D9960016A46
:101B2000196001230C2184F81034D160C021516167
:101B30001A46818A0069FFF703FE60682B462A4631
:101B40000F21C06901F0B4FD616804F22444CB693F
:101B50004A685B68101D98606320496ADC605860C1
:101B60001960196841F001011960D36843F400530A
:101B7000D36038BD0B4A934206D102F5FA32536A5C
:101B800043F400335362B7E7074A9342B4D102F5F6
:101B9000F832536A43F48023F4E700BF0038014071
:101BA000B118000800440040004800400000000058
:101BB00038B5044600F59165202383F3118800F0C1
:101BC0004FFF00F0D5FFD4F8943413B1284601F04C
:101BD000BFFB23462846044A632101F061FBBDE8B0
:101BE0003840FFF77DBD00BFB116000800000000BF
:101BF00010B52023044683F3118800F031FF012340
:101C000084F88734BDE81040FFF76ABD000000008B
:101C1000FFF7EEBFA0F59460FAE7000000000000B7
:101C200073B50024642603688DF804408DF80540E0
:101C30008DF806408DF80760DB68019905469847E6
:101C40008DF804408DF805408DF806408DF807604A
:101C5000019BC5F8843002B070BD00000000000098
:101C600010B5044600F084FFE36823B12046BDE8C8
:101C7000104001F06DBB10BD00000000000000002E
:101C800008B500F0FDFE084B1A689A4207D01B69A0
:101C900099689368994202D2044801F091F90023AF
:101CA00083F3118808BD00BF78130020803D000831
:101CB0006FF0404313B5C26B01919C18C26AC9B260
:101CC00002EB84025163826D9918826C02EB8102EF
:101CD0009DF805105163426F1344426E02EB83037B
:101CE0009DF806205A6302B010BD000000000000FD
:101CF00003680A465B680149184700BF703D000849
:101D00000022642313B58DF807308DF804208DF878
:101D100005208DF80620019C254BC3F80540254C75
:101D20002478062C1BD8DFE804F0040C1C242C3289
:101D30003B00A1B1FF228DF804208DF80520002280
:101D400005E061B1FF218DF804208DF805108DF8B4
:101D5000062064228DF80720019AC3F8052002B0FE
:101D600010BD0029FBD0FF228DF804208DF805203E
:101D7000EDE70029F3D08DF804208DF80520FF222F
:101D8000E5E730B1FF228DF804200022EEE70028BD
:101D9000D0D10029E3D08DF804008DF80500EEE7DE
:101DA0000028F6D0E5228DF804205322C5E700BFB5
:101DB0004F13002018130020000000000000000056
:101DC00070B5041D054620460E46FFF749FF42F256
:101DD00010724FF47A7302FB06F101F2E731B1FBA6
:101DE000F3F120462B46BDE87040024A89B201F06B
:101DF00057BA00BF510C00080000000000000000AE
:101E0000C369D0F88420D3F8051070B59142044618
:101E10000AD0D3F8015006684DB9F3689847E369D2
:101E2000D3F80520C4F884200933E3612DE090F84D
:101E3000842059798A422ADA013284F8842094F87D
:101E4000852099798A4225DA013284F8852094F830
:101E50008620D9798A4220DA013284F8862094F8E3
:101E600087201B7A9A421BDA013284F88720F368B4
:101E70002046D4F884109847E069D4F88420D0F83C
:101E800005309A420FD10930E061002070BDD6DDE7
:101E9000013AD2E7DBDD013AD7E7E0DD013ADCE7E2
:101EA000E5DD013AE1E794F884104279D0F8013099
:101EB0008A421CBF0431B3FBF1F194F88520857987
:101EC00014BF01310021954206D00432B3FBF2F277
:101ED0000132914238BF114694F88620C579954267
:101EE00006D00432B3FBF2F20132914238BF114600
:101EF00094F88720007A904206D00432B3FBF2F3C4
:101F00000133994238BF19462046FFF759FF012097
:101F100070BD000000000000000000000000000094
:101F200038B5044600F024FE236913B1201DFFF7E5
:101F300097FE4FF0FF35E3691A78042AFDD8DFE8F1
:101F400002F0030A141D4500236820469B68984749
:101F50000128F0D138BDD3F801100933E36100291D
:101F6000E9D02046FFF72CFF38BDD3F80130A26935
:101F700003EBC3031344E3610121F2E794F82B3030
:101F800003B31B4D00F0F4FDD5F8AC30002B19DD88
:101F900000F0EEFDD5F8AC301648013BC5F8AC308A
:101FA000D5F89430616A03F10802C5F894201960ED
:101FB000A16A596005F190039A4228BFC5F8945070
:101FC00000F086FF0023A361E36138BD226A01327D
:101FD00004BFD3F801202262226A1AB909332562AC
:101FE000E361A8E7A369013AE3612262A3E700BFC6
:101FF000000C0020980C00200000000000000000F1
:1020000038B504460D46202383F3118800F028FDDF
:102010004FF0FF3323622368A561E5611B6820460A
:102020009847BDE83840FFF72BBE000000000000D5
:10203000002213B52C4CFF2021782C4B0329D9BF4B
:102040008DF804208DF805208DF805208DF80620E8
:102050004FF06402D8BF8DF806008DF80720C8BF86
:102060008DF80400019AC3F80520062913D8DFE88B
:1020700001F02F041D232A2F36000022FF218DF8A6
:1020800004208DF805108DF8062064228DF80720B5
:10209000019AC3F8172015491548FFF7B1FF2178B9
:1020A000144802B0BDE81040FFF7CABAFF228DF80D
:1020B00004208DF80520E6E700228DF804208DF835
:1020C0000520FF22DFE7FF228DF804200022F0E741
:1020D000FF228DF804208DF805200022D3E7E522A9
:1020E0008DF804205322F6E718130020191300205E
:1020F000B00C0020603D000800000000000000005F
:102100002DE99F480320FFF77BF99148FFF780F8FE
:1021100000F0E6FB00F00CFF12218E4800F090FE6C
:1021200000218D4800F08CFE8C48FFF7D1FC8B48D5
:10213000FFF73EFD8A4A8B498B48FFF781FA8448B6
:10214000FFF746F90323894C894E04F12C003370C4
:10215000FEF76EFED4F8801004F12C00FFF720F992
:1021600004F14800FEF764FED4F8801004F1480042
:10217000FFF716F904F16400FEF75AFED4F8801058
:1021800004F16400FFF70CF900238DF808308DF896
:1021900009308DF80A3064238DF80B3002992046FF
:1021A000FFF786FD202383F31188724D00F058FC61
:1021B0002F8B281DFFF754FD281D2B466E4A3946EC
:1021C00001F06EF8FFF75CFD6C48FEF7B9FC0028E3
:1021D00043D1FFF72DFF6A4D05F1980705F19008EF
:1021E000002420238DF80F4083F3118800F038FC81
:1021F0004FF6FF71384600F033FE88B9D5F89030BD
:10220000544803F10802C5F890201C685B684245F9
:10221000039328BFC5F8905000F05AFE00F0F0FD7F
:10222000FFF72EFD9DF80F10012940D0022940F044
:102230008480544C236833B1013B23601BB952495D
:102240004A48FFF7DDFE514A1368002BC8D0B3F1AE
:10225000010907D0C2F80090C2E74D492046FFF7B8
:10226000CFFEB8E70423DFF814A11360DAF81410E6
:10227000D346C1B14748FFF7E3F94B46DAF81410EB
:10228000994206D00BEB0302127B002A59D001338E
:10229000F6E700200121FFF733FD3F493348FFF700
:1022A000AFFE092323600023CAF8143098E7D4F85E
:1022B00070903A49484601F04BFA014618B9204659
:1022C000FFF716FD0CE03649484601F041FA60B9C7
:1022D0002368244AD3F804903249214B2046C8474A
:1022E000236820461B6898477AE748462E4901F044
:1022F0002FFA8146F8B92D4901F04AFA6067037850
:102300004BB14A4601A901F023FB019B93F80090D1
:10231000B9F1000F01D00521D1E7C1B20629FAD8E1
:1023200048463170FEF744FE49462046FFF7E0FC80
:10233000FFF77EFED4E70621C1E71D48FFF780F9CD
:102340004EE7012994BF002101210120A3E700BF2E
:10235000D80B0020A40C0020980C0020540D002065
:10236000903D00089E3D0008A63D0008B00C0020EE
:1023700018130020380D0020510C00081C0A002002
:10238000000C0020EC120020D812002000080020D1
:102390006C120020AE3D00084F130020B63D00082F
:1023A000BB3D0008A73D0008C33D0008E03C000815
:1023B000C83D000800000000000000000000000010
:1023C00000222DE9F041642101246320FF25E84B20
:1023D000B6B05C729872DC7618771A705A709A7080
:1023E000DA701A715D719A71DA711972DA721A7390
:1023F0005A739A73DA731A7459749A74DA741A7570
:102400005A759A75DA751A765A7699765A779A774E
:10241000DA7783F82D4083F82E0083F83F4083F865
:10242000202083F8212083F8222083F8231083F8CA
:10243000242083F8252083F8262083F8272083F89A
:10244000282083F8295083F82A2083F82B2083F84A
:102450002C1083F82F2083F8302083F8312083F864
:10246000322083F8332083F8342083F8351083F842
:10247000362083F8372083F8382083F8392083F812
:102480003A2083F83B2083F83C2083F83D2083F8F2
:102490003E1083F8400083F85200032083F8514037
:1024A000144683F8412083F8422083F8432083F8C0
:1024B000442083F8452083F8462083F8471083F8AA
:1024C000482083F8492083F84A2083F84B2083F87A
:1024D0004C2083F84D5083F84E2083F84F2083F82A
:1024E000501083F8532083F8542083F8552083F844
:1024F000562083F8572083F8582083F8591083F822
:102500005A2083F85B2083F85C2083F85D2083F8F1
:102510005E2083F85F2083F8602083F86120C3F891
:102520006720C3F8632083F8621083F8630083F8A0
:10253000682083F8692083F86A2083F86B108D4B3C
:10254000D45099180832902ACC71F9D1C3F8903040
:10255000C3F894304FF4E133874A09211360874B65
:102560000126536003F54843936013610A23938265
:10257000834B6F4693611433D361922313624FF4FC
:10258000855353627F4B91815A6003F10802C3F86F
:102590000824C3F80C247C4A7C4D1A6002F1200107
:1025A000303283F81064C3F81444C3F81844C3F8F5
:1025B0001C44C3F8204483F88764C3F8084583F8B3
:1025C0000C45C3F81045C3F81445C3F89C14C3F870
:1025D000A0240FCD0FC795E803000DF1180805F1F1
:1025E000080E87E80300BEE80F00A8E80F009EE889
:1025F00003000DF1300C203588E803000FCDACE866
:102600000F0095E803006D460DF1480E8CE80300BD
:102610000FCDAEE80F0097E8030006AD18AF8EE8C7
:1026200003000FCD0FC798E803001EAD0DF1300871
:1026300087E80300B8E80F000FC59CE803000DF120
:1026400048080DF1900C85E80300B8E80F00ACE8ED
:102650000F009EE803008CE803000DF1A80E0DF1B9
:10266000600CBCE80F00AEE80F0097E803008EE8AE
:10267000030030AF0DF1780EBEE80F000FC795E8EC
:102680000300434D87E803002C220021284601F077
:1026900057F84FF0FF3C05F130070DF1900EBEE802
:1026A0000F000FC79EE803000DF1A80E87E8030096
:1026B000BEE80F0005F14C070FC79EE80300DFF8E6
:1026C000DC8087E803000DF1C00E05F16807C5F84E
:1026D00020C06C6285F82B40C5F82C80C5F8488076
:1026E000C5F86480BEE80F000FC79EE803006422AF
:1026F00087E80300274B02216FF02F00C5F880C048
:1027000085F8844085F8854085F8864085F88720DF
:102710002B60FF25204B1C705C709C70DC701C7162
:102720005C719C7183F807C01A725E729872D972DC
:102730001C735C739C73DC731C7418770320DD7549
:102740006825C3F82D40C3F831405A749C74DC747A
:102750001C755C759C7583F818C05C769A76DE767D
:1027600059779C77DC7783F8204083F8214017E085
:102770006C120020000C0020F012002000380140F4
:102780007C400008540D0020F83C0008503B000835
:10279000B00C0020483D0008191300200004004040
:1027A00083F8224083F8232083F8244083F82540CF
:1027B00083F8264083F8274083F8284083F829408F
:1027C00083F82A4083F82B4083F82C2083F82D00CF
:1027D00083F8324083F8334083F8344083F835205F
:1027E000184BC3F80D40C3F809409C735872DC7352
:1027F0001C705D709E70DC701C715C719C71DC7172
:102800001A721C745A74104BC3F80D40C3F8094077
:102810001C705D709E70DC701C715C719C71DC7151
:102820001A7258729C73DC731C745A74074B084AF2
:1028300099761A6042F20672DE761A8336B0BDE8E7
:10284000F08100BF4F130020D8120020380D002067
:10285000583C0008000000000000000000000000DC
:1028600070470000000000000000000000000000B1
:1028700070470000000000000000000000000000A1
:102880007047000000000000000000000000000091
:10289000FEE7000000000000000000000000000053
:1028A00070B500240B4B03F1800093E82600043937
:1028B000AA4206D3D9688A4208D310338342F4D39C
:1028C00070BD51F8046F42F8046BF1E742F8044B15
:1028D000F1E700BFE03D000800000000000000003C
:1028E00008B500F0BDFDBDE8084000F019B80000D3
:1028F00000F16043090103F56143C9B283F8001395
:10290000012300F01F024009800000F16040934065
:1029100000F56140C0F8803103607047000000009E
:1029200000F056B8000000000000000000000000A9
:1029300038B54FF08044E36805469B0702D504484C
:1029400000F03EFB0023656323610223E36038BD92
:10295000603E0008000000000000000000000000D1
:1029600000224FF08043DA60704700000000000052
:1029700038B54FF08043DA68054612F0020F1C4666
:1029800002D1024800F01CFB656338BD703E0008B0
:1029900010B500F0BDF84FF080431A6992070CD5CE
:1029A00000241C61202383F3118800F081F800F0DB
:1029B0000FFB00F095F884F3118800F0C1F8BDE832
:1029C000104000F025BD00000000000000000000E5
:1029D000114A0221536A1C2043F0010353620F4A3B
:1029E000936843F0010393600D4B5A6842F21073F1
:1029F000B2FBF3F24FF08043013A9A624FF6FF7256
:102A0000DA6200229A615A63DA605A6001225A61DE
:102A10001A60FFF76DBF00BF00380240002004E0DD
:102A2000D80B0020000000000000000000000000A3
:102A3000FEE70000000000000000000000000000B1
:102A4000044B5A6A0AB99B6A13B1034800F0B8BA3A
:102A5000704700BF78130020803E0008000000008F
:102A600010B5054C636A0BB9A36A13B1034800F0B3
:102A7000A7FA0123A36210BD78130020B03E00081E
:102A800010B5064C636A13B9A36A002B02DC044834
:102A900000F096FA0023A36210BD00BF7813002057
:102AA000D03E000800000000000000000000000010
:102AB00010B5064C636A002B01DDA36A13B104480C
:102AC00000F07EFA0123A36210BD00BF781300203E
:102AD000C03E0008000000000000000000000000F0
:102AE00010B5064C636A002B02DDA36A002B02DCE2
:102AF000034800F065FA0023A36210BD781300209C
:102B0000E03E00080000000000000000000000009F
:102B100010B5202383F31188074C636A002B01DB77
:102B2000A36A13B1054800F04BFA636A013363628C
:102B3000002383F3118810BD78130020903E000815
:102B400010B5202383F31188074C636A002B01DD45
:102B5000A36A13B1054800F033FA636A013B63626C
:102B6000002383F3118810BD78130020A03E0008D5
:102B7000054B5A6A002A02DB9B6A002B02DC0348E1
:102B800000F01EBA704700BF78130020F03E000826
:102B9000044B5A6A12B99B6A002B02DC024800F00F
:102BA0000FBA704778130020003F000800000000B3
:102BB0000022024B1B605B609A6070477813002014
:102BC00010B50446FFF7D4FF14B90C4800F0F8F92B
:102BD000237D0BB10F2B02D1084800F0F1F900233F
:102BE000A2682375064B1B6899689142FBD25A680C
:102BF00023606260204614605C6010BD103F0008D6
:102C00007813002000000000000000000000000019
:102C100038B50446202383F31188FFF749FF237D4D
:102C20000025052B0BD8DFE803F0030A0A081C1661
:102C3000FFF756FF85F3118838BDA3691D604FF07B
:102C4000FF332046A361FFF7BBFFFFF749FF0023D7
:102C500083F3118838BDA569FFF78AFFAB6801339C
:102C6000AB6094E80C001A6022685360E7E700004C
:102C700038B50446FFF78CFF0C4B1D691A682C759C
:102C800011684B60196001211A611175EFF3098217
:102C90002969243A91421C4602D9054800F090F96E
:102CA00029462069BDE83840FDF772BA7813002044
:102CB000303F00080000000000000000000000009D
:102CC00070B586B00E460546FFF762FF4FF6FF73FC
:102CD0009E420D4C13D023690C4A314601A800F0E6
:102CE000DFFA2846FFF7C4FFFFF742FF049B13B14A
:102CF00001A800F02DFB2369986906B070BD284635
:102D0000FFF7B6FFF7E700BF78130020112C00088B
:102D100070B5184C05460E46FFF73AFF2368A342EC
:102D200007D022699B6892689A4202D2124800F04A
:102D300047F92069AE61AA6883689A4204D8284698
:102D4000BDE87040FFF73CBFFFF73AFF012306469E
:102D500025612B75EFF309830269243B9A4202D95E
:102D6000064800F02DF931462846BDE87040FDF7D1
:102D70000FBA00BF78130020203F0008303F000842
:102D8000044B1A681B6990689B68984294BF0020A6
:102D900001207047781300200000000000000000B0
:102DA000012038B5114B1A681C6911681D464B602B
:102DB00019601A61A1681075002222751B689A6853
:102DC0009142FBD35A682360626014605C60EFF349
:102DD00009832269243B9A4202D9054800F0F0F8A1
:102DE00021462869BDE83840FDF7D2B978130020A4
:102DF000303F00080000000000000000000000005C
:102E000008B5FFF7C5FEFFF7B3FE064B1A681B694E
:102E100092689B689A4203D9BDE80840FFF7C0BF9B
:102E200008BD00BF78130020000000000000000073
:102E3000FFF7B6BF00000000000000000000000027
:102E400038B50D46044608B1002902DA034800F0FF
:102E5000B7F824606460A56038BD00BF403F00083B
:102E600038B504460D46FFF793FE14B9144800F038
:102E7000A7F8A368002B23680BDB9C420BD1A36847
:102E80005A1E002AA26018DA4DB9A3604FF0FF3035
:102E900038BD9C42F3D10A4800F092F8EFE7094BA5
:102EA00029461B6905209C6162681C605A6013609A
:102EB0006360BDE83840FFF703BF002038BD00BFA6
:102EC000503F0008781300200000000000000000C0
:102ED00010B50446FFF74CFE14B90F4800F070F827
:102EE000A368002B236810DB9C4210D1A368013338
:102EF000002BA3600FDC2068036823605C60002364
:102F00008361BDE81040FFF75BBE9C42EED10248F2
:102F100000F056F8EAE710BD703F0008000000001E
:102F2000FEE70000000000000000000000000000BC
:102F300073B500251B4B1C4A9D60D9681B4C21F4BE
:102F4000E0610904090C0A431949DA60CA680126DC
:102F500042F08072CA6017490A6842F001020A60B2
:102F60001022DA77202283F82220FFF721FE00F0DA
:102F700087F94021204600F0B3F80F4B44F81C0CB1
:102F800006750361FFF75CFD85F3118862B60B4B94
:102F900000953246B02104F11C0000F0D9F802B0CF
:102FA00070BD00BF00ED00E00003FA05A41300208F
:102FB000F0ED00E0001000E000040020212F0008E8
:102FC00072B6014B1862FEE7781300200000000083
:102FD0002DE9F8430026FFF7CBFDFFF7C9FD4FF0C1
:102FE00080433746224D5B6A6C699BB205F1140839
:102FF000E98B2289581A80B2824219D96869404502
:1030000034D00A44D21A92B2022A2CBF9C189C1CBB
:10301000A0B2FFF7ADFC4FF08043596AEA8B89B24A
:10302000891AA21A914221DD72B6124B2B62FEE779
:1030300023680A444345EA83D4F80C90C3F804801B
:103040006B61E66001D1FFF78BFCFFF749FD87F369
:1030500011882069C847202383F31188FFF728FDD2
:103060004FF080435B6A6C699BB2C1E7BDE8F883AF
:1030700078130020803F00080000000000000000DE
:10308000202383F31188FFF7EBBC00000000000051
:1030900008B5FFF7F5FC084B1A689A4207D01B6980
:1030A00099689368994202D20448FFF789FF002388
:1030B00083F3118808BD00BF78130020903F0008FB
:1030C00010B5044610B90448FFF77AFF2146BDE861
:1030D00010400820FFF7F4BDA03F000800000000EA
:1030E000022202750022427500F11C028160026119
:1030F0007047000000000000000000000000000019
:10310000F8B504460D4616461F46FFF731FD24B1BB
:103110009F2D02D97F2E00D817B90A48FFF750FF1C
:10312000243D069A6319E36067515A60064A2046B7
:103130001A62022323750023637504F11C03A66041
:103140002361F8BDB03F0008A101000800000000A5
:103150002DE9F341174605460E460446FF229846E0
:1031600000F11C03A34217D15522AB19A34216D874
:10317000FFF786FF089B3A460093314643462846B0
:10318000FFF7BEFF04460021FFF7C2FDFFF780FFF7
:10319000204602B0BDE8F08104F8012BE2E704F814
:1031A000012BE3E700000000000000000000000029
:1031B00010B50446FFF764FF2046FFF781FFBDE826
:1031C0001040FFF765BF0000000000000000000095
:1031D00008B5054B1B6998610F20FFF749FDBDE855
:1031E00008400248FFF7ECBE78130020C03F0008FB
:1031F00010B50446FFF744FF2046BDE81040FFF736
:10320000E7BF000000000000000000000000000018
:103210000A4B70B51E69036804460D4613B1084891
:10322000FFF7CEFE3DB12660B4612946BDE870408F
:103230000320FFF745BD4FF0FF3070BD781300202D
:10324000D03F000800000000000000000000000067
:1032500070B5046805460E466CB1237D032B02D081
:103260000548FFF7ADFE00232B60A6612046BDE8B0
:103270007040FFF7A5BC70BDF03F000800000000E3
:10328000054B03F114025A619A614FF6FF729A835B
:103290000022DA83704700BF78130020000000008E
:1032A000F8B506460C4615461F46FFF761FC0EB101
:1032B00005B114B92148FFF783FE214A022C2146AB
:1032C00014464FF08043F56054F8145F5B6A38BFD2
:1032D0000221A542376198B217460BD1D08308442A
:1032E0005661966180B2356075603181BDE8F84005
:1032F000FFF71EBBD28B9BB2841A0C449B1AA4B25C
:103300009C422B8903DAE41AA4B22D6805E0A3429B
:1033100003D9101980B2FFF72BFB2B899C42F2D8FE
:103320006B68356073601E606E6034812B891C1B76
:103330004FF6FF732C81BB83F8BD00BF004000082F
:1033400078130020000000000000000000000000D2
:1033500010B50446FFF70CFC14B92048FFF730FE07
:10336000E36813B91D48FFF72BFE1D490B4653F8C0
:10337000142F944222680CD061680A602268516060
:1033800000219A42E16027D0138921890B441381DF
:1033900010BD00209A424A615360E06003D1BDE84D
:1033A0001040FFF7DDBA1389208903449BB21381D3
:1033B0004FF08042506ACA8B80B2821A92B2934216
:1033C0000AD9BDE810409B1A9BB2022B2CBFC01833
:1033D000023080B2FFF7CCBA10BD00BF1040000829
:1033E0007813002000000000000000000000000032
:1033F00080B500AFEFF30983203383F309880023FE
:1034000083F3118880BD0000000000000000000070
:1034100098B5202300AF83F311880D4B5B6813F43C
:10342000006312D0EFF309844FF0807344F8043C3A
:10343000A4F1200383F30988FFF7A2FC18B1054B20
:1034400044F8083C98BD044BFAE783F3118898BD13
:1034500000ED00E0B5010008C00100080000000018
:103460000F4B1A6962F400421A6100221A619969CD
:1034700061F0805199619A6159694FF0FF3159614A
:103480005A615A6A42F080525A621A6A42F0010244
:103490001A62DA6A42F00102DA6200F0E9B800BFAB
:1034A00000380240000000000000000000000000A2
:1034B00008B5FFF72DFB0A4B0A4A1968126801F09C
:1034C0000E01114205D0084A596013680BB15068CB
:1034D0009847FFF735FBBDE80840FFF799BF00BFED
:1034E00000600240086002407014002000000000EC
:1034F00008B5FFF70DFB0B4B0B4A19681268090959
:1035000001F00E01114206D00A015A60074A936881
:103510000BB1D0689847FFF713FBBDE80840FFF7F1
:1035200077BF00BF006002401C60024070140020A2
:1035300008B5FFF7EDFA0B4B0B4A19681268090A38
:1035400001F00E01114206D00A025A60074A1369BF
:103550000BB150699847FFF7F3FABDE80840FFF751
:1035600057BF00BF0060024030600240701400206E
:1035700008B5FFF7CDFA0B4B0B4A19681268090B17
:1035800001F00E01114206D00A035A60074A9369FE
:103590000BB1D0699847FFF7D3FABDE80840FFF7B1
:1035A00037BF00BF0060024044600240701400203A
:1035B00008B5FFF7ADFA0B4B0B4A19681268090CF6
:1035C00001F00E01114206D00A045A60074A136A3C
:1035D0000BB1506A9847FFF7B3FABDE80840FFF710
:1035E00017BF00BF00600240586002407014002006
:1035F00008B5FFF78DFA0B4B0B4A19681268090DD5
:1036000001F00E01114206D00A055A60074A936A7A
:103610000BB1D06A9847FFF793FABDE80840FFF76F
:10362000F7BE00BF006002406C60024070140020D2
:1036300008B5FFF76DFA0B4B0B4A19681268090EB3
:1036400001F00E01114206D00A065A60074A136BB8
:103650000BB1506B9847FFF773FABDE80840FFF7CE
:10366000D7BE00BF0060024080600240701400209E
:1036700000230A4A30B5136014251A46084C09493C
:1036800005FB03404068026041F833200133072BFB
:10369000F6D14FF0FF32044B5A6030BD6413002066
:1036A000404000087014002000600240000000004C
:1036B0002DE9F8430F4690469946044610B91C4838
:1036C000FFF77EFC01201B4D627C2E6800FA02F39E
:1036D00033422BD11848730640F8328000EBC20009
:1036E000C0F804904FF00E0001BF144AD36943F0B4
:1036F0008073D36163681A6822F00F021A60217C1C
:1037000022688840506000221A60A3681E4206D1D9
:10371000B8F1000F03D03946A07CFFF7E9F8012388
:103720000020627C93402A6813432B60BDE8F88335
:10373000204000086413002070140020003802406C
:1037400003460244934200D1704703F8011BF9E796
:10375000F8B506460F4616F8014B00F019F920445B
:10376000437817F8015B03F00303012B08BF2034F3
:1037700000F00EF92844437803F00303012B08BF3F
:103780002035601B01D1002DE5D1F8BD00000000FF
:10379000134B2DE9F0411D680646AC6D0F46B4B9D8
:1037A000502000F005F9A865046044608460C4609E
:1037B0000461446184618462C46204634463846319
:1037C000C463046444648464C46404774462AA6D7A
:1037D00039463046BDE8F041012300F009B800BF8A
:1037E00004080020000000000000000000000000AD
:1037F000F0B518B9106808B9F0BD204604460F4668
:1038000014F8015B17F8016B1EB965B915602846FD
:10381000F0BDB542F6D1002BEFD114600370F0BDBE
:103820001C460CE015B90E4614F8013B16F8015B76
:10383000AB42F7D1002BF3D0002304F8013C146015
:10384000F0BD0000000000000000000000000000CB
:103850002DE9F84F8046894692461F468B465D46C5
:103860000A9815F8014B00F08BF82044467816F0C2
:1038700008060BD12D2C0BD101262C780BF102055B
:1038800067B1102F14D1302C0AD011E0AB46E6E717
:103890002B2C04BF2C780BF10205F1E7302C27D13B
:1038A0002B7803F0DF03582B4BD110276C780235AF
:1038B000002E0CBF6FF000414FF000410022B1FB21
:1038C000F7FE104607FB1E1CA4F13003092B11D88C
:1038D0001C46A7421DDD531C07D0864516D301D1D7
:1038E000A44513DB012200FB074015F8014BEBE771
:1038F0000A27DDE7A4F14103192B01D8373CE8E79B
:10390000A4F16103192B04D8573CE2E74FF0FF32D2
:10391000EBE7531C08D122230846C8F80030BAF15F
:10392000000F07D1BDE8F88F06B14042BAF1000F91
:103930000CD022B1013DCAF80050BDE8F88F4D46C9
:10394000F9E73024002FB3D10827B1E7BDE8F88F9D
:10395000084B37B51C68084D236A002B08BF2B465F
:10396000009313460A4601462046FFF771FF03B055
:1039700030BD00BF040800206808002000000000DF
:10398000D0F8EC00704700000000000000000000CC
:10399000044B054A1B681B6A002B08BF1346D3F86B
:1039A000EC007047040800206808002000000000B8
:1039B000024B0146186800F01BB800BF0408002045
:1039C00082B001B901A942B14BB113780B601278F2
:1039D000101C18BF012002B070471046FBE76FF0C3
:1039E0000100F8E7000000000000000000000000F7
:1039F00070B5CD1C25F0030508350C2D38BF0C25FE
:103A0000002D064601DBA94203D90C2333600020B8
:103A100070BD00F06DF8234A1468214691B9224C1C
:103A200023681BB9304600F043F820602946304631
:103A300000F03EF8431C26D10C233046336000F0E2
:103A40005FF8E4E70B685B1B1AD40B2B0FD90B60F4
:103A5000CC18CD50304600F053F804F10B00231D74
:103A600020F00700C31A1BD05A42E25070BD8C42AE
:103A70000BBF63684B681360636018BF0C46E9E7CF
:103A80000C464968CAE7C41C24F00304A04205D0D0
:103A9000211A304600F00CF80130CDD02560D9E76E
:103AA00070BD00BF681300206C13002000000000F0
:103AB00038B50023054C05460846236000F028F879
:103AC000431C02D1236803B12B6038BDA814002029
:103AD00049B1FF2A8BBF8A230A700360012088BF87
:103AE0004FF0FF30704708467047000000000000AC
:103AF000704700000000000000000000000000000F
:103B000070470000000000000000000000000000FE
:103B1000044B0246196809B9034919601868024440
:103B20001A60704770130020AC14002000000000E1
:103B3000030406080C1018203000000000000000EC
:103B4000000102030406070809000000000000004D
:103B500000040240010000000004004004000000D6
:103B600000000000FF000000000402400000000010
:103B7000000400400300000000000000FF000000FF
:103B800000040240050000000004004002000000A4
:103B900000000000FF000000000000000000000026
:103BA000434320527374204661696C0D00434320E7
:103BB00057204661696C0D00434320522F57204621
:103BC00061696C3B2072706C3D25750D004343208C
:103BD00052204661696C0D00434320696E69742070
:103BE0006F6B0D00000000000000000000000000EE
:103BF0006368537973556E6C6F636B00000000004F
:103C00000000000000000000410A00080000000061
:103C1000556E68616E646C65642025530D0000006C
:103C2000414842467265713D25754D487A3B2041B9
:103C3000504231467265713D25754D487A3B2041B1
:103C4000504232467265713D25754D487A0D00002F
:103C50000000000000000000A10C000800000000AF
:103C6000566563746F723538000000000000000074
:103C7000566563746F723543000000000000000059
:103C8000566563746F72363000000000000000005B
:103C9000566563746F723634000000000000000047
:103CA000566563746F723638000000000000000033
:103CB000566563746F723943000000000000000015
:103CC000566563746F72453000000000000000000C
:103CD0006368537973556E6C6F636B00000000006E
:103CE000202C000000000000000000000000000088
:103CF0000000000000000000A11600088119000863
:103D0000011900082119000811170008111C0008EA
:103D100064FBFFFF000000000519000825190008DA
:103D200060FBFFFF00000000151C00082F170008B3
:103D30006368537973556E6C6F636B00000000000D
:103D40000000000000000000211F0008211C0008E6
:103D5000011E0008B11C0008000000000000000067
:103D60004B696E643A2025750D00000000000000CC
:103D700041636B2025640D0A000000000000000074
:103D80006368537973556E6C6F636B0000000000BD
:103D900032303138303730315F31343239005761A9
:103DA00079486F6D65000D25532025530D00436E36
:103DB000743D25750D0050696E6700566572736914
:103DC0006F6E004B696E6400556E68616E646C6561
:103DD00064204D73672025750D0000000000000071
:103DE000D4430008AC140020AC140020AC14002014
:103DF000D4430008000000000000000000000000A4
:103E0000D443000800000000000000000000000093
:103E1000D443000800000000000000000000000083
:103E2000D443000800000000000000000000000073
:103E3000D443000800000000000000000000000063
:103E4000D443000800000000000000000000000053
:103E5000D443000800000000000000000000000043
:103E600073745374617274416C61726D0000000070
:103E70007374536574416C61726D00000000000042
:103E80005356233300000000000000000000000033
:103E9000535623380000000000000000000000001E
:103EA000535623390000000000000000000000000D
:103EB0005356233400000000000000000000000002
:103EC00053562336000000000000000000000000F0
:103ED00053562335000000000000000000000000E1
:103EE00053562337000000000000000000000000CF
:103EF0005356233130000000000000000000000095
:103F00005356233131000000000000000000000083
:103F1000636853636852656164794900000000007A
:103F2000636853636857616B6575705300000000E8
:103F3000737461636B206F766572666C6F770000D7
:103F4000636853656D4F626A656374496E69740096
:103F5000636853656D5761697454696D656F7574F5
:103F600053000000000000000000000000000000FE
:103F7000636853656D5369676E616C4900000000AA
:103F800063685654446F5469636B49000000000035
:103F90006368537973556E6C6F636B0000000000AB
:103FA0006368546864536C656570530000000000DA
:103FB0006368546864437265617465490000000079
:103FC0006368546864457869745300000000000019
:103FD000636854686453757370656E6454696D6585
:103FE0006F75745300000000000000000000000026
:103FF0006368546864526573756D6549000000001C
:1040000063685654446F5365744900000000000013
:1040100063685654446F526573657449000000002C
:10402000646D6153747265616D416C6C6F63617432
:10403000650000000000000000000000000000001B
:104040000060024008600240010000000000000023
:1040500000000B00006002401C60024002000000F3
:104060000000000004010C000060024030600240CB
:10407000040000000000000008020D000060024083
:104080004460024008000000000000000C030E0025
:104090000060024058600240100000000000000074
:1040A00010040F00006002406C600240200000001D
:1040B0000000000014051000006002408060024013
:1040C0004000000000000000180611000000000081
:1040D0004300504F5349580000000000000000000A
:1040E0002E000000000000000000000000000000A2
:1040F00000202020202020202020282828282820B8
:1041000020202020202020202020202020202020AF
:104110002088101010101010101010101010101017
:104120001004040404040404040404101010101007
:1041300010104141414141410101010101010101D1
:104140000101010101010101010101011010101023
:1041500010104242424242420202020202020202A3
:1041600002020202020202020202020210101010F7
:10417000200000000000000000000000000000001F
:10418000000000000000000000000000000000002F
:10419000000000000000000000000000000000001F
:1041A000000000000000000000000000000000000F
:1041B00000000000000000000000000000000000FF
:1041C00000000000000000000000000000000000EF
:1041D00000000000000000000000000000000000DF
:1041E00000000000000000000000000000000000CF
:0141F00000CE
:0441F400F8B500BF5B
:0441F800F8B500BF57
:10420000040000000808002000000000000000007A
:10421000000000000000000000000000000000009E
:10422000000000000000000000000000000000008E
:10423000000000000000000000000000000000007E
:10424000000000000000000000000000000000006E
:10425000000000000000000000000000000000005E
:10426000000000000000000043000000000000000B
:10427000000000000000000000000000000000003E
:1042800000000000000000004300000000000000EB
:10429000000000000000000000000000000000001E
:1042A00000000000000000004300000000000000CB
:1042B00000000000000000000000000000000000FE
:1042C00000000000000000004300000000000000AB
:1042D00000000000000000000000000000000000DE
:1042E000000000000000000043000000000000008B
:1042F00000000000000000000000000000000000BE
:10430000000000000000000043000000000000006A
:10431000000000000000000000000000000000009D
:10432000000000000000000043000000000000004A
:10433000000000000000000000000000000000007D
:104340000000000000000000D13A0008C139000858
:1043500000000000F0400008E0400008783D000840
:10436000783D0008783D0008783D0008783D000859
:10437000783D0008783D0008783D0008783D000849
:10438000FFFFFFFFFFFFFFFFFFFFFFFFFFFF00003B
:1043900001004153434949000000000000000000B3
:1043A000000000000000000000000000000000000D
:1043B0000000415343494900000000000000000094
:1043C00000000000000000000000000000000000ED
:0443D00000000000E9
:04000005080001D11D
:00000001FF
