:020000040800F2
:10000000000400209101000893010008A11D0008D0
:100010009301000893010008930100089301000870
:10002000930100089301000893010008617400081F
:100030009301000893010008930100089301000850
:100040009301000893010008930100089301000840
:100050009301000893010008511F0008B11F000818
:100060001120000871200008D12000084176000806
:100070006176000881760008A1760008C176000844
:10008000E176000801770008930100089301000859
:100090009301000893010008930100083121000832
:1000A00093010008A15B0008930100089301000878
:1000B00093010008930100089301000893010008D0
:1000C00093010008930100089301000851270008DC
:1000D000A12700089301000893010008930100087C
:1000E0008121000893010008930100089301000892
:1000F0009301000893010008930100089301000890
:10010000930100089301000893010008930100087F
:10011000930100089301000893010008930100086F
:10012000930100089301000893010008930100085F
:10013000930100089301000893010008930100084F
:0801400075010008D158000808
:040148005101000859
:1001500010B5054C237833B9044B13B10448AFF301
:1001600000800123237010BDE00900200000000082
:100170009487000808B5034B1BB103490348AFF34C
:10018000008008BD00000000E409002094870008FA
:1001900026E000F000F8FEE700000000000000008C
:1001A0002DE9F04FC1F80CD0C3689D46BDE8F08F33
:1001B00005F0EEFD002383F311882846A0470020B8
:1001C00006F076FE05F0CCFD06F002FA05F0E0FD43
:1001D00000DFFEE70000000000000000000000005B
:1001E00072B6274880F30888264880F30988264895
:1001F0004EF60851CEF200010860022080F3148808
:10020000BFF36F8F05F06CFB05F072FB4FF05530BC
:100210001E491B4A91423CBF41F8040BFAE71C49B6
:10022000184A91423CBF41F8040BFAE719491A4AAF
:100230001A4B9A423EBF51F8040B42F8040BF8E700
:1002400000201749174A91423CBF41F8040BFAE7D6
:1002500005F066FB05F054FB134C144DAC4203DA79
:1002600054F8041B8847F9E704F0AAFA104C114D22
:10027000AC4203DA54F8041B8847F9E705F048BBA1
:1002800000040020000800200000000800000020FA
:10029000000400209887000800080020E0090020E2
:1002A000E00900208C1300204001000848010008EC
:1002B000480100084C010008000000000000000098
:1002C00053B94AB9002908BF00281CBF4FF0FF31BD
:1002D0004FF0FF3000F07CB9ADF1080C6DE904CEB1
:1002E00000F006F8DDF804E0DDE9022304B0704711
:1002F0002DE9F0478C460E460446089D002B50D150
:100300008A4217466CD9B2FA82FEBEF1000F0BD0BA
:10031000CEF1200C01FA0EF620FA0CFC02FA0EF7D0
:100320004CEA060C00FA0EF43A0CBCFBF2F9BBB234
:1003300002FB19CC09FB03FA4FEA144848EA0C46C1
:10034000B2450AD9F61909F1FF3180F02581B2458D
:1003500040F22281A9F102093E44A6EB0A06B6FB4F
:10036000F2F002FB106600FB03F3A4B244EA064479
:10037000A34209D9E41900F1FF3280F00B81A342B6
:1003800040F2088102383C440021E41A40EA094066
:10039000002D62D0002324FA0EF42C606B60BDE8BF
:1003A000F0878B4207D9002D55D0002185E8410008
:1003B0000846BDE8F087B3FA83F1002940F08F804A
:1003C000B34202D3824200F2FC80841A66EB030639
:1003D0000120B446002D40D085E81010BDE8F0871C
:1003E00012B90127B7FBF2F7B7FA87FEBEF1000F8B
:1003F00035D10121F61B4FEA174C1FFA87F8B6FBDF
:10040000FCF20CFB126608FB02F0230C43EA0646E2
:10041000B04207D9F61902F1FF3302D2B04200F21E
:10042000D2801A46361AB6FBFCF00CFB106608FBAD
:1004300000F8A3B243EA0644A04507D9E41900F145
:10044000FF3302D2A04500F2B9801846A4EB08049D
:1004500040EA02409CE729462846BDE8F08707FAB3
:100460000EF7CEF1200326FA03F24FEA174CB2FB47
:10047000FCF11FFA87F80CFB112206FA0EF620FA9F
:1004800003F301FB08F933431E0C46EA0246B1456B
:1004900000FA0EF409D9F61901F1FF3280F08C80D0
:1004A000B14540F2898002393E44A6EB0906B6FB0D
:1004B000FCF00CFB106200FB08F99EB246EA024613
:1004C000B14507D9F61900F1FF3371D2B1456FD9A3
:1004D00002383E44A6EB090640EA01418FE7C1F12C
:1004E000200722FA07F88B4048EA030326FA07F4AC
:1004F0004FEA134EB4FBFEF91FFA83FC0EFB1944BE
:100500008E4020FA07F809FB0CFA48EA06084FEA81
:10051000184646EA0444A24502FA01F200FA01F63E
:1005200008D9E41809F1FF3044D2A24542D9A9F113
:1005300002091C44A4EB0A04B4FBFEF00EFB1044B9
:1005400000FB0CFC1FFA88F848EA0444A44507D9CC
:10055000E41800F1FF3E29D2A44527D902381C44F3
:1005600040EA0940A0FB0289A4EB0C0CCC45C24632
:10057000CE4615D312D055B1B6EB0A036CEB0E067E
:1005800006FA07F7CB401F43CE402F606E60002174
:10059000BDE8F0871046F7E68946DEE64645EAD232
:1005A000B8EB020A69EB030E0138E4E77046D7E7BF
:1005B00018468FE78146BDE7114676E702383C448E
:1005C00044E7084606E7023A3E442BE700000000F5
:1005D000704700BF000000000000000000000000A5
:1005E00080B483B000AF7860084611461A460346CF
:1005F000FB700B46BB7013467B707B68FA781A70F1
:100600007B68BA785A707B687A789A707B68002227
:10061000DA707B6818460C37BD4680BC7047000016
:1006200080B483B000AF20237B607B6883F31188A4
:1006300000BF0C37BD4680BC7047000000000000C2
:1006400080B483B000AF00237B607B6883F31188A4
:1006500000BF0C37BD4680BC7047000000000000A2
:1006600080B500AFFFF7DCFF05F07AFB00BF80BD6F
:1006700080B500AF05F08CFB094B1B68084A93421C
:100680000AD0074B9B699A68054B1B689B689A4286
:1006900002D2044806F0A4FAFFF7D2FF00BF80BDE3
:1006A00068120020408100080000000000000000E7
:1006B00080B483B000AF78607B68174A934206D15C
:1006C000164A164BDB6943F00103D3611FE07B68D8
:1006D000134A934206D1114A104BDB6943F00203DF
:1006E000D36114E07B680F4A934206D10B4A0B4B4F
:1006F000DB6943F00403D36109E07B680A4A934253
:1007000005D1064A054BDB6943F00803D36100BFFE
:100710000C37BD4680BC70470000024000380240E4
:100720000004024000080240000C024000000000EB
:1007300080B584B000AF7860084611461A4603467B
:100740007B800B467B7013463B707868FFF7B0FFE9
:100750007B88DBB25B00FB737B681B68FA7B032141
:1007600001FA02F2D2431A407B681A607B681B6868
:10077000FA7B012101FA02F21A437B681A607B6856
:100780005B687A88012101FA02F2D2431A407B6841
:100790005A607B685A6879787B8801FA03F31A43B8
:1007A0007B685A607B68DB68FA7B032101FA02F2FE
:1007B000D2431A407B68DA607B68DA687B68DA606B
:1007C0007B689B68FA7B032101FA02F2D2431A404C
:1007D0007B689A607B689A683978FB7B01FA03F33F
:1007E0001A437B689A6000BF1037BD4680BD000089
:1007F00080B584B000AF7860084611461A460346BB
:100800007B800B467B7013463B707B88DBB25B00C2
:10081000FB737868FFF74CFF7B681B68FA7B03214A
:1008200001FA02F2D2431A407B681A607B68DB68E7
:10083000FA7B032101FA02F2D2431A407B68DA60A4
:100840007B68DA687978FB7B01FA03F31A437B68EB
:10085000DA6000BF1037BD4680BD00000000000018
:1008600080B584B000AF7860084611461A4603464A
:100870007B800B467B7013463B707868FFF718FF50
:100880007B885B00FB607B681B680321FA6801FAC8
:1008900002F2D2431A407B681A607B681B6802210F
:1008A000FA6801FA02F21A437B681A607B78002B1F
:1008B0000AD17B685B687A88012101FA02F2D2438F
:1008C0001A407B685A6008E07B685B687A8801217F
:1008D00001FA02F21A437B685A607B68DB680321E5
:1008E000FA6801FA02F2D2431A407B68DA607B6848
:1008F000DA683978FB6801FA03F31A437B68DA6037
:100900007B689B680321FA6801FA02F2D2431A401D
:100910007B689A607B689A68397FFB6801FA03F309
:100920001A437B689A607B88072BCCBF0123002386
:10093000DBB2BB607B88072B02DC7B889B0002E07C
:100940007B88083B9B00FB607B68BA68083253F8E1
:1009500022300F21FA6801FA02F2D24303EA0201BF
:100960007B68BA68083243F822107B68BA6808329C
:1009700053F82220397EFB6801FA03F342EA0301AF
:100980007B68BA68083243F8221000BF1037BD46B2
:1009900080BD00000000000000000000000000001A
:1009A00080B485B000AF78600B46FB707B689B8895
:1009B0001A4601239340FB60FB78012B12D0022BD7
:1009C0001ED0002B00D028E01649164B9A68FB6811
:1009D00013438B601349134BDA68FB68DB43134006
:1009E000CB601AE00F490F4B9A68FB68DB4313405A
:1009F0008B600C490B4BDA68FB681343CB600CE04F
:100A00000849084B9A68FB6813438B600549054BFE
:100A1000DA68FB681343CB6000BF00BF1437BD46E4
:100A200080BC70470004014000000000000000008E
:100A300090B585B000AF78600B46FB707B68186896
:100A40007B6899887B689A790223FFF7D1FE594A1F
:100A5000584B1B6A43F001031362564A554BDB6A3D
:100A600023F00103D362534BDB6A7B689B889B08AE
:100A70009BB2FB737B689B88DBB203F00303DBB2A2
:100A80009B00BB734C48FB7B4B49FA7B023251F80D
:100A90002210BA7B0F2404FA02F2D2430A40023336
:100AA00040F823207B681B68444A93420FD1424898
:100AB000FB7B4149FA7B023251F82210BA7B0124B8
:100AC00004FA02F20A43023340F8232052E07B6822
:100AD0001B683B4A93420FD13748FB7B3649FA7B70
:100AE000023251F82210BA7B022404FA02F20A43BD
:100AF000023340F823203DE07B681B68314A934273
:100B00000FD12D48FB7B2C49FA7B023251F8221081
:100B1000BA7B032404FA02F20A43023340F823208A
:100B200028E07B681B68284A93420FD12248FB7B50
:100B30002149FA7B023251F82210BA7B042404FACC
:100B400002F20A43023340F8232013E07B681B685B
:100B50001E4A93420ED11848FB7B1749FA7B02329A
:100B600051F82210BA7B072404FA02F20A43023336
:100B700040F823207B689B881A4601239340BB6082
:100B80001349134B1A68BB6813430B601049104B91
:100B90005A68BB68DB4313404B60FB7819467868A2
:100BA000FFF7FEFE0A4ABB68536100BF1437BD461B
:100BB00090BD00BF00380240000001400004024028
:100BC00000080240000C02400010024000140240E5
:100BD00000040140000000000000000000000000D0
:100BE00080B582B000AF786039607B689B88092B44
:100BF00009DC7B689B88042B03DC7B689B880633BD
:100C000002E0172300E028233968184605F030F881
:100C100000BF0837BD4680BD000000000000000096
:100C200080B483B000AF78607B681B687A68126814
:100C3000126842F040021A6000BF0C37BD4680BC0B
:100C400070470000000000000000000000000000ED
:100C500080B483B000AF78607B681B687A681268E4
:100C6000126822F040021A6000BF0C37BD4680BCFB
:100C700070470000000000000000000000000000BD
:100C800080B483B000AF78600B46FB707B681B6854
:100C90000C33FA781A707B681B689B6803F00103B9
:100CA000002B0CBF01230023DBB2002B00D0F2E7A6
:100CB0007B681B680C331B78DBB218460C37BD46CB
:100CC00080BC704700000000000000000000000031
:100CD00080B487B000AF786000237B617B69114AE4
:100CE000934219D87B689B687A68528A3B61FA60A4
:100CF0003B691B690121FA6801FA02F21340002BDB
:100D00000CBF01230023DBB2002B01D0002304E041
:100D10007B6901337B61E1E7012318461C37BD463F
:100D200080BC7047B7820100000000000000000096
:100D300080B485B000AF78607B68DB687A68D28A5F
:100D4000FB60BA600122BB6802FA03F31A46FB6833
:100D50009A6100BF1437BD4680BC70470000000098
:100D600080B485B000AF78607B68DB687A68D28A2F
:100D7000FB60BA60BB681033012202FA03F31A4623
:100D8000FB689A6100BF1437BD4680BC7047000005
:100D900080B582B000AF78603021786800F040FB09
:100DA000034618460837BD4680BD0000000000001D
:100DB00080B582B000AF78603521786800F030FBF4
:100DC000034618460837BD4680BD000000000000FD
:100DD00080B582B000AF78603421786800F020FBE5
:100DE000034618460837BD4680BD000000000000DD
:100DF00080B582B000AF78603A21786800F010FBCF
:100E0000034618460837BD4680BD000000000000BC
:100E100080B582B000AF78603621786800F000FBC2
:100E2000034618460837BD4680BD0000000000009C
:100E300080B582B000AF78603921786800F0F0FAB0
:100E4000034618460837BD4680BD0000000000007C
:100E500080B582B000AF78607B68243300211846EB
:100E600006F0BEF800BF0837BD4680BD0000000098
:100E700080B500AF0248FFF7EBFF00BF80BD00BFA9
:100E8000F41100200000000000000000000000003D
:100E900080B586B002AF78607B685B68544A934245
:100EA00004D07B685B68534A934202D10523FB73ED
:100EB00001E00623FB737B68D8687B68D98A02232C
:100EC0000022FFF735FC7B6898687B68198A02234B
:100ED0000193FB7B009300230022FFF7C1FC7B689A
:100EE00098687B68598A02230193FB7B0093002357
:100EF0000022FFF7B5FC7B6898687B68998A02231B
:100F00000193FB7B009300230022FFF7A9FC7B6881
:100F1000183301211846FFF78BFD7868FFF708FFAB
:100F20007B68181D00230193334B0093002300229C
:100F3000002101F04DFB7B6804331846FFF770FE7B
:100F40007868FFF725FF0346002B14BF0123002319
:100F5000DBB2002B09D07B6804331846FFF778FE1C
:100F6000264801F0DDFC01233EE0072206217868D7
:100F700000F01EFA0346002B14BF01230023DBB24E
:100F8000002B04D01E4801F0CBFC01232CE00023F1
:100F9000BB7307F10E031A460621786800F0D0F9FA
:100FA0000346002B0CBF01230023DBB2002B09D02A
:100FB000BB7B072B0BD0BB7B1946124801F0B0FC62
:100FC000012311E0104801F0ABFC01230CE078682C
:100FD000FFF70EFF786800F01BF87B6818330721D5
:100FE0001846FFF7FDFD002318461037BD4680BDAB
:100FF0000030014000380040A02E6300107E000841
:10100000207E00082C7E0008447E000800000000BE
:1010100080B582B000AF786008220B21786800F0BC
:10102000C7F900220C21786800F0C2F920220D21B6
:10103000786800F0BDF925220E21786800F0B8F933
:10104000ED220F21786800F0B3F95B221021786857
:1010500000F0AEF9E5221121786800F0A9F9132219
:101060001221786800F0A4F9A0221321786800F01A
:101070009FF9E6221421786800F09AF900220A21EB
:10108000786800F095F946221521786800F090F90B
:10109000B6222121786800F08BF91022222178688D
:1010A00000F086F908221821786800F081F91D22E5
:1010B0001921786800F07CF91C221A21786800F068
:1010C00077F9C7221B21786800F072F900221C21F1
:1010D000786800F06DF9B2221D21786800F068F997
:1010E000EA222321786800F063F92A222421786813
:1010F00000F05EF900222521786800F059F91F22DE
:101100002621786800F054F981222C21786800F0BB
:101110004FF935222D21786800F04AF909222E2155
:10112000786800F045F907220321786800F040F95B
:1011300007220021786800F03BF906220221786836
:1011400000F036F90C220721786800F031F94422CA
:101150000821786800F02CF950223E21786800F0D0
:1011600027F907221621786800F022F900221721BA
:10117000786800F01DF900BF0837BD4680BD00004B
:1011800080B582B000AF78600B46FB707B6893F847
:101190002030002B03D07868FFF73AFEF6E7FB78A3
:1011A0001A460A21786800F003F900BF0837BD46E7
:1011B00080BD0000000000000000000000000000F2
:1011C00080B584B000AFF860B9601346FB71F86871
:1011D000FFF7EEFDFFF744FAFB791A46B968F868A5
:1011E00000F056F9FB682433184605F0A9FEFFF716
:1011F0003FFA00BF1037BD4680BD00000000000070
:101200002DE9F04F8BB000AFF861B9617A61FB74E2
:10121000F869FFF7EDFDFFF723FAF869FFF7D8FD4E
:10122000FB6924337B60BB6919464FF000020B4613
:101230001446A000F860F86840EA9370F8609C00DB
:10124000BC60D7E902345B1844EB02044FEAC40BDC
:101250004BEA537B4FEAC30A53465C465B1A64EB86
:1012600002044FEA041949EA13794FEA0318434686
:101270004C465B1844EB0204260146EA13761D0136
:101280002B4634461946224640F2E7334FF000041D
:10129000CD1842EB0406284631464FF47A724FF0DF
:1012A0000003FFF70DF803460C461946786805F071
:1012B0006FFE7862FFF7DCF97B6AB3F1FF3F04D180
:1012C000F869FFF7A5FD022306E0FB7C3A6D79691A
:1012D000F86900F01DF9034618462C37BD46BDE8F5
:1012E000F08F00000000000000000000000000007F
:1012F00080B485B000AF78600B46FB70FB78FB8153
:10130000B7F90E307F2B04DDFB89A3F580739BB208
:10131000FB81B7F90E30DA0F13445B101BB29BB29E
:101320004A3B9BB2FB81FB895BB218461437BD4632
:1013300080BC7047000000000000000000000000BA
:1013400080B584B000AFF8600B467A60FB72F86835
:10135000FFF706FDF868FFF7BBFC0346002B14BF40
:1013600001230023DBB2002B04D0F868FFF7E0FC78
:10137000012317E0FB681A1DFB7A63F07F03DBB2E1
:1013800019461046FFF77CFCFB6804330021184621
:10139000FFF776FC03461A467B681A70F868FFF779
:1013A000C7FC002318461037BD4680BD0000000072
:1013B00080B582B000AF78600B46FB701346BB70FF
:1013C0007868FFF7CDFC7868FFF782FC0346002BB6
:1013D00014BF01230023DBB2002B04D07868FFF791
:1013E000A7FC012311E07B680433FA781146184604
:1013F000FFF746FC7B680433BA7811461846FFF7BE
:101400003FFC7868FFF794FC002318460837BD4678
:1014100080BD00000000000000000000000000008F
:1014200080B582B000AF78600B46FB707868FFF73C
:1014300097FC7868FFF74CFC0346002B14BF012390
:101440000023DBB2002B04D07868FFF771FC012386
:1014500018E07B680433FA7811461846FFF710FC51
:1014600003461A467B6883F820207868FFF760FC03
:101470007B6893F8203003F07003DAB27B6883F85E
:101480002020002318460837BD4680BD000000001C
:1014900080B586B000AFF860B9601346FB71F8689C
:1014A000FFF75EFCF868FFF713FC0346002B14BF40
:1014B00001230023DBB2002B04D0F868FFF738FCCF
:1014C00001231FE0FB6804337F211846FFF7D8FB98
:1014D0000023FB75FA7DFB799A420FDABB685A1C30
:1014E000BA601B78BB75FB680433BA7D1146184699
:1014F000FFF7C6FBFB7D0133FB75EBE7F868FFF7F1
:1015000017FC002318461837BD4680BD00000000B8
:1015100080B586B000AFF860B9607A60FB70BB68D8
:101520007B6107F112031A467821F868FFF708FF7C
:101530000346002B14BF01230023DBB2002B01D094
:10154000012353E0BB7C5BB2002B4EDAF868FFF757
:1015500007FCF868FFF7BCFB0346002B14BF012310
:101560000023DBB2002B04D0F868FFF7E1FB012376
:101570003CE0FB680433FF211846FFF781FB0023A2
:10158000FB74FA7CFB789A4210DAFB680433002182
:101590001846FFF775FB0346BB747B695A1C7A61DA
:1015A000BA7C1A70FB7C0133FB74EAE7FB680433F6
:1015B00000211846FFF764FB0346BB74FB68043345
:1015C00000211846FFF75CFBF868FFF7B1FB7B686A
:1015D000002B08D0BB7C1946F868FFF789FE03464C
:1015E0001A467B681A70002300E00123184618375A
:1015F000BD4680BD000000000000000000000000AB
:1016000080B483B000AF20237B607B6883F31188B4
:1016100000BF0C37BD4680BC7047000000000000D2
:1016200080B483B000AF00237B607B6883F31188B4
:1016300000BF0C37BD4680BC7047000000000000B2
:1016400080B500AFFFF7DCFF00BF80BD00000000E9
:1016500080B500AFFFF7E4FF00BF80BD00000000D1
:1016600080B500AFFFF7ECFF04F0AAFB00BF80BD20
:1016700080B500AF04F0BCFBFFF7EAFF00BF80BD00
:1016800080B582B000AF786004F00AFC7B689B688C
:101690005A1E7B689A6000BF0837BD4680BD0000B7
:1016A00080B582B000AF786004F0FAFB7B689B687D
:1016B00018460837BD4680BD00000000000000004D
:1016C00080B483B000AF78607B681B687A6812686A
:1016D000126842F001021A6000BF0C37BD4680BCA0
:1016E0007047000000000000000000000000000043
:1016F00080B483B000AF78607B68174A934206D10C
:10170000164A164BDB6943F00103D3611FE07B6887
:10171000134A934206D1114A104BDB6943F002038E
:10172000D36114E07B680F4A934206D10B4A0B4BFE
:10173000DB6943F00403D36109E07B680A4A934202
:1017400005D1064A054BDB6943F00803D36100BFAE
:101750000C37BD4680BC7047000002400038024094
:101760000004024000080240000C0240000000009B
:1017700080B584B000AF7860084611461A4603462B
:101780007B800B467B7013463B707868FFF7B0FF99
:101790007B885B00FB607B681B680321FA6801FAA9
:1017A00002F2D2431A407B681A607B681B680221F0
:1017B000FA6801FA02F21A437B681A607B78002B00
:1017C0000AD17B685B687A88012101FA02F2D24370
:1017D0001A407B685A6008E07B685B687A88012160
:1017E00001FA02F21A437B685A607B68DB680321C6
:1017F000FA6801FA02F2D2431A407B68DA607B6829
:10180000DA683978FB6801FA03F31A437B68DA6017
:101810007B689B680321FA6801FA02F2D2431A40FE
:101820007B689A607B689A68397FFB6801FA03F3EA
:101830001A437B689A607B88072BCCBF0123002367
:10184000DBB2BB607B88072B02DC7B889B0002E05D
:101850007B88083B9B00FB607B68BA68083253F8C2
:1018600022300F21FA6801FA02F2D24303EA0201A0
:101870007B68BA68083243F822107B68BA6808327D
:1018800053F82220397EFB6801FA03F342EA030190
:101890007B68BA68083243F8221000BF1037BD4693
:1018A00080BD0000000000000000000000000000FB
:1018B00080B400AF034B4AF6AA221A6000BFBD46AF
:1018C00080BC7047003000400000000000000000B5
:1018D00080B483B000AF78600B4A0B4B5B6B43F076
:1018E00001035363084B5B6B03F00203002B0CBF37
:1018F00001230023DBB2002B00D0F3E700BF0C373D
:10190000BD4680BC704700BF0038024000000000A8
:1019100080B483B000AF786039603B681A687B6838
:101920001A603B685A687B685A607B6818460C37B7
:10193000BD4680BC704700000000000000000000B1
:1019400080B487B000AF786039607B687B613B68AA
:101950003B617A693B699A4201D1002334E07B699B
:101960001B78BB72BB7A402B06DDBB7A5A2B03DC9B
:10197000BB7A03F1200200E0BA7A3B69591C396155
:101980001B78FB72FB7A402B05DDFB7A5A2B02DCBD
:10199000FB7A203300E0FB7AD31AFB60FB68002B54
:1019A0000CBF01230023DBB2002B0CD07B695A1C37
:1019B0007A611B78002B0CBF01230023DBB2002BC4
:1019C00000D1CCE700BFFB6818461C37BD4680BC81
:1019D0007047000000000000000000000000000050
:1019E00080B483B000AF78607B681B68B3F1804F30
:1019F0000ED14F4A4E4B5B6A43F0010353624C4A8F
:101A00004B4B1B6B23F001031363494B1B6B8AE0A9
:101A10007B681B68474A93420ED1454A444B5B6A38
:101A200043F002035362424A414B1B6B23F0020313
:101A300013633F4B1B6B76E07B681B683E4A934207
:101A40000ED13B4A3A4B5B6A43F004035362384A77
:101A5000374B1B6B23F004031363354B1B6B62E0A6
:101A60007B681B68354A93420ED1314A304B5B6A22
:101A700043F0100353622E4A2D4B1B6B23F01003CF
:101A800013632B4B1B6B4EE07B681B682C4A934205
:101A90000ED1274A264B5B6A43F020035362244A47
:101AA000234B1B6B23F020031363214B1B6B3AE08A
:101AB0007B681B68234A93420ED11D4A1C4B1B6A4C
:101AC00043F0040313621A4A194BDB6A23F0040340
:101AD000D362174BDB6A26E07B681B681A4A934285
:101AE0000ED1134A124B1B6A43F008031362104ACB
:101AF0000F4BDB6A23F00803D3620D4BDB6A12E065
:101B00007B681B68114A93420DD1094A084B1B6A36
:101B100043F010031362064A054BDB6A23F01003FF
:101B2000D362034BDB6A00BF0C37BD4680BC7047F5
:101B3000003802400004004000080040001000404F
:101B40000014004000080140000C0140001001405A
:101B500080B586B002AF78607B681846FFF740FF1B
:101B60007B681B687A689269DA627B681B7D012B4F
:101B700001D1072300E00623BB817B681B69013B81
:101B8000032B53D801A252F823F000BF9D1B00087D
:101B9000C11B0008E51B0008091C00087B681B68C6
:101BA0007A6812689269B98909010A439A617B6867
:101BB0001B687A681268126A42F001021A6236E003
:101BC0007B681B687A6812689269B98909030A43BD
:101BD0009A617B681B687A681268126A42F0100288
:101BE0001A6224E07B681B687A681268D269B98936
:101BF00009010A43DA617B681B687A681268126A15
:101C000042F480721A6212E07B681B687A6812687C
:101C1000D269B98909030A43DA617B681B687A686B
:101C20001268126A42F480521A6200E000BF7B68B8
:101C30001846FFF745FD0123FB737B681B68164AB6
:101C4000934204D07B681B68144A934202D102235A
:101C5000FB7310E07B681B68114A934209D07B68D4
:101C60001B68104A934204D07B681B680E4A93425B
:101C700001D10323FB737B6858687B6819897B68F3
:101C80005A7D02230193FB7B00930023FFF770FD35
:101C900000BF1037BD4680BD000400400008004072
:101CA00000080140000C014000100140000000004D
:101CB00080B584B000AF786039607B681B681946D6
:101CC000104800F0D5FB02467B681B68DB6A0133D5
:101CD000B2FBF3F3BB60BA683B68B2FBF3F3FB60A3
:101CE000FB68002B02D0FB68013BFB607B681B6834
:101CF000FA689A627B681B6800225A6200BF10373C
:101D0000BD4680BD180A0020000000000000000051
:101D100080B582B000AF7860FFF7A2FC7B681B68DB
:101D20001B6878689847FFF7A3FC00BF0837BD46DB
:101D300080BD000000000000000000000000000066
:101D400080B483B000AF7860114A114B5B6923F017
:101D5000800353617B681B78002B13D00C4B1B68EE
:101D600003F08003002B0CBF01230023DBB2002B08
:101D700000D0F3E7064A7B681B7853607B68013329
:101D80007B60E7E700BF0C37BD4680BC704700BFF3
:101D900000380140000000000000000000000000CA
:101DA00080B500AF0248FFF7CBFF01BEFEE700BFE2
:101DB0002C7F000800000000000000000000000070
:101DC00080B400AF154B9B6903F00103002B14BFD7
:101DD00001230023DBB2002B01D003231AE00F4BB9
:101DE0009B6903F48073002B14BF01230023DBB233
:101DF000002B01D00E230DE0084B9B6903F4F05338
:101E0000002B14BF01230023DBB2002B01D00123E0
:101E100000E000231846BD4680BC7047003C0240ED
:101E200080B584B000AF0346FB800023FB73FFF74F
:101E3000C7FF0346FB73FB88013BFB80FB7B032B47
:101E400003D1FB88002B00D0F1E7FB88002B01D1E8
:101E50000223FB73FB7B18461037BD4680BD000094
:101E600080B400AF0F4B5B6803F00103002B14BF7D
:101E700001230023DBB2002B0FD00A4B0A4ADA60A1
:101E8000084B0A4ADA60074B4FF480729A61054AA0
:101E9000044B5B6823F48073536000BFBD4680BC75
:101EA000704700BF003C0240EFCDAB890504030240
:101EB00080B400AF044A044B5B6843F001035360F5
:101EC00000BFBD4680BC7047003C024000000000DF
:101ED00080B483B000AF78607B6803F1006303F5E2
:101EE00000231B6818460C37BD4680BC70470000B5
:101EF00080B584B000AF786039607B6803F100631F
:101F000003F500237B607B681A683B689A4201D125
:101F1000002317E0FFF7A4FF4FF4E170FFF780FF05
:101F20000346FB73FB7B002B09D17B681A463B6899
:101F300013604FF4E170FFF773FF0346FB73FFF785
:101F4000B7FFFB7B18461037BD4680BD0000000080
:101F500080B582B000AF03F063FFFFF781FB0D4B4C
:101F60001B687B607B68002B02D07B68984703E08E
:101F700009490A4800F0F4FC094B01225A61FFF7B5
:101F800077FB03F06DFF05F083FA00BF0837BD460D
:101F900080BD00BFFC09002050810008607F000860
:101FA00000040140000000000000000000000000EC
:101FB00080B582B000AF03F033FFFFF751FB0D4B4C
:101FC0005B687B607B68002B02D07B68984703E0EE
:101FD00009490A4800F0C4FC094B02225A61FFF784
:101FE00047FB03F03DFF05F053FA00BF0837BD463D
:101FF00080BD00BFFC09002060810008607F0008F0
:10200000000401400000000000000000000000008B
:1020100080B582B000AF03F003FFFFF721FB0D4B4B
:102020009B687B607B68002B02D07B68984703E04D
:1020300009490A4800F094FC094B04225A61FFF751
:1020400017FB03F00DFF05F023FA00BF0837BD466C
:1020500080BD00BFFC09002070810008607F00087F
:10206000000401400000000000000000000000002B
:1020700080B582B000AF03F0D3FEFFF7F1FA0D4B4D
:10208000DB687B607B68002B02D07B68984703E0AD
:1020900009490A4800F064FC094B08225A61FFF71D
:1020A000E7FA03F0DDFE05F0F3F900BF0837BD469F
:1020B00080BD00BFFC09002080810008607F00080F
:1020C00000040140000000000000000000000000CB
:1020D00080B582B000AF03F0A3FEFFF7C1FA0D4B4D
:1020E0001B697B607B68002B02D07B68984703E00C
:1020F00009490A4800F034FC094B10225A61FFF7E5
:10210000B7FA03F0ADFE05F0C3F900BF0837BD46CE
:1021100080BD00BFFC09002090810008607F00089E
:10212000000401400000000000000000000000006A
:1021300080B500AF03F074FEFFF792FA0B4B1B68FB
:10214000002B03D0094B1B68984703E00849094856
:1021500000F006FC084B4FF478725A61FFF788FADA
:1021600003F07EFE05F094F900BF80BD100A002048
:10217000A0810008607F000800040140000000000A
:1021800080B500AF03F04CFEFFF76AFA0B4B1B68FB
:10219000002B03D0094B1B68984703E00849094806
:1021A00000F0DEFB084B4FF47C425A61FFF760FA07
:1021B00003F056FE05F06CF900BF80BD140A002044
:1021C000B0810008607F00080004014000000000AA
:1021D00080B400AF034B4CF6CC421A6000BFBD4642
:1021E00080BC70470030004000000000000000008C
:1021F00080B400AF034B45F255521A6000BFBD4694
:1022000080BC70470030004000000000000000006B
:1022100080B483B000AF0346FB71044AFB7953607E
:1022200000BF0C37BD4680BC704700BF0030004087
:1022300080B483B000AF0346FB80044AFB88936000
:1022400000BF0C37BD4680BC704700BF0030004067
:1022500080B584B000AF7860FFF7CAFF0620FFF7B3
:10226000D7FF7A681346DB0013449B0013441B0A14
:10227000FB60FB68B3F5805F02D340F6FF73FB6041
:10228000FB689BB21846FFF7D3FFFFF711FB00BFB7
:102290001037BD4680BD00000000000000000000B7
:1022A00080B582B000AF78600548FFF711FB786811
:1022B000FFF7CEFFFFF78CFF00BF0837BD4680BD9C
:1022C000180A0020000000000000000000000000CC
:1022D00090B59BB000AF786007F130032022002159
:1022E000184605F065FB4FF480333B634FF4003331
:1022F0007B634FF48023BB63524BFB63524B3B64C5
:10230000524B7B64524BBB64524A07F1240307CA09
:1023100003C31A70504B07F114040FCB84E80F006D
:102320004E4A07F10C0392E8030083E803004C4B8C
:102330009B6803F00C033B663B6E9B083B663B6E61
:10234000032B46D801A252F823F000BF5D230008FA
:102350007B2300088123000887230008404B5B682B
:102360005B0B03F007033B663B6E9B0007F16802C3
:10237000134453F8383C7B662BE03A4B7B6628E0ED
:10238000394B7B6625E0364B9B689B0C03F00F03B3
:102390003B6607F124023B6E13441B78FB65304B10
:1023A0009B689B0D03F003030133BB652C4B9B68BB
:1023B00003F48033002B01D12A4B00E02A4B7B66CB
:1023C0007B6EFA6D02FB03F2BB6DB2FBF3F37B662F
:1023D00000BF234B9B681B0903F00F0307F1680242
:1023E000134413F8543C3B667A6E3B6EDA407B68CC
:1023F0001A601B4B9B681B0A03F007037B65184B95
:102400009B68DB0A03F007033B6507F10C027B6D59
:1024100013441B783B667B681A683B6EDA407B6826
:102420005A6007F10C023B6D13441B783B667B68D6
:102430001A683B6EDA407B689A6000BF6C37BD4615
:1024400090BD00BF9CFF0700C0FD0F0068FF1F008C
:10245000D0FE3F00707F00087C7F00088C7F000862
:10246000003802400024F400001BB7000000000008
:1024700080B487B000AF7860396000237B613B682F
:10248000194A934207D03B68184A934203D03B68ED
:10249000174A934211D1174B9B68DB0A03F00703DD
:1024A000FB60FB68032B03D8134B9B687B6115E033
:1024B000114B9B685B007B6110E00E4B9B681B0A15
:1024C00003F007033B613B69032B03D80A4B5B68AE
:1024D0007B6103E0084B5B685B007B617B691846AE
:1024E0001C37BD4680BC704700080140000C01400D
:1024F0000010014000380240180A002000000000CF
:1025000080B582B000AF78600C4B1B680C4AA2FB10
:102510000323990C094B5B68094AA2FB0323980C1F
:10252000064B9B68064AA2FB03239B0C0246054808
:1025300000F0F6F900BF0837BD4680BD180A00203C
:1025400083DE1B43947F00080000000000000000B1
:1025500080B485B000AF0346FB71184B4FF080523A
:102560005A62174B5B6803F01003002B14BF012362
:102570000023DBB2002B00D0F3E7114B1B68FB609C
:10258000FB6823F4C053FB60FB79DB02FA6813435A
:10259000FB600B4AFB681360094B5B6803F0100398
:1025A000002B14BF01230023DBB2002B00D0F3E784
:1025B00000BF1437BD4680BC704700BF00380240E2
:1025C000007000400000000000000000000000005B
:1025D00080B485B000AF7860084611461A460346BD
:1025E000FB700B46BB7013467B707B681B68524ABE
:1025F00093420ED1514A514B1B6A43F480531362EC
:102600004E4A4E4BDB6A23F48053D3624B4BDB6A5A
:1026100012E07B681B684A4A93420DD1474A474BF8
:102620005B6A43F480435362444A444B1B6B23F47C
:1026300080431363414B1B6B7B681B684FF44172F3
:102640001A60FB78012B07D17B681B687A681268D7
:10265000126842F080021A60BB78012B07D17B68B8
:102660001B687A681268126842F002021A607B786E
:10267000012B07D17B681B687A681268126842F0E8
:1026800001021A607B681B682B4A934206D12D4BCE
:102690009A68BB69B2FBF3F3FB6005E0294B5A680B
:1026A000BB69B2FBF3F3FB600023FB72FB687F2B7B
:1026B00002DD0723FB7222E0FB683F2B02DD0623CD
:1026C000FB721CE0FB681F2B02DD0523FB7216E08A
:1026D000FB680F2B02DD0423FB7210E0FB68072B65
:1026E00002DD0323FB720AE0FB68032B02DD0223F9
:1026F000FB7204E0FB68012B01DD0123FB727B68A8
:102700001B687A6812681268F97AC9000A431A606D
:102710003B7F012B07D17B681B687A6812681268BF
:1027200042F400621A607B681B6800225A6000BF96
:102730001437BD4680BC704700300140003802406D
:1027400000380040180A00200000000000000000CF
:1027500080B582B000AF03F063FBFEF781FF0C4B46
:102760009B687B607B6803F00103002B06D0094B5C
:102770001B68002B02D0074B1B689847FEF778FFB9
:1027800003F06EFB04F084FE00BF0837BD4680BD39
:1027900000300140240A002000000000000000007A
:1027A00080B582B000AF03F03BFBFEF759FF0C4B46
:1027B0009B687B607B6803F00103002B06D0094B0C
:1027C0001B68002B02D0074B1B689847FEF750FF91
:1027D00003F046FB04F05CFE00BF0837BD4680BD39
:1027E00000380040280A002000000000000000001F
:1027F00080B582B000AF786039607B68A43318463A
:10280000FEF74EFF0346002BD4BF01230023DBB2AB
:10281000002B01D0022321E07B68A4331846FEF789
:102820002FFF7B68D3F8943003F108017A68C2F86F
:10283000941039681846FFF76BF87B68D3F894203A
:102840007B6890339A4203D37A687B68C3F89420FC
:102850007B689833184603F03BFF0023184608377F
:10286000BD4680BD00000000000000000000000028
:1028700080B483B000AF20237B607B6883F3118832
:1028800000BF0C37BD4680BC704700000000000050
:1028900080B483B000AF00237B607B6883F3118832
:1028A00000BF0C37BD4680BC704700000000000030
:1028B00080B500AFFFF7DCFF03F052FA00BF80BD28
:1028C00080B500AF03F064FA094B1B68084A9342D5
:1028D0000AD0074B9B699A68054B1B689B689A4214
:1028E00002D2044804F07CF9FFF7D2FF00BF80BD9C
:1028F00068120020D08100080000000000000000E5
:1029000080B483B000AF7860044A7B681A607B684B
:1029100018460C37BD4680BC704700BFC881000810
:102920000FB480B582B000AF07F114037B60FFF7EE
:10293000BFFF7A683969064800F02AF8FFF7C0FF40
:1029400000BF0837BD46BDE8804004B0704700BFF7
:10295000A81000200000000000000000000000009F
:102960000FB480B582B000AF07F114037B607A68C2
:102970003969054800F00CF800BF0837BD46BDE8CE
:10298000804004B0704700BFA81000200000000085
:1029900080B590B002AFF860B9607A60BB687B63C5
:1029A00000233B637B6B5A1C7A631B7887F82B30C0
:1029B00097F82B30002B00F01B8297F82B30252B3B
:1029C00011D0FB681B681B6897F82B201146F8682C
:1029D00098470346002B14BF01230023DBB2002BD2
:1029E00000F0F8810FE2202387F82A307B6B1B78F8
:1029F000302B05D17B6B01337B63302387F82A3082
:102A000000233B637B6B5A1C7A631B7887F82B305F
:102A100097F82B302F2B09DD97F82B30392B05DC5D
:102A200097F82B30303B87F82B3009E097F82B30A4
:102A30002A2B10D17B681A1D7A601B6887F82B300F
:102A40003A6B13469B0013445B001A4697F82B30F1
:102A500013443B63D6E700BF0023FB6297F82B309B
:102A60002E2B29D17B6B5A1C7A631B7887F82B306D
:102A700097F82B302F2B09DD97F82B30392B05DCFD
:102A800097F82B30303B87F82B3009E097F82B3044
:102A90002A2B10D17B681A1D7A601B6887F82B30AF
:102AA000FA6A13469B0013445B001A4697F82B30D2
:102AB0001344FB62D6E700BF97F82B30253B502B21
:102AC0003FF670AF01A252F823F000BFB72D000807
:102AD000A5290008A5290008A5290008A52900089E
:102AE000A5290008A5290008A5290008A52900088E
:102AF000A5290008A5290008A5290008A52900087E
:102B0000A5290008A5290008A5290008A52900086D
:102B1000A5290008A5290008A5290008A52900085D
:102B2000A5290008A5290008A5290008A52900084D
:102B3000A5290008A5290008A5290008252D0008B9
:102B4000A5290008A5290008A5290008A52900082D
:102B5000A5290008A5290008A5290008A52900081D
:102B6000A5290008A5290008A5290008A52900080D
:102B7000A5290008A5290008A5290008A5290008FD
:102B8000A52900083B2C0008A5290008A529000854
:102B9000A5290008A5290008772C0008A529000808
:102BA000A5290008A5290008A5290008A5290008CD
:102BB000A5290008A5290008A5290008A5290008BD
:102BC000A5290008112C0008CF2C0008A529000811
:102BD000A5290008A5290008A5290008CF2C000870
:102BE000A5290008A5290008A5290008A52900088D
:102BF000A5290008A5290008A5290008A52900087D
:102C0000A52900083B2C0008A5290008A32C0008D2
:102C1000FB681B681A687B68191D79601B68DBB24A
:102C20001946F86890470346002B14BF0123002380
:102C3000DBB2002B00F0D080E5E07B681A1D7A60E3
:102C40001B687B627B6A1B78002B00F0C780FB68E7
:102C50001B681A687B6A591C79621B781946F868E8
:102C600090470346002B14BF01230023DBB2002B47
:102C700040F0C080E6E77B681A1D7A60196897F813
:102C80002A3000933B6B1022F86800F0C9F8034625
:102C9000002B14BF01230023DBB2002B00F0A08027
:102CA000B1E07B681A1D7A60196897F82A300093A2
:102CB0003B6B0A22F86800F0B3F80346002B14BF00
:102CC00001230023DBB2002B00F08C809BE07B68AB
:102CD0001A1D7A601B683B623B6A002B10DAFB68A6
:102CE0001B681B682D21F86898470346002B14BF0A
:102CF00001230023DBB2002B7ED13B6A5B423B62A7
:102D0000396A97F82A3000933B6B0A22F86800F082
:102D100087F80346002B14BF01230023DBB2002BEE
:102D200062D070E07B681A1D7A601B68BB617B68AB
:102D30001A1D7A601B687B617B681A1D7A601B68AC
:102D40003B61302387F82A3002233B630023FB6179
:102D5000FA697B699A4249DAFB69002B12DD3B690B
:102D6000002B0FD0FB681B681B683A69D2B2114672
:102D7000F86898470346002B14BF01230023DBB2F9
:102D8000002B3BD1FB69BA6913441B78194697F8AD
:102D90002A3000933B6B1022F86800F041F803469C
:102DA000002B14BF01230023DBB2002B28D1FB69C9
:102DB0000133FB61CCE7FB681B681B682521F868C1
:102DC00098470346002B14BF01230023DBB2002BDE
:102DD00018D10CE000BFE5E500BFE3E500BFE1E589
:102DE00000BFDFE500BFDDE500BFDBE500BFD9E5E3
:102DF00000BF08E000BF06E000BF04E000BF02E043
:102E000000BF00E000BFFB681B6804331B68F86864
:102E1000984700BF3837BD4680BD00BF00000000A6
:102E200080B58AB000AFF860B9607A603B6000237B
:102E30007B62BB687A68B3FBF2F2796801FB02F24D
:102E40009B1AFB61BA687B68B2FBF3F3BB607B6AD9
:102E50005A1C7A62FA69092A04D8FA69D2B2303265
:102E6000D2B203E0FA69D2B23732D2B207F1280106
:102E70000B4403F8182CBB68002B00D0D9E77B6A01
:102E80003B623A6A3B689A4215D2FB681B681B6832
:102E900097F830201146F86898470346002B14BF76
:102EA00001230023DBB2002B01D00C231FE03B6A7F
:102EB00001333B62E5E77B6A002B17D0FB681B6898
:102EC0001B687A6A013A7A6207F110017A6A0A4449
:102ED00012781146F86898470346002B14BF012367
:102EE0000023DBB2002BE6D00C2300E000231846C1
:102EF0002837BD4680BD0000000000000000000033
:102F000080B483B000AF20237B607B6883F311889B
:102F100000BF0C37BD4680BC7047000000000000B9
:102F200080B483B000AF00237B607B6883F311889B
:102F300000BF0C37BD4680BC704700000000000099
:102F400080B500AFFFF7DCFF02F00AFF00BF80BDD5
:102F500080B500AF02F01CFF094B1B68084A934282
:102F60000AD0074B9B699A68054B1B689B689A427D
:102F700002D2044803F034FEFFF7D2FF00BF80BD49
:102F800068120020208200080000000000000000FD
:102F900080B483B000AF78607B68174A934206D153
:102FA000164A164BDB6943F00103D3611FE07B68CF
:102FB000134A934206D1114A104BDB6943F00203D6
:102FC000D36114E07B680F4A934206D10B4A0B4B46
:102FD000DB6943F00403D36109E07B680A4A93424A
:102FE00005D1064A054BDB6943F00803D36100BFF6
:102FF0000C37BD4680BC70470000024000380240DC
:103000000004024000080240000C024000000000E2
:1030100080B584B000AF7860084611461A46034672
:103020007B800B467B7013463B707868FFF7B0FFE0
:103030007B885B00FB607B681B680321FA6801FAF0
:1030400002F2D2431A407B681A607B681B68022137
:10305000FA6801FA02F21A437B681A607B78002B47
:103060000AD17B685B687A88012101FA02F2D243B7
:103070001A407B685A6008E07B685B687A880121A7
:1030800001FA02F21A437B685A607B68DB6803210D
:10309000FA6801FA02F2D2431A407B68DA607B6870
:1030A000DA683978FB6801FA03F31A437B68DA605F
:1030B0007B689B680321FA6801FA02F2D2431A4046
:1030C0007B689A607B689A68397FFB6801FA03F332
:1030D0001A437B689A607B88072BCCBF01230023AF
:1030E000DBB2BB607B88072B02DC7B889B0002E0A5
:1030F0007B88083B9B00FB607B68BA68083253F80A
:1031000022300F21FA6801FA02F2D24303EA0201E7
:103110007B68BA68083243F822107B68BA680832C4
:1031200053F82220397EFB6801FA03F342EA0301D7
:103130007B68BA68083243F8221000BF1037BD46DA
:1031400080BD000000000000000000000000000042
:1031500080B485B000AFF8600B467A60FB72FB6804
:103160007A681A60FB68FA7A5A71FB681846143755
:10317000BD4680BC70470000000000000000000059
:1031800080B582B000AF78600B46FB707B6893F827
:103190006830002B06D07B68002283F868207B68AB
:1031A00000225A66FB78082B09D17B685B6E002BE6
:1031B0002ED07B685B6E5A1E7B685A6628E0FB78CF
:1031C0000D2B02D0FB780A2B16D17B685B6E002B8F
:1031D0001ED07B685B6E7A680021D1547B680F49F2
:1031E000184604F0ADFC02467B68DA667B68012273
:1031F00083F8682001230CE07B685B6E612B07D8A5
:103200007B685B6E591C7A6851667A68F978D1548C
:10321000002318460837BD4680BD00BFD07F000898
:1032200080B483B000AF786000BF0C37BD4680BC6F
:1032300070470000000000000000000000000000D7
:1032400080B582B000AF78600B46FB707B68FA787F
:103250001146184600F0F4F8034618460837BD46F4
:1032600080BDA0F59260EBE70000000000000000C8
:1032700080B582B000AF78607B68184600F018F91E
:1032800000BF0837BD4680BDA0F59260F0E70000A2
:103290000EB480B585B000AF786007F12003FB6005
:1032A0007B6803F59263FA68F9691846FFF770FBCB
:1032B00000BF1437BD46BDE8804003B07047A0F1A1
:1032C0009400A0F58060E3E700000000000000002B
:1032D00080B582B000AF78603960786800F008F897
:1032E00000BF0837BD4680BD0000000000000000A0
:1032F00080B582B000AF78607B685B685B687A6895
:1033000052685268126822F00F021A607B685B688C
:103310001B687A685268527B11460E228A405A60B6
:103320007B68D3F81C247B68D3F82034D21A7B68DE
:10333000C3F81C247B68D3F810247B68D3F82034AE
:103340001A447B68C3F810247B68D3F810247B6888
:10335000103303F580639A4205D37B6803F11002B2
:103360007B68C3F810247B68D3F81C34002B09D188
:103370007B68012283F818247B681B681B687868C7
:10338000984702E0786800F00BF800BF0837BD46A8
:1033900080BD0000000000000000000000000000F0
:1033A00080B485B000AF78607B68103303F580632C
:1033B0001A467B68D3F81034D31AFB607B68D3F8C5
:1033C0001C24FB689A4203D27B68D3F81C3400E0CB
:1033D000FB687A68C2F820347B68D3F82034002B6D
:1033E00022D07B68002283F818247B685B685B68C6
:1033F0007A68D2F81024DA607B685B685B687A6868
:10340000D2F820245A607B685B685B687A68D2686F
:10341000126A1A607B685B685B687A6852685268F7
:10342000126842F001021A6000BF1437BD4680BC2A
:1034300070470000000000000000000000000000D5
:1034400080B483B000AF78600B46FB707B68D3F824
:103450001C34B3F5806F01D30C231EE07B68D3F8D6
:103460001434591C7A68C2F81414FA781A707B68FC
:10347000D3F814247B6803F582639A4205D37B68F2
:1034800003F110027B68C3F814247B68D3F81C3462
:103490005A1C7B68C3F81C24002318460C37BD4611
:1034A00080BC704700000000000000000000000029
:1034B00080B582B000AF78607B6893F81834002B39
:1034C00002D07868FFF76CFF00BF0837BD4680BDAB
:1034D00080B485B000AF786039607B689B685B68BA
:1034E0005B68C3F16303BB607B68D3F82834BA68B8
:1034F000D31AFB60FB68002B02DAFB686333FB60C6
:10350000FB68002B01D10B2316E07B68D3F828342D
:10351000591C7A68C2F828147A68134493F82C244A
:103520003B681A707B68D3F82834622B03DD7B6814
:103530000022C3F82824002318461437BD4680BC57
:1035400070470000000000000000000000000000C4
:1035500080B586B002AF78600123FB730723FB734D
:103560007B68DB6898687B68DB6899890223019334
:10357000FB7B009300230022FFF74AFD7B68DB689A
:103580005B685C4A93420ED15B4A5B4B1B6A43F417
:1035900080431362584A584BDB6A23F48043D3625A
:1035A000554BDB6A28E07B68DB685B68534A9342D3
:1035B0000ED1514A504B5B6A43F4003353624E4A7A
:1035C0004D4B1B6B23F4003313634B4B1B6B13E00E
:1035D0007B68DB685B684A4A93420DD1464A464B9A
:1035E0005B6A43F480235362434A434B1B6B23F4CF
:1035F00080231363404B1B6B786800F089F87B686D
:10360000DB685B6800221A617B68DB6898697B680D
:103610003C4A092104F044F902467B685A607B6801
:103620005B685B687A68D268526804329A607B682B
:103630005B685B687A68D268126A1A607B680122EC
:1036400083F818247B68DB685B680C22DA607B688F
:10365000DB685B68C0225A610723FB737B68DB6809
:1036600018697B68DB68998A02230193FB7B0093CE
:1036700001230122FFF7CCFC7B68DB68D8690023BB
:103680000022092104F00CF902467B689A607B68ED
:103690009B685B687A68D268526804329A607B687B
:1036A0009B685B687A6802F22C42DA607B689B68F0
:1036B0005B6863225A607B689B685B687A68D26843
:1036C000526A1A607B689B685B687A689268526885
:1036D000126842F001021A607B68DB685B687A68F6
:1036E000D2685268D26842F40052DA6000BF1037E4
:1036F000BD4680BD00380140003802400044004013
:1037000000480040D1320008000000000000000026
:1037100080B483B000AF78607B68DB685B680F4A79
:1037200093420BD17B68DB685B680D4A91687A68CD
:10373000D2681268B1FBF2F29A600AE07B68DB683B
:103740005B68074A51687A68D2681268B1FBF2F286
:103750009A6000BF0C37BD4680BC704700380140FE
:10376000180A002000000000000000000000000017
:1037700080B586B000AF78607B6893F88F3483F0B3
:103780000103DBB2002B32D17B6807F10F02114637
:103790001846FFF79DFE0346002B0CBF01230023B4
:1037A000DBB2002B24D07B6803F59363FA7B1146D0
:1037B0001846FFF7E5FC0346012B0CBF012300234D
:1037C000DBB2002BE0D07B68002283F88F247B687B
:1037D00003F2944207F1100301211846FFF7B8FCE9
:1037E00007F110031946044800F00AF8CCE700BFBF
:1037F0001837BD4680BD00BF400B00200000000010
:1038000080B584B000AF78603960FFF799FB396804
:103810007868FEF7EDFF0346FB7302F071FEFFF7D9
:1038200097FBFB7B18461037BD4680BD00000000AB
:1038300080B483B000AF20237B607B6883F3118862
:1038400000BF0C37BD4680BC704700000000000080
:1038500080B483B000AF00237B607B6883F3118862
:1038600000BF0C37BD4680BC704700000000000060
:1038700080B500AFFFF7DCFF02F072FA00BF80BD39
:1038800080B500AF02F084FA094B1B68084A9342E6
:103890000AD0074B9B699A68054B1B689B689A4244
:1038A00002D2044803F09CF9FFF7D2FF00BF80BDAD
:1038B00068120020308300080000000000000000B3
:1038C00080B582B000AF786002F0EAFA7B68DB680E
:1038D000002B14BF01230023DBB218460837BD4676
:1038E00080BD00000000000000000000000000009B
:1038F00080B582B000AF78607868FFF7E1FF0346DB
:10390000002B02D0786803F0EBFC00BF0837BD46FF
:1039100080BD00000000000000000000000000006A
:1039200080B584B000AFF860B9607A603B60F86839
:10393000FFF7DEFF3B687A68B968F86803F008FCB7
:1039400000BF1037BD4680BD000000000000000031
:1039500080B483B000AF7860044A7B681A607B68EB
:1039600018460C37BD4680BC704700BF288300084E
:1039700080B483B000AF786039607B683A681A60C1
:103980007B6818460C37BD4680BC704700000000BD
:1039900080B485B000AFF860B9603B601346FB802F
:1039A000FB68BA681A60FB68FA889A80FB683A6814
:1039B0009A60FB68BA69DA60FB683A7F1A74FB6840
:1039C00097F820205A74FB687A6A5A61FB68184697
:1039D0001437BD4680BC70470000000000000000A6
:1039E00080B483B000AF78607B68174A934206D1F9
:1039F000164A164BDB6943F00103D3611FE07B6875
:103A0000134A934206D1114A104BDB6943F002037B
:103A1000D36114E07B680F4A934206D10B4A0B4BEB
:103A2000DB6943F00403D36109E07B680A4A9342EF
:103A300005D1064A054BDB6943F00803D36100BF9B
:103A40000C37BD4680BC7047000002400038024081
:103A50000004024000080240000C02400000000088
:103A600080B584B000AF7860084611461A46034618
:103A70007B800B467B7013463B707868FFF7B0FF86
:103A80007B88DBB25B00FB737B681B68FA7B0321DE
:103A900001FA02F2D2431A407B681A607B681B6805
:103AA000FA7B012101FA02F21A437B681A607B68F3
:103AB0005B687A88012101FA02F2D2431A407B68DE
:103AC0005A607B685A6879787B8801FA03F31A4355
:103AD0007B685A607B68DB68FA7B032101FA02F29B
:103AE000D2431A407B68DA607B68DA687B68DA6008
:103AF0007B689B68FA7B032101FA02F2D2431A40E9
:103B00007B689A607B689A683978FB7B01FA03F3DB
:103B10001A437B689A6000BF1037BD4680BD000025
:103B200080B483B000AF78600B467B807B681B68F5
:103B300003F134027B681B6903F18043013B9B0066
:103B400013447A881A6000BF0C37BD4680BC7047AA
:103B500080B582B000AF786039607B6839681846FC
:103B6000FEF7A6F800BF0837BD4680BD0000000084
:103B7000B0B582B000AF786039607A683B689B6806
:103B800019461046FFF7F4FE7B681A1D3B68144681
:103B90001D460FCD0FC495E8030084E803007B6841
:103BA00018460837BD46B0BD000000000000000008
:103BB00080B485B000AFF860B96011461A460B4674
:103BC000FB8013467B71FB68BA681A60FB68FA8851
:103BD0009A80FB687A799A71FB88042B05DCFB8854
:103BE0000A49BA6941F8232009E0FB88092B03DC64
:103BF000074ABB69136002E0064ABB691360FB68B1
:103C000018461437BD4680BC704700BFFC09002031
:103C1000100A0020140A002000000000000000002C
:103C200080B400AF034B4AF6AA221A6000BFBD461B
:103C300080BC704700300040000000000000000021
:103C400080B400AF0A4A0A4B1B6943F004031361B6
:103C5000084B02221A60074A064B1B6843F0040314
:103C6000136000BF00BF30BF00BFBD4680BC7047BF
:103C700000ED00E0007000400000000000000000C7
:103C800080B400AF064B5B6803F00203002B14BF47
:103C900001230023DBB21846BD4680BC704700BF3D
:103CA0000070004000000000000000000000000064
:103CB00080B483B000AF786039607B683A681A607E
:103CC0007B6818460C37BD4680BC7047000000007A
:103CD00080B485B000AF7860084B5B6823F4604324
:103CE000FB60FB6843F44043FB60044AFB6853609D
:103CF00000BF1437BD4680BC704700BF003802408B
:103D000080B582B000AF786039600D49002003F0C3
:103D100017FF02467B681A673B68002B03D07B685D
:103D20001A6F3B681A607B681B6F1B78002B01D1F0
:103D30000B2300E0002318460837BD4680BD00BFB6
:103D4000F07F0008000000000000000000000000FC
:103D500080B582B000AF786039607B68DB6E39680F
:103D60001846FDF7EDFD0346002B0CBF0123002391
:103D7000DBB218460837BD4680BD000000000000D9
:103D800080B483B000AF78607B6800225A667B689D
:103D9000002283F868207B680022DA667B680022B4
:103DA0001A677B6818460C37BD4680BC7047000018
:103DB00080B485B000AFF860B9607A603B60FB68A2
:103DC000BA681A60FB687A685A60FB683A689A6059
:103DD000FB683A8B9A81FB68FA691A61FB683A8C36
:103DE0009A82FB687A6A9A61FB68BA6ADA61FB6850
:103DF000FA6A1A62FB683A6B5A62FB681846143713
:103E0000BD4680BC704700000000000000000000BC
:103E100080B483B000AF78603960184A7B681A605C
:103E20007B683A68DA607B6803F110027B68C3F84C
:103E300010247B6803F110027B68C3F814247B68AC
:103E4000012283F818247B680022C3F81C247B68B5
:103E50000022C3F820247B680022C3F824247B6856
:103E60000022C3F828247B68012283F88F247B6812
:103E700018460C37BD4680BC704700BF0883000859
:103E800080B582B000AF7860064A7B681A607B68B4
:103E900004331846FFF774FF7B6818460837BD46A1
:103EA00080BD00BF18830008000000000000000073
:103EB00080B582B000AF786039607B683968184699
:103EC000FFF7A6FF7B6803F592631846FEF718FD1F
:103ED0007B6803F294431846FFF7D2FF074A7B68DA
:103EE0001A60074A7B68C3F89024064A7B68C3F8C7
:103EF00094247B6818460837BD4680BDE8810008D9
:103F00000482000814820008000000000000000085
:103F100080B582B000AF78600B46FB70FB781A4624
:103F20003E217868FDF744FA00BF0837BD4680BDE2
:103F300080B582B000AF78600B46FB70FB781A4604
:103F400006217868FDF734FA00BF0837BD4680BD0A
:103F500080B582B000AF78607B6893F82030002B8A
:103F60000CD07868FCF754FF0346002B14BF0123E4
:103F70000023DBB2002BEFD0012311E0332178685E
:103F8000FDF74EFA0346002B14BF01230023DBB2DA
:103F9000002B01D0012303E07868FCF799FE03466B
:103FA00018460837BD4680BD000000000000000034
:103FB00080B586B002AFF860B9607A607B80FB683C
:103FC0001846FFF7C5FC184AFB681A60FB68043303
:103FD000B9681846FFF76CFEFB687A689A60FB6860
:103FE0003A6ADA60FB687A881A82FB683A8B5A82EE
:103FF000FB68BA8B9A82FB68BA8CDA82FB6803F1A1
:104000001800BA8D094B00930023B96AFFF7D0FD61
:10401000FB68002283F82020FB6800225A62FB68BC
:1040200018461037BD4680BDF8820008710E0008A2
:1040300080B483B000AF03463960FB80FB88043353
:104040001A463B68B3FBF2F3013318460C37BD4602
:1040500080BC70470000000000000000000000006D
:1040600080B483B000AF786039607B681A683B68C1
:104070001B689A420CBF01230023DBB218460C37A1
:10408000BD4680BC7047000000000000000000003A
:1040900080B483B000AF786039607B681A683B6891
:1040A0001B689A4214BF01230023DBB218460C3769
:1040B000BD4680BC7047000000000000000000000A
:1040C00080B483B000AF786039603B681A687B6861
:1040D0001A607B6818460C37BD4680BC70470000EC
:1040E00080B483B000AF786039607B681B781A4673
:1040F0003B681B789A4206DA7B681B780133DAB298
:104100007B681A700CE07B681B781A463B681B784A
:104110009A4205DD7B681B78013BDAB27B681A7036
:104120007B685B781A463B685B789A4206DA7B6864
:104130005B780133DAB27B685A700CE07B685B789D
:104140001A463B685B789A4205DD7B685B78013BE9
:10415000DAB27B685A707B689B781A463B689B781A
:104160009A4206DA7B689B780133DAB27B689A70F0
:104170000CE07B689B781A463B689B789A4205DD89
:104180007B689B78013BDAB27B689A707B68DB784E
:104190001A463B68DB789A4206DA7B68DB780133A3
:1041A000DAB27B68DA700CE07B68DB781A463B6831
:1041B000DB789A4205DD7B68DB78013BDAB27B680D
:1041C000DA7000BF0C37BD4680BC704700000000AD
:1041D00080B586B000AFF860B9607A60FB681A7885
:1041E000BB681B789A4208D0FB681B789BB2796841
:1041F0001846FFF71DFF034600E000237B61FB68C4
:104200005A78BB685B789A4208D0FB685B789BB2AF
:1042100079681846FFF70CFF034600E000233B6176
:104220003A697B699A4201D93B697B61FB689A785C
:10423000BB689B789A4208D0FB689B789BB27968F0
:104240001846FFF7F5FE034600E000233B613A699C
:104250007B699A4201D93B697B61FB68DA78BB686C
:10426000DB789A4208D0FB68DB789BB27968184605
:10427000FFF7DEFE034600E000233B613A697B69FD
:104280009A4201D93B6900E07B6918461837BD4660
:1042900080BD0000000000000000000000000000E1
:1042A00080B483B000AF78607B6800221A707B68AE
:1042B00000225A707B6800229A707B680022DA70B4
:1042C0007B6818460C37BD4680BC70470000000074
:1042D00080B483B000AF78607B6800221A7000223F
:1042E0005A7000229A700022DA707B6800225A719C
:1042F0007B6818460C37BD4680BC70470000000044
:1043000080B582B000AF78607B682C3300211846FE
:10431000FFF706FC00BF0837BD4680BD0000000067
:1043200080B582B000AF78607B6803F12C027B68B7
:10433000DB69B3F805309BB219461046FFF708FC5D
:104340007B6803F12C027B68DB69D3F801309BB2F8
:1043500019461046FFF7E4FB7B68DB69DA1D7B68D2
:10436000DA61002318460837BD4680BD0000000012
:1043700080B582B000AF78607B681846FFF7E8FA36
:10438000084A7B681A607B684FF0FF321A627B68CC
:1043900024331846FFF79CFF7B6818460837BD4654
:1043A00080BD00BFD88200080000000000000000AF
:1043B00084B080B582B000AF786007F1140080E867
:1043C0000E007B6818462C231A46002103F0F0FAF1
:1043D0007B681846FFF7CCFF094A7B681A607B6848
:1043E0002C3307F1140211461846FFF7C1FB7B6816
:1043F00018460837BD46BDE8804004B0704700BF8E
:10440000B88200080000000000000000000000006A
:1044100080B582B000AF78607B682C331846FDF71A
:1044200097FB00BF0837BD4680BD000000000000BC
:1044300090B585B000AF78607B681B680C331C6852
:1044400007F10800002300220021FCF7C9F8B96831
:104450007868A0477B6803F1840407F10C0000230F
:1044600000220021FCF7BCF807F10C031946204696
:10447000FFF726FE00BF1437BD4690BD00000000C8
:1044800080B584B000AF78607B6803F184027B68FC
:10449000DB69053319461046FFF7FAFD0346002B8A
:1044A0005DD07B68DB69D3F80130002B1BD17B68C2
:1044B0001B680C331B687A68D269D2F80520114654
:1044C000786898477B6803F184027B68DB69053371
:1044D00019461046FFF7F4FD7B68DB6903F109021A
:1044E0007B68DA6141E07B6803F184027B68DB6909
:1044F000053319461046FFF7F3FD7B681B680C3344
:104500001B687A68D2F88410786898477B6803F152
:1045100084027B68DB69053319461046FFF7A0FD6E
:104520000346002B06D07B68DB6903F109027B6838
:10453000DA611AE07B6803F184007B68DB69591D4E
:104540007B68DB69D3F801301A46FFF741FEF8605B
:104550007B68F968184600F053FC012306E07B688D
:10456000DB6903F109027B68DA6100231846103722
:10457000BD4680BD000000000000000000000000FB
:1045800080B582B000AF78607B681846FFF7E0F92D
:10459000084A7B681A607B684FF0FF321A627B68BA
:1045A00024331846FFF794FE7B6818460837BD464B
:1045B00080BD00BF988200080000000000000000DD
:1045C00084B080B582B000AF786007F1140080E855
:1045D0000E007B6818462C231A46002103F0E8F9E8
:1045E0007B681846FFF7CCFF154A7B681A607B682A
:1045F0002C3307F1140211461846FFF7B9FA7B680D
:10460000483307F12C0211461846FFF7B1FA7B68D0
:10461000643307F1440211461846FFF7A9FA7B6894
:10462000FA6DC3F880207B6884331846FFF738FEA4
:104630007B6818460837BD46BDE8804004B0704727
:104640007882000800000000000000000000000068
:1046500090B585B000AF78607B682C331846FDF7C5
:1046600077FA7B6803F12C027B68D3F88030194617
:104670001046FFF76DFA7B6848331846FDF768FA75
:104680007B6803F148027B68D3F8803019461046F6
:10469000FFF75EFA7B6864331846FDF759FA7B68CA
:1046A00003F164027B68D3F8803019461046FFF7A7
:1046B0004FFA7B681B680C331C6807F10C00002361
:1046C00000220021FBF78CFFF9687868A04700BF43
:1046D0001437BD4690BD000000000000000000003F
:1046E00080B483B000AF7860396000BF0C37BD463E
:1046F00080BC7047000000000000000000000000C7
:1047000084B0F0B593B010AF786007F1240080E872
:104710000E007E68FB6E0F9309AD07F154040FCCB9
:104720000FC594E8030085E8030003AD07F13C04DE
:104730000FCC0FC594E8030085E803006C4607F131
:10474000300393E8070084E8070007F124030ECB49
:104750003046FFF735FF054A7B681A607B681846CC
:104760000C37BD46BDE8F04004B0704758820008E1
:1047700080B582B000AF786039607B682C333A78BE
:1047800092B211461846FFF7CBF97B6848337A7826
:1047900092B211461846FFF7C3F97B686433BA78C2
:1047A00092B211461846FFF7BBF900BF0837BD4665
:1047B00080BD0000000000000000000000000000BC
:1047C00080B58CB002AFC620FDF76AFD0220FDF770
:1047D000BFFEA448FFF77CFAA248FDF779FD01F07F
:1047E000DFF802F0CDF9022300220F219E48FFF7E7
:1047F00037F99D4B3B620F23FB610122FB6902FAF3
:1048000003F31A463B6A9A61022300220E2196485E
:10481000FFF726F99548FEF79BFE00F059FAFFF7DF
:104820002FFA034683F00103DBB2002B47D09048F8
:10483000FFF70EFF8F498E4800F05AFB8E4B196828
:104840008E4B1B688E4A1288019200930B468D4A4C
:104850008D498E48FEF764F88248FDF751FE00232B
:104860007B627B6A1A2B2ADC40F2DE3002F058FBB6
:10487000FFF7D6F907F10B0319467C48FEF728FE2F
:104880000346002B0CBF01230023DBB2002B12D008
:10489000FB7A19467E48FEF773FC0346012B0CBFDA
:1048A00001230023DBB2002BE4D0794800F010F99B
:1048B00000237B62DEE77B6A01337B62D1E77548C8
:1048C000FCF7E6FA0346002B0CBF01230023DBB202
:1048D000002B00F09380FFF7D3F9034683F0010328
:1048E000DBB2002B0FD06C49614800F001FB40F2B5
:1048F000EC4002F015FBFFF793F940F2EC4002F0B8
:104900000FFBFFF78DF986216248FFF701FB0721B6
:104910006048FFF70DFB00215E48FCF731FC564B69
:104920001B689BB2BB800023FB80544B1B685BB2AF
:104930003B72534B1B88A7F809304B4B3B610E234E
:10494000FB600122FB6802FA03F31A463B699A6195
:104950005048FFF7FDFA3B1D072219464D48FCF76A
:104960002FFC414BBB610E237B617B69103301221D
:1049700002FA03F31A46BB699A61FFF751F93A1D2F
:1049800000230093072304214248FCF739FC034627
:10499000002B0CBF01230023DBB2002B2AD0BB88E5
:1049A000012B27D1FB881A46334B1B689A4221D131
:1049B00097F90830002B12DD2D48FFF749FE3748E4
:1049C000FFF726FD3649354800F0B2FA3549284848
:1049D00000F08EFA4FF4876002F0A2FA0AE097F92D
:1049E0000830184600F0BCF9B7F809309BB21846F9
:1049F00000F0DEF92748FCF71BFA2AE01C48FFF715
:104A000027FE29491A4800F073FA40F2EC4002F000
:104A100087FAFFF705F940F2EC4002F081FAFFF760
:104A2000FFF840F2EC4002F07BFAFFF7F9F840F2B1
:104A3000EC4002F075FAFFF7F3F840F2EC4002F0B8
:104A40006FFAFFF7EDF840F2EC4002F069FAFFF779
:104A5000E7F8FEF70DFFFFF7E3F8FFF7F1F8FEF7D1
:104A60000FFFFEE7180A002000080240180C002083
:104A7000241100202C0A0020000800200408002037
:104A800008080020F47F0008048000081480000853
:104A9000B0100020F4110020500A0020AC110020BA
:104AA00030820008E00A0020740A002000000000A4
:104AB00080B582B000AF786079680348FDF730FFB9
:104AC00000BF0837BD4680BD3480000800000000EC
:104AD000B0B588B000AF786071497868FFF738F9F1
:104AE0000346002B03D00020FFF7E2FFD4E06D491E
:104AF0007868FFF72DF90346002B06D06A4B1B6838
:104B000019466A48FDF70CFFC6E069497868FFF767
:104B10001FF90346002B1AD007F11C0319467868C9
:104B200000F026FA0346002B14BF01230023DBB25A
:104B3000002B03D00520FFF7BBFFADE0FB69184653
:104B400000F0E6F803461846FFF7B2FFA4E0594923
:104B50007868FFF7FDF80346002B06D0564B1B681C
:104B600019465648FDF7DCFE96E055497868FFF790
:104B7000EFF80346002B1AD007F11803194678689E
:104B800000F0F6F90346002B14BF01230023DBB22B
:104B9000002B03D00520FFF78BFF7DE0BB69184693
:104BA00000F0DEF803461846FFF782FF74E045493F
:104BB0007868FFF7CDF80346002B1AD007F11403ED
:104BC0001946786800F0FCF90346002B14BF012356
:104BD0000023DBB2002B03D00520FFF769FF5BE069
:104BE0007B69184600F0E4F803461846FFF760FFBB
:104BF00052E035497868FFF7ABF80346002B4BD0FD
:104C000007F110031946786800F0B2F90346002B4B
:104C100014BF01230023DBB2002B03D00520FFF7D4
:104C200047FF39E007F10C031946786800F0A0F956
:104C30000346002B14BF01230023DBB2002B03D05B
:104C40000520FFF735FF27E007F1080319467868CC
:104C500000F0B6F90346002B14BF01230023DBB29A
:104C6000002B03D00520FFF723FF15E03B69184612
:104C700000F04EF803461C46FB68184600F070F83A
:104C800003461D46BB68184600F092F803462A46C4
:104C900021460E48FDF744FE2037BD46B0BD00BF9B
:104CA000408000084880000800080020508000086C
:104CB0005880000860800008040800206880000810
:104CC00070800008788000088080000884800008D8
:104CD00080B500AF0020FDF7FBF803461A46094BEC
:104CE0001A600420FDF7F4F803461A46064B1A60D2
:104CF0000820FDF7EDF803469AB2044B1A8000BF76
:104D000080BD00BF00080020040800200808002023
:104D100080B584B000AF78607B6819460020FDF74D
:104D2000E7F80346FB73FB7B002B04D1074A7B6843
:104D30001360002305E0FB7B19460548FDF7F0FDF5
:104D4000012318461037BD4680BD00BF0008002073
:104D50009480000800000000000000000000000037
:104D600080B584B000AF78607B6819460420FDF7F9
:104D7000BFF80346FB73FB7B002B04D1074A7B681B
:104D80001360002305E0FB7B19460548FDF7C8FDCD
:104D9000012318461037BD4680BD00BF040800201F
:104DA00094800008000000000000000000000000E7
:104DB00080B584B000AF786079680820FDF798F876
:104DC0000346FB73FB7B002B05D17B689AB2074B34
:104DD0001A80002305E0FB7B19460548FDF7A0FD7E
:104DE000012318461037BD4680BD00BF08080020CB
:104DF0009480000800000000000000000000000097
:104E00002DE9F04F87B000AF786139617B690433D9
:104E10007B603B6919464FF000020B461446A00028
:104E2000F860F86840EA9370F8609C00BC60D7E9CD
:104E300002345B1844EB02044FEAC40B4BEA537B89
:104E40004FEAC30A53465C465B1A64EB02044FEA1E
:104E5000041949EA13794FEA031843464C465B1894
:104E600044EB0204260146EA13761D012B46344624
:104E70001946224640F2E7334FF00004CD1842EBCA
:104E80000406284631464FF47A724FF00003FBF7D0
:104E900017FA03460C4619467B69044A7868FEF700
:104EA0003FFD00BF1C37BD46BDE8F08F111D000857
:104EB00090B482B000AF78607A684FF000034FF092
:104EC000000482E818007A687B68C3F890207A684A
:104ED0007B68C3F894207B6818460837BD4690BCB1
:104EE000704700000000000000000000000000000B
:104EF00080B582B000AF78603960FEF7B9FC7B689E
:104F00004FF0FF321A627B683A689A617B683A68B0
:104F1000DA617B681B681B6878689847FEF7B0FC0D
:104F200000BF0837BD4680BD000000000000000043
:104F300080B582B000AF78603960FEF799FC7B687D
:104F40004FF0FF321A627B683A689A617B683A6870
:104F5000DA617B681B681B6878689847FEF790FCED
:104F600000BF0837BD4680BD000000000000000003
:104F700080B586B000AF7860396000217868FEF7B0
:104F8000BFFE0346FB75FB7D002B12D17B681B6FB8
:104F900007F10C010022184602F0B2FE3861FB68EE
:104FA0001B78002B03D13B683A691A6001E00D239E
:104FB000FB75FB7D18461837BD4680BD000000001C
:104FC00080B586B000AF7860396000217868FEF760
:104FD00097FE0346FB75FB7D002B12D17B681B6F90
:104FE00007F10C010022184602F08AFE3861FB68C6
:104FF0001B78002B03D13A693B681A6001E00D234E
:10500000FB75FB7D18461837BD4680BD00000000CB
:1050100080B584B000AF78607B6804331846FEF733
:105020004FFC0346002B04D07B6804331846FEF780
:105030005FFC7B68DB691B78042BFAD801A252F86D
:1050400023F000BF59500008775000089D50000819
:10505000D5500008F95000087B681B6808331B68AE
:10506000786898470346012B0CBF01230023DBB26D
:10507000002B65D068E07B68DB69D3F80130FB600A
:105080007B68DB6903F109027B68DA61FB68002B4E
:1050900058D0F9687868FFF7B3FE55E07B689969E6
:1050A0007B68DB69D3F801201346DB001344CA1880
:1050B0007B68DA617B6893F82930002B05D07B6828
:1050C000243319462248FDF793FB01217868FFF746
:1050D00097FE39E07B6893F82930002B05D07B6878
:1050E000243319461A48FDF783FB7B6800229A6136
:1050F0007B680022DA6127E07B681B6AB3F1FF3F1F
:1051000005D17B68DB69D3F801207B681A627B6874
:105110001B6A002B0AD17B684FF0FF321A627B6852
:10512000DB6903F109027B68DA610CE07B689A694C
:105130007B68DA617B681B6A5A1E7B681A6202E030
:1051400000BF76E700BF74E71037BD4680BD00BFE3
:10515000400B0020000000000000000000000000E4
:1051600080B584B000AF78607B6804331846FEF7E2
:10517000A7FB0346002B04D07B6804331846FEF7D8
:10518000B7FB7B68DB691B78042BFAD801A252F8C5
:1051900023F000BFA9510008C7510008EB510008D7
:1051A00023520008475200087B681B6808331B68BD
:1051B000786898470346012B0CBF01230023DBB21C
:1051C000002B63D066E07B68DB69D3F80130FB60BD
:1051D0007B68DB69DA1D7B68DA61FB68002B57D0DE
:1051E000F968786800F05CF854E07B6899697B683E
:1051F000DB69D3F801201346DB009B1ACA187B68D1
:10520000DA617B6893F82930002B05D07B68243362
:1052100019462248FDF7ECFA0121786800F040F8C1
:1052200038E07B6893F82930002B05D07B68243365
:1052300019461A48FDF7DCFA7B6800229A617B6800
:105240000022DA6126E07B681B6AB3F1FF3F05D1DB
:105250007B68DB69D3F801207B681A627B681B6A74
:10526000002B09D17B684FF0FF321A627B68DB6943
:10527000DA1D7B68DA610CE07B689A697B68DA6129
:105280007B681B6A5A1E7B681A6202E000BF78E7DF
:1052900000BF76E71037BD4680BD00BF400B002041
:1052A0002DE9F04F87B000AF786139617B69043335
:1052B0007B603B6919464FF000020B461446A00084
:1052C000F860F86840EA9370F8609C00BC60D7E929
:1052D00002345B1844EB02044FEAC40B4BEA537BE5
:1052E0004FEAC30A53465C465B1A64EB02044FEA7A
:1052F000041949EA13794FEA031843464C465B18F0
:1053000044EB0204260146EA13761D012B4634467F
:105310001946224640F2E7334FF00004CD1842EB25
:105320000406284631464FF47A724FF00003FAF72C
:10533000C7FF03460C4619467B69044A7868FEF7A6
:10534000EFFA00BF1C37BD46BDE8F08F111D000805
:10535000B0B5AAB010AF786039607B68012B40F01F
:1053600098823B684FF6FF72934240F09282F94C6C
:1053700000232370002363700023A3700023E370D5
:1053800000232371601DFF2300220021FBF728F971
:10539000093401232370002343F063036370002367
:1053A000A3700023E37000232371631D1846FEF7EA
:1053B00077FF093400232370002363700023A37058
:1053C0000023E37000232371601D002300220021CD
:1053D000FBF706F904F109031A4600211160516038
:1053E000117203221A7005331846FEF759FFDA4C82
:1053F00000232370002363700023A3700023E37055
:1054000000232371601D0023FF220021FBF7E8F831
:10541000093401232370002343F0630363700023E6
:10542000A3700023E37000232371631D1846FEF769
:1054300037FF093400232370002363700023A37017
:105440000023E37000232371601D0023002200214C
:10545000FBF7C6F804F109031A46002111605160F8
:10546000117203221A7005331846FEF719FFBB4C60
:1054700000232370002363700023A3700023E370D4
:1054800000232371601D00230022FF21FBF7A8F8F1
:10549000093401232370002343F063036370002366
:1054A000A3700023E37000232371631D1846FEF7E9
:1054B000F7FE093400232370002363700023A370D8
:1054C0000023E37000232371601D002300220021CC
:1054D000FBF786F8093401232370002343F06303AC
:1054E00063700023A3700023E37000232371631D06
:1054F0001846FEF7D5FE093400232370002363709D
:105500000023A3700023E37000232371601D002398
:105510000022FF21FBF764F80934012323700023E4
:1055200043F0630363700023A3700023E370002340
:105530002371631D1846FEF7B3FE09340023237060
:10554000002363700023A3700023E3700023237102
:10555000601D002300220021FBF742F809340123DB
:105560002370002343F0630363700023A3700023C0
:10557000E37000232371631D1846FEF791FE093482
:1055800000232370002363700023A3700023E370C3
:1055900000232371601D00230022FF21FBF720F868
:1055A000093401232370002343F063036370002355
:1055B000A3700023E37000232371631D1846FEF7D8
:1055C0006FFE093400232370002363700023A3704F
:1055D0000023E37000232371601D002300220021BB
:1055E000FAF7FEFF04F109031A4600211160516029
:1055F000117203221A7005331846FEF751FE584CFB
:1056000000232370002363700023A3700023E37042
:1056100000232371601D00230022FF21FAF7E0FF21
:10562000093401232370002343F0630363700023D4
:10563000A3700023E37000232371631D1846FEF757
:105640002FFE093400232370002363700023A3700E
:105650000023E37000232371601D0023002200213A
:10566000FAF7BEFF04F109031A46002111605160E8
:10567000117203221A7005331846FEF711FE394CD9
:1056800000232370002363700023A3700023E370C2
:1056900000232371601D0023FF220021FAF7A0FFE1
:1056A000093401232370002363F03D03637000235A
:1056B00043F00103A3700023E37000232371631DF3
:1056C0001846FEF7EDFD09340023237000236370B4
:1056D0000023A3700023E37000232371601D0023C7
:1056E00000220021FAF77CFF04F109031A46002189
:1056F00011605160117203221A7005331846FEF7CB
:10570000CFFD194C00232370002363700023A37086
:105710000023E37000232371601DFF23FF22FF217C
:10572000FAF75EFF04F109031A4600211160516087
:10573000117203221A7005331846FEF7B1FD0B48AB
:10574000FFF7B6FB4FF4855306939223059304238A
:1057500004930DE02C0A0020500A0020740A002057
:10576000E00A0020040B0020280B0020400B002042
:10577000032303930A230293484B019309230093C5
:10578000464B474A4FF4E1314648FEF711FB454985
:105790004548FEF78DFB07F10800FF230393002324
:1057A00002930023019304230093404B01224049BC
:1057B000FEF7EEF807F12000FF2303930023029386
:1057C0000023019303230093384B00223849FEF74E
:1057D000DFF807F13800FF2303930023029300232F
:1057E000019302230093314B05223149FEF7D0F893
:1057F0004FF0FF330F9309AD07F138040FCC0FC5FD
:1058000094E8030085E8030003AD07F120040FCC02
:105810000FC594E8030085E803006C4607F1140304
:1058200093E8070084E8070007F108030ECB21483E
:10583000FEF766FF07F1500016230393002302933F
:1058400000230193022300934FF080430322184961
:10585000FEF79EF86C4607F15C0393E8070084E8C6
:10586000070007F150030ECB1348FEF7A1FD0323F9
:1058700005930A4B049304230393084B02930723D5
:105880000193062300930523044A0C490C48FEF7B4
:105890008FFB00BF6837BD46B0BD00BF00000240AF
:1058A00000380140F00B0020180C002000040040DC
:1058B0000004024024110020AC11002000300140FF
:1058C000F4110020000000000000000000000000B3
:1058D00080B500AF4FF6FF710120FFF739FD80BDA5
:1058E00080B400AF00BFBD4680BC70470000000020
:1058F00080B400AF00BFBD4680BC70470000000010
:1059000080B400AF00BFBD4680BC704700000000FF
:1059100080B400AFFEE700000000000000000000BF
:1059200080B485B000AF184BFB60FB681B68BB60A0
:10593000FB685B687B6009E0BB681A687B681A607B
:105940007B6804337B60BB680433BB60FB689A6888
:105950007B689A42F0D805E07B6800221A607B6879
:1059600004337B60FB68DA687B689A42F4D8FB6892
:105970001033FB60FB68054A9342D6D300BF14374F
:10598000BD4680BC704700BF40830008C08300084C
:1059900080B400AF00BFBD4680BC7047000000006F
:1059A00080B500AFFFF7F4FF01F0AAFD00F058F852
:1059B00000BF80BD000000000000000000000000EB
:1059C00080B483B000AF0346FB80074AFB88536373
:1059D000054B00221A61044B0222DA6000BF0C372B
:1059E000BD4680BC704700BF0008014000000000B9
:1059F00080B400AF034B0022DA6000BFBD4680BC1C
:105A0000704700BF000801400000000000000000D7
:105A100080B483B000AF0346FB80044AFB88536325
:105A200000BF0C37BD4680BC704700BF0008014076
:105A300080B400AF064BDB6803F00203002B14BFF9
:105A400001230023DBB21846BD4680BC704700BF6F
:105A500000080140000000000000000000000000FD
:105A600080B500AF00F0BCF800BF80BD00000000B2
:105A700080B582B000AF0346FB80FFF7D9FF034635
:105A8000002B02D0054801F0ABF8FB881846FFF761
:105A900097FF00BF0837BD4680BD00BFC083000828
:105AA00080B500AFFFF7A4FF00BF80BD000000007D
:105AB00080B582B000AF0346FB80FFF7B9FF034615
:105AC00083F00103DBB2002B02D0054801F088F817
:105AD000FB881846FFF79CFF00BF0837BD4680BD16
