:020000040800F2
:10000000000400209101000893010008A1110008DC
:100010009301000893010008930100089301000870
:10002000930100089301000893010008013A0008B9
:100030009301000893010008930100089301000850
:100040009301000893010008930100089301000840
:1000500093010008930100080112000851120008E2
:10006000A1120008F112000841130008813C0008A9
:10007000A13C0008C13C0008E13C0008013D00082B
:10008000213D0008413D000893010008930100084C
:1000900093010008930100089301000891130008E0
:1000A00093010008930100089301000893010008E0
:1000B000712E0008930100089301000893010008C5
:1000C00093010008930100089301000881170008BC
:1000D000C11700089301000893010008930100086C
:1000E000E113000893010008930100089301000840
:1000F0009301000893010008930100089301000890
:10010000930100089301000893010008930100087F
:10011000930100089301000893010008930100086F
:10012000930100089301000893010008930100085F
:10013000930100089301000893010008930100084F
:080140007501000821290008E7
:040148005101000859
:1001500010B5054C237833B9044B13B10448AFF301
:1001600000800123237010BDE00900200000000082
:10017000B448000808B5034B1BB103490348AFF36B
:10018000008008BD00000000E4090020B448000819
:1001900026E000F000F8FEE700000000000000008C
:1001A0002DE9F04FC1F80CD0C3689D46BDE8F08F33
:1001B00002F0E6FE002383F311882846A0470020C2
:1001C00003F0DEFA02F0CCFE03F0F2F802F0D8FE03
:1001D00000DFFEE70000000000000000000000005B
:1001E00072B6274880F30888264880F30988264895
:1001F0004EF60851CEF200010860022080F3148808
:10020000BFF36F8F02F0B4FD02F0BAFD4FF055302E
:100210001E491B4A91423CBF41F8040BFAE71C49B6
:10022000184A91423CBF41F8040BFAE719491A4AAF
:100230001A4B9A423EBF51F8040B42F8040BF8E700
:1002400000201749174A91423CBF41F8040BFAE7D6
:1002500002F0AEFD02F09CFD134C144DAC4203DAEB
:1002600054F8041B8847F9E702F022F9104C114DAD
:10027000AC4203DA54F8041B8847F9E702F090BD5A
:1002800000040020000800200000000800000020FA
:1002900000040020B848000800080020DC09002005
:1002A000E0090020EC12002040010008480100088D
:1002B000480100084C010008000000000000000098
:1002C00053B94AB9002908BF00281CBF4FF0FF31BD
:1002D0004FF0FF3000F07CB9ADF1080C6DE904CEB1
:1002E00000F006F8DDF804E0DDE9022304B0704711
:1002F0002DE9F0478C460E460446089D002B50D150
:100300008A4217466CD9B2FA82FEBEF1000F0BD0BA
:10031000CEF1200C01FA0EF620FA0CFC02FA0EF7D0
:100320004CEA060C00FA0EF43A0CBCFBF2F9BBB234
:1003300002FB19CC09FB03FA4FEA144848EA0C46C1
:10034000B2450AD9F61909F1FF3180F02581B2458D
:1003500040F22281A9F102093E44A6EB0A06B6FB4F
:10036000F2F002FB106600FB03F3A4B244EA064479
:10037000A34209D9E41900F1FF3280F00B81A342B6
:1003800040F2088102383C440021E41A40EA094066
:10039000002D62D0002324FA0EF42C606B60BDE8BF
:1003A000F0878B4207D9002D55D0002185E8410008
:1003B0000846BDE8F087B3FA83F1002940F08F804A
:1003C000B34202D3824200F2FC80841A66EB030639
:1003D0000120B446002D40D085E81010BDE8F0871C
:1003E00012B90127B7FBF2F7B7FA87FEBEF1000F8B
:1003F00035D10121F61B4FEA174C1FFA87F8B6FBDF
:10040000FCF20CFB126608FB02F0230C43EA0646E2
:10041000B04207D9F61902F1FF3302D2B04200F21E
:10042000D2801A46361AB6FBFCF00CFB106608FBAD
:1004300000F8A3B243EA0644A04507D9E41900F145
:10044000FF3302D2A04500F2B9801846A4EB08049D
:1004500040EA02409CE729462846BDE8F08707FAB3
:100460000EF7CEF1200326FA03F24FEA174CB2FB47
:10047000FCF11FFA87F80CFB112206FA0EF620FA9F
:1004800003F301FB08F933431E0C46EA0246B1456B
:1004900000FA0EF409D9F61901F1FF3280F08C80D0
:1004A000B14540F2898002393E44A6EB0906B6FB0D
:1004B000FCF00CFB106200FB08F99EB246EA024613
:1004C000B14507D9F61900F1FF3371D2B1456FD9A3
:1004D00002383E44A6EB090640EA01418FE7C1F12C
:1004E000200722FA07F88B4048EA030326FA07F4AC
:1004F0004FEA134EB4FBFEF91FFA83FC0EFB1944BE
:100500008E4020FA07F809FB0CFA48EA06084FEA81
:10051000184646EA0444A24502FA01F200FA01F63E
:1005200008D9E41809F1FF3044D2A24542D9A9F113
:1005300002091C44A4EB0A04B4FBFEF00EFB1044B9
:1005400000FB0CFC1FFA88F848EA0444A44507D9CC
:10055000E41800F1FF3E29D2A44527D902381C44F3
:1005600040EA0940A0FB0289A4EB0C0CCC45C24632
:10057000CE4615D312D055B1B6EB0A036CEB0E067E
:1005800006FA07F7CB401F43CE402F606E60002174
:10059000BDE8F0871046F7E68946DEE64645EAD232
:1005A000B8EB020A69EB030E0138E4E77046D7E7BF
:1005B00018468FE78146BDE7114676E702383C448E
:1005C00044E7084606E7023A3E442BE700000000F5
:1005D000704700BF000000000000000000000000A5
:1005E00008B502F0CDFC084B1A689A4207D09B6907
:1005F00099689368994202D2044802F091FF00235F
:1006000083F3118808BD00BFC411002060410008B9
:10061000104B984205D1104AD36943F00103D361CE
:1006200070470E4B984204D10B4AD36943F0020342
:10063000F5E70B4B984204D1074AD36943F0040312
:10064000EDE7084B9842EBD1034AD36943F0080326
:10065000E5E700BF0000024000380240000402400D
:1006600000080240000C02400000000000000000F2
:1006700070B504461546FFF7CBFF0323022648005A
:100680008340DB4306FA00F0012622688E401A40C0
:1006900022602268072942EA000222606268C8BF1D
:1006A000083922EA06026260E2684FEA810102EA42
:1006B0000302E260E268E260A26803EA0203A36068
:1006C000A3684FF00F0240EA0300CCBF01230023D0
:1006D000A06004EB8304236A8A4023EA02032362B6
:1006E000226A05FA01F11143216270BD0000000089
:1006F0000368197303689A68D207FCD5187B7047A2
:100700000123428A81689340034A0869184002D055
:10071000013AFAD101207047B882010000000000C0
:100720000123C18AC2688B409361704700000000BA
:10073000C38AC16803F11002012393408B617047A3
:100740000021014803F074B8500A002000000000A6
:1007500008B27F28C8BFA1F580704FF00201C8BF62
:1007600000B290FBF1F04A3840B270470000000040
:100770002DE9F041054688461746FFF7D9FF284680
:10078000FFF7BEFF044630B12846FFF7C9FF01243A
:100790002046BDE8F0812E1D48F080013046FFF76D
:1007A000A7FF21463046FFF7A3FF38702846FFF722
:1007B000B7FFEDE7000000000000000000000000AF
:1007C0002DE9F041044688461746FFF7B1FF204661
:1007D000FFF796FF054630B12046FFF7A1FF012540
:1007E0002846BDE8F081261D41463046FFF780FFD0
:1007F00039463046FFF77CFF2046FFF791FFEFE7D1
:1008000010B5044608220B21FFF7DAFF00220C2165
:100810002046FFF7D5FF20220D212046FFF7D0FF0D
:1008200025220E212046FFF7CBFFED220F21204687
:10083000FFF7C6FF5B2210212046FFF7C1FFE5222C
:1008400011212046FFF7BCFF132212212046FFF79B
:10085000B7FFA02213212046FFF7B2FFE6221421A2
:100860002046FFF7ADFF00220A212046FFF7A8FF30
:10087000462215212046FFF7A3FFB622212120465C
:10088000FFF79EFF102222212046FFF799FF082242
:1008900018212046FFF794FF1D2219212046FFF75B
:1008A0008FFF1C221A212046FFF78AFFC7221B2137
:1008B0002046FFF785FF00221C212046FFF780FF1E
:1008C000B2221D212046FFF77BFFEA22232120468A
:1008D000FFF776FF2A2224212046FFF771FF00222E
:1008E00025212046FFF76CFF1F2226212046FFF717
:1008F00067FF81222C212046FFF762FF35222D2140
:100900002046FFF75DFF09222E212046FFF758FF02
:10091000072203212046FFF753FF0722002120462C
:10092000FFF74EFF062202212046FFF749FF0C2267
:1009300007212046FFF744FF442208212046FFF705
:100940003FFF50223E212046FFF73AFF07221621A3
:100950002046FFF735FF2046BDE810400022172152
:10096000FFF72EBF000000000000000000000000A4
:1009700070B504460E46FFF7DBFE2046FFF7C0FECB
:10098000054628B12046FFF7CBFE0125284670BD5D
:100990003146201DFFF7ACFE84F820002046FFF70B
:1009A000BFFE94F8203003F0700384F82030EDE7A8
:1009B0002DE9F0434368854A85B09342044600F030
:1009C000B580A2F5784293420CBF4FF005084FF076
:1009D00006080325E168E78A0846FFF719FE7B0051
:1009E000DBB205FA03F2D2430126086806FA07F7DC
:1009F00010400860D1F800E006FA03F040EA0E006B
:100A00000860486820EA07074F600227486807FA2D
:100A100003F34860C8681040C860C868C860886848
:100A200002408A608A68A06813438B604246218A2C
:100A3000FFF71EFE4246618AA068FFF719FE424694
:100A4000A18AA068FFF714FEA169237F0846B3407E
:100A50005FFA83F894F81E90FFF7DAFD05FA08F3C1
:100A6000DB434FF00F0E0A681A400A60CA68134051
:100A7000CB60CA6809FA08F31343CB60544B1A6A77
:100A800032431A62DA6A22F00102DA62A28BDB6A6E
:100A900002F47F7303F1804303F5803302EA05011A
:100AA0009868B9400EFA01FE20EA0E009860DFF85F
:100AB0004CE1A06970453CD1986806FA01F1014308
:100AC00099600126434B06FA02F219681143196036
:100AD000D143586808405860986801409960D968C7
:100AE00020461143D9605A61FFF71AFE00233A4AA3
:100AF00019468DE80C00201D1A4600F0D1FD6268F1
:100B000030211368204643F040031360FFF730FFA5
:100B100060B362683148136823F04003136000F04B
:100B200077FF3546284605B0BDE8F0834FF005084D
:100B30004FE72B4EB04203D1986807FA01F1BEE7A8
:100B4000284EB04203D1986805FA01F1B7E7264D67
:100B5000A84205D104209D6800FA01F12943AFE7BE
:100B6000224DA842ADD19D680720F5E70722062156
:100B70002046FFF725FE08B11D48D0E704AA02F879
:100B8000010D06212046FFF7F3FD054638B99DF813
:100B90000F10072905D0174800F03AFFC1E71648A3
:100BA000BDE73A212046FFF7E3FE2046FFF728FE87
:100BB000A08B092806DC042806DC0630072102F099
:100BC000A7F9AFE72820F9E71720F7E70030014041
:100BD0000038024000040140A02E630020410008BC
:100BE00000080240000C02400010024000140240C5
:100BF0002D410008384100084D4100080004024022
:100C000038B504460D4694F8203023B136212046ED
:100C1000FFF7AEFEF7E72A462046BDE838400A2136
:100C2000FFF7CEBD00000000000000000000000043
:100C30002DE9F843044688469146FFF779FD2046A2
:100C4000FFF75EFD054630B12046FFF769FD01253F
:100C50002846BDE8F883271D7F213846FFF748FD69
:100C60004646A6EB0803DBB24B4505DA16F8011B36
:100C70003846FFF73DFDF4E72046FFF751FDE7E773
:100C800070B50D46352104461646FFF771FE202348
:100C900083F3118802F064F9324629462046FFF7B3
:100CA000C7FF04F1240002F08BFDBDE87040FFF7A0
:100CB00097BC0000000000000000000000000000E1
:100CC0002DE9F3478946904678210DF10702044645
:100CD0009A46FFF74DFD70B99DF90730002B0ADAEF
:100CE0002046FFF725FD2046FFF70AFD054620B107
:100CF0002046FFF715FD012529E0261DFF2130467E
:100D0000FFF7F6FC4F46A7EB0903DBB253454FF064
:100D10000001304606DAFFF7EBFC8DF8070007F814
:100D2000010BF0E7FFF7E4FC00218DF807003046E7
:100D3000FFF7DEFC2046FFF7F3FCB8F1000F06D00A
:100D40009DF807102046FFF703FD88F800002846AD
:100D500002B0BDE8F08700000000000000000000C5
:100D60002DE9F04188463A211F4604461546069E65
:100D7000FFF7FEFD202383F3118802F0F1F8342100
:100D80002046FFF7F5FD42F2107E40F2E7300021E9
:100D90004FF47A72EEFB08010023FFF791FA014647
:100DA00004F1240002F024FD8046FFF719FCB8F19D
:100DB000FF3F07D03B46324629462046BDE8F0417A
:100DC000FFF77EBF36212046FFF7D2FD0220BDE8A7
:100DD000F0810000000000000000000000000000A2
:100DE000202383F3118802F0E3B800000000000024
:100DF00008B502F0F5F8002383F3118808BD000060
:100E000010B50446FFF7ECFF236820461B6898479F
:100E1000BDE81040FFF7ECBF00000000000000003C
:100E2000074B5A68D2070AD5064ADA60064ADA60E2
:100E30004FF480729A615A6822F480725A60704747
:100E4000003C0240EFCDAB89050403020000000026
:100E5000044B5A6B42F001025A635A6B9207FCD55D
:100E6000704700BF00380240000000000000000092
:100E70004FF4E1730E4A9169C90710D49169C9050D
:100E80000FD4916911F4F05F14BF01200020013BE1
:100E900003289BB207D1002BEDD10220704703201D
:100EA000F5E70E20F3E7002B08BF0220704700BFD4
:100EB000003C0240000000000000000000000000B4
:100EC000884230B516D0421E12F8014FA4F14103FA
:100ED000192B88BF204611F8013B98BF04F1200070
:100EE000A3F14105192D98BF2033C01A03D1002C5E
:100EF000EAD130BD002030BD00000000000000003D
:100F00000368B3F1804F0BD103F50E335A6A42F0F8
:100F100001025A621A6B22F001021A631B6B7047BE
:100F20002A4A934208D12A4B5A6A42F002025A6274
:100F30001A6B22F00202F0E7264A934208D1244BB2
:100F40005A6A42F004025A621A6B22F00402E4E781
:100F5000214A934208D11E4B5A6A42F010025A624B
:100F60001A6B22F01002D8E71C4A934208D1184BA2
:100F70005A6A42F020025A621A6B22F02002CCE731
:100F8000174A93420AD1124B1A6A42F004021A62BB
:100F9000DA6A22F00402DA62DB6A7047114A93428D
:100FA00008D10B4B1A6A42F008021A62DA6A22F080
:100FB0000802F0E70C4A9342EFD1054B1A6A42F05F
:100FC00010021A62DA6A22F01002E4E7000400401C
:100FD00000380240000800400010004000140040AB
:100FE00000080140000C014000100140000000001A
:100FF000F8B50446FFF784FF826903680169DA6285
:10100000027D0139012A0CBF0722062203290BD8D1
:10101000DFE801F0026A727A996941EA02129A6184
:101020001A6A42F001021A621A6842F001021A605A
:10103000494A934270D002F5806293426CD002F527
:10104000803293426AD002F58062934266D002F504
:10105000806293420CBF0322012263683F482189CA
:101060008342667D5CD13E4CE06940F00100E06166
:1010700003204D00A840C0431C6804401C600224AB
:101080001F68AC403C431C600124002E60D15E68A8
:101090008C4026EA04045C60DC68072904EA00044A
:1010A000DC60DC68C8BF0839DC609C684FEA8101FD
:1010B00000EA040098604FF002009C6800FA05F016
:1010C00040EA04009860CCBF012000200F2403EB0D
:1010D0008003186A8C4020EA04001862186A02FA39
:1010E00001F101431962F8BD996941EA02329A613E
:1010F0001A6A42F0100296E7D96941EA0212DA61EF
:101100001A6A42F480728EE7D96941EA0232DA61E2
:101110001A6A42F4805286E702229EE703229CE785
:101120001048834204D10E4CE06940F002009EE773
:101130000D48834204D10A4CE06940F0040096E770
:101140000A48834294D1064CE06940F008008EE7DB
:101150005E688C4034439EE700040040000002407B
:10116000003802400004024000080240000C024027
:10117000074B01385A6922F080025A6110F8012F9A
:1011800022B119680906FCD55A60F7E7704700BF1D
:1011900000380140000000000000000000000000D6
:1011A00008B50248FFF7E4FF01BEFEE77041000802
:1011B00000F1006000F500200068704700000000AA
:1011C00038B500F1006404F5002423680D468B4215
:1011D0000DD0FFF725FEFFF74BFE10B92560FFF796
:1011E00047FE044A536843F00103536038BD0020B2
:1011F00038BD00BF003C02400000000000000000BD
:1012000008B501F005FFFFF7EBFD0A4B1B685BB16A
:1012100098470122084B5A61FFF7EAFD01F010FFE1
:10122000BDE8084002F0FCBB0449054800F010FC92
:10123000EFE700BF080A002000040140C041000899
:1012400080410008000000000000000000000000D5
:1012500008B501F0DDFEFFF7C3FD0A4B5B685BB12B
:1012600098470222084B5A61FFF7C2FD01F0E8FEE1
:10127000BDE8084002F0D4BB0449054800F0E8FB93
:10128000EFE700BF080A002000040140D041000839
:101290008041000800000000000000000000000085
:1012A00008B501F0B5FEFFF79BFD0A4B9B685BB1EB
:1012B00098470422084B5A61FFF79AFD01F0C0FEDF
:1012C000BDE8084002F0ACBB0449054800F0C0FB93
:1012D000EFE700BF080A002000040140E0410008D9
:1012E0008041000800000000000000000000000035
:1012F00008B501F08DFEFFF773FD0A4BDB685BB1AB
:1013000098470822084B5A61FFF772FD01F098FEDA
:10131000BDE8084002F084BB0449054800F098FB92
:10132000EFE700BF080A002000040140F041000878
:1013300080410008000000000000000000000000E4
:1013400008B501F065FEFFF74BFD0A4B1B695BB169
:1013500098471022084B5A61FFF74AFD01F070FED2
:10136000BDE8084002F05CBB0449054800F070FB92
:10137000EFE700BF080A0020000401400042000817
:101380008041000800000000000000000000000094
:1013900008B501F03DFEFFF723FD0A4B1B6863B162
:1013A00098474FF47872084B5A61FFF721FD01F01E
:1013B00047FEBDE8084002F033BB0449044800F092
:1013C00047FBEEE7200A002000040140104200081D
:1013D0008041000800000000000000000000000044
:1013E00008B501F015FEFFF7FBFC0A4B1B6863B163
:1013F00098474FF47C42084B5A61FFF7F9FC01F023
:101400001FFEBDE8084002F00BBB0449044800F091
:101410001FFBEEE71C0A00200004014020420008E8
:1014200080410008000000000000000000000000F3
:1014300045F25553084A1360062353602523584349
:1014400040F6FF73000A984228BF18464AF6AA23BE
:1014500090601360704700BF003000400000000043
:1014600008B5FFF7F5FCFFF7E3FF4CF6CC42014B64
:101470001A6008BD003000400000000000000000BD
:1014800070B592B02022002104460AA802F070FC38
:101490004FF480330A934FF400330B934FF48023BF
:1014A0000C933D4B03AA0D933C4B06AE0E933C4B65
:1014B0000F933C4B10933C4B5968186803C2197A40
:1014C000117003F10902193335461068516808326A
:1014D00003C59A422E46F7D100238DF804308DF8CB
:1014E00005308DF806308DF8073001238DF808306F
:1014F00002238DF8093003238DF80A3004232B4989
:101500008DF80B308B68C3F38103022B05D0032BBE
:101510002BD0012B20D1264B00E0264B234812A9CB
:101520008268C2F303120A4412F8302CD3402360BD
:1015300081688268C1F3022112A8C2F3C222014469
:10154000024411F8441C12F8442C23FA01F1D34050
:101550006160A36012B070BD4B6812AAC3F342333E
:1015600002EB830353F8203CD8E78B6812AAC3F33D
:10157000834313448A6889680E4811F4803F0C49FC
:1015800018BF014613F83C3CC2F381524B43013271
:10159000B3FBF2F3C2E700BF9CFF0700C0FD0F00E2
:1015A00068FF1F00D0FE3F000041000800380240E5
:1015B0000024F400001BB700000000000000000041
:1015C0000D4B0E4A99420E4B06D00E48814203D075
:1015D00000F58060814206D192689868C2F3C22209
:1015E000032A07D8704792685868C2F30222032A78
:1015F00000D87047400070470008014000380240A2
:10160000FC090020000C0140000000000000000068
:1016100038B504460D4601680748FFF7D1FF226838
:10162000D36A0133B0FBF3F0B0FBF5F000B1013841
:1016300000239062536238BDFC09002000000000C6
:1016400006480749836805C8B3FBF1F3B2FBF1F222
:10165000B0FBF1F1034800F0DBB900BFFC0900204A
:1016600040420F0090410008000000000000000010
:101670004FF08052084B5A62084A11465368DB0605
:10168000FCD4136823F4C05343EAC02010604B68B5
:10169000DB06FCD4704700BF0038024000700040F9
:1016A00070B50068324D049CA84246D105F58435DA
:1016B0002E6A46F480562E62EE6A26F48056EE625A
:1016C000ED6A4FF441750129056002BF016841F0E0
:1016D00080010160012A02BF026842F0020202603A
:1016E000012B02BF036843F001030360204B9842C3
:1016F000204B0CBF9B685B68B3FBF4F37F2B2BDCA8
:101700003F2B2BDC1F2B2BDC0F2B2BDC072B2BDC9D
:10171000032B2BDC012BD4BF00230123026842EAF8
:10172000C30303609DF81430012B02BF036843F428
:10173000006303600023436070BD0F4DA842C0D119
:1017400005F500356E6A46F480466E622E6B26F40F
:1017500080462E632D6BB4E70723DFE70623DDE722
:101760000523DBE70423D9E70323D7E70223D5E7E3
:1017700000300140FC09002000380040000000005B
:1017800008B501F045FCFFF72BFB084B9B68DB0716
:1017900003D5074B1B6803B19847FFF729FB01F0FE
:1017A0004FFCBDE8084002F03BB900BF00300140EB
:1017B000240A0020000000000000000000000000DB
:1017C00008B501F025FCFFF70BFB084B9B68DB0716
:1017D00003D5074B1B6803B19847FFF709FB01F0DE
:1017E0002FFCBDE8084002F01BB900BF00380040E4
:1017F000280A002000000000000000000000000097
:1018000008B501F0BDFB084B1A689A4207D09B69E6
:1018100099689368994202D2044801F081FE00233E
:1018200083F3118808BD00BFC411002030420008B6
:101830002DE9F04305469846002485B09DF8309088
:1018400001AEB1FBF2F302FB1310092804F101040D
:1018500094BF30303730C0B23719194607F8010C41
:10186000002BEED1274647450DD22B6849461B6811
:101870002846984718B10C2005B0BDE8F083013721
:10188000F1E7002CF8D02B68013C1B68315D28463D
:1018900098470028F5D0EEE70000000000000000A7
:1018A0002DE9F04F0B46054614464FF00A0B85B064
:1018B00019785E1C31B928462B685B6805B0BDE815
:1018C000F04F1847252905D02B6828461B689847F4
:1018D00048B3F0E75F784FF00008302F14BF20279F
:1018E0009E1C16F8011BA1F13003DBB2092B03D9B2
:1018F0002A2904D1237804340BFB0838F1E72E2978
:1019000009D116F8011BA1F13003092BF9D92A29B5
:1019100001D10434F5E7632939D017D841294ED0D5
:1019200003D82529D0D03346C2E7532939D05829C6
:10193000F9D14346102204F1040900972168284692
:10194000FFF776FF0028B6D14C46ECE7692902D0B4
:1019500013D86429E7D104F104092468002C07DABC
:101960002B682D211B68284698470028A3D1644284
:10197000009743460A222146E1E7732911D07529D1
:10198000D1D104F10409009743460A22D6E72B6817
:1019900021781B682846271D984700288BD13C4694
:1019A000C1E72768013F17F8011F09B90434BAE7F6
:1019B0002B6828461B6898470028F4D07BE700274F
:1019C0002368D4F80880D4F8049003935FFA88FA67
:1019D0004F4501DB0C34A6E7002F0DDC039B1022E2
:1019E000D95D3023284600930223FFF721FF00280A
:1019F0007FF461AF0137EBE7B8F1000FEED02B6851
:101A000051461B68284698470028E7D053E7000056
:101A10000FB413B504AB53F8044B0193202383F3A5
:101A2000118801F09DFA019A21460548FFF738FF19
:101A3000FFF7E6FE02B0BDE8104004B0704700BFFB
:101A40002010002000000000000000000000000046
:101A50000FB407B504AA52F8041B04480192FFF71B
:101A60001FFF03B05DF804EB04B0704720100020A6
:101A700070470000000000000000000000000000AF
:101A800008B501F07DFA084B1A689A4207D09B69A5
:101A900099689368994202D2044801F041FD0023FD
:101AA00083F3118808BD00BFC411002090420008D4
:101AB0000EB403B503AA52F8041B00F5926001921C
:101AC000FFF7EEFE02B05DF804EB03B07047A0F143
:101AD0009400A0F58060EBE700000000000000002B
:101AE000F0B5324CA04244D1314DEC6944F00104D0
:101AF000EC6103244E00B440E443056825400560D2
:101B000002250768B5403D4305600125002A48D1FC
:101B100042688D4022EA05054560C268072902EA4D
:101B20000402C260C56803FA06F242EA0502C26016
:101B30008368C8BF083904EA03044FF002038460D5
:101B4000826803FA06F343EA02038360CCBF0123F1
:101B500000230F2200EB8300036A89008A4023EAF6
:101B6000020303620723026A03FA01F111430162CF
:101B7000F0BD104CA04204D10D4DEC6944F00204BC
:101B8000B6E70D4CA04204D1094DEC6944F00404C1
:101B9000AEE70A4CA042ACD1054DEC6944F0080414
:101BA000A6E742688D401543B6E700BF000002403B
:101BB000003802400004024000080240000C0240CD
:101BC000D0F81014D0F81C2400F582635B1A9342FD
:101BD00028BF1346C0F820346BB1002280F81824C7
:101BE00042685268D1605360C3681B6A136013680F
:101BF00043F0010313607047000000000000000084
:101C0000436859680A6822F00F020A60597B1A6813
:101C10000E238B405360D0F82014D0F81C34D0F839
:101C200010245B1A0A4400F582618A4228BF00F141
:101C30001002C0F81C34C0F810242BB9012380F81E
:101C4000183403681B681847FFF7BABF000000008C
:101C5000FFF7D6BF000000000000000000000000F9
:101C6000D0F81C34B3F5806F16D2D0F814345A1C57
:101C7000C0F814241970D0F8142400F582639A4235
:101C800024BF00F11003C0F81434D0F81C34013321
:101C9000C0F81C34002070470C2070470000000082
:101CA000FFF7DEBFA0F59260FAE700000000000039
:101CB00090F818340BB1FFF783BF704700000000A5
:101CC000FFF7F6BFA0F59260FAE700000000000001
:101CD000836802465B68D0F828045B68C3F163033D
:101CE0001B1A48BF633373B1431CC2F82834104435
:101CF00090F82C3400200B70D2F82834622B03DDCE
:101D0000C2F8280470470B20704700000000000054
:101D10002DE9FF4190F88F340446002B71D03A4DE5
:101D20003A4E05F190070DF107012046FFF7D0FF6D
:101D3000002866D194F800259DF8073042B1082BA1
:101D400084F80005C4F8FC04EDD00D2B0CD1EAE7B3
:101D5000082B07D1D4F8FC34002BE4D0013BC4F8A5
:101D6000FC34E0E70D2B01D00A2B3FD1D4F8FC3432
:101D7000002BD8D04FF00008234483F898843146D4
:101D800004F5936002F06CF80123C4F8040584F8AC
:101D900000358DF80D3084F88F84202383F311886B
:101DA00001F0DEF801F064F9D5F8AC30434518DDF8
:101DB00001F05EF9D5F8AC3004F29441013BC5F86E
:101DC000AC30D5F89430124803F10802C5F89420DD
:101DD00019600399BA42596028BFC5F8945001F0C0
:101DE00027FB01F00DFBFFF74BFE9CE7D4F8FC242A
:101DF000612A98D8511C2244C4F8FC1482F8983403
:101E000091E704B0BDE8F081580A00204042000884
:101E1000F00A0020000000000000000000000000A8
:101E2000C168064A4B6809689342054A0CBF92682C
:101E30005268B2FBF1F29A60704700BF003801406F
:101E4000FC0900200000000000000000000000006D
:101E500038B500230446C0681A4681898068FFF7B8
:101E60003FFEE368324A5B68934247D1314B1A6ABE
:101E700042F480421A62DA6A22F48042DA62DB6A51
:101E800000252046FFF7CCFFE0682B4A4368092174
:101E90001D618069234601F0BBFE43686060E06815
:101EA0004268111D9960016A196001230C2184F8B0
:101EB0001834D160C02151611A46818A0069FFF748
:101EC0000FFEE0682B462A460921C06901F0A0FEFA
:101ED000E16843684A68A060101D98606320496A01
:101EE00004F22C44DC6058601960196841F001016B
:101EF0001960D36843F40053D36038BD0F4A93424E
:101F00000AD10C4B5A6A42F400325A621A6B22F41C
:101F100000321A631B6BB3E7094A9342B0D1054BF9
:101F20005A6A42F480225A621A6B22F48022F0E745
:101F30000038014000380240511C000800440040B5
:101F40000048004000000000000000000000000009
:101F500037B5002403688DF804408DF805408DF8EE
:101F600006408DF80740DB680199054698478DF8D3
:101F700004408DF805408DF806408DF80740019B20
:101F8000C5F8843003B030BD000000000000000040
:101F900008B500F0F5FF084B1A689A4207D09B6914
:101FA00099689368994202D2044801F0B9FA002373
:101FB00083F3118808BD00BFC411002050430008FE
:101FC0000021243001F034BC0000000000000000BB
:101FD0006FF0404313B5C26B01919C18C26AC9B23D
:101FE00002EB84025163826D9918826C02EB8102CC
:101FF0009DF805105163426F1344426E02EB830358
:102000009DF806205A6302B010BD000000000000D9
:1020100037B5044600F12C052846FEF7E9FFD4F851
:102020008010284604F14805FFF7F2FA2846FEF72B
:10203000DFFFD4F88010284604F16405FFF7E8FAC2
:102040002846FEF7D5FFD4F880102846FFF7E0FABF
:1020500023682046DA6800238DF804308DF80530B7
:102060008DF806308DF807300199904703B030BDE8
:1020700001460148FFF7CCBCD04200080000000038
:1020800008B50020FFF794F8094B18600420FFF70B
:102090008FF8084B18600820FFF78AF8C3B20B2BA3
:1020A00088BF0B22044B94BF18701A7008BD00BF84
:1020B000000800200808002004080020000000009C
:1020C00010B5014604460020FFF77AF810B9044B1A
:1020D0001C6010BD01460348FFF79AFC012010BDAB
:1020E000000800203043000800000000000000004D
:1020F00010B5014604460420FFF762F810B9044BFE
:102100001C6010BD01460348FFF782FC012010BD92
:102110000808002030430008000000000000000014
:1021200010B5014604460820FFF74AF810B9044BE1
:102130001C7010BD01460348FFF76AFC012010BD6A
:1021400004080020304300080000000000000000E8
:102150002DE9F0410446051D40F2E73642F21070C9
:102160000027E0FB016700234FF47A7230463946BE
:10217000FEF7A6F8064600F07BFF236913B1284658
:1021800001F0E6FB234631462846BDE8F041014A0E
:1021900001F076BB010E0008000000000000000006
:1021A000C369D0F88420D3F8051070B59142044675
:1021B0000AD0D3F8015006684DB9F3689847E3692F
:1021C000D3F80520C4F884200933E3612DE090F8AA
:1021D000842059798A422ADA013284F8842094F8DA
:1021E000852099798A4225DA013284F8852094F88D
:1021F0008620D9798A4220DA013284F8862094F840
:1022000087201B7A9A421BDA013284F88720F36810
:102210002046D4F884109847E069D4F88420D0F898
:1022200005309A420FD10930E061002070BDD6DD43
:10223000013AD2E7DBDD013AD7E7E0DD013ADCE73E
:10224000E5DD013AE1E794F884104279D0F80130F5
:102250008A421CBF0431B3FBF1F194F885208579E3
:1022600014BF01310021954206D00432B3FBF2F2D3
:102270000132914238BF114694F88620C5799542C3
:1022800006D00432B3FBF2F20132914238BF11465C
:1022900094F88720007A904206D00432B3FBF2F320
:1022A0000133994238BF19462046FFF751FF0120FC
:1022B00070BD0000000000000000000000000000F1
:1022C00038B504460D46202383F3118800F048FEFC
:1022D0004FF0FF3323622368A561E5611B68204648
:1022E0009847BDE83840FFF753BE000000000000EB
:1022F00037B505460C4600200A4901F0B1FD2867B4
:10230000037863B1002201A901F08AFE019B1B78CA
:102310000BB10D2001E02060184603B030BD0B204A
:10232000FBE700BF40420008000000000000000082
:1023300037B505460C4600200A4901F091FD286793
:10234000037863B1002201A901F06AFE019B1B78AA
:102350000BB10D2001E02060184603B030BD0B200A
:10236000FBE700BF40420008000000000000000042
:1023700030B5404985B00446C06EFEF7A1FD10B9E6
:10238000FFF776FE09E03C49E06EFEF799FD30B9B3
:102390003A4B3B481968FFF73BFB05B030BD394964
:1023A000E06EFEF78DFD50B903A92046FFF7A0FFB0
:1023B00008B10520E4E70398FFF782FEE0E7324921
:1023C000E06EFEF77DFD18B9304B31481968E2E741
:1023D0003049E06EFEF774FD48B903A92046FFF7C7
:1023E00087FF0028E5D10398FFF782FEC8E72A4956
:1023F000E06EFEF765FD70B903A92046FFF798FF70
:102400000028D6D1039B0B2B84BF0B230393039887
:10241000FFF786FEB4E72149E06EFEF751FD002884
:10242000BBD101A92046FFF763FF0028C1D102A953
:102430002046FFF75DFF0028BBD103A92046FFF728
:1024400077FF0028B5D1039B01980B2B84BF0B238A
:102450000393FFF735FE04460298FFF749FE054651
:102460000398FFF75DFE2A46034621460C48FFF716
:10247000CFFA92E7E0420008E54200080008002099
:10248000EB420008F2420008F84200080808002069
:10249000FF420008074300080E43000815430008E8
:1024A00019430008000000000000000000000000C8
:1024B0002DE9F0434FF4E17085B0B04DFEF7D0FF49
:1024C0000220FFF7D5F86B68AD4823F4604343F46E
:1024D00040436B60FEF7D4FF00F08AFC00F0D8FFA9
:1024E000EB69A84C43F00403EB612368A64823F092
:1024F00040432360236843F080432360636823F4F0
:102500000043636063686360E36823F04043E36013
:10251000E368E360A36823F04043A360A36843F04B
:102520000043A3604FF40043A361EB6943F004034D
:10253000EB61236823F040532360236843F080530A
:102540002360636823F48043636063686360E368C7
:1025500023F04053E360E368E360A36823F0405353
:10256000A360A36843F00053A360FFF771FCFFF77B
:1025700087FD864B5D6815F0020510D08448FEF794
:1025800017FA002875D08348FFF742FD8249814839
:10259000FFF796FE42F2067001F002F9C1E07D48B5
:1025A000FFF736FD7D497B48FFF78AFE7C4B7D4A6D
:1025B0001B787D4901937D4B7D481B68DFF80082C5
:1025C00000937C4B704E1B68FFF722FA6C48FFF7B4
:1025D00037F8DFF8FC9140F2DE3001F0E1F84AF61E
:1025E000AA23754FC8F8003002A96748FFF770FBAF
:1025F000D8BB96F800259DF8083042B1082B86F824
:102600000005C6F8FC04EFD00D2B0CD1ECE7082B2D
:1026100007D1D6F8FC34002BE6D0013BC6F8FC34D9
:10262000E2E70D2B01D00A2B14D1D6F8FC34002B95
:10263000DAD00025334483F898544946384601F0EF
:102640000FFC0123C6F8040586F800353846FFF76D
:102650008FFEC9E7D6F8FC24612AC5D8511C324444
:10266000C6F8FC1482F89834BEE701351A2DB2DDA5
:1026700084E7464B5B689B070BD450494548FFF7FE
:102680001FFE4FF4616001F08BF84AF6AA224C4B12
:102690001A60434D4B4A2B783E21D25C3C48FEF7F2
:1026A0008FF806223A481146424EFEF789F800217B
:1026B0003748FEF7A5FA3268ADF808200022ADF8D9
:1026C0000A203A4A12688DF80C202A78304D8DF88D
:1026D0000D204FF48042A26195F82030002B3BD0B2
:1026E00036212846FEF744F90028F5D0062202A933
:1026F0002748FEF7C5FA4FF080434AF6AA22A361A5
:1027000003F540531A60002302AA00930421062314
:102710001F48FEF725FB00285CD039211C48FEF736
:1027200027F9202383F3118800F01AFC4AF6AA2225
:10273000234B1A60244A136943F0040313610222F5
:10274000124B1A601A6842F004021A6000BF00BF00
:1027500030BFFFF71DFCFEE733210D48FEF708F9F7
:102760000028C3D101226B8AA9689A40174B0869D7
:102770001042BBD0013BFAD1B8E700BF003802409D
:10278000FC09002000080240900B0020007000406F
:102790002C0A0020080B00209C100020541100205F
:1027A00004080020604300086E4300080808002069
:1027B0007B43000800080020281000203011002072
:1027C000003000404043000800ED00E0B882010006
:1027D00040420008BDF80830012B9ED1BDF80A2008
:1027E00033689A4299D19DF90C00FFF781FC9DF85E
:1027F0000D00FFF795FC90E70000000000000000CE
:1028000038B504460D4600F033FCD4F8AC30002B4C
:102810001EDD00F02DFCD4F8AC3004F19800013B33
:10282000C4F8AC30D4F8943003F10802C4F8942012
:102830002A681A606A685A60D4F8942004F19003F8
:102840009A4228BFC4F8944000F0F2FD002038BD41
:10285000022038BD00000000000000000000000061
:1028600038B5044600F004FC23693BB100F000FCDD
:102870002369251D13B1284601F06AF84FF0FF3592
:10288000E3691A78042AFDD8DFE802F0030A142568
:102890003100236820469B6898470128F0D138BD55
:1028A000D3F801100933E3610029E9D02046FFF78E
:1028B0004FFC38BDD3F80130A26903EBC3031344C6
:1028C000E36194F8293023B104F124011048FFF7A3
:1028D00097FF0121EAE794F8293023B104F124019C
:1028E0000B48FFF78DFF0023A361E36138BD226A27
:1028F000013204BFD3F801202262226A1AB90933D7
:102900002562E361BCE7A369013AE3612262B7E7AC
:10291000580A002000000000000000000000000035
:102920002DE9F04F01210024FF25632203264FF0FB
:1029300000084FF000094FF4E130EB4BEB4FC3F8C8
:102940001B40C3F81F401C705C709C70DC701C71D5
:102950005C719C71DD711C7259729A72DC721C730D
:102960005C739C73DC731C745C749C74DC741C75E9
:102970005C759C75DC751C765C769C76DE7683F8DF
:10298000204083F8214083F8224083F82340D84B2D
:10299000A5B0C3F81B401C705C709C70DC701C718F
:1029A0005C719D71DC711C7259729A72DC721C73BD
:1029B0005C739C73DC731C745C749C74DC741C7599
:1029C0005C759C75DC751C765C769C76C3F81F4044
:1029D000DE7683F8204083F8214083F8224083F894
:1029E0002340C44BEC461C705C709C70DC701C7106
:1029F0005D719C71DC711C7259729A72DC721C736D
:102A00005C739C73DC731C745C749C74DC741C7548
:102A10005C759C75DC751C765C769C76D9761A772D
:102A20005C779C77DC7783F8204083F8214083F83B
:102A3000224083F8234083F8244083F8254083F81C
:102A4000264083F8274083F8284083F8295083F8EC
:102A50002A4083F82B4083F82C4083F82D1083F80C
:102A60002E2083F82F4083F8304083F8314083F8DC
:102A7000324083F8334083F8344083F8354083F89C
:102A8000364083F8374083F8384083F8394083F87C
:102A90003A4083F83B4083F83C4083F83D4083F85C
:102AA0003E4083F83F1083F8402083F8414083F88C
:102AB000424083F8434083F8444083F8454083F81C
:102AC000464083F8474083F8484083F8494083F8FC
:102AD0004A4083F84B4083F84C4083F84D5083F8CC
:102AE0004E4083F84F4083F8504083F8511083F8EC
:102AF000522083F8534083F8544083F8554083F8BC
:102B0000564083F8574083F8584083F8594083F87B
:102B10005A4083F85B4083F85C4083F85D4083F85B
:102B20005E4083F85F40C3F86740C3F8634083F8B2
:102B3000604083F8614083F8624083F8636083F803
:102B4000684083F8694083F86A4083F86B406A4BB9
:102B50006A4AC3E90089C3F89030C3F89430684BDF
:102B60004FF0040882E88900092393810A239382A5
:102B7000922313624FF485535362624B176196613F
:102B8000C2F81C80DA6003F11002DFF898A1DFF8C8
:102B90009891C3F81024C3F814245B4AC3F81C446A
:102BA000C3F82044C3F82444C3F8284402F11C00AD
:102BB00083F8181483F88F140DF1480EC3F8FC4401
:102BC0000595CDF800908DF810408DF811401A60F1
:102BD000ADF80410CDF808A0CDF80C802C3283F8A5
:102BE0000045C3F80445C3F80845C3F89004C3F88A
:102BF0009424BCE80F00AEE80F009CE803000B959E
:102C00008EE8030009968DF828408DF829400DF1D3
:102C1000600E0DF1180CCDF81890ADF81C40CDF8F1
:102C200020A0BCE80F00CDF83090AEE80F009CE883
:102C300003004FF0050902234FF0FF3B8EE803002D
:102C400011958DF840408DF84140ADF83490CDF8A5
:102C500038A00F931EAD0DF1300EBEE80F000FC56A
:102C60009EE8030085E80300284D21462C222846D3
:102C700001F07EF805F1300E0DF1480CBCE80F00B4
:102C8000AEE80F009CE803000DF1600C8EE8030035
:102C9000BCE80F0005F14C0EAEE80F009CE8030005
:102CA0000DF1780C8EE8030005F1680EC5F820B030
:102CB00085F82940C5F82CA0C5F848A0C5F864A03F
:102CC000BCE80F00AEE80F009CE80300104B114A6F
:102CD0002B60114B8EE803001A60104A10495A60AD
:102CE00006225A82072221E05411002000000240EF
:102CF000301100209C100020580A002008110020EC
:102D000000380140900B002058420008080B0020BA
:102D1000B8420008A84200082C0A002000300140F8
:102D20004107000800040040000402409A820D4A56
:102D3000C5F880B085F8844085F8854085F88640E0
:102D400085F887409F60DF60A3F81090A3F8168095
:102D50009F619E839C77D16083F820405C6225B0A0
:102D6000BDE8F08F080A002000000000000000000D
:102D7000704700000000000000000000000000009C
:102D8000704700000000000000000000000000008C
:102D9000704700000000000000000000000000007C
:102DA000FEE700000000000000000000000000003E
:102DB00070B500240B4B03F1800093E82600043922
:102DC000AA4206D3D9688A4208D310338342F4D387
:102DD00070BD51F8046F42F8046BF1E742F8044B00
:102DE000F1E700BFA0430008000000000000000061
:102DF00008B500F03DFEBDE8084000F001B8000055
:102E000000F056B8000000000000000000000000C4
:102E100038B54FF08044E36805469B0702D5044867
:102E200000F07EFB0023656323610223E36038BD6D
:102E30002044000800000000000000000000000026
:102E400000224FF08043DA6070470000000000006D
:102E500038B54FF08043DA68054612F0020F1C4681
:102E600002D1024800F05CFB656338BD30440008C5
:102E700010B500F0CDF84FF080431A6992070CD5D9
:102E800000241C61202383F3118800F091F800F0E6
:102E900057FB00F0A5F884F3118800F0D1F8BDE8E5
:102EA000104000F0BDBD0000000000000000000068
:102EB000134B08215A6A1C2042F001025A621A6B15
:102EC00042F001021A630F4A1B6B936843F001033F
:102ED00093600D4B5A6842F21073B2FBF3F24FF05D
:102EE0008043013A9A624FF6FF72DA6200229A61D9
:102EF0005A63DA605A6001225A611A6000F008B819
:102F000000380240002004E0FC090020000000001E
:102F100000F16043090103F56143C9B283F800136E
:102F2000012300F01F024009800000F1604093403F
:102F300000F56140C0F88031036070470000000078
:102F4000044B1A6B0AB95B6B13B1034800F0E8BA83
:102F5000704700BFC411002040440008000000007A
:102F600010B5054C236B0BB9636B13B1034800F02C
:102F7000D7FA0123636310BDC41100207044000818
:102F800010B5064C236B13B9636B002B02DC0448AD
:102F900000F0C6FA0023636310BD00BFC411002017
:102FA0009044000800000000000000000000000045
:102FB00010B5064C236B002B01DD636B13B1044885
:102FC00000F0AEFA0123636310BD00BFC4110020FE
:102FD0008044000800000000000000000000000025
:102FE00010B5064C236B002B02DD636B002B02DC5B
:102FF000034800F095FA0023636310BDC41100205C
:10300000A0440008000000000000000000000000D4
:1030100010B5202383F31188074C236B002B01DBB1
:10302000636B13B1054800F07BFA236B0133236314
:10303000002383F3118810BDC41100205044000800
:1030400010B5202383F31188074C236B002B01DD7F
:10305000636B13B1054800F063FA236B013B2363F4
:10306000002383F3118810BDC411002060440008C0
:10307000054B1A6B002A02DB5B6B002B02DC03485A
:1030800000F04EBA704700BFC4110020B0440008E1
:10309000044B1A6B12B95B6B002B02DC024800F088
:1030A0003FBA7047C4110020C0440008000000006F
:1030B00008B5FFF765FF084B1A689A4207D09B696D
:1030C00099689368994202D2044800F029FA0023D3
:1030D00083F3118808BD00BFC4110020D04400084C
:1030E00010B5202383F31188FFF73AFF024B1C69C8
:1030F000FFF7DEFF204610BDC411002000000000D5
:1031000010B52023044683F31188FFF729FF044BF1
:1031100024699C4208BF0024FFF7CAFF204610BD67
:10312000C4110020000000000000000000000000AA
:1031300010B50446FFF7D4FFC3699C4203D0FFF7E4
:10314000DFFF0028F8D110BD0000000000000000E3
:103150000022034B1B605B609A601B615B617047E0
:10316000C41100200000000000000000000000006A
:1031700010B50446FFF77CFF14B90D4800F0D0F9F4
:1031800094F820300BB10F2B02D1094800F0C8F998
:103190000023A26884F82030064B1B68996891428E
:1031A000FBD25A6823606260204614605C6010BDE8
:1031B00000450008C41100200000000000000000CD
:1031C00038B50446202383F31188FFF7F1FE94F805
:1031D00020300025052B0BD8DFE803F0030A0A088E
:1031E0001C16FFF7FDFE85F3118838BD636A1D606C
:1031F0004FF0FF3320466362FFF7BAFFFFF7F0FEA0
:10320000002383F3118838BD656AFFF731FFAB688F
:103210000133AB6094E80C001A6022685360E7E762
:1032200010B50446FFF724FF14B90D4800F078F9F3
:1032300094F820300BB10F2B02D1094800F070F93F
:103240000023A26884F82030064B1B6899689142DD
:10325000FBD85A6823606260204614605C6010BD31
:1032600010450008C411002000000000000000000C
:1032700070B506460E4CA569FFF70AFF236885F86E
:1032800020601A68546022600122A36183F8202024
:10329000EFF30983EA69243B9A4202D9054800F01A
:1032A0003FF92946A069BDE87040FCF779BF00BF2F
:1032B000C41100204045000800000000000000008C
:1032C00070B50E4686B00546FFF7E2FE731C0D4C46
:1032D00013D0A3690C4A314601A800F0D1FA284660
:1032E000FFF7C6FFFFF7C4FE049B13B101A800F06F
:1032F0002FFBA369586A06B070BD2846FFF7B8FFD8
:10330000F7E700BFC4110020C13100080000000031
:10331000F8B5194C05460F46A669FFF7B9FE2368B4
:10332000A34207D0A2699B6892689A4202D21348CE
:1033300000F0F6F86F62AA68B3689A4204D828468B
:10334000BDE8F840FFF714BF3046FFF711FF012337
:103350000646A56185F82030EFF30983C269243B56
:103360009A4202D9064800F0DBF831462846BDE80B
:10337000F840FCF715BF00BFC4110020304500081D
:1033800040450008000000000000000000000000B0
:10339000044B1A689B6990689B68984294BF002010
:1033A00001207047C4110020000000000000000050
:1033B00038B50E4C2368A0691A6854602260012257
:1033C00083F82020A361FFF72BFF0546EFF3098365
:1033D000C269243B9A4202D9054800F0A1F8294667
:1033E000A069BDE83840FCF7DBBE00BFC411002077
:1033F0004045000800000000000000000000000040
:1034000008B5FFF745FEFFF733FE064B1A689B69C8
:1034100092689B689A4203D9BDE80840FFF7C8BF8D
:1034200008BD00BFC4110020000000000000000023
:1034300010B50446FFF71CFE14B90F4800F070F8F1
:10344000A368002B236810DB9C4210D1A3680133D2
:10345000002BA3600FDC2068036823605C600023FE
:103460004362BDE81040FFF783BE9C42EED10248A4
:1034700000F056F8EAE710BD5045000800000000D3
:10348000FEE7000000000000000000000000000057
:1034900038B500251A4CFFF75BFE00F0E1F98022F9
:1034A000184904F138002563656300F0D9F8164B1C
:1034B000164AC361012380F82030154BA061D968FA
:1034C00021F4E0610904090C0A431249DA60CA6870
:1034D00042F08072CA6010490A6842F001020A6034
:1034E0001022DA77202283F82220FFF729FD85F3C6
:1034F000118862B6BDE83840084800F009B900BF3D
:10350000C4110020E0440008000400200003FA0574
:1035100000ED00E0F0ED00E0001000E09045000854
:1035200008B5014672B6034BD8620348FEF790FA1D
:10353000FEE700BFC4110020804500080000000025
:103540002DE9F84F4FF00008C1462A4DFFF790FDD6
:10355000FFF78EFDEC6905F11C0A4FF080477B6A8E
:103560002E8D9BB29E1BA268B6B2964220D3202716
:10357000A2682B8DD4F80CB013442B852368B61A9F
:103580005345C3F804A0EB61C4F80C8001D1FFF7E8
:1035900057FCFFF725FD89F311882069D84787F389
:1035A0001188FFF705FDEC69A3689E42E0D2D4E7DD
:1035B000EA6952451CD091682B858E1B9660A468E1
:1035C000B4F5803F02D30C48FFF7AAFF022C2CBFB2
:1035D0001B1902339CB22046FFF73AFC2A8D7B6A06
:1035E000A41A9B1A9BB2A4B2A34201D90348EBE7E9
:1035F000BDE8F88FC4110020604500087045000840
:10360000202383F31188FFF7ABBC0000000000000B
:1036100008B5FFF7B5FC084B1A689A4207D09B69BA
:1036200099689368994202D20448FFF779FF002312
:1036300083F3118808BD00BFC4110020C0450008F5
:1036400010B5044610B90448FFF76AFF2146BDE8EB
:1036500010400820FFF734BED045000800000000ED
:103660008260022280F82020002280F8212001229E
:1036700080F82220034A8161516902614161086139
:1036800050617047C41100200000000000000000DD
:1036900010B50446FFF7ECFC14B91848FFF740FFDB
:1036A0006268500707D1A368590704D19A4202D231
:1036B0009B1AAF2B02D81148FFF732FFE368FF2BAC
:1036C00001D8236913B90D48FFF72AFFA068636882
:1036D000E26840F80C3CA0F14C0340F81C3C236924
:1036E000216840F84C3C6369283840F8203C044B82
:1036F000BDE8104040F8043CFFF7B2BFE0450008C9
:10370000B1010008000000000000000000000000FF
:1037100010B504464068FFF70BFD10B10B48FFF7EA
:10372000FFFE5521A26863689A420CD8FFF768FF34
:103730002046FFF7ADFF04460021FFF7E9FDFFF744
:1037400067FF204610BD03F8011BEDE700460008A7
:1037500008B5094B9B6993F82220586222B95A692F
:10376000196911611B695A610F20FFF781FDBDE8DE
:1037700008400248FFF7D4BEC411002010460008DC
:1037800010B50446FFF73CFF2046BDE81040FFF7A8
:10379000DFBF00000000000000000000000000008B
:1037A00010B50446FFF72CFF2046FFF749FFBDE8A0
:1037B0001040FFF72DBF00000000000000000000D7
:1037C00070B50268074C0546A66912B10648FFF7B6
:1037D000A7FE2E6003207562FFF74AFDA369586AB1
:1037E00070BD00BFC411002020460008000000008A
:1037F0000A4B70B59E69036804460D4613B108482C
:10380000FFF78EFE3DB1266074622946BDE8704028
:103810000320FFF755BD4FF0FF3070BDC4110020ED
:10382000304600080000000000000000000000001A
:1038300070B5046805460E4674B194F82030032B29
:1038400002D00648FFF76CFE00232B60666220461C
:10385000BDE87040FFF78CBC70BD00BF504600084B
:10386000054B03F11C02DA611A624FF0FF325A6213
:1038700000221A85704700BFC4110020000000001C
:103880002DE9F04106460C4615461F46FFF7F0FBB2
:103890000EB105B114B92A48FFF742FE4FF080433C
:1038A000586A284BF5601A4652F81C5F022C2146D4
:1038B00038BF02219542376180B21F4610D14FF6C2
:1038C000FF741885A14294BF40180019DE611E6282
:1038D00080B235607560B160BDE8F041FFF798BA1D
:1038E0001B8DAA68C41AA4B2641814D32D68A41A34
:1038F000DFF84C80AB689C4219D86B683560736008
:103900001E604FF0FF336E60B460A868041BAC60AB
:103910007B62BDE8F0819442EAD24FF6FF708442A8
:1039200094BF1819181880B2FFF792FAE0E7B54271
:1039300002D14046FFF7F4FDAB682D68E41AD9E7E1
:1039400070460008C41100200000000000000000C4
:1039500038B50446FFF78CFB14B92548FFF7E0FDA6
:10396000E36813B92248FFF7DBFD22490A4652F803
:103970001C3F9C4223680CD061680B60236859602F
:1039800000219342E16031D09A68A1680A449A60AC
:1039900038BD00209342CB615A60E06003D1BDE89E
:1039A0003840FFF74DBA9868A2680D8D10449860B2
:1039B0004FF080435C6A641BA4B2A04216D9031B7B
:1039C000012B09D80234B4F5803F0BD2281980B2FC
:1039D000BDE83840FFF73CBA4FF6FF74844228BF79
:1039E0000446F3E70448FFF79BFDEFE738BD00BF4F
:1039F00080460008C4110020604600080000000056
:103A0000EFF30983203383F30988002383F31188BC
:103A100070470000000000000000000000000000EF
:103A200010B5202383F311880D4B5B6813F40063FA
:103A300012D0EFF309844FF0807344F8043CA4F1F2
:103A4000200383F30988FFF7A3FC18B1054B44F862
:103A5000083C10BD044BFAE783F3118810BD00BF8A
:103A600000ED00E0C5010008D001000800000000E2
:103A700008B51A4B1A6942F07F4242F47F0242F4C1
:103A8000FF4242F040021A611A6922F4FF4222F01A
:103A900040021204120C1A611A699A6962F080528B
:103AA0009A619A6902F080529A619A695A694FF054
:103AB000FF325A615A6900225A615A695A6A42F0C1
:103AC00080525A621A6B42F080521A631B6B00F0EC
:103AD0001FF8BDE8084000F043B900BF00380240BD
:103AE00008B5FFF74DFA084B1A689A4207D09B6950
:103AF00099689368994202D20448FFF711FD0023A8
:103B000083F3118808BD00BFC4110020904600084F
:103B100000230122094910B5094C0B604B6004EBEE
:103B2000021050F80C0C036041F832300132082AC0
:103B3000F5D14FF0FF32034B5A6010BD78110020D1
:103B4000B0460008006002400000000000000000D5
:103B50002DE9F0470446884617461E46FFF788FAC7
:103B6000062C42D92548FFF7DBFC0121244D2A68A9
:103B700001FA04F919EA020F04F1010337D145F8FB
:103B8000337005EBC3035E6049EA02021D4B2A60F5
:103B9000DA691D4942F08072DA619A6A240142F0C2
:103BA00080729A6201EB040A9B6A0E466FB16A68E2
:103BB000DAF808301A4204D141469AF80F00FFF7AC
:103BC000A7F96B6843EA09036B6031194B68497BBD
:103BD0001A68305922F00F021A600E228A404260A1
:103BE00000221A605046BDE8F087A246BDE79A451C
:103BF0001C46BDD24FF0000AF4E700BFA046000803
:103C00007811002000380240B04600080000000093
:103C1000F8B51F4604460D461646202383F3118847
:103C2000FFF79EF93B46324629462046FFF790FFB4
:103C30000446FFF755FF2046F8BD000000000000D5
:103C400010B40468437B21684268D940126801F0CF
:103C50000E0111420ED0827B01FA03F36360064B22
:103C6000013253F832402CB103EBC20358682346AB
:103C700010BC184710BC70477811002000000000ED
:103C800008B5FFF7C5F90448FFF7DAFFFFF7D8F9E1
:103C9000BDE80840FFF7C4BEB046000800000000C1
:103CA00008B5FFF7B5F90448FFF7CAFFFFF7C8F9F1
:103CB000BDE80840FFF7B4BEC046000800000000A1
:103CC00008B5FFF7A5F90448FFF7BAFFFFF7B8F901
:103CD000BDE80840FFF7A4BED04600080000000081
:103CE00008B5FFF795F90448FFF7AAFFFFF7A8F911
:103CF000BDE80840FFF794BEE04600080000000061
:103D000008B5FFF785F90448FFF79AFFFFF798F920
:103D1000BDE80840FFF784BEF04600080000000040
:103D200008B5FFF775F90448FFF78AFFFFF788F930
:103D3000BDE80840FFF774BE00470008000000001F
:103D400008B5FFF765F90448FFF77AFFFFF778F940
:103D5000BDE80840FFF764BE1047000800000000FF
:103D6000704700000000000000000000000000009C
:103D700003460244934200D1704703F8011BF9E760
:103D800070B5CD1C25F0030508350C2D38BF0C256A
:103D9000002D064601DBA94203D90C233360002025
:103DA00070BD00F07DF9234A1468214691B9224C78
:103DB00023681BB9304600F043F82060294630469E
:103DC00000F03EF8431C26D10C233046336000F04F
:103DD0006FF9E4E70B685B1B1AD40B2B0FD90B6050
:103DE000CC18CD50304600F063F904F10B00231DD0
:103DF00020F00700C31A1BD05A42E25070BD8C421B
:103E00000BBF63684B681360636018BF0C46E9E73B
:103E10000C464968CAE7C41C24F00304A04205D03C
:103E2000211A304600F00CF80130CDD02560D9E7DA
:103E300070BD00BFB8110020BC11002000000000C0
:103E400038B50023054C05460846236000F048F9C4
:103E5000431C02D1236803B12B6038BDE812002057
:103E6000134B2DE9F0411D680646AC6D0F46B4B901
:103E7000502000F0F5F8A865046044608460C460D8
:103E80000461446184618462C46204634463846342
:103E9000C463046444648464C46404774462AA6DA3
:103EA00039463046BDE8F041012300F009B800BFB3
:103EB0000C080020000000000000000000000000CE
:103EC000F0B518B9106808B9F0BD204604460F4691
:103ED00014F8015B17F8016B1EB965B91560284627
:103EE000F0BDB542F6D1002BEFD114600370F0BDE8
:103EF0001C460CE015B90E4614F8013B16F8015BA0
:103F0000AB42F7D1002BF3D0002304F8013C14603E
:103F1000F0BD0000000000000000000000000000F4
:103F20002DE9F84F8046894692461F468B465D46EE
:103F30000A9815F8014B00F08BF82044467816F0EB
:103F400008060BD12D2C0BD101262C780BF1020584
:103F500067B1102F14D1302C0AD011E0AB46E6E740
:103F60002B2C04BF2C780BF10205F1E7302C27D164
:103F70002B7803F0DF03582B4BD110276C780235D8
:103F8000002E0CBF6FF000414FF000410022B1FB4A
:103F9000F7FE104607FB1E1CA4F13003092B11D8B5
:103FA0001C46A7421DDD531C07D0864516D301D100
:103FB000A44513DB012200FB074015F8014BEBE79A
:103FC0000A27DDE7A4F14103192B01D8373CE8E7C4
:103FD000A4F16103192B04D8573CE2E74FF0FF32FC
:103FE000EBE7531C08D122230846C8F80030BAF189
:103FF000000F07D1BDE8F88F06B14042BAF1000FBB
:104000000CD022B1013DCAF80050BDE8F88F4D46F2
:10401000F9E73024002FB3D10827B1E7BDE8F88FC6
:10402000084B37B51C68084D236A002B08BF2B4688
:10403000009313460A4601462046FFF771FF03B07E
:1040400030BD00BF0C0800207008002000000000F8
:10405000D0F8EC00704700000000000000000000F5
:10406000024B01461868FFF78BBE00BF0C0800200A
:1040700082B001B901A942B14BB113780B6012783B
:10408000101C18BF012002B070471046FBE76FF00C
:104090000100F8E700000000000000000000000040
:1040A0007047000000000000000000000000000059
:1040B0007047000000000000000000000000000049
:1040C00049B1FF2A8BBF8A230A700360012088BF91
:1040D0004FF0FF30704708467047000000000000B6
:1040E000044B0246196809B903491960186802446B
:1040F0001A607047C0110020EC1200200000000080
:10410000030406080C101820300000000000000016
:104110000001020304060708090000000000000077
:10412000434320527374204661696C0D0043432061
:1041300057204661696C0D00434320522F5720469B
:1041400061696C3B2072706C3D25750D0043432006
:1041500052204661696C0D00000000000000000064
:104160006368537973556E6C6F636B0000000000D9
:104170000D486172644661756C740D0000000000AA
:10418000556E68616E646C65642025530D000000F7
:10419000414842467265713D25754D487A3B204144
:1041A000504231467265713D25754D487A3B20413C
:1041B000504232467265713D25754D487A0D0000BA
:1041C000566563746F72353800000000000000000F
:1041D000566563746F7235430000000000000000F4
:1041E000566563746F7236300000000000000000F6
:1041F000566563746F7236340000000000000000E2
:10420000566563746F7236380000000000000000CD
:10421000566563746F7239430000000000000000AF
:10422000566563746F7245300000000000000000A6
:104230006368537973556E6C6F636B000000000008
:10424000202C000000000000000000000000000022
:104250000000000000000000711A0008111D000895
:10426000A11C0008C11C0008B11A000870FBFFFF68
:1042700000000000A51C0008C51C00086CFBFFFF27
:1042800000000000CF1A000800000000000000003D
:104290006368537973556E6C6F636B0000000000A8
:1042A0000000000000000000C11F00080000000026
:1042B000000000000000000061280008511F0008F5
:1042C000A1210008D11F000800000000000000002C
:1042D00041636B2025640D0A00000000000000000F
:1042E00050696E670047657449440049442025754C
:1042F0000D00536574494400476574546872005456
:1043000068722025640D005365745468720053650B
:1043100074507772005365740041636B20257520DB
:1043200025752025750D0A00000000000000000022
:104330004545206572726F723A2025750D000000A8
:1043400003080D171D26375086CDC5C0000000009C
:104350006368537973556E6C6F636B0000000000E7
:1043600032303139303530325F31383136004865DE
:104370006172744F6653746F726D000D2553202562
:10438000530D49443D25753B205468723D25643BDF
:10439000205077723D25750D0000000000000000E0
:1043A000944A0008EC120020EC120020EC120020CD
:1043B000944A000800000000000000000000000017
:1043C000944A000800000000000000000000000007
:1043D000944A0008000000000000000000000000F7
:1043E000944A0008000000000000000000000000E7
:1043F000944A0008000000000000000000000000D7
:10440000944A0008000000000000000000000000C6
:10441000944A0008000000000000000000000000B6
:1044200073745374617274416C61726D00000000AA
:104430007374536574416C61726D0000000000007C
:10444000535623330000000000000000000000006D
:104450005356233800000000000000000000000058
:104460005356233900000000000000000000000047
:10447000535623340000000000000000000000003C
:10448000535623360000000000000000000000002A
:10449000535623350000000000000000000000001B
:1044A0005356233700000000000000000000000009
:1044B00053562331300000000000000000000000CF
:1044C00053562331310000000000000000000000BE
:1044D0006368537973556E6C6F636B000000000066
:1044E0006D61696E00160030040228080C10141863
:1044F0001C2021000000000000000000000000005F
:104500006368536368526561647949000000000084
:1045100063685363685265616479416865616449A1
:10452000000000000000000000000000000000008B
:10453000636853636857616B6575705300000000D2
:10454000737461636B206F766572666C6F770000C1
:10455000636853656D5369676E616C4900000000C4
:10456000636854696D654164645800000000000090
:1045700063685654446F5469636B4900000000003F
:104580000D0A48616C743A2025530D0A00000000A2
:10459000B045000828120020E812002001000000A9
:1045A000813400080000000000000000000000004E
:1045B00069646C650000000000000000000000005D
:1045C0006368537973556E6C6F636B000000000075
:1045D0006368546864536C656570530000000000A4
:1045E000636854686443726561746553757370657C
:1045F0006E646564490000000000000000000000D7
:10460000636854686443726561746500000000006B
:1046100063685468644578697453000000000000C2
:10462000636854686453757370656E64530000006A
:10463000636854686453757370656E6454696D651E
:104640006F757453000000000000000000000000BF
:104650006368546864526573756D654900000000B5
:10466000636854696D65416464580000000000008F
:1046700063685654446F536574490000000000009D
:1046800063685654446F52657365744900000000B6
:104690006368537973556E6C6F636B0000000000A4
:1046A000646D6153747265616D416C6C6F63490038
:1046B0000060024008600240010000000000000BA2
:1046C000006002401C600240020000000004010C77
:1046D0000060024030600240040000000008020D4B
:1046E000006002404460024008000000000C030E1D
:1046F0000060024058600240100000000010040FEB
:10470000006002406C6002402000000000140510B0
:104710000060024080600240400000000018061166
:104720000000000000000000000000000000000089
:104730000000000000000000000000000000000079
:104740000000000000000000000000000000000069
:104750000000000000000000000000000000000059
:104760000000000000000000000000000000000049
:104770000000000000000000000000000000000039
:104780004300504F53495800000000000000000053
:104790002E000000000000000000000000000000EB
:1047A0000020202020202020202028282828282001
:1047B00020202020202020202020202020202020F9
:1047C0002088101010101010101010101010101061
:1047D0001004040404040404040404101010101051
:1047E000101041414141414101010101010101011B
:1047F000010101010101010101010101101010106D
:1048000010104242424242420202020202020202EC
:104810000202020202020202020202021010101040
:104820002000000000000000000000000000000068
:104830000000000000000000000000000000000078
:104840000000000000000000000000000000000068
:104850000000000000000000000000000000000058
:104860000000000000000000000000000000000048
:104870000000000000000000000000000000000038
:104880000000000000000000000000000000000028
:104890000000000000000000000000000000000018
:0148A0000017
:0448A400F8B500BFA4
:0448A800F8B500BFA0
:0848AC0044BAFF7F0100000087
:1048B80012000000070000009DFFFFFF1008002005
:1048C8000000000040470008604700082047000833
:1048D80000000000000000000000000000000000D0
:1048E80000000000000000000000000000000000C0
:1048F80000000000000000000000000000000000B0
:10490800000000000000000000000000000000009F
:10491800000000000000000000000000000000008F
:10492800430000000000000000000000000000003C
:10493800000000000000000000000000000000006F
:10494800430000000000000000000000000000001C
:10495800000000000000000000000000000000004F
:1049680043000000000000000000000000000000FC
:10497800000000000000000000000000000000002F
:1049880043000000000000000000000000000000DC
:10499800000000000000000000000000000000000F
:1049A80043000000000000000000000000000000BC
:1049B80000000000000000000000000000000000EF
:1049C800430000000000000000000000000000009C
:1049D80000000000000000000000000000000000CF
:1049E800430000000000000000000000000000007C
:1049F80000000000000000000000000000000000AF
:104A0800C14000087140000800000000A0470008ED
:104A1800904700088C4500088C4500088C45000824
:104A28008C4500088C4500088C4500088C4500081A
:104A38008C4500088C450008FFFFFFFFFFFFFFFFC4
:104A4800FFFFFFFFFFFF00000100415343494900FA
:104A5800000000000000000000000000000000004E
:104A680000000000000000000000415343494900D5
:104A7800000000000000000000000000000000002E
:0C4A880000000000000000000000000022
:04000005080001915D
:00000001FF
