:020000040800F2
:10000000000400209101000893010008111300086A
:100010009301000893010008930100089301000870
:10002000930100089301000893010008B13900080A
:100030009301000893010008930100089301000850
:100040009301000893010008930100089301000840
:1000500093010008930100082113000871130008A0
:10006000C11300081114000861140008313C000895
:10007000513C0008713C0008913C0008B13C00086C
:10008000D13C0008F13C00089301000893010008EE
:10009000930100089301000893010008B1140008BF
:1000A00093010008212D0008930100089301000826
:1000B00093010008930100089301000893010008D0
:1000C00093010008930100089301000851180008EB
:1000D000911800089301000893010008930100089B
:1000E000011500089301000893010008930100081E
:1000F0009301000893010008930100089301000890
:10010000930100089301000893010008930100087F
:10011000930100089301000893010008930100086F
:10012000930100089301000893010008930100085F
:10013000930100089301000893010008930100084F
:0C01400075010008F10E000811270008EE
:04014C005101000855
:1001500010B5054C237833B9044B13B10448AFF301
:1001600000800123237010BD6808002000000000FB
:10017000F045000808B5034B1BB103490348AFF332
:10018000008008BD000000006C080020F045000859
:1001900026E000F000F8FEE700000000000000008C
:1001A0002DE9F04FC1F80CD0C3689D46BDE8F08F33
:1001B00002F03EFE002383F311882846A04700206A
:1001C00003F0CEFA02F024FE03F04AF802F030FE0B
:1001D00000DFFEE70000000000000000000000005B
:1001E00072B6274880F30888264880F30988264895
:1001F0004EF60851CEF200010860022080F3148808
:10020000BFF36F8F02F00CFD02F012FD4FF055307E
:100210001E491B4A91423CBF41F8040BFAE71C49B6
:10022000184A91423CBF41F8040BFAE719491A4AAF
:100230001A4B9A423EBF51F8040B42F8040BF8E700
:1002400000201749174A91423CBF41F8040BFAE7D6
:1002500002F006FD02F0F4FC134C144DAC4203DA3C
:1002600054F8041B8847F9E702F06AF8104C114D66
:10027000AC4203DA54F8041B8847F9E702F0E8BC03
:1002800000040020000800200000000800000020FA
:1002900000040020F0450008000800206808002045
:1002A000680800201C150020400100084C010008CF
:1002B0004C01000850010008000000000000000090
:1002C00053B94AB9002908BF00281CBF4FF0FF31BD
:1002D0004FF0FF3000F07CB9ADF1080C6DE904CEB1
:1002E00000F006F8DDF804E0DDE9022304B0704711
:1002F0002DE9F0478C460E460446089D002B50D150
:100300008A4217466CD9B2FA82FEBEF1000F0BD0BA
:10031000CEF1200C01FA0EF620FA0CFC02FA0EF7D0
:100320004CEA060C00FA0EF43A0CBCFBF2F9BBB234
:1003300002FB19CC09FB03FA4FEA144848EA0C46C1
:10034000B2450AD9F61909F1FF3180F02581B2458D
:1003500040F22281A9F102093E44A6EB0A06B6FB4F
:10036000F2F002FB106600FB03F3A4B244EA064479
:10037000A34209D9E41900F1FF3280F00B81A342B6
:1003800040F2088102383C440021E41A40EA094066
:10039000002D62D0002324FA0EF42C606B60BDE8BF
:1003A000F0878B4207D9002D55D0002185E8410008
:1003B0000846BDE8F087B3FA83F1002940F08F804A
:1003C000B34202D3824200F2FC80841A66EB030639
:1003D0000120B446002D40D085E81010BDE8F0871C
:1003E00012B90127B7FBF2F7B7FA87FEBEF1000F8B
:1003F00035D10121F61B4FEA174C1FFA87F8B6FBDF
:10040000FCF20CFB126608FB02F0230C43EA0646E2
:10041000B04207D9F61902F1FF3302D2B04200F21E
:10042000D2801A46361AB6FBFCF00CFB106608FBAD
:1004300000F8A3B243EA0644A04507D9E41900F145
:10044000FF3302D2A04500F2B9801846A4EB08049D
:1004500040EA02409CE729462846BDE8F08707FAB3
:100460000EF7CEF1200326FA03F24FEA174CB2FB47
:10047000FCF11FFA87F80CFB112206FA0EF620FA9F
:1004800003F301FB08F933431E0C46EA0246B1456B
:1004900000FA0EF409D9F61901F1FF3280F08C80D0
:1004A000B14540F2898002393E44A6EB0906B6FB0D
:1004B000FCF00CFB106200FB08F99EB246EA024613
:1004C000B14507D9F61900F1FF3371D2B1456FD9A3
:1004D00002383E44A6EB090640EA01418FE7C1F12C
:1004E000200722FA07F88B4048EA030326FA07F4AC
:1004F0004FEA134EB4FBFEF91FFA83FC0EFB1944BE
:100500008E4020FA07F809FB0CFA48EA06084FEA81
:10051000184646EA0444A24502FA01F200FA01F63E
:1005200008D9E41809F1FF3044D2A24542D9A9F113
:1005300002091C44A4EB0A04B4FBFEF00EFB1044B9
:1005400000FB0CFC1FFA88F848EA0444A44507D9CC
:10055000E41800F1FF3E29D2A44527D902381C44F3
:1005600040EA0940A0FB0289A4EB0C0CCC45C24632
:10057000CE4615D312D055B1B6EB0A036CEB0E067E
:1005800006FA07F7CB401F43CE402F606E60002174
:10059000BDE8F0871046F7E68946DEE64645EAD232
:1005A000B8EB020A69EB030E0138E4E77046D7E7BF
:1005B00018468FE78146BDE7114676E702383C448E
:1005C00044E7084606E7023A3E442BE700000000F5
:1005D000704700BF000000000000000000000000A5
:1005E00008B502F025FC084B1A689A4207D09B69AF
:1005F00099689368994202D2044802F031FF0023BF
:1006000083F3118808BD00BFF4130020903F000859
:10061000104B984205D1104AD36943F00103D361CE
:1006200070470E4B984204D10B4AD36943F0020342
:10063000F5E70B4B984204D1074AD36943F0040312
:10064000EDE7084B9842EBD1034AD36943F0080326
:10065000E5E700BF0000024000380240000402400D
:1006600000080240000C02400000000000000000F2
:1006700070B504461546FFF7CBFF0323022648005A
:100680008340DB4306FA00F0012622688E401A40C0
:1006900022602268072942EA000222606268C8BF1D
:1006A000083922EA06026260E2684FEA810102EA42
:1006B0000302E260E268E260A26803EA0203A36068
:1006C000A3684FF00F0240EA0300CCBF01230023D0
:1006D000A06004EB8304236A8A4023EA02032362B6
:1006E000226A05FA01F11143216270BD0000000089
:1006F0000368197303689A68D207FCD5187B7047A2
:100700000123428A81689340034A0869184002D055
:10071000013AFAD101207047B882010000000000C0
:100720000123C18AC2688B409361704700000000BA
:10073000C38AC16803F11002012393408B617047A3
:100740000021014803F04CB8A80800200000000078
:1007500008B27F28C8BFA1F580704FF00201C8BF62
:1007600000B290FBF1F04A3840B270470000000040
:100770002DE9F041054688461746FFF7D9FF284680
:10078000FFF7BEFF044630B12846FFF7C9FF01243A
:100790002046BDE8F0812E1D48F080013046FFF76D
:1007A000A7FF21463046FFF7A3FF38702846FFF722
:1007B000B7FFEDE7000000000000000000000000AF
:1007C0002DE9F041044688461746FFF7B1FF204661
:1007D000FFF796FF054630B12046FFF7A1FF012540
:1007E0002846BDE8F081261D41463046FFF780FFD0
:1007F00039463046FFF77CFF2046FFF791FFEFE7D1
:1008000010B504460C220B21FFF7DAFF00220C2161
:100810002046FFF7D5FF20220D212046FFF7D0FF0D
:1008200025220E212046FFF7CBFFED220F21204687
:10083000FFF7C6FF2D2210212046FFF7C1FF2F2210
:1008400011212046FFF7BCFF132212212046FFF79B
:10085000B7FFA32213212046FFF7B2FFFF22142186
:100860002046FFF7ADFF00220A212046FFF7A8FF30
:10087000622215212046FFF7A3FFB6222121204640
:10088000FFF79EFF102222212046FFF799FF082242
:1008900018212046FFF794FF1D2219212046FFF75B
:1008A0008FFF1C221A212046FFF78AFFC7221B2137
:1008B0002046FFF785FF00221C212046FFF780FF1E
:1008C000B0221D212046FFF77BFFEA22232120468C
:1008D000FFF776FF2A2224212046FFF771FF00222E
:1008E00025212046FFF76CFF1F2226212046FFF717
:1008F00067FF88222C212046FFF762FF31222D213D
:100900002046FFF75DFF09222E212046FFF758FF02
:10091000072203212046FFF753FF0722002120462C
:10092000FFF74EFF062202212046FFF749FF0C2267
:1009300007212046FFF744FF442208212046FFF705
:100940003FFF50223E212046FFF73AFF07221621A3
:100950002046FFF735FF2046BDE810400022172152
:10096000FFF72EBF000000000000000000000000A4
:1009700070B504460E46FFF7DBFE2046FFF7C0FECB
:10098000054628B12046FFF7CBFE0125284670BD5D
:100990003146201DFFF7ACFE84F820002046FFF70B
:1009A000BFFE94F8203003F0700384F82030EDE7A8
:1009B0002DE9F0434368874A85B09342044600F02E
:1009C000B580A2F5784293420CBF4FF005084FF076
:1009D00006080325E168E78A0846FFF719FE7B0051
:1009E000DBB205FA03F2D2430126086806FA07F7DC
:1009F00010400860D1F800E006FA03F040EA0E006B
:100A00000860486820EA07074F600227486807FA2D
:100A100003F34860C8681040C860C868C860886848
:100A200002408A608A68A06813438B604246218A2C
:100A3000FFF71EFE4246618AA068FFF719FE424694
:100A4000A18AA068FFF714FEA169237F0846B3407E
:100A50005FFA83F894F81E90FFF7DAFD05FA08F3C1
:100A6000DB434FF00F0E0A681A400A60CA68134051
:100A7000CB60CA6809FA08F31343CB60564B1A6A75
:100A800032431A62DA6A22F00102DA62A28BDB6A6E
:100A900002F47F7303F1804303F5803302EA05011A
:100AA0009868B9400EFA01FE20EA0E009860DFF85F
:100AB00058E1A06970453CD1986806FA01F10143FC
:100AC00099600126454B06FA02F219681143196034
:100AD000D143586808405860986801409960D968C7
:100AE00020461143D9605A61FFF71AFE00233C4AA1
:100AF00019468DE80C00201D1A4600F039FE626888
:100B000030211368204643F040031360FFF730FFA5
:100B100060B362683348136823F04003136000F049
:100B2000DFFF3546284605B0BDE8F0834FF00508E5
:100B30004FE72D4EB04203D1986807FA01F1BEE7A6
:100B40002A4EB04203D1986805FA01F1B7E7284D63
:100B5000A84205D104209D6800FA01F12943AFE7BE
:100B6000244DA842ADD19D680720F5E70722062154
:100B70002046FFF725FE08B11F48D0E704AA02F877
:100B8000010D06212046FFF7F3FD054638B99DF813
:100B90000F10072905D0194800F0A2FFC1E7184837
:100BA000BDE73A212046FFF7E3FE2046FFF728FE87
:100BB000A08B092809DC042809DC0630072102F093
:100BC000FFF8104800F08CFFACE72820F6E717206C
:100BD000F4E700BF0030014000380240000401404B
:100BE000A02E6300403F000800080240000C0240B5
:100BF00000100240001402404D3F0008583F00081A
:100C00006D3F0008783F000800040240000000002B
:100C100038B504460D4694F8203023B136212046DD
:100C2000FFF7A6FEF7E72A462046BDE838400A212E
:100C3000FFF7C6BD0000000000000000000000003B
:100C40002DE9F3478946904678210DF107020446C5
:100C50009A46FFF78DFD70B99DF90730002B0ADA2F
:100C60002046FFF765FD2046FFF74AFD054620B107
:100C70002046FFF755FD012529E0261DFF213046BE
:100C8000FFF736FD4F46A7EB0903DBB253454FF0A4
:100C90000001304606DAFFF72BFD8DF8070007F854
:100CA000010BF0E7FFF724FD00218DF80700304627
:100CB000FFF71EFD2046FFF733FDB8F1000F06D009
:100CC0009DF807102046FFF743FD88F800002846EE
:100CD00002B0BDE8F0870000000000000000000046
:100CE0002DE9F04188463A211F4604461546069EE6
:100CF000FFF73EFE202383F3118802F089F83421A8
:100D00002046FFF735FE42F2107E40F2E730002128
:100D10004FF47A72EEFB08010023FFF7D1FA014687
:100D200004F1240002F03CFD8046FFF759FCB8F1C5
:100D3000FF3F07D03B46324629462046BDE8F041FA
:100D4000FFF77EBF36212046FFF712FE0220BDE8E6
:100D5000F081000000000000000000000000000022
:100D60000021243002F03CBD000000000000000023
:100D7000112938B50C4603D939210948FFF7F8FD88
:100D800042F2107540F2E73000210023E5FB040138
:100D90004FF47A72FFF794FABDE8384002F0F0BCE5
:100DA0008408002000000000000000000000000097
:100DB0008FB52A4B2A4A9B692A4E9A6101272A4CF1
:100DC000F9B22046FFF724FF94F8203033B33621E0
:100DD0002046FFF7CDFD0028F6D00DF10B03009360
:100DE00003AA04233F212046FFF77AFF054658BB9C
:100DF000039B9DF90B2039461C4800F071FEF36AF5
:100E0000032B21D828469DF80C20834217D0311897
:100E100091F82810914217D00130F6E7332120468F
:100E2000FFF7A6FD0028D8D10122638AA1689A4065
:100E30000F4B08691042D0D0013BFAD1CDE7F11831
:100E4000013381F82820F3620137052FB8D140F231
:100E50002A313046FFF78CFFB0E700BFF4130020C3
:100E6000B03F0008B008002084080020B63F00080A
:100E7000B882010000000000000000000000000037
:100E800013B504460421A060E0601C3002F028FA8B
:100E900004F11000002102F023FA1048FFF788FD4A
:100EA0000446C0B950223E210C48FFF789FC0422B9
:100EB00006210A48FFF784FC21460848FFF7A8FEF0
:100EC0000094074BFF224FF4D871064802F0E8FB6C
:100ED000204602B010BD0124FAE700BF84080020BC
:100EE000B10D0008E0080020000000000000000034
:100EF0000521124B124A19820621598207211A60D4
:100F0000104A99825A6002F550429A60DA600421D0
:100F10009A610322D9829A830B4800220B499A775F
:100F2000C8600020002183F820205A62084BC3E9E2
:100F300000019B60DB60DA62704700BF840800201C
:100F4000A83F000800300140410700089C0A00202B
:100F5000B0080020000000000000000000000000B9
:100F6000202383F3118801F07BBF00000000000004
:100F700008B501F08DFF002383F3118808BD000040
:100F800010B50446FFF7ECFF236820461B6898471E
:100F9000BDE81040FFF7ECBF0000000000000000BB
:100FA00073B5037F1D4C8DF80530054601F0B8FF81
:100FB000D4F8AC30002B19DD01F0B2FFD4F8AC301E
:100FC0000099013BC4F8AC30D4F89430144803F1D4
:100FD0000802C4F8942019600199596004F1900343
:100FE0009A4228BFC4F8944002F0C2F96B7F012BEB
:100FF00011D1AE6901F094FF2B692C1D13B120466D
:1010000002F07EFC2B4631462046064A02B0BDE87F
:10101000704002F00DBC02B070BD00BFF80B0020A4
:10102000900C0020810F000800000000000000006C
:10103000884230B516D0421E12F8014FA4F1410388
:10104000192B88BF204611F8013B98BF04F12000FE
:10105000A3F14105192D98BF2033C01A03D1002CEC
:10106000EAD130BD002030BD0000000000000000CB
:101070000368B3F1804F0BD103F50E335A6A42F087
:1010800001025A621A6B22F001021A631B6B70474D
:101090002A4A934208D12A4B5A6A42F002025A6203
:1010A0001A6B22F00202F0E7264A934208D1244B41
:1010B0005A6A42F004025A621A6B22F00402E4E710
:1010C000214A934208D11E4B5A6A42F010025A62DA
:1010D0001A6B22F01002D8E71C4A934208D1184B31
:1010E0005A6A42F020025A621A6B22F02002CCE7C0
:1010F000174A93420AD1124B1A6A42F004021A624A
:10110000DA6A22F00402DA62DB6A7047114A93421B
:1011100008D10B4B1A6A42F008021A62DA6A22F00E
:101120000802F0E70C4A9342EFD1054B1A6A42F0ED
:1011300010021A62DA6A22F01002E4E700040040AA
:101140000038024000080040001000400014004039
:1011500000080140000C01400010014000000000A8
:10116000F8B50446FFF784FF826903680169DA6213
:10117000027D0139012A0CBF0722062203290BD860
:10118000DFE801F0026A727A996941EA02129A6113
:101190001A6A42F001021A621A6842F001021A60E9
:1011A000494A934270D002F5806293426CD002F5B6
:1011B000803293426AD002F58062934266D002F593
:1011C000806293420CBF0322012263683F48218959
:1011D0008342667D5CD13E4CE06940F00100E061F5
:1011E00003204D00A840C0431C6804401C6002243A
:1011F0001F68AC403C431C600124002E60D15E6837
:101200008C4026EA04045C60DC68072904EA0004D8
:10121000DC60DC68C8BF0839DC609C684FEA81018B
:1012200000EA040098604FF002009C6800FA05F0A4
:1012300040EA04009860CCBF012000200F2403EB9B
:101240008003186A8C4020EA04001862186A02FAC7
:1012500001F101431962F8BD996941EA02329A61CC
:101260001A6A42F0100296E7D96941EA0212DA617D
:101270001A6A42F480728EE7D96941EA0232DA6171
:101280001A6A42F4805286E702229EE703229CE714
:101290001048834204D10E4CE06940F002009EE702
:1012A0000D48834204D10A4CE06940F0040096E7FF
:1012B0000A48834294D1064CE06940F008008EE76A
:1012C0005E688C4034439EE700040040000002400A
:1012D000003802400004024000080240000C0240B6
:1012E000074B01385A6922F080025A6110F8012F29
:1012F00022B119680906FCD55A60F7E7704700BFAC
:101300000038014000000000000000000000000064
:1013100008B50248FFF7E4FF01BEFEE7D03F000832
:1013200008B501F0CDFDFFF71BFE0A4B1B685BB152
:1013300098470122084B5A61FFF71AFE01F0D8FDC9
:10134000BDE8084002F044BB0449054800F0E8FB52
:10135000EFE700BF9C0A0020000401403040000875
:10136000E03F000800000000000000000000000056
:1013700008B501F0A5FDFFF7F3FD0A4B5B685BB113
:1013800098470222084B5A61FFF7F2FD01F0B0FDC9
:10139000BDE8084002F01CBB0449054800F0C0FB52
:1013A000EFE700BF9C0A0020000401404040000815
:1013B000E03F000800000000000000000000000006
:1013C00008B501F07DFDFFF7CBFD0A4B9B685BB1D3
:1013D00098470422084B5A61FFF7CAFD01F088FDC7
:1013E000BDE8084002F0F4BA0449054800F098FB53
:1013F000EFE700BF9C0A00200004014050400008B5
:10140000E03F0008000000000000000000000000B5
:1014100008B501F055FDFFF7A3FD0A4BDB685BB192
:1014200098470822084B5A61FFF7A2FD01F060FDC2
:10143000BDE8084002F0CCBA0449054800F070FB52
:10144000EFE700BF9C0A0020000401406040000854
:10145000E03F000800000000000000000000000065
:1014600008B501F02DFDFFF77BFD0A4B1B695BB151
:1014700098471022084B5A61FFF77AFD01F038FDBA
:10148000BDE8084002F0A4BA0449054800F048FB52
:10149000EFE700BF9C0A00200004014070400008F4
:1014A000E03F000800000000000000000000000015
:1014B00008B501F005FDFFF753FD0A4B1B6863B14A
:1014C00098474FF47872084B5A61FFF751FD01F0CD
:1014D0000FFDBDE8084002F07BBA0449044800F063
:1014E0001FFBEEE7B40A0020000401408040000822
:1014F000E03F0008000000000000000000000000C5
:1015000008B501F0DDFCFFF72BFD0A4B1B6863B14A
:1015100098474FF47C42084B5A61FFF729FD01F0D0
:10152000E7FCBDE8084002F053BA0449044800F063
:10153000F7FAEEE7B00A00200004014090400008EE
:10154000E03F000800000000000000000000000074
:1015500070B592B02022002104460AA802F0E0FBF8
:101560004FF480330A934FF400330B934FF48023EE
:101570000C933D4B03AA0D933C4B06AE0E933C4B94
:101580000F933C4B10933C4B5968186803C2197A6F
:10159000117003F109021933354610685168083299
:1015A00003C59A422E46F7D100238DF804308DF8FA
:1015B00005308DF806308DF8073001238DF808309E
:1015C00002238DF8093003238DF80A3004232B49B8
:1015D0008DF80B308B68C3F38103022B05D0032BEE
:1015E0002BD0012B20D1264B00E0264B234812A9FB
:1015F0008268C2F303120A4412F8302CD3402360ED
:1016000081688268C1F3022112A8C2F3C222014498
:10161000024411F8441C12F8442C23FA01F1D3407F
:101620006160A36012B070BD4B6812AAC3F342336D
:1016300002EB830353F8203CD8E78B6812AAC3F36C
:10164000834313448A6889680E4811F4803F0C492B
:1016500018BF014613F83C3CC2F381524B430132A0
:10166000B3FBF2F3C2E700BF9CFF0700C0FD0F0011
:1016700068FF1F00D0FE3F00203F000800380240F6
:101680000024F400001BB700000000000000000070
:101690000D4B0E4A99420E4B06D00E48814203D0A4
:1016A00000F58060814206D192689868C2F3C22238
:1016B000032A07D8704792685868C2F30222032AA7
:1016C00000D87047400070470008014000380240D1
:1016D000900A0020000C0140000000000000000003
:1016E00038B504460D4601680748FFF7D1FF226868
:1016F000D36A0133B0FBF3F0B0FBF5F000B1013871
:1017000000239062536238BD900A00200000000060
:1017100006480749836805C8B3FBF1F3B2FBF1F251
:10172000B0FBF1F1034800F0DBB900BF900A0020E4
:1017300040420F00F03F00080000000000000000E1
:101740004FF08052084B5A62084A11465368DB0634
:10175000FCD4136823F4C05343EAC02010604B68E4
:10176000DB06FCD4704700BF003802400070004028
:1017700070B50068324D049CA84246D105F5843509
:101780002E6A46F480562E62EE6A26F48056EE6289
:10179000ED6A4FF441750129056002BF016841F00F
:1017A00080010160012A02BF026842F00202026069
:1017B000012B02BF036843F001030360204B9842F2
:1017C000204B0CBF9B685B68B3FBF4F37F2B2BDCD7
:1017D0003F2B2BDC1F2B2BDC0F2B2BDC072B2BDCCD
:1017E000032B2BDC012BD4BF00230123026842EA28
:1017F000C30303609DF81430012B02BF036843F458
:10180000006303600023436070BD0F4DA842C0D148
:1018100005F500356E6A46F480466E622E6B26F43E
:1018200080462E632D6BB4E70723DFE70623DDE751
:101830000523DBE70423D9E70323D7E70223D5E712
:1018400000300140900A00200038004000000000F5
:1018500008B501F035FBFFF783FB084B9B68DB07FE
:1018600003D5074B1B6803B19847FFF781FB01F0D5
:101870003FFBBDE8084002F0ABB800BF00300140BC
:10188000B80A002000000000000000000000000076
:1018900008B501F015FBFFF763FB084B9B68DB07FE
:1018A00003D5074B1B6803B19847FFF761FB01F0B5
:1018B0001FFBBDE8084002F08BB800BF00380040B5
:1018C000BC0A002000000000000000000000000032
:1018D00008B501F0ADFA084B1A689A4207D09B6927
:1018E00099689368994202D2044801F0B9FD002337
:1018F00083F3118808BD00BFF4130020A040000846
:101900002DE9F04305469846002485B09DF83090B7
:1019100001AEB1FBF2F302FB1310092804F101043C
:1019200094BF30303730C0B23719194607F8010C70
:10193000002BEED1274647450DD22B6849461B6840
:101940002846984718B10C2005B0BDE8F083013750
:10195000F1E7002CF8D02B68013C1B68315D28466C
:1019600098470028F5D0EEE70000000000000000D6
:101970002DE9F04F0B46054614464FF00A0B85B093
:1019800019785E1C31B928462B685B6805B0BDE844
:10199000F04F1847252905D02B6828461B68984723
:1019A00048B3F0E75F784FF00008302F14BF2027CE
:1019B0009E1C16F8011BA1F13003DBB2092B03D9E1
:1019C0002A2904D1237804340BFB0838F1E72E29A7
:1019D00009D116F8011BA1F13003092BF9D92A29E5
:1019E00001D10434F5E7632939D017D841294ED005
:1019F00003D82529D0D03346C2E7532939D05829F6
:101A0000F9D14346102204F10409009721682846C1
:101A1000FFF776FF0028B6D14C46ECE7692902D0E3
:101A200013D86429E7D104F104092468002C07DAEB
:101A30002B682D211B68284698470028A3D16442B3
:101A4000009743460A222146E1E7732911D0752900
:101A5000D1D104F10409009743460A22D6E72B6846
:101A600021781B682846271D984700288BD13C46C3
:101A7000C1E72768013F17F8011F09B90434BAE725
:101A80002B6828461B6898470028F4D07BE700277E
:101A90002368D4F80880D4F8049003935FFA88FA96
:101AA0004F4501DB0C34A6E7002F0DDC039B102211
:101AB000D95D3023284600930223FFF721FF002839
:101AC0007FF461AF0137EBE7B8F1000FEED02B6880
:101AD00051461B68284698470028E7D053E7000086
:101AE0000FB413B504AB53F8044B0193202383F3D5
:101AF000118801F08DF9019A21460548FFF738FF5A
:101B0000FFF7E6FE02B0BDE8104004B0704700BF2A
:101B1000C0110020000000000000000000000000D4
:101B20000FB407B504AA52F8041B04480192FFF74A
:101B30001FFF03B05DF804EB04B07047C011002034
:101B400070470000000000000000000000000000DE
:101B500008B5084B084A9B69084C9A6140F2DE3090
:101B600001F00EFE20680028F8D003685B689847F3
:101B7000F4E700BFF4130020B0400008F00B002091
:101B800008B501F055F9084B1A689A4207D09B69CD
:101B900099689368994202D2044801F061FC0023DD
:101BA00083F3118808BD00BFF41300201041000822
:101BB0000EB403B503AA52F8041B00F5926001921B
:101BC000FFF7D6FE02B05DF804EB03B07047A0F15A
:101BD0009400A0F58060EBE700000000000000002A
:101BE000F0B5324CA04244D1314DEC6944F00104CF
:101BF000EC6103244E00B440E443056825400560D1
:101C000002250768B5403D4305600125002A48D1FB
:101C100042688D4022EA05054560C268072902EA4C
:101C20000402C260C56803FA06F242EA0502C26015
:101C30008368C8BF083904EA03044FF002038460D4
:101C4000826803FA06F343EA02038360CCBF0123F0
:101C500000230F2200EB8300036A89008A4023EAF5
:101C6000020303620723026A03FA01F111430162CE
:101C7000F0BD104CA04204D10D4DEC6944F00204BB
:101C8000B6E70D4CA04204D1094DEC6944F00404C0
:101C9000AEE70A4CA042ACD1054DEC6944F0080413
:101CA000A6E742688D401543B6E700BF000002403A
:101CB000003802400004024000080240000C0240CC
:101CC000D0F81014D0F81C2400F582635B1A9342FC
:101CD00028BF1346C0F820346BB1002280F81824C6
:101CE00042685268D1605360C3681B6A136013680E
:101CF00043F0010313607047000000000000000083
:101D0000436859680A6822F00F020A60597B1A6812
:101D10000E238B405360D0F82014D0F81C34D0F838
:101D200010245B1A0A4400F582618A4228BF00F140
:101D30001002C0F81C34C0F810242BB9012380F81D
:101D4000183403681B681847FFF7BABF000000008B
:101D5000FFF7D6BF000000000000000000000000F8
:101D6000D0F81C34B3F5806F16D2D0F814345A1C56
:101D7000C0F814241970D0F8142400F582639A4234
:101D800024BF00F11003C0F81434D0F81C34013320
:101D9000C0F81C34002070470C2070470000000081
:101DA000FFF7DEBFA0F59260FAE700000000000038
:101DB00090F818340BB1FFF783BF704700000000A4
:101DC000FFF7F6BFA0F59260FAE700000000000000
:101DD000836802465B68D0F828045B68C3F163033C
:101DE0001B1A48BF633373B1431CC2F82834104434
:101DF00090F82C3400200B70D2F82834622B03DDCD
:101E0000C2F8280470470B20704700000000000053
:101E10002DE9FF4190F88F340446002B71D03A4DE4
:101E20003A4E05F190070DF107012046FFF7D0FF6C
:101E3000002866D194F800259DF8073042B1082BA0
:101E400084F80005C4F8FC04EDD00D2B0CD1EAE7B2
:101E5000082B07D1D4F8FC34002BE4D0013BC4F8A4
:101E6000FC34E0E70D2B01D00A2B3FD1D4F8FC3431
:101E7000002BD8D04FF00008234483F898843146D3
:101E800004F5936001F0C4FF0123C4F8040584F84D
:101E900000358DF80D3084F88F84202383F311886A
:101EA00000F0B6FF01F03CF8D5F8AC30434518DD42
:101EB00001F036F8D5F8AC3004F29441013BC5F896
:101EC000AC30D5F89430124803F10802C5F89420DC
:101ED00019600399BA42596028BFC5F8945001F0BF
:101EE00047FA01F0E5F9FFF74BFE9CE7D4F8FC2434
:101EF000612A98D8511C2244C4F8FC1482F8983402
:101F000091E704B0BDE8F081F80B0020C040000864
:101F1000900C002000000000000000000000000005
:101F2000C168064A4B6809689342054A0CBF92682B
:101F30005268B2FBF1F29A60704700BF003801406E
:101F4000900A0020000000000000000000000000D7
:101F5000002337B50446C0681A4681898068FFF7B8
:101F60003FFEE3683B4A5B68934258D13A4B1A6A9A
:101F700042F480421A62DA6A22F48042DA62DB6A50
:101F800000252046FFF7CCFFE068344A436809216A
:101F90001D618069234601F013FE43686060E068BC
:101FA0004268111D9960016A196001230C2184F8AF
:101FB0001834D160C02151611A46818A0069FFF747
:101FC0000FFEE0682B462A460921C06901F0F8FDA2
:101FD000E16843684A68A060101D986004F22C40D4
:101FE000D8606320496A58601960196841F001019E
:101FF0001960D36843F40053D360194B1A6802B9CF
:102000001C60184C236843B900938022164B4FF490
:102010009871164801F044FB206003B030BD144AAB
:1020200093420AD10C4B5A6A42F400325A621A6B3C
:1020300022F400321A631B6BA2E70E4A93429FD12F
:10204000054B5A6A42F480225A621A6B22F48022AB
:10205000F0E700BF0038014000380240511D000881
:10206000F00B0020F40B0020511B0008C00A0020D8
:102070000044004000480040000000000000000054
:1020800010B52023044683F3118800F0C1FE01231C
:1020900084F88F34BDE81040FFF772BD00000000E7
:1020A000FFF7EEBFA0F19400A0F58060F8E7000014
:1020B00037B5002403688DF804408DF805408DF88D
:1020C00006408DF80740DB680199054698478DF872
:1020D00004408DF805408DF806408DF80740019BBF
:1020E000C5F8843003B030BD0000000000000000DF
:1020F00010B5044600F014FFE36823B12046BDE8A4
:10210000104001F0FDBB10BD000000000000000009
:1021100008B500F08DFE084B1A689A4207D09B69FB
:1021200099689368994202D2044801F099F9002312
:1021300083F3118808BD00BFF4130020504100084C
:102140006FF0404313B5C26B01919C18C26AC9B2CB
:1021500002EB84025163826D9918826C02EB81025A
:102160009DF805105163426F1344426E02EB8303E6
:102170009DF806205A6302B010BD00000000000068
:1021800003680A465B680149184700BF40410008E0
:1021900043680344984205D010F8012B8A42F9D1D4
:1021A0000120704700207047000000000000000080
:1021B0002DE9F041041D054620460F4642F21076F7
:1021C000FFF796FF40F2E73000214FF47A720023C8
:1021D000E6FB0701FEF774F82B460146024A20464B
:1021E000BDE8F04101F024BB810F000800000000B1
:1021F000C369D0F88420D3F8051070B59142044625
:102200000AD0D3F8015006684DB9F3689847E369DE
:10221000D3F80520C4F884200933E3612DE090F859
:10222000842059798A422ADA013284F8842094F889
:10223000852099798A4225DA013284F8852094F83C
:102240008620D9798A4220DA013284F8862094F8EF
:1022500087201B7A9A421BDA013284F88720F368C0
:102260002046D4F884109847E069D4F88420D0F848
:1022700005309A420FD10930E061002070BDD6DDF3
:10228000013AD2E7DBDD013AD7E7E0DD013ADCE7EE
:10229000E5DD013AE1E794F884104279D0F80130A5
:1022A0008A421CBF0431B3FBF1F194F88520857993
:1022B00014BF01310021954206D00432B3FBF2F283
:1022C0000132914238BF114694F88620C579954273
:1022D00006D00432B3FBF2F20132914238BF11460C
:1022E00094F88720007A904206D00432B3FBF2F3D0
:1022F0000133994238BF19462046FFF759FF0120A4
:1023000070BD0000000000000000000000000000A0
:1023100038B504460D46202383F3118800F078FD7C
:102320004FF0FF3323622368A561E5611B682046F7
:102330009847BDE83840FFF7EBBE00000000000002
:1023400083B50220FFF7FCF98C4A8D4D53688D4808
:1023500023F4604343F440435360FFF7F9F800F07F
:102360009FFC01F035F8122105F1A400C5F890504A
:10237000C5F8945000F0B4FF002105F1980000F07A
:10238000AFFF8148814CFFF7E3FD814A81498248D4
:10239000FFF7A6FB7B48FFF7BBF904F12C00FEF723
:1023A000DFFED4F8801004F12C00FFF799F904F156
:1023B0004800FEF7D5FED4F8801004F14800FFF77E
:1023C0008FF904F16400FEF7CBFED4F8801004F11D
:1023D0006400FFF785F900238DF800308DF8013097
:1023E0008DF802308DF8033020460099FFF7A8FEE3
:1023F0006A48FEF745FD002855D169492046FFF798
:1024000087FF42F2607001F0BBF9202383F311884B
:10241000644C00F0FDFCA669201DFFF769FE314603
:102420002346614A201D01F003FAFFF771FE5F4F5A
:102430005F4E002420238DF8054083F3118800F0BF
:10244000E7FC4FF0FF31384600F05AFF90B9D5F85D
:102450009030584803F10802C5F890201C685B686A
:102460000193554B9A4228BFC5F8905000F080FF69
:1024700000F01EFFFFF74CFE9DF8051001295AD011
:10248000022976D1336833B1013B33601BB94B4924
:102490003E48FFF73DFF4A4A1368002BC9D0013B75
:1024A00003D01360C5E74749A8E74FF00409DFF8F8
:1024B000EC80C2F80090D8F82C1071B14248FFF7B8
:1024C0000FFB012108F12800FFF762FE48B13F49E8
:1024D0002E48FFF71DFF092333600023C8F82C3076
:1024E000A7E7022108F12800FFF752FE08B138499A
:1024F000EEE7032108F12800FFF74AFE08B135494D
:10250000E6E7494608F12800FFF742FE08B13249E4
:10251000DEE7052108F12800FFF73AFE08B12F4950
:10252000D6E7062108F12800FFF732FE08B12C4952
:10253000CEE72C49CCE72C49206FFEF779FD014608
:1025400018B92046FFF71CFE0CE02849206FFEF763
:102550006FFD60B923680F4AD3F8048024490C4BFF
:102560002046C047236820461B68984761E706213C
:10257000E7E72048FFF7B4FA5BE700BF0038024006
:10258000F80B0020900A0020300D0020A80C00203D
:10259000604100086E41000878410008B008002042
:1025A000841300201C130020810F0008900C0020D1
:1025B000CC1200209C0C0020880C0020BA120020B5
:1025C000000800203C120020804100083C1300203D
:1025D000A8120020F81200206013002072130020BF
:1025E0000A1300204E130020884100088D41000886
:1025F000794100089541000800000000000000003B
:1026000038B504460D4600F08BFCD4F8AC30002BF6
:102610001EDD00F085FCD4F8AC3004F19800013BDD
:10262000C4F8AC30D4F8943003F10802C4F8942014
:102630002A681A606A685A60D4F8942004F19003FA
:102640009A4228BFC4F8944000F092FE002038BDA2
:10265000022038BD00000000000000000000000063
:1026600038B5044600F05CFC236913B1201DFFF768
:102670003FFD4FF0FF35E3691A78042AFDD8DFE803
:1026800002F0030A14253100236820469B6898470E
:102690000128F0D138BDD3F801100933E3610029D6
:1026A000E9D02046FFF784FD38BDD3F80130A26998
:1026B00003EBC3031344E36194F8293023B104F11D
:1026C00024011148FFF79CFF0121EAE794F8293023
:1026D00023B104F124010C48FFF792FF0023A3610A
:1026E000E36138BD226A013204BFD3F801202262BF
:1026F000226A1AB909332562E361BCE7A369013A8A
:10270000E3612262B7E700BFF80B00200000000081
:102710000E212DE9F043EE4B00240125FF2603276F
:10272000682299726321C3F81B40C3F81F401C70D4
:102730005A709D70DC701C715C719E71DC711C7232
:102740005D72DD721C735C739C73DC731C745C744F
:102750009C74DA741D755C759C75DC751C765C76F2
:102760009C76DF7683F8204083F8214083F822406E
:1027700083F82340D74B00201C705C709C70DC7089
:102780001C715E719C71DC711C725D729972DC72DD
:102790001C735C739C73DC731C745C749C74DC74BD
:1027A0001C755C759C75DC751C765C769C76DD769C
:1027B00019775C779C77DC7783F8204083F8214099
:1027C00083F8224083F8234083F8244083F825408F
:1027D00083F8264083F8274083F8284083F829604F
:1027E00083F82A4083F82B4083F82C4083F82D503F
:1027F00083F82E1083F82F4083F8304083F831405F
:1028000083F8324083F8334083F8344083F835400E
:1028100083F8364083F8374083F8384083F83940EE
:1028200083F83A4083F83B4083F83C4083F83D40CE
:1028300083F83E4083F83F5083F8401083F85210ED
:10284000002183F8414083F8424083F8434083F8F5
:10285000444083F8454083F8464083F8474083F876
:10286000484083F8494083F84A4083F84B4083F856
:102870004C4083F84D6083F84E4083F84F4083F816
:10288000504083F8515083F8534083F8544083F804
:10289000554083F8564083F8574083F8584083F8F2
:1028A000594083F85A4083F85B4083F85C4083F8D2
:1028B0005D4083F85E4083F85F4083F86040C3F872
:1028C0006740C3F8634083F8614083F8624083F84F
:1028D000637083F8684083F8694083F86A4083F83E
:1028E0006B407D4BA5B0C3F80D401C705A709D70B5
:1028F000DC701C715C719C71C3F80940DC711C7246
:102900005F729C73DC731C745C74744BEC461C70BB
:102910005A709D70DC701C715C719E71DC71C3F823
:102920000D40C3F809409C735F72DC731C741C7209
:102930005C746B4BDFF8D491C3F80D401C705A7077
:102940009D70DC701C715E719C71DC71C3F8094074
:102950001C725F729C73DC731C745C74614BDFF8D7
:10296000B0811C705A709D70DC701C715C719C7120
:10297000DE711C72C3F80D40C3F809409C735F728E
:10298000DC731C745C74584B0DF1480EC3F80D4099
:102990001C705A709D70DC701C715E719E71DC71D0
:1029A0001C72C3F809409C735F72DC731C745C7406
:1029B0004E4B1C705A709D70DC701C715E719C7166
:1029C000DE711C72C3F80940C3F80D405F729C733E
:1029D000DC731C745C74464BC3F80D40C3F80940AB
:1029E0001C705A709D70DC701C715C719E71DE7180
:1029F0001C725F729C73DC731C745C743D4B1C70A6
:102A00005A709D70DC701C715E719E71DE711C725B
:102A1000C3F80940C3F80D409C73DC735F721C74EB
:102A20005C74354B354AC3E90001C3F89030C3F8F4
:102A300094304FF4E1331360314B0921536003F5B7
:102A40004843936013610A239382922313624FF4E5
:102A500085539181042153622A4B9761D161DA60D9
:102A600003F11002C3F81024C3F81424264A83F893
:102A7000185402F12000C3F81C44C3F82044C3F8E2
:102A80002444C3F8284483F88F54C3F8FC4483F8E3
:102A90000045C3F80445C3F808451A60C3F890041C
:102AA00030320596CDF800808DF810408DF8114039
:102AB000ADF80450CDF808900391C3F89424BCE815
:102AC0000F00AEE80F009CE803008EE8030021E051
:102AD000841300203C120020BA1200203C13002076
:102AE000A8120020F81200206013002072130020AA
:102AF0000A1300204E130020F80B0020D0120020F3
:102B000000380140300D0020D8400008000400408B
:102B100000040240CDF8188009970B96ADF81C40D0
:102B2000CDF820908DF828408DF8294018AF0DF190
:102B3000180EBEE80F000FC79EE80300CDF83080E6
:102B400005234FF0020887E8030011968DF84040F6
:102B50008DF84140ADF83430CDF83890CDF83C8058
:102B60001EAE0CAF0FCF0FC697E8030086E8030038
:102B7000254E21462C22304601F0D2F84FF0FF3C82
:102B800006F130070DF1480EBEE80F000FC79EE8B2
:102B900003000DF1600E87E80300BEE80F0006F1A8
:102BA0004C070FC79EE803000DF1780E87E803007D
:102BB00006F16807C6F820C086F82940C6F82C90B0
:102BC000C6F84890C6F86490BEE80F000FC79EE8AC
:102BD00003000E4B0E4A33600E4B87E803001A6069
:102BE00042F20672C6F880C086F8844086F88540B6
:102BF00086F8864086F887409A6183F81C805D7766
:102C000025B0BDE8F08300BFA80C002028410008D3
:102C1000284000081C1300200000000000000000F5
:102C200070470000000000000000000000000000ED
:102C300070470000000000000000000000000000DD
:102C400070470000000000000000000000000000CD
:102C5000FEE700000000000000000000000000008F
:102C600070B500240B4B03F1800093E82600043973
:102C7000AA4206D3D9688A4208D310338342F4D3D8
:102C800070BD51F8046F42F8046BF1E742F8044B51
:102C9000F1E700BFB04100080000000000000000A4
:102CA00008B500F0BDFEBDE8084000F001B8000026
:102CB00000F056B800000000000000000000000016
:102CC00038B5074C0546E3689B0702D5054800F078
:102CD000C7FB0023656323610223E36038BD00BFA7
:102CE0000008014030420008000000000000000021
:102CF0000022014BDA60704700080140000000002C
:102D000038B5054C0546E268930702D4034800F045
:102D1000A7FB656338BD00BF0008014040420008C2
:102D200010B500F0CDF80B4B1A6992070CD50024B2
:102D30001C61202383F3118800F092F800F0A0FBBF
:102D400000F0A6F884F3118800F0D2F8BDE8104036
:102D500000F03EBE0008014000000000000000003E
:102D6000134B08211A6A192042F004021A62DA6A27
:102D700042F00402DA620F4ADB6A936843F002030E
:102D800093600D4B5A6842F21073B2FBF3F20B4B97
:102D9000013A9A624FF6FF72DA6200229A615A6330
:102DA000DA605A6001225A611A6000F009B800BF67
:102DB00000380240002004E0900A00200008014092
:102DC00000F16043090103F56143C9B283F80013C0
:102DD000012300F01F024009800000F16040934091
:102DE00000F56140C0F880310360704700000000CA
:102DF000044B1A6B0AB95B6B13B1034800F030BB8C
:102E0000704700BFF413002050420008000000008B
:102E100010B5054C236B0BB9636B13B1034800F07D
:102E20001FFB0123636310BDF413002080420008E0
:102E300010B5064C236B13B9636B002B02DC0448FE
:102E400000F00EFB0023636310BD00BFF4130020ED
:102E5000A042000800000000000000000000000088
:102E600010B5064C236B002B01DD636B13B10448D6
:102E700000F0F6FA0123636310BD00BFF4130020D5
:102E80009042000800000000000000000000000068
:102E900010B5064C236B002B02DD636B002B02DCAC
:102EA000034800F0DDFA0023636310BDF413002033
:102EB000B042000800000000000000000000000018
:102EC00010B5202383F31188074C236B002B01DB03
:102ED000636B13B1054800F0C3FA236B013323631E
:102EE000002383F3118810BDF41300206042000812
:102EF00010B5202383F31188074C236B002B01DDD1
:102F0000636B13B1054800F0ABFA236B013B2363FD
:102F1000002383F3118810BDF413002070420008D1
:102F2000054B1A6B002A02DB5B6B002B02DC0348AB
:102F300000F096BA704700BFF4130020C0420008AA
:102F4000044B1A6B12B95B6B002B02DC024800F0D9
:102F500087BA7047F4130020D04200080000000038
:102F600008B5FFF765FF084B1A689A4207D09B69BE
:102F700099689368994202D2044800F071FA0023DC
:102F800083F3118808BD00BFF4130020E04200085D
:102F900010B5202383F31188FFF73AFF024B1C6919
:102FA000FFF7DEFF204610BDF413002000000000F4
:102FB00010B52023044683F31188FFF729FF044B43
:102FC00024699C4208BF0024FFF7CAFF204610BDB9
:102FD000F4130020000000000000000000000000CA
:102FE00010B50446FFF7D4FFC3699C4203D0FFF736
:102FF000DFFF0028F8D110BD000000000000000035
:103000000022034B1B605B609A601B615B61704731
:10301000F413002000000000000000000000000089
:1030200010B50446FFF77CFF14B90D4800F018FAFC
:1030300094F820300BB10F2B02D1094800F010FAA0
:103040000023A26884F82030064B1B6899689142DF
:10305000FBD25A6823606260204614605C6010BD39
:1030600010430008F41300200000000000000000DE
:1030700038B50446202383F31188FFF7F1FE94F856
:1030800020300025052B0BD8DFE803F0030A0A08DF
:103090001C16FFF7FDFE85F3118838BD636A1D60BD
:1030A0004FF0FF3320466362FFF7BAFFFFF7F0FEF1
:1030B000002383F3118838BD656AFFF731FFAB68E1
:1030C0000133AB6094E80C001A6022685360E7E7B4
:1030D00010B50446FFF724FF14B90D4800F0C0F9FD
:1030E00094F820300BB10F2B02D1094800F0B8F949
:1030F0000023A26884F82030064B1B68996891422F
:10310000FBD85A6823606260204614605C6010BD82
:1031100020430008F413002000000000000000001D
:1031200070B506460E4CA569FFF70AFF236885F8BF
:1031300020601A68546022600122A36183F8202075
:10314000EFF30983EA69243B9A4202D9054800F06B
:1031500087F92946A069BDE87040FDF721B800BF96
:10316000F41300205043000800000000000000009D
:1031700070B50E4686B00546FFF7E2FE731C0D4C97
:1031800013D0A3690C4A314601A800F051FB284630
:10319000FFF7C6FFFFF7C4FE049B13B101A800F0C0
:1031A000AFFBA369586A06B070BD2846FFF7B8FFA9
:1031B000F7E700BFF41300207130000800000000A2
:1031C000F8B5194C05460F46A669FFF7B9FE236806
:1031D000A34207D0A2699B6892689A4202D2134820
:1031E00000F03EF96F62AA68B3689A4204D8284694
:1031F000BDE8F840FFF714BF3046FFF711FF012389
:103200000646A56185F82030EFF30983C269243BA7
:103210009A4202D9064800F023F931462846BDE813
:10322000F840FCF7BDBF00BFF41300204043000886
:1032300050430008000000000000000000000000F3
:10324000044B1A689B6990689B68984294BF002061
:1032500001207047F413002000000000000000006F
:1032600038B50E4C2368A0691A68546022600122A8
:1032700083F82020A361FFF72BFF0546EFF30983B6
:10328000C269243B9A4202D9054800F0E9F8294670
:10329000A069BDE83840FCF783BF00BFF4130020ED
:1032A0005043000800000000000000000000000083
:1032B00008B5FFF745FEFFF733FE064B1A689B691A
:1032C00092689B689A4203D9BDE80840FFF7C8BFDF
:1032D00008BD00BFF4130020000000000000000043
:1032E00038B50D46044608B1002902DA034800F05B
:1032F000B7F824606460A56038BD00BF6043000873
:1033000038B504460D46FFF71BFE14B9144800F00B
:10331000A7F8A368002B23680BDB9C420BD1A368A2
:103320005A1E002AA26018DA4DB9A3604FF0FF3090
:1033300038BD9C42F3D10A4800F092F8EFE7094B00
:1033400029469B6905205C6262681C605A601360B4
:103350006360BDE83840FFF70BBF002038BD00BFF9
:1033600070430008F413002000000000000000007B
:1033700010B50446FFF7D4FD14B90F4800F070F8FB
:10338000A368002B236810DB9C4210D1A368013393
:10339000002BA3600FDC2068036823605C600023BF
:1033A0004362BDE81040FFF73BBE9C42EED10248AD
:1033B00000F056F8EAE710BD904300080000000056
:1033C000FEE7000000000000000000000000000018
:1033D00038B500251A4CFFF713FE00F019FA8022C9
:1033E000184904F138002563656300F0E1F8164BD5
:1033F000164AC361012380F82030154BA061D968BB
:1034000021F4E0610904090C0A431249DA60CA6830
:1034100042F08072CA6010490A6842F001020A60F4
:103420001022DA77202283F82220FFF7E1FC85F3CF
:10343000118862B6BDE83840084800F011B900BFF5
:10344000F4130020F0420008000400200003FA05F5
:1034500000ED00E0F0ED00E0001000E0D0430008D7
:1034600008B5014672B6034BD8620348FEF758FB15
:10347000FEE700BFF4130020C04300080000000076
:103480002DE9F84F4FF000092A4DFFF749FD2A4F6B
:10349000FFF746FDEC6905F11C087B6A2E8D9BB297
:1034A0009E1BA268B6B2964221D34FF0200AA268B2
:1034B0002B8DD4F80CB013442B852368B61A4345E2
:1034C000C3F80480EB61C4F80C9001D1FFF710FC45
:1034D000FFF7DEFC89F311882069D8478AF3118849
:1034E000FFF7BEFCEC69A3689E42E0D2D5E7EA692B
:1034F00042451CD091682B858E1B9660A468B4F55C
:10350000803F02D30D48FFF7ABFF022C2CBF1B19E5
:1035100002339CB22046FFF7F3FB2A8D7B6AA41A84
:103520009B1A9BB2A4B2A34201D90548EBE7BDE8C0
:10353000F88F00BFF413002000080140A0430008EA
:10354000B043000800000000000000000000000080
:10355000202383F31188FFF75BBC0000000000000C
:1035600008B5FFF765FC084B1A689A4207D09B69BB
:1035700099689368994202D20448FFF771FF0023CB
:1035800083F3118808BD00BFF41300200044000835
:1035900010B5044610B90448FFF762FF2146BDE8A4
:1035A00010400820FFF7E4BD1044000800000000B0
:1035B0008260022280F82020002280F8212001224F
:1035C00080F82220034A81615169026141610861EA
:1035D00050617047F413002000000000000000005C
:1035E00010B50446FFF79CFC14B91848FFF738FFE4
:1035F0006268500707D1A368590704D19A4202D2E2
:103600009B1AAF2B02D81148FFF72AFFE368FF2B64
:1036100001D8236913B90D48FFF722FFA06863683A
:10362000E26840F80C3CA0F14C0340F81C3C2369D4
:10363000216840F84C3C6369283840F8203C044B32
:10364000BDE8104040F8043CFFF7B2BF204400083A
:10365000B1010008000000000000000000000000B0
:1036600010B504464068FFF7BBFC10B10B48FFF7EC
:10367000F7FE5521A26863689A420CD8FFF768FFED
:103680002046FFF7ADFF04460021FFF799FDFFF745
:1036900067FF204610BD03F8011BEDE7404400081A
:1036A000F8B50C4616461F46054640B1420706D1FE
:1036B000AF2904D94B0702D1FF2E00D817B91748FC
:1036C000FFF7CEFE2846FFF78BFC10B11348FFF73B
:1036D000C7FE2B4655212A199A421CD8FFF738FFFE
:1036E000A4F128002844A0F12403C360069B3246BD
:1036F00040F8203C0A4BC56140F8043C40F8247C6B
:103700000849FFF755FF04460021FFF759FDFFF771
:1037100027FF2046F8BD03F8011BDDE750440008F1
:10372000B1010008B04400080000000000000000E3
:1037300008B5094B9B6993F82220586222B95A694F
:10374000196911611B695A610F20FFF7E9FCBDE897
:1037500008400248FFF784BEF413002070440008BC
:1037600010B50446FFF7F4FE2046BDE81040FFF711
:10377000DFBF0000000000000000000000000000AB
:1037800010B50446FFF7E4FE2046FFF701FFBDE851
:103790001040FFF7E5BE0000000000000000000040
:1037A0000A4B70B59E69036804460D4613B108487C
:1037B000FFF756FE3DB1266074622946BDE87040B1
:1037C0000320FFF7D5BC4FF0FF3070BDF41300208D
:1037D000804400080000000000000000000000001D
:1037E00070B5046805460E4674B194F82030032B7A
:1037F00002D00648FFF734FE00232B6066622046A5
:10380000BDE87040FFF70CBC70BD00BFA0440008CD
:10381000054B03F11C02DA611A624FF0FF325A6263
:1038200000221A85704700BFF4130020000000003A
:103830002DE9F04106460C4615461F46FFF770FB82
:103840000EB105B114B92A48FFF70AFE294BF560FD
:10385000586A294B022C1A4652F81C5F214638BF81
:1038600002219542376180B21F4610D14FF6FF7496
:103870001885A14294BF40180019DE611E6280B213
:1038800035607560B160BDE8F041FFF719BA1B8D76
:10389000AA68C41AA4B2641814D32D68A41ADFF855
:1038A0005080AB689C4219D86B68356073601E60AD
:1038B0004FF0FF336E60B460A868041BAC607B629D
:1038C000BDE8F0819442EAD24FF6FF70844294BF83
:1038D0001819181880B2FFF713FAE0E7B54202D1C1
:1038E0004046FFF7BDFDAB682D68E41AD9E700BF7D
:1038F000D044000800080140F4130020000000003C
:1039000038B50446FFF70CFB14B92448FFF7A8FDAF
:10391000E36813B92148FFF7A3FD21490A4652F88D
:103920001C3F9C4223680CD061680B60236859607F
:1039300000219342E16030D09A68A1680A449A60FD
:1039400038BD00209342CB615A60E06003D1BDE8EE
:103950003840FFF7CDB99868A2680D8D1044986083
:10396000104B5C6A641BA4B2A04216D9031B012B46
:1039700009D80234B4F5803F0BD2281980B2BDE8D3
:103980003840FFF7BDB94FF6FF74844228BF0446A4
:10399000F3E70548FFF764FDEFE738BDE0440008B2
:1039A000F413002000080140C0440008000000009B
:1039B000EFF30983203383F30988002383F311880D
:1039C0007047000000000000000000000000000040
:1039D00010B5202383F311880D4B5B6813F400634B
:1039E00012D0EFF309844FF0807344F8043CA4F143
:1039F000200383F30988FFF723FC18B1054B44F833
:103A0000083C10BD044BFAE783F3118810BD00BFDA
:103A100000ED00E0C5010008D00100080000000032
:103A200008B51A4B1A6942F07F4242F47F0242F411
:103A3000FF4242F040021A611A6922F4FF4222F06A
:103A400040021204120C1A611A699A6962F08052DB
:103A50009A619A6902F080529A619A695A694FF0A4
:103A6000FF325A615A6900225A615A695A6A42F011
:103A700080525A621A6B42F080521A631B6B00F03C
:103A80001FF8BDE8084000F043B900BF003802400D
:103A900008B5FFF7CDF9084B1A689A4207D09B6921
:103AA00099689368994202D20448FFF7D9FC002331
:103AB00083F3118808BD00BFF4130020F044000810
:103AC00000230122094910B5094C0B604B6004EB3F
:103AD000021050F80C0C036041F832300132082A11
:103AE000F5D14FF0FF32034B5A6010BDA8130020F0
:103AF00010450008006002400000000000000000C7
:103B00002DE9F0470446884617461E46FFF708FA97
:103B1000062C42D92548FFF7A3FC0121244D2A6831
:103B200001FA04F919EA020F04F1010337D145F84B
:103B3000337005EBC3035E6049EA02021D4B2A6045
:103B4000DA691D4942F08072DA619A6A240142F012
:103B500080729A6201EB040A9B6A0E466FB16A6832
:103B6000DAF808301A4204D141469AF80F00FFF7FC
:103B700027F96B6843EA09036B6031194B68497B8D
:103B80001A68305922F00F021A600E228A404260F1
:103B900000221A605046BDE8F087A246BDE79A456C
:103BA0001C46BDD24FF0000AF4E700BF00450008F4
:103BB000A813002000380240104500080000000053
:103BC000F8B51F4604460D461646202383F3118898
:103BD000FFF71EF93B46324629462046FFF790FF85
:103BE0000446FFF755FF2046F8BD00000000000026
:103BF00010B40468437B21684268D940126801F020
:103C00000E0111420ED0827B01FA03F36360064B72
:103C1000013253F832402CB103EBC20358682346FB
:103C200010BC184710BC7047A8130020000000000B
:103C300008B5FFF745F90448FFF7DAFFFFF758F931
:103C4000BDE80840FFF7C4BE1045000800000000B2
:103C500008B5FFF735F90448FFF7CAFFFFF748F941
:103C6000BDE80840FFF7B4BE204500080000000092
:103C700008B5FFF725F90448FFF7BAFFFFF738F951
:103C8000BDE80840FFF7A4BE304500080000000072
:103C900008B5FFF715F90448FFF7AAFFFFF728F961
:103CA000BDE80840FFF794BE404500080000000052
:103CB00008B5FFF705F90448FFF79AFFFFF718F971
:103CC000BDE80840FFF784BE504500080000000032
:103CD00008B5FFF7F5F80448FFF78AFFFFF708F982
:103CE000BDE80840FFF774BE604500080000000012
:103CF00008B5FFF7E5F80448FFF77AFFFFF7F8F893
:103D0000BDE80840FFF764BE7045000800000000F1
:103D100070470000000000000000000000000000EC
:103D200003460244934200D1704703F8011BF9E7B0
:103D300070B5CD1C25F0030508350C2D38BF0C25BA
:103D4000002D064601DBA94203D90C233360002075
:103D500070BD00F0C5F8234A1468214691B9224C81
:103D600023681BB9304600F043F8206029463046EE
:103D700000F03EF8431C26D10C233046336000F09F
:103D8000B7F8E4E70B685B1B1AD40B2B0FD90B6059
:103D9000CC18CD50304600F0ABF804F10B00231DD9
:103DA00020F00700C31A1BD05A42E25070BD8C426B
:103DB0000BBF63684B681360636018BF0C46E9E78C
:103DC0000C464968CAE7C41C24F00304A04205D08D
:103DD000211A304600F00CF80130CDD02560D9E72B
:103DE00070BD00BFE8130020EC13002000000000AD
:103DF00038B50023054C05460846236000F080F8DE
:103E0000431C02D1236803B12B6038BD1815002074
:103E1000134B2DE9F0411D680646AC6D0F46B4B951
:103E2000502000F055F8A865046044608460C460C8
:103E30000461446184618462C46204634463846392
:103E4000C463046444648464C46404774462AA6DF3
:103E500039463046BDE8F041012300F009B800BF03
:103E60000408002000000000000000000000000026
:103E7000F0B518B9106808B9F0BD204604460F46E1
:103E800014F8015B17F8016B1EB965B91560284677
:103E9000F0BDB542F6D1002BEFD114600370F0BD38
:103EA0001C460CE015B90E4614F8013B16F8015BF0
:103EB000AB42F7D1002BF3D0002304F8013C14608F
:103EC000F0BD000000000000000000000000000045
:103ED000024B01461868FFF72BBF00BF0408002003
:103EE000704700000000000000000000000000001B
:103EF000704700000000000000000000000000000B
:103F0000044B0246196809B903491960186802444C
:103F10001A607047F01300201C15002000000000FC
:103F2000030406080C1018203000000000000000F8
:103F30000001020304060708090000000000000059
:103F4000434320527374204661696C0D0043432043
:103F500057204661696C0D00434320522F5720467D
:103F600061696C3B2072706C3D25750D00434320E8
:103F700052204661696C0D00434320696E697420CC
:103F80006F6B0D000000000000000000000000004A
:103F90006368537973556E6C6F636B0000000000AB
:103FA0000000000000000000610D0008000000009B
:103FB000724C766C310063683D25753B20527373FB
:103FC000693D25643B2049443D25750D00000000F6
:103FD0000D486172644661756C740D00000000004C
:103FE000556E68616E646C65642025530D00000099
:103FF000414842467265713D25754D487A3B2041E6
:10400000504231467265713D25754D487A3B2041DD
:10401000504232467265713D25754D487A0D00005B
:104020000000000000000000A10F000800000000D8
:10403000566563746F7235380000000000000000A0
:10404000566563746F723543000000000000000085
:10405000566563746F723630000000000000000087
:10406000566563746F723634000000000000000073
:10407000566563746F72363800000000000000005F
:10408000566563746F723943000000000000000041
:10409000566563746F724530000000000000000038
:1040A0006368537973556E6C6F636B00000000009A
:1040B000556172745278000000000000000000009A
:1040C000202C0000000000000000000000000000A4
:1040D0000000000000000000411B0008111E000845
:1040E000A11D0008C11D0008B11B0008A120000887
:1040F00070FBFFFF00000000A51D0008C51D0008A3
:104100006CFBFFFF00000000A5200008CF1B00088B
:104110006368537973556E6C6F636B000000000029
:10412000000000000000000061260008B120000827
:10413000F1210008412100080000000000000000FB
:1041400041636B2025640D0A0000000000000000A0
:104150006368537973556E6C6F636B0000000000E9
:1041600032303139303732385F31393239004D61D0
:1041700067696350617468000D25532025530D0055
:10418000436E743D25750D0050696E67005665726B
:1041900073696F6E00556E68616E646C6564204D66
:1041A00073672025750D000000000000000000006E
:1041B000584600081C1500201C1500201C15002066
:1041C0005846000800000000000000000000000049
:1041D0005846000800000000000000000000000039
:1041E0005846000800000000000000000000000029
:1041F0005846000800000000000000000000000019
:104200005846000800000000000000000000000008
:1042100058460008000000000000000000000000F8
:1042200058460008000000000000000000000000E8
:1042300073745374617274416C61726D000000009C
:104240007374536574416C61726D0000000000006E
:10425000535623330000000000000000000000005F
:10426000535623380000000000000000000000004A
:104270005356233900000000000000000000000039
:10428000535623340000000000000000000000002E
:10429000535623360000000000000000000000001C
:1042A000535623350000000000000000000000000D
:1042B00053562337000000000000000000000000FB
:1042C00053562331300000000000000000000000C1
:1042D00053562331310000000000000000000000B0
:1042E0006368537973556E6C6F636B000000000058
:1042F0006D61696E00160030040228080C10141855
:104300001C20210000000000000000000000000050
:104310006368536368526561647949000000000076
:104320006368536368526561647941686561644993
:10433000000000000000000000000000000000007D
:10434000636853636857616B6575705300000000C4
:10435000737461636B206F766572666C6F770000B3
:10436000636853656D4F626A656374496E69740072
:10437000636853656D5761697454696D656F7574D1
:1043800053000000000000000000000000000000DA
:10439000636853656D5369676E616C490000000086
:1043A000636854696D654164645800000000000052
:1043B00063685654446F5469636B49000000000001
:1043C0000D0A48616C743A2025530D0A0000000064
:1043D000F0430008581400201815002001000000C8
:1043E000C1330008000000000000000000000000D1
:1043F00069646C650000000000000000000000001F
:104400006368537973556E6C6F636B000000000036
:104410006368546864536C65657053000000000065
:10442000636854686443726561746553757370653D
:104430006E64656449000000000000000000000098
:10444000636854686443726561746500000000002D
:104450006368546864437265617465537461746918
:1044600063000000000000000000000000000000E9
:104470006368546864457869745300000000000064
:10448000636854686453757370656E6454696D65D0
:104490006F75745300000000000000000000000071
:1044A0006368546864526573756D65490000000067
:1044B0006E6F6E616D65000000000000000000007E
:1044C000636854696D654164645800000000000031
:1044D00063685654446F536574490000000000003F
:1044E00063685654446F5265736574490000000058
:1044F0006368537973556E6C6F636B000000000046
:10450000646D6153747265616D416C6C6F634900D9
:104510000060024008600240010000000000000B43
:10452000006002401C600240020000000004010C18
:104530000060024030600240040000000008020DEC
:10454000006002404460024008000000000C030EBE
:104550000060024058600240100000000010040F8C
:10456000006002406C600240200000000014051052
:104570000060024080600240400000000018061108
:10458000000000000000000000000000000000002B
:10459000000000000000000000000000000000001B
:1045A000000000000000000000000000000000000B
:1045B00000000000000000000000000000000000FB
:1045C00000000000000000000000000000000000EB
:1045D00000000000000000000000000000000000DB
:0445E000F8B500BF6B
:0445E400F8B500BF67
:0845E80008BDFF7F0100000087
:1045F000040000000808002000000000A04500089A
:10460000C0450008804500080000000000000000D0
:10461000000000000000000000000000000000009A
:10462000000000000000000000000000000000008A
:10463000000000000000000000000000000000007A
:10464000000000000000000000000000000000006A
:08465000000000000000000062
:04000005080001915D
:00000001FF
